{
	"contracts/Learning Solidity/1. MyFirstSmartcontract.sol": {
		"MyFirstSmartcontract": {
			"abi": [
				{
					"inputs": [],
					"name": "getVal",
					"outputs": [
						{
							"internalType": "uint256",
							"name": "",
							"type": "uint256"
						}
					],
					"stateMutability": "view",
					"type": "function"
				},
				{
					"inputs": [
						{
							"internalType": "uint256",
							"name": "newVal",
							"type": "uint256"
						}
					],
					"name": "setVal",
					"outputs": [],
					"stateMutability": "nonpayable",
					"type": "function"
				}
			],
			"devdoc": {
				"kind": "dev",
				"methods": {},
				"version": 1
			},
			"evm": {
				"assembly": "    /* \"contracts/Learning Solidity/1. MyFirstSmartcontract.sol\":34:245  contract MyFirstSmartcontract {... */\n  mstore(0x40, 0x80)\n  callvalue\n  dup1\n  iszero\n  tag_1\n  jumpi\n  0x00\n  dup1\n  revert\ntag_1:\n  pop\n  dataSize(sub_0)\n  dup1\n  dataOffset(sub_0)\n  0x00\n  codecopy\n  0x00\n  return\nstop\n\nsub_0: assembly {\n        /* \"contracts/Learning Solidity/1. MyFirstSmartcontract.sol\":34:245  contract MyFirstSmartcontract {... */\n      mstore(0x40, 0x80)\n      callvalue\n      dup1\n      iszero\n      tag_1\n      jumpi\n      0x00\n      dup1\n      revert\n    tag_1:\n      pop\n      jumpi(tag_2, lt(calldatasize, 0x04))\n      shr(0xe0, calldataload(0x00))\n      dup1\n      0x3d4197f0\n      eq\n      tag_3\n      jumpi\n      dup1\n      0xe1cb0e52\n      eq\n      tag_4\n      jumpi\n    tag_2:\n      0x00\n      dup1\n      revert\n        /* \"contracts/Learning Solidity/1. MyFirstSmartcontract.sol\":93:161  function setVal(uint256 newVal) public {... */\n    tag_3:\n      tag_5\n      0x04\n      dup1\n      calldatasize\n      sub\n      0x20\n      dup2\n      lt\n      iszero\n      tag_6\n      jumpi\n      0x00\n      dup1\n      revert\n    tag_6:\n      dup2\n      add\n      swap1\n      dup1\n      dup1\n      calldataload\n      swap1\n      0x20\n      add\n      swap1\n      swap3\n      swap2\n      swap1\n      pop\n      pop\n      pop\n      tag_7\n      jump\t// in\n    tag_5:\n      stop\n        /* \"contracts/Learning Solidity/1. MyFirstSmartcontract.sol\":167:242  function getVal() view public returns (uint256) {... */\n    tag_4:\n      tag_8\n      tag_9\n      jump\t// in\n    tag_8:\n      mload(0x40)\n      dup1\n      dup3\n      dup2\n      mstore\n      0x20\n      add\n      swap2\n      pop\n      pop\n      mload(0x40)\n      dup1\n      swap2\n      sub\n      swap1\n      return\n        /* \"contracts/Learning Solidity/1. MyFirstSmartcontract.sol\":93:161  function setVal(uint256 newVal) public {... */\n    tag_7:\n        /* \"contracts/Learning Solidity/1. MyFirstSmartcontract.sol\":148:154  newVal */\n      dup1\n        /* \"contracts/Learning Solidity/1. MyFirstSmartcontract.sol\":142:145  val */\n      0x00\n        /* \"contracts/Learning Solidity/1. MyFirstSmartcontract.sol\":142:154  val = newVal */\n      dup2\n      swap1\n      sstore\n      pop\n        /* \"contracts/Learning Solidity/1. MyFirstSmartcontract.sol\":93:161  function setVal(uint256 newVal) public {... */\n      pop\n      jump\t// out\n        /* \"contracts/Learning Solidity/1. MyFirstSmartcontract.sol\":167:242  function getVal() view public returns (uint256) {... */\n    tag_9:\n        /* \"contracts/Learning Solidity/1. MyFirstSmartcontract.sol\":206:213  uint256 */\n      0x00\n        /* \"contracts/Learning Solidity/1. MyFirstSmartcontract.sol\":232:235  val */\n      dup1\n      sload\n        /* \"contracts/Learning Solidity/1. MyFirstSmartcontract.sol\":225:235  return val */\n      swap1\n      pop\n        /* \"contracts/Learning Solidity/1. MyFirstSmartcontract.sol\":167:242  function getVal() view public returns (uint256) {... */\n      swap1\n      jump\t// out\n\n    auxdata: 0xa2646970667358221220957b29af989dff273f5d5c53800d4a573d58bb91ffa1ae4209b80ad300f37ddb64736f6c634300060c0033\n}\n",
				"bytecode": {
					"linkReferences": {},
					"object": "608060405234801561001057600080fd5b5060c78061001f6000396000f3fe6080604052348015600f57600080fd5b506004361060325760003560e01c80633d4197f0146037578063e1cb0e52146062575b600080fd5b606060048036036020811015604b57600080fd5b8101908080359060200190929190505050607e565b005b60686088565b6040518082815260200191505060405180910390f35b8060008190555050565b6000805490509056fea2646970667358221220957b29af989dff273f5d5c53800d4a573d58bb91ffa1ae4209b80ad300f37ddb64736f6c634300060c0033",
					"opcodes": "PUSH1 0x80 PUSH1 0x40 MSTORE CALLVALUE DUP1 ISZERO PUSH2 0x10 JUMPI PUSH1 0x0 DUP1 REVERT JUMPDEST POP PUSH1 0xC7 DUP1 PUSH2 0x1F PUSH1 0x0 CODECOPY PUSH1 0x0 RETURN INVALID PUSH1 0x80 PUSH1 0x40 MSTORE CALLVALUE DUP1 ISZERO PUSH1 0xF JUMPI PUSH1 0x0 DUP1 REVERT JUMPDEST POP PUSH1 0x4 CALLDATASIZE LT PUSH1 0x32 JUMPI PUSH1 0x0 CALLDATALOAD PUSH1 0xE0 SHR DUP1 PUSH4 0x3D4197F0 EQ PUSH1 0x37 JUMPI DUP1 PUSH4 0xE1CB0E52 EQ PUSH1 0x62 JUMPI JUMPDEST PUSH1 0x0 DUP1 REVERT JUMPDEST PUSH1 0x60 PUSH1 0x4 DUP1 CALLDATASIZE SUB PUSH1 0x20 DUP2 LT ISZERO PUSH1 0x4B JUMPI PUSH1 0x0 DUP1 REVERT JUMPDEST DUP2 ADD SWAP1 DUP1 DUP1 CALLDATALOAD SWAP1 PUSH1 0x20 ADD SWAP1 SWAP3 SWAP2 SWAP1 POP POP POP PUSH1 0x7E JUMP JUMPDEST STOP JUMPDEST PUSH1 0x68 PUSH1 0x88 JUMP JUMPDEST PUSH1 0x40 MLOAD DUP1 DUP3 DUP2 MSTORE PUSH1 0x20 ADD SWAP2 POP POP PUSH1 0x40 MLOAD DUP1 SWAP2 SUB SWAP1 RETURN JUMPDEST DUP1 PUSH1 0x0 DUP2 SWAP1 SSTORE POP POP JUMP JUMPDEST PUSH1 0x0 DUP1 SLOAD SWAP1 POP SWAP1 JUMP INVALID LOG2 PUSH5 0x6970667358 0x22 SLT KECCAK256 SWAP6 PUSH28 0x29AF989DFF273F5D5C53800D4A573D58BB91FFA1AE4209B80AD300F3 PUSH30 0xDB64736F6C634300060C0033000000000000000000000000000000000000 "
				},
				"gasEstimates": {
					"creation": {
						"codeDepositCost": "39800",
						"executionCost": "93",
						"totalCost": "39893"
					},
					"external": {
						"getVal()": "1013",
						"setVal(uint256)": "20220"
					}
				},
				"methodIdentifiers": {
					"getVal()": "e1cb0e52",
					"setVal(uint256)": "3d4197f0"
				}
			},
			"storageLayout": {
				"storage": [
					{
						"astId": 2,
						"contract": "contracts/Learning Solidity/1. MyFirstSmartcontract.sol:MyFirstSmartcontract",
						"label": "val",
						"offset": 0,
						"slot": "0",
						"type": "t_uint256"
					}
				],
				"types": {
					"t_uint256": {
						"encoding": "inplace",
						"label": "uint256",
						"numberOfBytes": "32"
					}
				}
			},
			"userdoc": {
				"kind": "user",
				"methods": {},
				"version": 1
			}
		}
	}
}