{
	"contracts/Learning Solidity/Bank.sol": {
		"MyFirstSmartcontract": {
			"abi": [
				{
					"inputs": [
						{
							"internalType": "string",
							"name": "name",
							"type": "string"
						},
						{
							"internalType": "uint256",
							"name": "balance",
							"type": "uint256"
						},
						{
							"internalType": "address",
							"name": "ethAddress",
							"type": "address"
						}
					],
					"name": "addCustomer",
					"outputs": [],
					"stateMutability": "nonpayable",
					"type": "function"
				},
				{
					"inputs": [
						{
							"internalType": "string",
							"name": "name",
							"type": "string"
						}
					],
					"name": "getCustomerAddress",
					"outputs": [
						{
							"internalType": "address",
							"name": "",
							"type": "address"
						}
					],
					"stateMutability": "nonpayable",
					"type": "function"
				},
				{
					"inputs": [
						{
							"internalType": "string",
							"name": "name",
							"type": "string"
						}
					],
					"name": "getCustomerBalance",
					"outputs": [
						{
							"internalType": "uint256",
							"name": "",
							"type": "uint256"
						}
					],
					"stateMutability": "nonpayable",
					"type": "function"
				}
			],
			"devdoc": {
				"kind": "dev",
				"methods": {},
				"version": 1
			},
			"evm": {
				"assembly": "    /* \"contracts/Learning Solidity/Bank.sol\":57:656  contract MyFirstSmartcontract {... */\n  mstore(0x40, 0x80)\n  callvalue\n  dup1\n  iszero\n  tag_1\n  jumpi\n  0x00\n  dup1\n  revert\ntag_1:\n  pop\n  dataSize(sub_0)\n  dup1\n  dataOffset(sub_0)\n  0x00\n  codecopy\n  0x00\n  return\nstop\n\nsub_0: assembly {\n        /* \"contracts/Learning Solidity/Bank.sol\":57:656  contract MyFirstSmartcontract {... */\n      mstore(0x40, 0x80)\n      callvalue\n      dup1\n      iszero\n      tag_1\n      jumpi\n      0x00\n      dup1\n      revert\n    tag_1:\n      pop\n      jumpi(tag_2, lt(calldatasize, 0x04))\n      shr(0xe0, calldataload(0x00))\n      dup1\n      0x28714348\n      eq\n      tag_3\n      jumpi\n      dup1\n      0xe65c9e75\n      eq\n      tag_4\n      jumpi\n      dup1\n      0xece9a4e9\n      eq\n      tag_5\n      jumpi\n    tag_2:\n      0x00\n      dup1\n      revert\n        /* \"contracts/Learning Solidity/Bank.sol\":531:653  function getCustomerAddress(string memory name) public returns(address) {... */\n    tag_3:\n      tag_6\n      0x04\n      dup1\n      calldatasize\n      sub\n      dup2\n      add\n      swap1\n      tag_7\n      swap2\n      swap1\n      tag_8\n      jump\t// in\n    tag_7:\n      tag_9\n      jump\t// in\n    tag_6:\n      mload(0x40)\n      tag_10\n      swap2\n      swap1\n      tag_11\n      jump\t// in\n    tag_10:\n      mload(0x40)\n      dup1\n      swap2\n      sub\n      swap1\n      return\n        /* \"contracts/Learning Solidity/Bank.sol\":245:400  function addCustomer(string memory name, uint256 balance, address ethAddress) public {... */\n    tag_4:\n      tag_12\n      0x04\n      dup1\n      calldatasize\n      sub\n      dup2\n      add\n      swap1\n      tag_13\n      swap2\n      swap1\n      tag_14\n      jump\t// in\n    tag_13:\n      tag_15\n      jump\t// in\n    tag_12:\n      stop\n        /* \"contracts/Learning Solidity/Bank.sol\":406:525  function getCustomerBalance(string memory name) public returns(uint256) {... */\n    tag_5:\n      tag_16\n      0x04\n      dup1\n      calldatasize\n      sub\n      dup2\n      add\n      swap1\n      tag_17\n      swap2\n      swap1\n      tag_8\n      jump\t// in\n    tag_17:\n      tag_18\n      jump\t// in\n    tag_16:\n      mload(0x40)\n      tag_19\n      swap2\n      swap1\n      tag_20\n      jump\t// in\n    tag_19:\n      mload(0x40)\n      dup1\n      swap2\n      sub\n      swap1\n      return\n        /* \"contracts/Learning Solidity/Bank.sol\":531:653  function getCustomerAddress(string memory name) public returns(address) {... */\n    tag_9:\n        /* \"contracts/Learning Solidity/Bank.sol\":594:601  address */\n      0x00\n        /* \"contracts/Learning Solidity/Bank.sol\":620:629  customers */\n      dup1\n        /* \"contracts/Learning Solidity/Bank.sol\":630:634  name */\n      dup3\n        /* \"contracts/Learning Solidity/Bank.sol\":620:635  customers[name] */\n      mload(0x40)\n      tag_22\n      swap2\n      swap1\n      tag_23\n      jump\t// in\n    tag_22:\n      swap1\n      dup2\n      mstore\n      0x20\n      add\n      mload(0x40)\n      dup1\n      swap2\n      sub\n      swap1\n      keccak256\n        /* \"contracts/Learning Solidity/Bank.sol\":620:646  customers[name].ethAddress */\n      0x02\n      add\n      0x00\n      swap1\n      sload\n      swap1\n      0x0100\n      exp\n      swap1\n      div\n      0xffffffffffffffffffffffffffffffffffffffff\n      and\n        /* \"contracts/Learning Solidity/Bank.sol\":613:646  return customers[name].ethAddress */\n      swap1\n      pop\n        /* \"contracts/Learning Solidity/Bank.sol\":531:653  function getCustomerAddress(string memory name) public returns(address) {... */\n      swap2\n      swap1\n      pop\n      jump\t// out\n        /* \"contracts/Learning Solidity/Bank.sol\":245:400  function addCustomer(string memory name, uint256 balance, address ethAddress) public {... */\n    tag_15:\n        /* \"contracts/Learning Solidity/Bank.sol\":358:393  Customer(name, balance, ethAddress) */\n      mload(0x40)\n      dup1\n      0x60\n      add\n      0x40\n      mstore\n      dup1\n        /* \"contracts/Learning Solidity/Bank.sol\":367:371  name */\n      dup5\n        /* \"contracts/Learning Solidity/Bank.sol\":358:393  Customer(name, balance, ethAddress) */\n      dup2\n      mstore\n      0x20\n      add\n        /* \"contracts/Learning Solidity/Bank.sol\":373:380  balance */\n      dup4\n        /* \"contracts/Learning Solidity/Bank.sol\":358:393  Customer(name, balance, ethAddress) */\n      dup2\n      mstore\n      0x20\n      add\n        /* \"contracts/Learning Solidity/Bank.sol\":382:392  ethAddress */\n      dup3\n        /* \"contracts/Learning Solidity/Bank.sol\":358:393  Customer(name, balance, ethAddress) */\n      0xffffffffffffffffffffffffffffffffffffffff\n      and\n      dup2\n      mstore\n      pop\n        /* \"contracts/Learning Solidity/Bank.sol\":340:349  customers */\n      0x00\n        /* \"contracts/Learning Solidity/Bank.sol\":350:354  name */\n      dup5\n        /* \"contracts/Learning Solidity/Bank.sol\":340:355  customers[name] */\n      mload(0x40)\n      tag_25\n      swap2\n      swap1\n      tag_23\n      jump\t// in\n    tag_25:\n      swap1\n      dup2\n      mstore\n      0x20\n      add\n      mload(0x40)\n      dup1\n      swap2\n      sub\n      swap1\n      keccak256\n        /* \"contracts/Learning Solidity/Bank.sol\":340:393  customers[name] = Customer(name, balance, ethAddress) */\n      0x00\n      dup3\n      add\n      mload\n      dup2\n      0x00\n      add\n      swap1\n      dup1\n      mload\n      swap1\n      0x20\n      add\n      swap1\n      tag_26\n      swap3\n      swap2\n      swap1\n      tag_27\n      jump\t// in\n    tag_26:\n      pop\n      0x20\n      dup3\n      add\n      mload\n      dup2\n      0x01\n      add\n      sstore\n      0x40\n      dup3\n      add\n      mload\n      dup2\n      0x02\n      add\n      exp(0x0100, 0x00)\n      dup2\n      sload\n      dup2\n      0xffffffffffffffffffffffffffffffffffffffff\n      mul\n      not\n      and\n      swap1\n      dup4\n      0xffffffffffffffffffffffffffffffffffffffff\n      and\n      mul\n      or\n      swap1\n      sstore\n      pop\n      swap1\n      pop\n      pop\n        /* \"contracts/Learning Solidity/Bank.sol\":245:400  function addCustomer(string memory name, uint256 balance, address ethAddress) public {... */\n      pop\n      pop\n      pop\n      jump\t// out\n        /* \"contracts/Learning Solidity/Bank.sol\":406:525  function getCustomerBalance(string memory name) public returns(uint256) {... */\n    tag_18:\n        /* \"contracts/Learning Solidity/Bank.sol\":469:476  uint256 */\n      0x00\n        /* \"contracts/Learning Solidity/Bank.sol\":495:504  customers */\n      dup1\n        /* \"contracts/Learning Solidity/Bank.sol\":505:509  name */\n      dup3\n        /* \"contracts/Learning Solidity/Bank.sol\":495:510  customers[name] */\n      mload(0x40)\n      tag_29\n      swap2\n      swap1\n      tag_23\n      jump\t// in\n    tag_29:\n      swap1\n      dup2\n      mstore\n      0x20\n      add\n      mload(0x40)\n      dup1\n      swap2\n      sub\n      swap1\n      keccak256\n        /* \"contracts/Learning Solidity/Bank.sol\":495:518  customers[name].balance */\n      0x01\n      add\n      sload\n        /* \"contracts/Learning Solidity/Bank.sol\":488:518  return customers[name].balance */\n      swap1\n      pop\n        /* \"contracts/Learning Solidity/Bank.sol\":406:525  function getCustomerBalance(string memory name) public returns(uint256) {... */\n      swap2\n      swap1\n      pop\n      jump\t// out\n    tag_27:\n      dup3\n      dup1\n      sload\n      tag_30\n      swap1\n      tag_31\n      jump\t// in\n    tag_30:\n      swap1\n      0x00\n      mstore\n      keccak256(0x00, 0x20)\n      swap1\n      0x1f\n      add\n      0x20\n      swap1\n      div\n      dup2\n      add\n      swap3\n      dup3\n      tag_33\n      jumpi\n      0x00\n      dup6\n      sstore\n      jump(tag_32)\n    tag_33:\n      dup3\n      0x1f\n      lt\n      tag_34\n      jumpi\n      dup1\n      mload\n      not(0xff)\n      and\n      dup4\n      dup1\n      add\n      or\n      dup6\n      sstore\n      jump(tag_32)\n    tag_34:\n      dup3\n      dup1\n      add\n      0x01\n      add\n      dup6\n      sstore\n      dup3\n      iszero\n      tag_32\n      jumpi\n      swap2\n      dup3\n      add\n    tag_35:\n      dup3\n      dup2\n      gt\n      iszero\n      tag_36\n      jumpi\n      dup3\n      mload\n      dup3\n      sstore\n      swap2\n      0x20\n      add\n      swap2\n      swap1\n      0x01\n      add\n      swap1\n      jump(tag_35)\n    tag_36:\n    tag_32:\n      pop\n      swap1\n      pop\n      tag_37\n      swap2\n      swap1\n      tag_38\n      jump\t// in\n    tag_37:\n      pop\n      swap1\n      jump\t// out\n    tag_38:\n    tag_39:\n      dup1\n      dup3\n      gt\n      iszero\n      tag_40\n      jumpi\n      0x00\n      dup2\n      0x00\n      swap1\n      sstore\n      pop\n      0x01\n      add\n      jump(tag_39)\n    tag_40:\n      pop\n      swap1\n      jump\t// out\n        /* \"#utility.yul\":7:419   */\n    tag_42:\n        /* \"#utility.yul\":85:90   */\n      0x00\n        /* \"#utility.yul\":110:176   */\n      tag_44\n        /* \"#utility.yul\":126:175   */\n      tag_45\n        /* \"#utility.yul\":168:174   */\n      dup5\n        /* \"#utility.yul\":126:175   */\n      tag_46\n      jump\t// in\n    tag_45:\n        /* \"#utility.yul\":110:176   */\n      tag_47\n      jump\t// in\n    tag_44:\n        /* \"#utility.yul\":101:176   */\n      swap1\n      pop\n        /* \"#utility.yul\":199:205   */\n      dup3\n        /* \"#utility.yul\":192:197   */\n      dup2\n        /* \"#utility.yul\":185:206   */\n      mstore\n        /* \"#utility.yul\":237:241   */\n      0x20\n        /* \"#utility.yul\":230:235   */\n      dup2\n        /* \"#utility.yul\":226:242   */\n      add\n        /* \"#utility.yul\":275:278   */\n      dup5\n        /* \"#utility.yul\":266:272   */\n      dup5\n        /* \"#utility.yul\":261:264   */\n      dup5\n        /* \"#utility.yul\":257:273   */\n      add\n        /* \"#utility.yul\":254:279   */\n      gt\n        /* \"#utility.yul\":251:363   */\n      iszero\n      tag_48\n      jumpi\n        /* \"#utility.yul\":282:361   */\n      tag_49\n      tag_50\n      jump\t// in\n    tag_49:\n        /* \"#utility.yul\":251:363   */\n    tag_48:\n        /* \"#utility.yul\":372:413   */\n      tag_51\n        /* \"#utility.yul\":406:412   */\n      dup5\n        /* \"#utility.yul\":401:404   */\n      dup3\n        /* \"#utility.yul\":396:399   */\n      dup6\n        /* \"#utility.yul\":372:413   */\n      tag_52\n      jump\t// in\n    tag_51:\n        /* \"#utility.yul\":91:419   */\n      pop\n        /* \"#utility.yul\":7:419   */\n      swap4\n      swap3\n      pop\n      pop\n      pop\n      jump\t// out\n        /* \"#utility.yul\":425:564   */\n    tag_53:\n        /* \"#utility.yul\":471:476   */\n      0x00\n        /* \"#utility.yul\":509:515   */\n      dup2\n        /* \"#utility.yul\":496:516   */\n      calldataload\n        /* \"#utility.yul\":487:516   */\n      swap1\n      pop\n        /* \"#utility.yul\":525:558   */\n      tag_55\n        /* \"#utility.yul\":552:557   */\n      dup2\n        /* \"#utility.yul\":525:558   */\n      tag_56\n      jump\t// in\n    tag_55:\n        /* \"#utility.yul\":425:564   */\n      swap3\n      swap2\n      pop\n      pop\n      jump\t// out\n        /* \"#utility.yul\":584:924   */\n    tag_57:\n        /* \"#utility.yul\":640:645   */\n      0x00\n        /* \"#utility.yul\":689:692   */\n      dup3\n        /* \"#utility.yul\":682:686   */\n      0x1f\n        /* \"#utility.yul\":674:680   */\n      dup4\n        /* \"#utility.yul\":670:687   */\n      add\n        /* \"#utility.yul\":666:693   */\n      slt\n        /* \"#utility.yul\":656:778   */\n      tag_59\n      jumpi\n        /* \"#utility.yul\":697:776   */\n      tag_60\n      tag_61\n      jump\t// in\n    tag_60:\n        /* \"#utility.yul\":656:778   */\n    tag_59:\n        /* \"#utility.yul\":814:820   */\n      dup2\n        /* \"#utility.yul\":801:821   */\n      calldataload\n        /* \"#utility.yul\":839:918   */\n      tag_62\n        /* \"#utility.yul\":914:917   */\n      dup5\n        /* \"#utility.yul\":906:912   */\n      dup3\n        /* \"#utility.yul\":899:903   */\n      0x20\n        /* \"#utility.yul\":891:897   */\n      dup7\n        /* \"#utility.yul\":887:904   */\n      add\n        /* \"#utility.yul\":839:918   */\n      tag_42\n      jump\t// in\n    tag_62:\n        /* \"#utility.yul\":830:918   */\n      swap2\n      pop\n        /* \"#utility.yul\":646:924   */\n      pop\n        /* \"#utility.yul\":584:924   */\n      swap3\n      swap2\n      pop\n      pop\n      jump\t// out\n        /* \"#utility.yul\":930:1069   */\n    tag_63:\n        /* \"#utility.yul\":976:981   */\n      0x00\n        /* \"#utility.yul\":1014:1020   */\n      dup2\n        /* \"#utility.yul\":1001:1021   */\n      calldataload\n        /* \"#utility.yul\":992:1021   */\n      swap1\n      pop\n        /* \"#utility.yul\":1030:1063   */\n      tag_65\n        /* \"#utility.yul\":1057:1062   */\n      dup2\n        /* \"#utility.yul\":1030:1063   */\n      tag_66\n      jump\t// in\n    tag_65:\n        /* \"#utility.yul\":930:1069   */\n      swap3\n      swap2\n      pop\n      pop\n      jump\t// out\n        /* \"#utility.yul\":1075:1584   */\n    tag_8:\n        /* \"#utility.yul\":1144:1150   */\n      0x00\n        /* \"#utility.yul\":1193:1195   */\n      0x20\n        /* \"#utility.yul\":1181:1190   */\n      dup3\n        /* \"#utility.yul\":1172:1179   */\n      dup5\n        /* \"#utility.yul\":1168:1191   */\n      sub\n        /* \"#utility.yul\":1164:1196   */\n      slt\n        /* \"#utility.yul\":1161:1280   */\n      iszero\n      tag_68\n      jumpi\n        /* \"#utility.yul\":1199:1278   */\n      tag_69\n      tag_70\n      jump\t// in\n    tag_69:\n        /* \"#utility.yul\":1161:1280   */\n    tag_68:\n        /* \"#utility.yul\":1347:1348   */\n      0x00\n        /* \"#utility.yul\":1336:1345   */\n      dup3\n        /* \"#utility.yul\":1332:1349   */\n      add\n        /* \"#utility.yul\":1319:1350   */\n      calldataload\n        /* \"#utility.yul\":1377:1395   */\n      0xffffffffffffffff\n        /* \"#utility.yul\":1369:1375   */\n      dup2\n        /* \"#utility.yul\":1366:1396   */\n      gt\n        /* \"#utility.yul\":1363:1480   */\n      iszero\n      tag_71\n      jumpi\n        /* \"#utility.yul\":1399:1478   */\n      tag_72\n      tag_73\n      jump\t// in\n    tag_72:\n        /* \"#utility.yul\":1363:1480   */\n    tag_71:\n        /* \"#utility.yul\":1504:1567   */\n      tag_74\n        /* \"#utility.yul\":1559:1566   */\n      dup5\n        /* \"#utility.yul\":1550:1556   */\n      dup3\n        /* \"#utility.yul\":1539:1548   */\n      dup6\n        /* \"#utility.yul\":1535:1557   */\n      add\n        /* \"#utility.yul\":1504:1567   */\n      tag_57\n      jump\t// in\n    tag_74:\n        /* \"#utility.yul\":1494:1567   */\n      swap2\n      pop\n        /* \"#utility.yul\":1290:1577   */\n      pop\n        /* \"#utility.yul\":1075:1584   */\n      swap3\n      swap2\n      pop\n      pop\n      jump\t// out\n        /* \"#utility.yul\":1590:2389   */\n    tag_14:\n        /* \"#utility.yul\":1677:1683   */\n      0x00\n        /* \"#utility.yul\":1685:1691   */\n      dup1\n        /* \"#utility.yul\":1693:1699   */\n      0x00\n        /* \"#utility.yul\":1742:1744   */\n      0x60\n        /* \"#utility.yul\":1730:1739   */\n      dup5\n        /* \"#utility.yul\":1721:1728   */\n      dup7\n        /* \"#utility.yul\":1717:1740   */\n      sub\n        /* \"#utility.yul\":1713:1745   */\n      slt\n        /* \"#utility.yul\":1710:1829   */\n      iszero\n      tag_76\n      jumpi\n        /* \"#utility.yul\":1748:1827   */\n      tag_77\n      tag_70\n      jump\t// in\n    tag_77:\n        /* \"#utility.yul\":1710:1829   */\n    tag_76:\n        /* \"#utility.yul\":1896:1897   */\n      0x00\n        /* \"#utility.yul\":1885:1894   */\n      dup5\n        /* \"#utility.yul\":1881:1898   */\n      add\n        /* \"#utility.yul\":1868:1899   */\n      calldataload\n        /* \"#utility.yul\":1926:1944   */\n      0xffffffffffffffff\n        /* \"#utility.yul\":1918:1924   */\n      dup2\n        /* \"#utility.yul\":1915:1945   */\n      gt\n        /* \"#utility.yul\":1912:2029   */\n      iszero\n      tag_78\n      jumpi\n        /* \"#utility.yul\":1948:2027   */\n      tag_79\n      tag_73\n      jump\t// in\n    tag_79:\n        /* \"#utility.yul\":1912:2029   */\n    tag_78:\n        /* \"#utility.yul\":2053:2116   */\n      tag_80\n        /* \"#utility.yul\":2108:2115   */\n      dup7\n        /* \"#utility.yul\":2099:2105   */\n      dup3\n        /* \"#utility.yul\":2088:2097   */\n      dup8\n        /* \"#utility.yul\":2084:2106   */\n      add\n        /* \"#utility.yul\":2053:2116   */\n      tag_57\n      jump\t// in\n    tag_80:\n        /* \"#utility.yul\":2043:2116   */\n      swap4\n      pop\n        /* \"#utility.yul\":1839:2126   */\n      pop\n        /* \"#utility.yul\":2165:2167   */\n      0x20\n        /* \"#utility.yul\":2191:2244   */\n      tag_81\n        /* \"#utility.yul\":2236:2243   */\n      dup7\n        /* \"#utility.yul\":2227:2233   */\n      dup3\n        /* \"#utility.yul\":2216:2225   */\n      dup8\n        /* \"#utility.yul\":2212:2234   */\n      add\n        /* \"#utility.yul\":2191:2244   */\n      tag_63\n      jump\t// in\n    tag_81:\n        /* \"#utility.yul\":2181:2244   */\n      swap3\n      pop\n        /* \"#utility.yul\":2136:2254   */\n      pop\n        /* \"#utility.yul\":2293:2295   */\n      0x40\n        /* \"#utility.yul\":2319:2372   */\n      tag_82\n        /* \"#utility.yul\":2364:2371   */\n      dup7\n        /* \"#utility.yul\":2355:2361   */\n      dup3\n        /* \"#utility.yul\":2344:2353   */\n      dup8\n        /* \"#utility.yul\":2340:2362   */\n      add\n        /* \"#utility.yul\":2319:2372   */\n      tag_53\n      jump\t// in\n    tag_82:\n        /* \"#utility.yul\":2309:2372   */\n      swap2\n      pop\n        /* \"#utility.yul\":2264:2382   */\n      pop\n        /* \"#utility.yul\":1590:2389   */\n      swap3\n      pop\n      swap3\n      pop\n      swap3\n      jump\t// out\n        /* \"#utility.yul\":2395:2513   */\n    tag_83:\n        /* \"#utility.yul\":2482:2506   */\n      tag_85\n        /* \"#utility.yul\":2500:2505   */\n      dup2\n        /* \"#utility.yul\":2482:2506   */\n      tag_86\n      jump\t// in\n    tag_85:\n        /* \"#utility.yul\":2477:2480   */\n      dup3\n        /* \"#utility.yul\":2470:2507   */\n      mstore\n        /* \"#utility.yul\":2395:2513   */\n      pop\n      pop\n      jump\t// out\n        /* \"#utility.yul\":2519:2896   */\n    tag_87:\n        /* \"#utility.yul\":2625:2628   */\n      0x00\n        /* \"#utility.yul\":2653:2692   */\n      tag_89\n        /* \"#utility.yul\":2686:2691   */\n      dup3\n        /* \"#utility.yul\":2653:2692   */\n      tag_90\n      jump\t// in\n    tag_89:\n        /* \"#utility.yul\":2708:2797   */\n      tag_91\n        /* \"#utility.yul\":2790:2796   */\n      dup2\n        /* \"#utility.yul\":2785:2788   */\n      dup6\n        /* \"#utility.yul\":2708:2797   */\n      tag_92\n      jump\t// in\n    tag_91:\n        /* \"#utility.yul\":2701:2797   */\n      swap4\n      pop\n        /* \"#utility.yul\":2806:2858   */\n      tag_93\n        /* \"#utility.yul\":2851:2857   */\n      dup2\n        /* \"#utility.yul\":2846:2849   */\n      dup6\n        /* \"#utility.yul\":2839:2843   */\n      0x20\n        /* \"#utility.yul\":2832:2837   */\n      dup7\n        /* \"#utility.yul\":2828:2844   */\n      add\n        /* \"#utility.yul\":2806:2858   */\n      tag_94\n      jump\t// in\n    tag_93:\n        /* \"#utility.yul\":2883:2889   */\n      dup1\n        /* \"#utility.yul\":2878:2881   */\n      dup5\n        /* \"#utility.yul\":2874:2890   */\n      add\n        /* \"#utility.yul\":2867:2890   */\n      swap2\n      pop\n        /* \"#utility.yul\":2629:2896   */\n      pop\n        /* \"#utility.yul\":2519:2896   */\n      swap3\n      swap2\n      pop\n      pop\n      jump\t// out\n        /* \"#utility.yul\":2902:3020   */\n    tag_95:\n        /* \"#utility.yul\":2989:3013   */\n      tag_97\n        /* \"#utility.yul\":3007:3012   */\n      dup2\n        /* \"#utility.yul\":2989:3013   */\n      tag_98\n      jump\t// in\n    tag_97:\n        /* \"#utility.yul\":2984:2987   */\n      dup3\n        /* \"#utility.yul\":2977:3014   */\n      mstore\n        /* \"#utility.yul\":2902:3020   */\n      pop\n      pop\n      jump\t// out\n        /* \"#utility.yul\":3026:3301   */\n    tag_23:\n        /* \"#utility.yul\":3158:3161   */\n      0x00\n        /* \"#utility.yul\":3180:3275   */\n      tag_100\n        /* \"#utility.yul\":3271:3274   */\n      dup3\n        /* \"#utility.yul\":3262:3268   */\n      dup5\n        /* \"#utility.yul\":3180:3275   */\n      tag_87\n      jump\t// in\n    tag_100:\n        /* \"#utility.yul\":3173:3275   */\n      swap2\n      pop\n        /* \"#utility.yul\":3292:3295   */\n      dup2\n        /* \"#utility.yul\":3285:3295   */\n      swap1\n      pop\n        /* \"#utility.yul\":3026:3301   */\n      swap3\n      swap2\n      pop\n      pop\n      jump\t// out\n        /* \"#utility.yul\":3307:3529   */\n    tag_11:\n        /* \"#utility.yul\":3400:3404   */\n      0x00\n        /* \"#utility.yul\":3438:3440   */\n      0x20\n        /* \"#utility.yul\":3427:3436   */\n      dup3\n        /* \"#utility.yul\":3423:3441   */\n      add\n        /* \"#utility.yul\":3415:3441   */\n      swap1\n      pop\n        /* \"#utility.yul\":3451:3522   */\n      tag_102\n        /* \"#utility.yul\":3519:3520   */\n      0x00\n        /* \"#utility.yul\":3508:3517   */\n      dup4\n        /* \"#utility.yul\":3504:3521   */\n      add\n        /* \"#utility.yul\":3495:3501   */\n      dup5\n        /* \"#utility.yul\":3451:3522   */\n      tag_83\n      jump\t// in\n    tag_102:\n        /* \"#utility.yul\":3307:3529   */\n      swap3\n      swap2\n      pop\n      pop\n      jump\t// out\n        /* \"#utility.yul\":3535:3757   */\n    tag_20:\n        /* \"#utility.yul\":3628:3632   */\n      0x00\n        /* \"#utility.yul\":3666:3668   */\n      0x20\n        /* \"#utility.yul\":3655:3664   */\n      dup3\n        /* \"#utility.yul\":3651:3669   */\n      add\n        /* \"#utility.yul\":3643:3669   */\n      swap1\n      pop\n        /* \"#utility.yul\":3679:3750   */\n      tag_104\n        /* \"#utility.yul\":3747:3748   */\n      0x00\n        /* \"#utility.yul\":3736:3745   */\n      dup4\n        /* \"#utility.yul\":3732:3749   */\n      add\n        /* \"#utility.yul\":3723:3729   */\n      dup5\n        /* \"#utility.yul\":3679:3750   */\n      tag_95\n      jump\t// in\n    tag_104:\n        /* \"#utility.yul\":3535:3757   */\n      swap3\n      swap2\n      pop\n      pop\n      jump\t// out\n        /* \"#utility.yul\":3763:3892   */\n    tag_47:\n        /* \"#utility.yul\":3797:3803   */\n      0x00\n        /* \"#utility.yul\":3824:3844   */\n      tag_106\n      tag_107\n      jump\t// in\n    tag_106:\n        /* \"#utility.yul\":3814:3844   */\n      swap1\n      pop\n        /* \"#utility.yul\":3853:3886   */\n      tag_108\n        /* \"#utility.yul\":3881:3885   */\n      dup3\n        /* \"#utility.yul\":3873:3879   */\n      dup3\n        /* \"#utility.yul\":3853:3886   */\n      tag_109\n      jump\t// in\n    tag_108:\n        /* \"#utility.yul\":3763:3892   */\n      swap2\n      swap1\n      pop\n      jump\t// out\n        /* \"#utility.yul\":3898:3973   */\n    tag_107:\n        /* \"#utility.yul\":3931:3937   */\n      0x00\n        /* \"#utility.yul\":3964:3966   */\n      0x40\n        /* \"#utility.yul\":3958:3967   */\n      mload\n        /* \"#utility.yul\":3948:3967   */\n      swap1\n      pop\n        /* \"#utility.yul\":3898:3973   */\n      swap1\n      jump\t// out\n        /* \"#utility.yul\":3979:4287   */\n    tag_46:\n        /* \"#utility.yul\":4041:4045   */\n      0x00\n        /* \"#utility.yul\":4131:4149   */\n      0xffffffffffffffff\n        /* \"#utility.yul\":4123:4129   */\n      dup3\n        /* \"#utility.yul\":4120:4150   */\n      gt\n        /* \"#utility.yul\":4117:4173   */\n      iszero\n      tag_112\n      jumpi\n        /* \"#utility.yul\":4153:4171   */\n      tag_113\n      tag_114\n      jump\t// in\n    tag_113:\n        /* \"#utility.yul\":4117:4173   */\n    tag_112:\n        /* \"#utility.yul\":4191:4220   */\n      tag_115\n        /* \"#utility.yul\":4213:4219   */\n      dup3\n        /* \"#utility.yul\":4191:4220   */\n      tag_116\n      jump\t// in\n    tag_115:\n        /* \"#utility.yul\":4183:4220   */\n      swap1\n      pop\n        /* \"#utility.yul\":4275:4279   */\n      0x20\n        /* \"#utility.yul\":4269:4273   */\n      dup2\n        /* \"#utility.yul\":4265:4280   */\n      add\n        /* \"#utility.yul\":4257:4280   */\n      swap1\n      pop\n        /* \"#utility.yul\":3979:4287   */\n      swap2\n      swap1\n      pop\n      jump\t// out\n        /* \"#utility.yul\":4293:4392   */\n    tag_90:\n        /* \"#utility.yul\":4345:4351   */\n      0x00\n        /* \"#utility.yul\":4379:4384   */\n      dup2\n        /* \"#utility.yul\":4373:4385   */\n      mload\n        /* \"#utility.yul\":4363:4385   */\n      swap1\n      pop\n        /* \"#utility.yul\":4293:4392   */\n      swap2\n      swap1\n      pop\n      jump\t// out\n        /* \"#utility.yul\":4398:4546   */\n    tag_92:\n        /* \"#utility.yul\":4500:4511   */\n      0x00\n        /* \"#utility.yul\":4537:4540   */\n      dup2\n        /* \"#utility.yul\":4522:4540   */\n      swap1\n      pop\n        /* \"#utility.yul\":4398:4546   */\n      swap3\n      swap2\n      pop\n      pop\n      jump\t// out\n        /* \"#utility.yul\":4552:4648   */\n    tag_86:\n        /* \"#utility.yul\":4589:4596   */\n      0x00\n        /* \"#utility.yul\":4618:4642   */\n      tag_120\n        /* \"#utility.yul\":4636:4641   */\n      dup3\n        /* \"#utility.yul\":4618:4642   */\n      tag_121\n      jump\t// in\n    tag_120:\n        /* \"#utility.yul\":4607:4642   */\n      swap1\n      pop\n        /* \"#utility.yul\":4552:4648   */\n      swap2\n      swap1\n      pop\n      jump\t// out\n        /* \"#utility.yul\":4654:4780   */\n    tag_121:\n        /* \"#utility.yul\":4691:4698   */\n      0x00\n        /* \"#utility.yul\":4731:4773   */\n      0xffffffffffffffffffffffffffffffffffffffff\n        /* \"#utility.yul\":4724:4729   */\n      dup3\n        /* \"#utility.yul\":4720:4774   */\n      and\n        /* \"#utility.yul\":4709:4774   */\n      swap1\n      pop\n        /* \"#utility.yul\":4654:4780   */\n      swap2\n      swap1\n      pop\n      jump\t// out\n        /* \"#utility.yul\":4786:4863   */\n    tag_98:\n        /* \"#utility.yul\":4823:4830   */\n      0x00\n        /* \"#utility.yul\":4852:4857   */\n      dup2\n        /* \"#utility.yul\":4841:4857   */\n      swap1\n      pop\n        /* \"#utility.yul\":4786:4863   */\n      swap2\n      swap1\n      pop\n      jump\t// out\n        /* \"#utility.yul\":4869:5023   */\n    tag_52:\n        /* \"#utility.yul\":4953:4959   */\n      dup3\n        /* \"#utility.yul\":4948:4951   */\n      dup2\n        /* \"#utility.yul\":4943:4946   */\n      dup4\n        /* \"#utility.yul\":4930:4960   */\n      calldatacopy\n        /* \"#utility.yul\":5015:5016   */\n      0x00\n        /* \"#utility.yul\":5006:5012   */\n      dup4\n        /* \"#utility.yul\":5001:5004   */\n      dup4\n        /* \"#utility.yul\":4997:5013   */\n      add\n        /* \"#utility.yul\":4990:5017   */\n      mstore\n        /* \"#utility.yul\":4869:5023   */\n      pop\n      pop\n      pop\n      jump\t// out\n        /* \"#utility.yul\":5029:5336   */\n    tag_94:\n        /* \"#utility.yul\":5097:5098   */\n      0x00\n        /* \"#utility.yul\":5107:5220   */\n    tag_126:\n        /* \"#utility.yul\":5121:5127   */\n      dup4\n        /* \"#utility.yul\":5118:5119   */\n      dup2\n        /* \"#utility.yul\":5115:5128   */\n      lt\n        /* \"#utility.yul\":5107:5220   */\n      iszero\n      tag_128\n      jumpi\n        /* \"#utility.yul\":5206:5207   */\n      dup1\n        /* \"#utility.yul\":5201:5204   */\n      dup3\n        /* \"#utility.yul\":5197:5208   */\n      add\n        /* \"#utility.yul\":5191:5209   */\n      mload\n        /* \"#utility.yul\":5187:5188   */\n      dup2\n        /* \"#utility.yul\":5182:5185   */\n      dup5\n        /* \"#utility.yul\":5178:5189   */\n      add\n        /* \"#utility.yul\":5171:5210   */\n      mstore\n        /* \"#utility.yul\":5143:5145   */\n      0x20\n        /* \"#utility.yul\":5140:5141   */\n      dup2\n        /* \"#utility.yul\":5136:5146   */\n      add\n        /* \"#utility.yul\":5131:5146   */\n      swap1\n      pop\n        /* \"#utility.yul\":5107:5220   */\n      jump(tag_126)\n    tag_128:\n        /* \"#utility.yul\":5238:5244   */\n      dup4\n        /* \"#utility.yul\":5235:5236   */\n      dup2\n        /* \"#utility.yul\":5232:5245   */\n      gt\n        /* \"#utility.yul\":5229:5330   */\n      iszero\n      tag_129\n      jumpi\n        /* \"#utility.yul\":5318:5319   */\n      0x00\n        /* \"#utility.yul\":5309:5315   */\n      dup5\n        /* \"#utility.yul\":5304:5307   */\n      dup5\n        /* \"#utility.yul\":5300:5316   */\n      add\n        /* \"#utility.yul\":5293:5320   */\n      mstore\n        /* \"#utility.yul\":5229:5330   */\n    tag_129:\n        /* \"#utility.yul\":5078:5336   */\n      pop\n        /* \"#utility.yul\":5029:5336   */\n      pop\n      pop\n      pop\n      jump\t// out\n        /* \"#utility.yul\":5342:5662   */\n    tag_31:\n        /* \"#utility.yul\":5386:5392   */\n      0x00\n        /* \"#utility.yul\":5423:5424   */\n      0x02\n        /* \"#utility.yul\":5417:5421   */\n      dup3\n        /* \"#utility.yul\":5413:5425   */\n      div\n        /* \"#utility.yul\":5403:5425   */\n      swap1\n      pop\n        /* \"#utility.yul\":5470:5471   */\n      0x01\n        /* \"#utility.yul\":5464:5468   */\n      dup3\n        /* \"#utility.yul\":5460:5472   */\n      and\n        /* \"#utility.yul\":5491:5509   */\n      dup1\n        /* \"#utility.yul\":5481:5562   */\n      tag_131\n      jumpi\n        /* \"#utility.yul\":5547:5551   */\n      0x7f\n        /* \"#utility.yul\":5539:5545   */\n      dup3\n        /* \"#utility.yul\":5535:5552   */\n      and\n        /* \"#utility.yul\":5525:5552   */\n      swap2\n      pop\n        /* \"#utility.yul\":5481:5562   */\n    tag_131:\n        /* \"#utility.yul\":5609:5611   */\n      0x20\n        /* \"#utility.yul\":5601:5607   */\n      dup3\n        /* \"#utility.yul\":5598:5612   */\n      lt\n        /* \"#utility.yul\":5578:5596   */\n      dup2\n        /* \"#utility.yul\":5575:5613   */\n      eq\n        /* \"#utility.yul\":5572:5656   */\n      iszero\n      tag_132\n      jumpi\n        /* \"#utility.yul\":5628:5646   */\n      tag_133\n      tag_134\n      jump\t// in\n    tag_133:\n        /* \"#utility.yul\":5572:5656   */\n    tag_132:\n        /* \"#utility.yul\":5393:5662   */\n      pop\n        /* \"#utility.yul\":5342:5662   */\n      swap2\n      swap1\n      pop\n      jump\t// out\n        /* \"#utility.yul\":5668:5949   */\n    tag_109:\n        /* \"#utility.yul\":5751:5778   */\n      tag_136\n        /* \"#utility.yul\":5773:5777   */\n      dup3\n        /* \"#utility.yul\":5751:5778   */\n      tag_116\n      jump\t// in\n    tag_136:\n        /* \"#utility.yul\":5743:5749   */\n      dup2\n        /* \"#utility.yul\":5739:5779   */\n      add\n        /* \"#utility.yul\":5881:5887   */\n      dup2\n        /* \"#utility.yul\":5869:5879   */\n      dup2\n        /* \"#utility.yul\":5866:5888   */\n      lt\n        /* \"#utility.yul\":5845:5863   */\n      0xffffffffffffffff\n        /* \"#utility.yul\":5833:5843   */\n      dup3\n        /* \"#utility.yul\":5830:5864   */\n      gt\n        /* \"#utility.yul\":5827:5889   */\n      or\n        /* \"#utility.yul\":5824:5912   */\n      iszero\n      tag_137\n      jumpi\n        /* \"#utility.yul\":5892:5910   */\n      tag_138\n      tag_114\n      jump\t// in\n    tag_138:\n        /* \"#utility.yul\":5824:5912   */\n    tag_137:\n        /* \"#utility.yul\":5932:5942   */\n      dup1\n        /* \"#utility.yul\":5928:5930   */\n      0x40\n        /* \"#utility.yul\":5921:5943   */\n      mstore\n        /* \"#utility.yul\":5711:5949   */\n      pop\n        /* \"#utility.yul\":5668:5949   */\n      pop\n      pop\n      jump\t// out\n        /* \"#utility.yul\":5955:6135   */\n    tag_134:\n        /* \"#utility.yul\":6003:6080   */\n      0x4e487b7100000000000000000000000000000000000000000000000000000000\n        /* \"#utility.yul\":6000:6001   */\n      0x00\n        /* \"#utility.yul\":5993:6081   */\n      mstore\n        /* \"#utility.yul\":6100:6104   */\n      0x22\n        /* \"#utility.yul\":6097:6098   */\n      0x04\n        /* \"#utility.yul\":6090:6105   */\n      mstore\n        /* \"#utility.yul\":6124:6128   */\n      0x24\n        /* \"#utility.yul\":6121:6122   */\n      0x00\n        /* \"#utility.yul\":6114:6129   */\n      revert\n        /* \"#utility.yul\":6141:6321   */\n    tag_114:\n        /* \"#utility.yul\":6189:6266   */\n      0x4e487b7100000000000000000000000000000000000000000000000000000000\n        /* \"#utility.yul\":6186:6187   */\n      0x00\n        /* \"#utility.yul\":6179:6267   */\n      mstore\n        /* \"#utility.yul\":6286:6290   */\n      0x41\n        /* \"#utility.yul\":6283:6284   */\n      0x04\n        /* \"#utility.yul\":6276:6291   */\n      mstore\n        /* \"#utility.yul\":6310:6314   */\n      0x24\n        /* \"#utility.yul\":6307:6308   */\n      0x00\n        /* \"#utility.yul\":6300:6315   */\n      revert\n        /* \"#utility.yul\":6327:6444   */\n    tag_61:\n        /* \"#utility.yul\":6436:6437   */\n      0x00\n        /* \"#utility.yul\":6433:6434   */\n      dup1\n        /* \"#utility.yul\":6426:6438   */\n      revert\n        /* \"#utility.yul\":6450:6567   */\n    tag_50:\n        /* \"#utility.yul\":6559:6560   */\n      0x00\n        /* \"#utility.yul\":6556:6557   */\n      dup1\n        /* \"#utility.yul\":6549:6561   */\n      revert\n        /* \"#utility.yul\":6573:6690   */\n    tag_73:\n        /* \"#utility.yul\":6682:6683   */\n      0x00\n        /* \"#utility.yul\":6679:6680   */\n      dup1\n        /* \"#utility.yul\":6672:6684   */\n      revert\n        /* \"#utility.yul\":6696:6813   */\n    tag_70:\n        /* \"#utility.yul\":6805:6806   */\n      0x00\n        /* \"#utility.yul\":6802:6803   */\n      dup1\n        /* \"#utility.yul\":6795:6807   */\n      revert\n        /* \"#utility.yul\":6819:6921   */\n    tag_116:\n        /* \"#utility.yul\":6860:6866   */\n      0x00\n        /* \"#utility.yul\":6911:6913   */\n      0x1f\n        /* \"#utility.yul\":6907:6914   */\n      not\n        /* \"#utility.yul\":6902:6904   */\n      0x1f\n        /* \"#utility.yul\":6895:6900   */\n      dup4\n        /* \"#utility.yul\":6891:6905   */\n      add\n        /* \"#utility.yul\":6887:6915   */\n      and\n        /* \"#utility.yul\":6877:6915   */\n      swap1\n      pop\n        /* \"#utility.yul\":6819:6921   */\n      swap2\n      swap1\n      pop\n      jump\t// out\n        /* \"#utility.yul\":6927:7049   */\n    tag_56:\n        /* \"#utility.yul\":7000:7024   */\n      tag_147\n        /* \"#utility.yul\":7018:7023   */\n      dup2\n        /* \"#utility.yul\":7000:7024   */\n      tag_86\n      jump\t// in\n    tag_147:\n        /* \"#utility.yul\":6993:6998   */\n      dup2\n        /* \"#utility.yul\":6990:7025   */\n      eq\n        /* \"#utility.yul\":6980:7043   */\n      tag_148\n      jumpi\n        /* \"#utility.yul\":7039:7040   */\n      0x00\n        /* \"#utility.yul\":7036:7037   */\n      dup1\n        /* \"#utility.yul\":7029:7041   */\n      revert\n        /* \"#utility.yul\":6980:7043   */\n    tag_148:\n        /* \"#utility.yul\":6927:7049   */\n      pop\n      jump\t// out\n        /* \"#utility.yul\":7055:7177   */\n    tag_66:\n        /* \"#utility.yul\":7128:7152   */\n      tag_150\n        /* \"#utility.yul\":7146:7151   */\n      dup2\n        /* \"#utility.yul\":7128:7152   */\n      tag_98\n      jump\t// in\n    tag_150:\n        /* \"#utility.yul\":7121:7126   */\n      dup2\n        /* \"#utility.yul\":7118:7153   */\n      eq\n        /* \"#utility.yul\":7108:7171   */\n      tag_151\n      jumpi\n        /* \"#utility.yul\":7167:7168   */\n      0x00\n        /* \"#utility.yul\":7164:7165   */\n      dup1\n        /* \"#utility.yul\":7157:7169   */\n      revert\n        /* \"#utility.yul\":7108:7171   */\n    tag_151:\n        /* \"#utility.yul\":7055:7177   */\n      pop\n      jump\t// out\n\n    auxdata: 0xa264697066735822122093390f6e871b5bbcd966908e999e83422067fd30fbc84c41f0f97b14d974da3364736f6c63430008070033\n}\n",
				"bytecode": {
					"linkReferences": {},
					"object": "608060405234801561001057600080fd5b506106c0806100206000396000f3fe608060405234801561001057600080fd5b50600436106100415760003560e01c80632871434814610046578063e65c9e7514610076578063ece9a4e914610092575b600080fd5b610060600480360381019061005b9190610338565b6100c2565b60405161006d9190610456565b60405180910390f35b610090600480360381019061008b9190610381565b61010c565b005b6100ac60048036038101906100a79190610338565b6101d1565b6040516100b99190610471565b60405180910390f35b600080826040516100d3919061043f565b908152602001604051809103902060020160009054906101000a900473ffffffffffffffffffffffffffffffffffffffff169050919050565b60405180606001604052808481526020018381526020018273ffffffffffffffffffffffffffffffffffffffff1681525060008460405161014d919061043f565b908152602001604051809103902060008201518160000190805190602001906101779291906101fb565b506020820151816001015560408201518160020160006101000a81548173ffffffffffffffffffffffffffffffffffffffff021916908373ffffffffffffffffffffffffffffffffffffffff160217905550905050505050565b600080826040516101e2919061043f565b9081526020016040518091039020600101549050919050565b82805461020790610576565b90600052602060002090601f0160209004810192826102295760008555610270565b82601f1061024257805160ff1916838001178555610270565b82800160010185558215610270579182015b8281111561026f578251825591602001919060010190610254565b5b50905061027d9190610281565b5090565b5b8082111561029a576000816000905550600101610282565b5090565b60006102b16102ac846104b1565b61048c565b9050828152602081018484840111156102cd576102cc61063c565b5b6102d8848285610534565b509392505050565b6000813590506102ef8161065c565b92915050565b600082601f83011261030a57610309610637565b5b813561031a84826020860161029e565b91505092915050565b60008135905061033281610673565b92915050565b60006020828403121561034e5761034d610646565b5b600082013567ffffffffffffffff81111561036c5761036b610641565b5b610378848285016102f5565b91505092915050565b60008060006060848603121561039a57610399610646565b5b600084013567ffffffffffffffff8111156103b8576103b7610641565b5b6103c4868287016102f5565b93505060206103d586828701610323565b92505060406103e6868287016102e0565b9150509250925092565b6103f9816104f8565b82525050565b600061040a826104e2565b61041481856104ed565b9350610424818560208601610543565b80840191505092915050565b6104398161052a565b82525050565b600061044b82846103ff565b915081905092915050565b600060208201905061046b60008301846103f0565b92915050565b60006020820190506104866000830184610430565b92915050565b60006104966104a7565b90506104a282826105a8565b919050565b6000604051905090565b600067ffffffffffffffff8211156104cc576104cb610608565b5b6104d58261064b565b9050602081019050919050565b600081519050919050565b600081905092915050565b60006105038261050a565b9050919050565b600073ffffffffffffffffffffffffffffffffffffffff82169050919050565b6000819050919050565b82818337600083830152505050565b60005b83811015610561578082015181840152602081019050610546565b83811115610570576000848401525b50505050565b6000600282049050600182168061058e57607f821691505b602082108114156105a2576105a16105d9565b5b50919050565b6105b18261064b565b810181811067ffffffffffffffff821117156105d0576105cf610608565b5b80604052505050565b7f4e487b7100000000000000000000000000000000000000000000000000000000600052602260045260246000fd5b7f4e487b7100000000000000000000000000000000000000000000000000000000600052604160045260246000fd5b600080fd5b600080fd5b600080fd5b600080fd5b6000601f19601f8301169050919050565b610665816104f8565b811461067057600080fd5b50565b61067c8161052a565b811461068757600080fd5b5056fea264697066735822122093390f6e871b5bbcd966908e999e83422067fd30fbc84c41f0f97b14d974da3364736f6c63430008070033",
					"opcodes": "PUSH1 0x80 PUSH1 0x40 MSTORE CALLVALUE DUP1 ISZERO PUSH2 0x10 JUMPI PUSH1 0x0 DUP1 REVERT JUMPDEST POP PUSH2 0x6C0 DUP1 PUSH2 0x20 PUSH1 0x0 CODECOPY PUSH1 0x0 RETURN INVALID PUSH1 0x80 PUSH1 0x40 MSTORE CALLVALUE DUP1 ISZERO PUSH2 0x10 JUMPI PUSH1 0x0 DUP1 REVERT JUMPDEST POP PUSH1 0x4 CALLDATASIZE LT PUSH2 0x41 JUMPI PUSH1 0x0 CALLDATALOAD PUSH1 0xE0 SHR DUP1 PUSH4 0x28714348 EQ PUSH2 0x46 JUMPI DUP1 PUSH4 0xE65C9E75 EQ PUSH2 0x76 JUMPI DUP1 PUSH4 0xECE9A4E9 EQ PUSH2 0x92 JUMPI JUMPDEST PUSH1 0x0 DUP1 REVERT JUMPDEST PUSH2 0x60 PUSH1 0x4 DUP1 CALLDATASIZE SUB DUP2 ADD SWAP1 PUSH2 0x5B SWAP2 SWAP1 PUSH2 0x338 JUMP JUMPDEST PUSH2 0xC2 JUMP JUMPDEST PUSH1 0x40 MLOAD PUSH2 0x6D SWAP2 SWAP1 PUSH2 0x456 JUMP JUMPDEST PUSH1 0x40 MLOAD DUP1 SWAP2 SUB SWAP1 RETURN JUMPDEST PUSH2 0x90 PUSH1 0x4 DUP1 CALLDATASIZE SUB DUP2 ADD SWAP1 PUSH2 0x8B SWAP2 SWAP1 PUSH2 0x381 JUMP JUMPDEST PUSH2 0x10C JUMP JUMPDEST STOP JUMPDEST PUSH2 0xAC PUSH1 0x4 DUP1 CALLDATASIZE SUB DUP2 ADD SWAP1 PUSH2 0xA7 SWAP2 SWAP1 PUSH2 0x338 JUMP JUMPDEST PUSH2 0x1D1 JUMP JUMPDEST PUSH1 0x40 MLOAD PUSH2 0xB9 SWAP2 SWAP1 PUSH2 0x471 JUMP JUMPDEST PUSH1 0x40 MLOAD DUP1 SWAP2 SUB SWAP1 RETURN JUMPDEST PUSH1 0x0 DUP1 DUP3 PUSH1 0x40 MLOAD PUSH2 0xD3 SWAP2 SWAP1 PUSH2 0x43F JUMP JUMPDEST SWAP1 DUP2 MSTORE PUSH1 0x20 ADD PUSH1 0x40 MLOAD DUP1 SWAP2 SUB SWAP1 KECCAK256 PUSH1 0x2 ADD PUSH1 0x0 SWAP1 SLOAD SWAP1 PUSH2 0x100 EXP SWAP1 DIV PUSH20 0xFFFFFFFFFFFFFFFFFFFFFFFFFFFFFFFFFFFFFFFF AND SWAP1 POP SWAP2 SWAP1 POP JUMP JUMPDEST PUSH1 0x40 MLOAD DUP1 PUSH1 0x60 ADD PUSH1 0x40 MSTORE DUP1 DUP5 DUP2 MSTORE PUSH1 0x20 ADD DUP4 DUP2 MSTORE PUSH1 0x20 ADD DUP3 PUSH20 0xFFFFFFFFFFFFFFFFFFFFFFFFFFFFFFFFFFFFFFFF AND DUP2 MSTORE POP PUSH1 0x0 DUP5 PUSH1 0x40 MLOAD PUSH2 0x14D SWAP2 SWAP1 PUSH2 0x43F JUMP JUMPDEST SWAP1 DUP2 MSTORE PUSH1 0x20 ADD PUSH1 0x40 MLOAD DUP1 SWAP2 SUB SWAP1 KECCAK256 PUSH1 0x0 DUP3 ADD MLOAD DUP2 PUSH1 0x0 ADD SWAP1 DUP1 MLOAD SWAP1 PUSH1 0x20 ADD SWAP1 PUSH2 0x177 SWAP3 SWAP2 SWAP1 PUSH2 0x1FB JUMP JUMPDEST POP PUSH1 0x20 DUP3 ADD MLOAD DUP2 PUSH1 0x1 ADD SSTORE PUSH1 0x40 DUP3 ADD MLOAD DUP2 PUSH1 0x2 ADD PUSH1 0x0 PUSH2 0x100 EXP DUP2 SLOAD DUP2 PUSH20 0xFFFFFFFFFFFFFFFFFFFFFFFFFFFFFFFFFFFFFFFF MUL NOT AND SWAP1 DUP4 PUSH20 0xFFFFFFFFFFFFFFFFFFFFFFFFFFFFFFFFFFFFFFFF AND MUL OR SWAP1 SSTORE POP SWAP1 POP POP POP POP POP JUMP JUMPDEST PUSH1 0x0 DUP1 DUP3 PUSH1 0x40 MLOAD PUSH2 0x1E2 SWAP2 SWAP1 PUSH2 0x43F JUMP JUMPDEST SWAP1 DUP2 MSTORE PUSH1 0x20 ADD PUSH1 0x40 MLOAD DUP1 SWAP2 SUB SWAP1 KECCAK256 PUSH1 0x1 ADD SLOAD SWAP1 POP SWAP2 SWAP1 POP JUMP JUMPDEST DUP3 DUP1 SLOAD PUSH2 0x207 SWAP1 PUSH2 0x576 JUMP JUMPDEST SWAP1 PUSH1 0x0 MSTORE PUSH1 0x20 PUSH1 0x0 KECCAK256 SWAP1 PUSH1 0x1F ADD PUSH1 0x20 SWAP1 DIV DUP2 ADD SWAP3 DUP3 PUSH2 0x229 JUMPI PUSH1 0x0 DUP6 SSTORE PUSH2 0x270 JUMP JUMPDEST DUP3 PUSH1 0x1F LT PUSH2 0x242 JUMPI DUP1 MLOAD PUSH1 0xFF NOT AND DUP4 DUP1 ADD OR DUP6 SSTORE PUSH2 0x270 JUMP JUMPDEST DUP3 DUP1 ADD PUSH1 0x1 ADD DUP6 SSTORE DUP3 ISZERO PUSH2 0x270 JUMPI SWAP2 DUP3 ADD JUMPDEST DUP3 DUP2 GT ISZERO PUSH2 0x26F JUMPI DUP3 MLOAD DUP3 SSTORE SWAP2 PUSH1 0x20 ADD SWAP2 SWAP1 PUSH1 0x1 ADD SWAP1 PUSH2 0x254 JUMP JUMPDEST JUMPDEST POP SWAP1 POP PUSH2 0x27D SWAP2 SWAP1 PUSH2 0x281 JUMP JUMPDEST POP SWAP1 JUMP JUMPDEST JUMPDEST DUP1 DUP3 GT ISZERO PUSH2 0x29A JUMPI PUSH1 0x0 DUP2 PUSH1 0x0 SWAP1 SSTORE POP PUSH1 0x1 ADD PUSH2 0x282 JUMP JUMPDEST POP SWAP1 JUMP JUMPDEST PUSH1 0x0 PUSH2 0x2B1 PUSH2 0x2AC DUP5 PUSH2 0x4B1 JUMP JUMPDEST PUSH2 0x48C JUMP JUMPDEST SWAP1 POP DUP3 DUP2 MSTORE PUSH1 0x20 DUP2 ADD DUP5 DUP5 DUP5 ADD GT ISZERO PUSH2 0x2CD JUMPI PUSH2 0x2CC PUSH2 0x63C JUMP JUMPDEST JUMPDEST PUSH2 0x2D8 DUP5 DUP3 DUP6 PUSH2 0x534 JUMP JUMPDEST POP SWAP4 SWAP3 POP POP POP JUMP JUMPDEST PUSH1 0x0 DUP2 CALLDATALOAD SWAP1 POP PUSH2 0x2EF DUP2 PUSH2 0x65C JUMP JUMPDEST SWAP3 SWAP2 POP POP JUMP JUMPDEST PUSH1 0x0 DUP3 PUSH1 0x1F DUP4 ADD SLT PUSH2 0x30A JUMPI PUSH2 0x309 PUSH2 0x637 JUMP JUMPDEST JUMPDEST DUP2 CALLDATALOAD PUSH2 0x31A DUP5 DUP3 PUSH1 0x20 DUP7 ADD PUSH2 0x29E JUMP JUMPDEST SWAP2 POP POP SWAP3 SWAP2 POP POP JUMP JUMPDEST PUSH1 0x0 DUP2 CALLDATALOAD SWAP1 POP PUSH2 0x332 DUP2 PUSH2 0x673 JUMP JUMPDEST SWAP3 SWAP2 POP POP JUMP JUMPDEST PUSH1 0x0 PUSH1 0x20 DUP3 DUP5 SUB SLT ISZERO PUSH2 0x34E JUMPI PUSH2 0x34D PUSH2 0x646 JUMP JUMPDEST JUMPDEST PUSH1 0x0 DUP3 ADD CALLDATALOAD PUSH8 0xFFFFFFFFFFFFFFFF DUP2 GT ISZERO PUSH2 0x36C JUMPI PUSH2 0x36B PUSH2 0x641 JUMP JUMPDEST JUMPDEST PUSH2 0x378 DUP5 DUP3 DUP6 ADD PUSH2 0x2F5 JUMP JUMPDEST SWAP2 POP POP SWAP3 SWAP2 POP POP JUMP JUMPDEST PUSH1 0x0 DUP1 PUSH1 0x0 PUSH1 0x60 DUP5 DUP7 SUB SLT ISZERO PUSH2 0x39A JUMPI PUSH2 0x399 PUSH2 0x646 JUMP JUMPDEST JUMPDEST PUSH1 0x0 DUP5 ADD CALLDATALOAD PUSH8 0xFFFFFFFFFFFFFFFF DUP2 GT ISZERO PUSH2 0x3B8 JUMPI PUSH2 0x3B7 PUSH2 0x641 JUMP JUMPDEST JUMPDEST PUSH2 0x3C4 DUP7 DUP3 DUP8 ADD PUSH2 0x2F5 JUMP JUMPDEST SWAP4 POP POP PUSH1 0x20 PUSH2 0x3D5 DUP7 DUP3 DUP8 ADD PUSH2 0x323 JUMP JUMPDEST SWAP3 POP POP PUSH1 0x40 PUSH2 0x3E6 DUP7 DUP3 DUP8 ADD PUSH2 0x2E0 JUMP JUMPDEST SWAP2 POP POP SWAP3 POP SWAP3 POP SWAP3 JUMP JUMPDEST PUSH2 0x3F9 DUP2 PUSH2 0x4F8 JUMP JUMPDEST DUP3 MSTORE POP POP JUMP JUMPDEST PUSH1 0x0 PUSH2 0x40A DUP3 PUSH2 0x4E2 JUMP JUMPDEST PUSH2 0x414 DUP2 DUP6 PUSH2 0x4ED JUMP JUMPDEST SWAP4 POP PUSH2 0x424 DUP2 DUP6 PUSH1 0x20 DUP7 ADD PUSH2 0x543 JUMP JUMPDEST DUP1 DUP5 ADD SWAP2 POP POP SWAP3 SWAP2 POP POP JUMP JUMPDEST PUSH2 0x439 DUP2 PUSH2 0x52A JUMP JUMPDEST DUP3 MSTORE POP POP JUMP JUMPDEST PUSH1 0x0 PUSH2 0x44B DUP3 DUP5 PUSH2 0x3FF JUMP JUMPDEST SWAP2 POP DUP2 SWAP1 POP SWAP3 SWAP2 POP POP JUMP JUMPDEST PUSH1 0x0 PUSH1 0x20 DUP3 ADD SWAP1 POP PUSH2 0x46B PUSH1 0x0 DUP4 ADD DUP5 PUSH2 0x3F0 JUMP JUMPDEST SWAP3 SWAP2 POP POP JUMP JUMPDEST PUSH1 0x0 PUSH1 0x20 DUP3 ADD SWAP1 POP PUSH2 0x486 PUSH1 0x0 DUP4 ADD DUP5 PUSH2 0x430 JUMP JUMPDEST SWAP3 SWAP2 POP POP JUMP JUMPDEST PUSH1 0x0 PUSH2 0x496 PUSH2 0x4A7 JUMP JUMPDEST SWAP1 POP PUSH2 0x4A2 DUP3 DUP3 PUSH2 0x5A8 JUMP JUMPDEST SWAP2 SWAP1 POP JUMP JUMPDEST PUSH1 0x0 PUSH1 0x40 MLOAD SWAP1 POP SWAP1 JUMP JUMPDEST PUSH1 0x0 PUSH8 0xFFFFFFFFFFFFFFFF DUP3 GT ISZERO PUSH2 0x4CC JUMPI PUSH2 0x4CB PUSH2 0x608 JUMP JUMPDEST JUMPDEST PUSH2 0x4D5 DUP3 PUSH2 0x64B JUMP JUMPDEST SWAP1 POP PUSH1 0x20 DUP2 ADD SWAP1 POP SWAP2 SWAP1 POP JUMP JUMPDEST PUSH1 0x0 DUP2 MLOAD SWAP1 POP SWAP2 SWAP1 POP JUMP JUMPDEST PUSH1 0x0 DUP2 SWAP1 POP SWAP3 SWAP2 POP POP JUMP JUMPDEST PUSH1 0x0 PUSH2 0x503 DUP3 PUSH2 0x50A JUMP JUMPDEST SWAP1 POP SWAP2 SWAP1 POP JUMP JUMPDEST PUSH1 0x0 PUSH20 0xFFFFFFFFFFFFFFFFFFFFFFFFFFFFFFFFFFFFFFFF DUP3 AND SWAP1 POP SWAP2 SWAP1 POP JUMP JUMPDEST PUSH1 0x0 DUP2 SWAP1 POP SWAP2 SWAP1 POP JUMP JUMPDEST DUP3 DUP2 DUP4 CALLDATACOPY PUSH1 0x0 DUP4 DUP4 ADD MSTORE POP POP POP JUMP JUMPDEST PUSH1 0x0 JUMPDEST DUP4 DUP2 LT ISZERO PUSH2 0x561 JUMPI DUP1 DUP3 ADD MLOAD DUP2 DUP5 ADD MSTORE PUSH1 0x20 DUP2 ADD SWAP1 POP PUSH2 0x546 JUMP JUMPDEST DUP4 DUP2 GT ISZERO PUSH2 0x570 JUMPI PUSH1 0x0 DUP5 DUP5 ADD MSTORE JUMPDEST POP POP POP POP JUMP JUMPDEST PUSH1 0x0 PUSH1 0x2 DUP3 DIV SWAP1 POP PUSH1 0x1 DUP3 AND DUP1 PUSH2 0x58E JUMPI PUSH1 0x7F DUP3 AND SWAP2 POP JUMPDEST PUSH1 0x20 DUP3 LT DUP2 EQ ISZERO PUSH2 0x5A2 JUMPI PUSH2 0x5A1 PUSH2 0x5D9 JUMP JUMPDEST JUMPDEST POP SWAP2 SWAP1 POP JUMP JUMPDEST PUSH2 0x5B1 DUP3 PUSH2 0x64B JUMP JUMPDEST DUP2 ADD DUP2 DUP2 LT PUSH8 0xFFFFFFFFFFFFFFFF DUP3 GT OR ISZERO PUSH2 0x5D0 JUMPI PUSH2 0x5CF PUSH2 0x608 JUMP JUMPDEST JUMPDEST DUP1 PUSH1 0x40 MSTORE POP POP POP JUMP JUMPDEST PUSH32 0x4E487B7100000000000000000000000000000000000000000000000000000000 PUSH1 0x0 MSTORE PUSH1 0x22 PUSH1 0x4 MSTORE PUSH1 0x24 PUSH1 0x0 REVERT JUMPDEST PUSH32 0x4E487B7100000000000000000000000000000000000000000000000000000000 PUSH1 0x0 MSTORE PUSH1 0x41 PUSH1 0x4 MSTORE PUSH1 0x24 PUSH1 0x0 REVERT JUMPDEST PUSH1 0x0 DUP1 REVERT JUMPDEST PUSH1 0x0 DUP1 REVERT JUMPDEST PUSH1 0x0 DUP1 REVERT JUMPDEST PUSH1 0x0 DUP1 REVERT JUMPDEST PUSH1 0x0 PUSH1 0x1F NOT PUSH1 0x1F DUP4 ADD AND SWAP1 POP SWAP2 SWAP1 POP JUMP JUMPDEST PUSH2 0x665 DUP2 PUSH2 0x4F8 JUMP JUMPDEST DUP2 EQ PUSH2 0x670 JUMPI PUSH1 0x0 DUP1 REVERT JUMPDEST POP JUMP JUMPDEST PUSH2 0x67C DUP2 PUSH2 0x52A JUMP JUMPDEST DUP2 EQ PUSH2 0x687 JUMPI PUSH1 0x0 DUP1 REVERT JUMPDEST POP JUMP INVALID LOG2 PUSH5 0x6970667358 0x22 SLT KECCAK256 SWAP4 CODECOPY 0xF PUSH15 0x871B5BBCD966908E999E83422067FD ADDRESS 0xFB 0xC8 0x4C COINBASE CREATE 0xF9 PUSH28 0x14D974DA3364736F6C63430008070033000000000000000000000000 "
				},
				"gasEstimates": {
					"creation": {
						"codeDepositCost": "345600",
						"executionCost": "380",
						"totalCost": "345980"
					},
					"external": {
						"addCustomer(string,uint256,address)": "infinite",
						"getCustomerAddress(string)": "infinite",
						"getCustomerBalance(string)": "infinite"
					}
				},
				"methodIdentifiers": {
					"addCustomer(string,uint256,address)": "e65c9e75",
					"getCustomerAddress(string)": "28714348",
					"getCustomerBalance(string)": "ece9a4e9"
				}
			},
			"storageLayout": {
				"storage": [
					{
						"astId": 13,
						"contract": "contracts/Learning Solidity/Bank.sol:MyFirstSmartcontract",
						"label": "customers",
						"offset": 0,
						"slot": "0",
						"type": "t_mapping(t_string_memory_ptr,t_struct(Customer)8_storage)"
					}
				],
				"types": {
					"t_address": {
						"encoding": "inplace",
						"label": "address",
						"numberOfBytes": "20"
					},
					"t_mapping(t_string_memory_ptr,t_struct(Customer)8_storage)": {
						"encoding": "mapping",
						"key": "t_string_memory_ptr",
						"label": "mapping(string => struct MyFirstSmartcontract.Customer)",
						"numberOfBytes": "32",
						"value": "t_struct(Customer)8_storage"
					},
					"t_string_memory_ptr": {
						"encoding": "bytes",
						"label": "string",
						"numberOfBytes": "32"
					},
					"t_string_storage": {
						"encoding": "bytes",
						"label": "string",
						"numberOfBytes": "32"
					},
					"t_struct(Customer)8_storage": {
						"encoding": "inplace",
						"label": "struct MyFirstSmartcontract.Customer",
						"members": [
							{
								"astId": 3,
								"contract": "contracts/Learning Solidity/Bank.sol:MyFirstSmartcontract",
								"label": "name",
								"offset": 0,
								"slot": "0",
								"type": "t_string_storage"
							},
							{
								"astId": 5,
								"contract": "contracts/Learning Solidity/Bank.sol:MyFirstSmartcontract",
								"label": "balance",
								"offset": 0,
								"slot": "1",
								"type": "t_uint256"
							},
							{
								"astId": 7,
								"contract": "contracts/Learning Solidity/Bank.sol:MyFirstSmartcontract",
								"label": "ethAddress",
								"offset": 0,
								"slot": "2",
								"type": "t_address"
							}
						],
						"numberOfBytes": "96"
					},
					"t_uint256": {
						"encoding": "inplace",
						"label": "uint256",
						"numberOfBytes": "32"
					}
				}
			},
			"userdoc": {
				"kind": "user",
				"methods": {},
				"version": 1
			}
		}
	}
}