{
	"contracts/Learning Solidity/2. MyFirstSmartcontract.sol": {
		"MyFirstSmartcontract": {
			"abi": [
				{
					"inputs": [
						{
							"internalType": "string",
							"name": "name",
							"type": "string"
						},
						{
							"internalType": "uint256",
							"name": "balance",
							"type": "uint256"
						},
						{
							"internalType": "address",
							"name": "ethAddress",
							"type": "address"
						}
					],
					"name": "addCustomer",
					"outputs": [],
					"stateMutability": "nonpayable",
					"type": "function"
				},
				{
					"inputs": [
						{
							"internalType": "string",
							"name": "name",
							"type": "string"
						}
					],
					"name": "getCustomerBalance",
					"outputs": [
						{
							"internalType": "uint256",
							"name": "",
							"type": "uint256"
						}
					],
					"stateMutability": "nonpayable",
					"type": "function"
				}
			],
			"devdoc": {
				"kind": "dev",
				"methods": {},
				"version": 1
			},
			"evm": {
				"assembly": "    /* \"contracts/Learning Solidity/2. MyFirstSmartcontract.sol\":57:528  contract MyFirstSmartcontract {... */\n  mstore(0x40, 0x80)\n  callvalue\n  dup1\n  iszero\n  tag_1\n  jumpi\n  0x00\n  dup1\n  revert\ntag_1:\n  pop\n  dataSize(sub_0)\n  dup1\n  dataOffset(sub_0)\n  0x00\n  codecopy\n  0x00\n  return\nstop\n\nsub_0: assembly {\n        /* \"contracts/Learning Solidity/2. MyFirstSmartcontract.sol\":57:528  contract MyFirstSmartcontract {... */\n      mstore(0x40, 0x80)\n      callvalue\n      dup1\n      iszero\n      tag_1\n      jumpi\n      0x00\n      dup1\n      revert\n    tag_1:\n      pop\n      jumpi(tag_2, lt(calldatasize, 0x04))\n      shr(0xe0, calldataload(0x00))\n      dup1\n      0xe65c9e75\n      eq\n      tag_3\n      jumpi\n      dup1\n      0xece9a4e9\n      eq\n      tag_4\n      jumpi\n    tag_2:\n      0x00\n      dup1\n      revert\n        /* \"contracts/Learning Solidity/2. MyFirstSmartcontract.sol\":245:400  function addCustomer(string memory name, uint256 balance, address ethAddress) public {... */\n    tag_3:\n      tag_5\n      0x04\n      dup1\n      calldatasize\n      sub\n      dup2\n      add\n      swap1\n      tag_6\n      swap2\n      swap1\n      tag_7\n      jump\t// in\n    tag_6:\n      tag_8\n      jump\t// in\n    tag_5:\n      stop\n        /* \"contracts/Learning Solidity/2. MyFirstSmartcontract.sol\":406:525  function getCustomerBalance(string memory name) public returns(uint256) {... */\n    tag_4:\n      tag_9\n      0x04\n      dup1\n      calldatasize\n      sub\n      dup2\n      add\n      swap1\n      tag_10\n      swap2\n      swap1\n      tag_11\n      jump\t// in\n    tag_10:\n      tag_12\n      jump\t// in\n    tag_9:\n      mload(0x40)\n      tag_13\n      swap2\n      swap1\n      tag_14\n      jump\t// in\n    tag_13:\n      mload(0x40)\n      dup1\n      swap2\n      sub\n      swap1\n      return\n        /* \"contracts/Learning Solidity/2. MyFirstSmartcontract.sol\":245:400  function addCustomer(string memory name, uint256 balance, address ethAddress) public {... */\n    tag_8:\n        /* \"contracts/Learning Solidity/2. MyFirstSmartcontract.sol\":358:393  Customer(name, balance, ethAddress) */\n      mload(0x40)\n      dup1\n      0x60\n      add\n      0x40\n      mstore\n      dup1\n        /* \"contracts/Learning Solidity/2. MyFirstSmartcontract.sol\":367:371  name */\n      dup5\n        /* \"contracts/Learning Solidity/2. MyFirstSmartcontract.sol\":358:393  Customer(name, balance, ethAddress) */\n      dup2\n      mstore\n      0x20\n      add\n        /* \"contracts/Learning Solidity/2. MyFirstSmartcontract.sol\":373:380  balance */\n      dup4\n        /* \"contracts/Learning Solidity/2. MyFirstSmartcontract.sol\":358:393  Customer(name, balance, ethAddress) */\n      dup2\n      mstore\n      0x20\n      add\n        /* \"contracts/Learning Solidity/2. MyFirstSmartcontract.sol\":382:392  ethAddress */\n      dup3\n        /* \"contracts/Learning Solidity/2. MyFirstSmartcontract.sol\":358:393  Customer(name, balance, ethAddress) */\n      0xffffffffffffffffffffffffffffffffffffffff\n      and\n      dup2\n      mstore\n      pop\n        /* \"contracts/Learning Solidity/2. MyFirstSmartcontract.sol\":340:349  customers */\n      0x00\n        /* \"contracts/Learning Solidity/2. MyFirstSmartcontract.sol\":350:354  name */\n      dup5\n        /* \"contracts/Learning Solidity/2. MyFirstSmartcontract.sol\":340:355  customers[name] */\n      mload(0x40)\n      tag_16\n      swap2\n      swap1\n      tag_17\n      jump\t// in\n    tag_16:\n      swap1\n      dup2\n      mstore\n      0x20\n      add\n      mload(0x40)\n      dup1\n      swap2\n      sub\n      swap1\n      keccak256\n        /* \"contracts/Learning Solidity/2. MyFirstSmartcontract.sol\":340:393  customers[name] = Customer(name, balance, ethAddress) */\n      0x00\n      dup3\n      add\n      mload\n      dup2\n      0x00\n      add\n      swap1\n      dup1\n      mload\n      swap1\n      0x20\n      add\n      swap1\n      tag_18\n      swap3\n      swap2\n      swap1\n      tag_19\n      jump\t// in\n    tag_18:\n      pop\n      0x20\n      dup3\n      add\n      mload\n      dup2\n      0x01\n      add\n      sstore\n      0x40\n      dup3\n      add\n      mload\n      dup2\n      0x02\n      add\n      exp(0x0100, 0x00)\n      dup2\n      sload\n      dup2\n      0xffffffffffffffffffffffffffffffffffffffff\n      mul\n      not\n      and\n      swap1\n      dup4\n      0xffffffffffffffffffffffffffffffffffffffff\n      and\n      mul\n      or\n      swap1\n      sstore\n      pop\n      swap1\n      pop\n      pop\n        /* \"contracts/Learning Solidity/2. MyFirstSmartcontract.sol\":245:400  function addCustomer(string memory name, uint256 balance, address ethAddress) public {... */\n      pop\n      pop\n      pop\n      jump\t// out\n        /* \"contracts/Learning Solidity/2. MyFirstSmartcontract.sol\":406:525  function getCustomerBalance(string memory name) public returns(uint256) {... */\n    tag_12:\n        /* \"contracts/Learning Solidity/2. MyFirstSmartcontract.sol\":469:476  uint256 */\n      0x00\n        /* \"contracts/Learning Solidity/2. MyFirstSmartcontract.sol\":495:504  customers */\n      dup1\n        /* \"contracts/Learning Solidity/2. MyFirstSmartcontract.sol\":505:509  name */\n      dup3\n        /* \"contracts/Learning Solidity/2. MyFirstSmartcontract.sol\":495:510  customers[name] */\n      mload(0x40)\n      tag_21\n      swap2\n      swap1\n      tag_17\n      jump\t// in\n    tag_21:\n      swap1\n      dup2\n      mstore\n      0x20\n      add\n      mload(0x40)\n      dup1\n      swap2\n      sub\n      swap1\n      keccak256\n        /* \"contracts/Learning Solidity/2. MyFirstSmartcontract.sol\":495:518  customers[name].balance */\n      0x01\n      add\n      sload\n        /* \"contracts/Learning Solidity/2. MyFirstSmartcontract.sol\":488:518  return customers[name].balance */\n      swap1\n      pop\n        /* \"contracts/Learning Solidity/2. MyFirstSmartcontract.sol\":406:525  function getCustomerBalance(string memory name) public returns(uint256) {... */\n      swap2\n      swap1\n      pop\n      jump\t// out\n    tag_19:\n      dup3\n      dup1\n      sload\n      tag_22\n      swap1\n      tag_23\n      jump\t// in\n    tag_22:\n      swap1\n      0x00\n      mstore\n      keccak256(0x00, 0x20)\n      swap1\n      0x1f\n      add\n      0x20\n      swap1\n      div\n      dup2\n      add\n      swap3\n      dup3\n      tag_25\n      jumpi\n      0x00\n      dup6\n      sstore\n      jump(tag_24)\n    tag_25:\n      dup3\n      0x1f\n      lt\n      tag_26\n      jumpi\n      dup1\n      mload\n      not(0xff)\n      and\n      dup4\n      dup1\n      add\n      or\n      dup6\n      sstore\n      jump(tag_24)\n    tag_26:\n      dup3\n      dup1\n      add\n      0x01\n      add\n      dup6\n      sstore\n      dup3\n      iszero\n      tag_24\n      jumpi\n      swap2\n      dup3\n      add\n    tag_27:\n      dup3\n      dup2\n      gt\n      iszero\n      tag_28\n      jumpi\n      dup3\n      mload\n      dup3\n      sstore\n      swap2\n      0x20\n      add\n      swap2\n      swap1\n      0x01\n      add\n      swap1\n      jump(tag_27)\n    tag_28:\n    tag_24:\n      pop\n      swap1\n      pop\n      tag_29\n      swap2\n      swap1\n      tag_30\n      jump\t// in\n    tag_29:\n      pop\n      swap1\n      jump\t// out\n    tag_30:\n    tag_31:\n      dup1\n      dup3\n      gt\n      iszero\n      tag_32\n      jumpi\n      0x00\n      dup2\n      0x00\n      swap1\n      sstore\n      pop\n      0x01\n      add\n      jump(tag_31)\n    tag_32:\n      pop\n      swap1\n      jump\t// out\n        /* \"#utility.yul\":7:82   */\n    tag_33:\n        /* \"#utility.yul\":40:46   */\n      0x00\n        /* \"#utility.yul\":73:75   */\n      0x40\n        /* \"#utility.yul\":67:76   */\n      mload\n        /* \"#utility.yul\":57:76   */\n      swap1\n      pop\n        /* \"#utility.yul\":7:82   */\n      swap1\n      jump\t// out\n        /* \"#utility.yul\":88:205   */\n    tag_34:\n        /* \"#utility.yul\":197:198   */\n      0x00\n        /* \"#utility.yul\":194:195   */\n      dup1\n        /* \"#utility.yul\":187:199   */\n      revert\n        /* \"#utility.yul\":211:328   */\n    tag_35:\n        /* \"#utility.yul\":320:321   */\n      0x00\n        /* \"#utility.yul\":317:318   */\n      dup1\n        /* \"#utility.yul\":310:322   */\n      revert\n        /* \"#utility.yul\":334:451   */\n    tag_36:\n        /* \"#utility.yul\":443:444   */\n      0x00\n        /* \"#utility.yul\":440:441   */\n      dup1\n        /* \"#utility.yul\":433:445   */\n      revert\n        /* \"#utility.yul\":457:574   */\n    tag_37:\n        /* \"#utility.yul\":566:567   */\n      0x00\n        /* \"#utility.yul\":563:564   */\n      dup1\n        /* \"#utility.yul\":556:568   */\n      revert\n        /* \"#utility.yul\":580:682   */\n    tag_38:\n        /* \"#utility.yul\":621:627   */\n      0x00\n        /* \"#utility.yul\":672:674   */\n      0x1f\n        /* \"#utility.yul\":668:675   */\n      not\n        /* \"#utility.yul\":663:665   */\n      0x1f\n        /* \"#utility.yul\":656:661   */\n      dup4\n        /* \"#utility.yul\":652:666   */\n      add\n        /* \"#utility.yul\":648:676   */\n      and\n        /* \"#utility.yul\":638:676   */\n      swap1\n      pop\n        /* \"#utility.yul\":580:682   */\n      swap2\n      swap1\n      pop\n      jump\t// out\n        /* \"#utility.yul\":688:868   */\n    tag_39:\n        /* \"#utility.yul\":736:813   */\n      0x4e487b7100000000000000000000000000000000000000000000000000000000\n        /* \"#utility.yul\":733:734   */\n      0x00\n        /* \"#utility.yul\":726:814   */\n      mstore\n        /* \"#utility.yul\":833:837   */\n      0x41\n        /* \"#utility.yul\":830:831   */\n      0x04\n        /* \"#utility.yul\":823:838   */\n      mstore\n        /* \"#utility.yul\":857:861   */\n      0x24\n        /* \"#utility.yul\":854:855   */\n      0x00\n        /* \"#utility.yul\":847:862   */\n      revert\n        /* \"#utility.yul\":874:1155   */\n    tag_40:\n        /* \"#utility.yul\":957:984   */\n      tag_68\n        /* \"#utility.yul\":979:983   */\n      dup3\n        /* \"#utility.yul\":957:984   */\n      tag_38\n      jump\t// in\n    tag_68:\n        /* \"#utility.yul\":949:955   */\n      dup2\n        /* \"#utility.yul\":945:985   */\n      add\n        /* \"#utility.yul\":1087:1093   */\n      dup2\n        /* \"#utility.yul\":1075:1085   */\n      dup2\n        /* \"#utility.yul\":1072:1094   */\n      lt\n        /* \"#utility.yul\":1051:1069   */\n      0xffffffffffffffff\n        /* \"#utility.yul\":1039:1049   */\n      dup3\n        /* \"#utility.yul\":1036:1070   */\n      gt\n        /* \"#utility.yul\":1033:1095   */\n      or\n        /* \"#utility.yul\":1030:1118   */\n      iszero\n      tag_69\n      jumpi\n        /* \"#utility.yul\":1098:1116   */\n      tag_70\n      tag_39\n      jump\t// in\n    tag_70:\n        /* \"#utility.yul\":1030:1118   */\n    tag_69:\n        /* \"#utility.yul\":1138:1148   */\n      dup1\n        /* \"#utility.yul\":1134:1136   */\n      0x40\n        /* \"#utility.yul\":1127:1149   */\n      mstore\n        /* \"#utility.yul\":917:1155   */\n      pop\n        /* \"#utility.yul\":874:1155   */\n      pop\n      pop\n      jump\t// out\n        /* \"#utility.yul\":1161:1290   */\n    tag_41:\n        /* \"#utility.yul\":1195:1201   */\n      0x00\n        /* \"#utility.yul\":1222:1242   */\n      tag_72\n      tag_33\n      jump\t// in\n    tag_72:\n        /* \"#utility.yul\":1212:1242   */\n      swap1\n      pop\n        /* \"#utility.yul\":1251:1284   */\n      tag_73\n        /* \"#utility.yul\":1279:1283   */\n      dup3\n        /* \"#utility.yul\":1271:1277   */\n      dup3\n        /* \"#utility.yul\":1251:1284   */\n      tag_40\n      jump\t// in\n    tag_73:\n        /* \"#utility.yul\":1161:1290   */\n      swap2\n      swap1\n      pop\n      jump\t// out\n        /* \"#utility.yul\":1296:1604   */\n    tag_42:\n        /* \"#utility.yul\":1358:1362   */\n      0x00\n        /* \"#utility.yul\":1448:1466   */\n      0xffffffffffffffff\n        /* \"#utility.yul\":1440:1446   */\n      dup3\n        /* \"#utility.yul\":1437:1467   */\n      gt\n        /* \"#utility.yul\":1434:1490   */\n      iszero\n      tag_75\n      jumpi\n        /* \"#utility.yul\":1470:1488   */\n      tag_76\n      tag_39\n      jump\t// in\n    tag_76:\n        /* \"#utility.yul\":1434:1490   */\n    tag_75:\n        /* \"#utility.yul\":1508:1537   */\n      tag_77\n        /* \"#utility.yul\":1530:1536   */\n      dup3\n        /* \"#utility.yul\":1508:1537   */\n      tag_38\n      jump\t// in\n    tag_77:\n        /* \"#utility.yul\":1500:1537   */\n      swap1\n      pop\n        /* \"#utility.yul\":1592:1596   */\n      0x20\n        /* \"#utility.yul\":1586:1590   */\n      dup2\n        /* \"#utility.yul\":1582:1597   */\n      add\n        /* \"#utility.yul\":1574:1597   */\n      swap1\n      pop\n        /* \"#utility.yul\":1296:1604   */\n      swap2\n      swap1\n      pop\n      jump\t// out\n        /* \"#utility.yul\":1610:1764   */\n    tag_43:\n        /* \"#utility.yul\":1694:1700   */\n      dup3\n        /* \"#utility.yul\":1689:1692   */\n      dup2\n        /* \"#utility.yul\":1684:1687   */\n      dup4\n        /* \"#utility.yul\":1671:1701   */\n      calldatacopy\n        /* \"#utility.yul\":1756:1757   */\n      0x00\n        /* \"#utility.yul\":1747:1753   */\n      dup4\n        /* \"#utility.yul\":1742:1745   */\n      dup4\n        /* \"#utility.yul\":1738:1754   */\n      add\n        /* \"#utility.yul\":1731:1758   */\n      mstore\n        /* \"#utility.yul\":1610:1764   */\n      pop\n      pop\n      pop\n      jump\t// out\n        /* \"#utility.yul\":1770:2182   */\n    tag_44:\n        /* \"#utility.yul\":1848:1853   */\n      0x00\n        /* \"#utility.yul\":1873:1939   */\n      tag_80\n        /* \"#utility.yul\":1889:1938   */\n      tag_81\n        /* \"#utility.yul\":1931:1937   */\n      dup5\n        /* \"#utility.yul\":1889:1938   */\n      tag_42\n      jump\t// in\n    tag_81:\n        /* \"#utility.yul\":1873:1939   */\n      tag_41\n      jump\t// in\n    tag_80:\n        /* \"#utility.yul\":1864:1939   */\n      swap1\n      pop\n        /* \"#utility.yul\":1962:1968   */\n      dup3\n        /* \"#utility.yul\":1955:1960   */\n      dup2\n        /* \"#utility.yul\":1948:1969   */\n      mstore\n        /* \"#utility.yul\":2000:2004   */\n      0x20\n        /* \"#utility.yul\":1993:1998   */\n      dup2\n        /* \"#utility.yul\":1989:2005   */\n      add\n        /* \"#utility.yul\":2038:2041   */\n      dup5\n        /* \"#utility.yul\":2029:2035   */\n      dup5\n        /* \"#utility.yul\":2024:2027   */\n      dup5\n        /* \"#utility.yul\":2020:2036   */\n      add\n        /* \"#utility.yul\":2017:2042   */\n      gt\n        /* \"#utility.yul\":2014:2126   */\n      iszero\n      tag_82\n      jumpi\n        /* \"#utility.yul\":2045:2124   */\n      tag_83\n      tag_37\n      jump\t// in\n    tag_83:\n        /* \"#utility.yul\":2014:2126   */\n    tag_82:\n        /* \"#utility.yul\":2135:2176   */\n      tag_84\n        /* \"#utility.yul\":2169:2175   */\n      dup5\n        /* \"#utility.yul\":2164:2167   */\n      dup3\n        /* \"#utility.yul\":2159:2162   */\n      dup6\n        /* \"#utility.yul\":2135:2176   */\n      tag_43\n      jump\t// in\n    tag_84:\n        /* \"#utility.yul\":1854:2182   */\n      pop\n        /* \"#utility.yul\":1770:2182   */\n      swap4\n      swap3\n      pop\n      pop\n      pop\n      jump\t// out\n        /* \"#utility.yul\":2202:2542   */\n    tag_45:\n        /* \"#utility.yul\":2258:2263   */\n      0x00\n        /* \"#utility.yul\":2307:2310   */\n      dup3\n        /* \"#utility.yul\":2300:2304   */\n      0x1f\n        /* \"#utility.yul\":2292:2298   */\n      dup4\n        /* \"#utility.yul\":2288:2305   */\n      add\n        /* \"#utility.yul\":2284:2311   */\n      slt\n        /* \"#utility.yul\":2274:2396   */\n      tag_86\n      jumpi\n        /* \"#utility.yul\":2315:2394   */\n      tag_87\n      tag_36\n      jump\t// in\n    tag_87:\n        /* \"#utility.yul\":2274:2396   */\n    tag_86:\n        /* \"#utility.yul\":2432:2438   */\n      dup2\n        /* \"#utility.yul\":2419:2439   */\n      calldataload\n        /* \"#utility.yul\":2457:2536   */\n      tag_88\n        /* \"#utility.yul\":2532:2535   */\n      dup5\n        /* \"#utility.yul\":2524:2530   */\n      dup3\n        /* \"#utility.yul\":2517:2521   */\n      0x20\n        /* \"#utility.yul\":2509:2515   */\n      dup7\n        /* \"#utility.yul\":2505:2522   */\n      add\n        /* \"#utility.yul\":2457:2536   */\n      tag_44\n      jump\t// in\n    tag_88:\n        /* \"#utility.yul\":2448:2536   */\n      swap2\n      pop\n        /* \"#utility.yul\":2264:2542   */\n      pop\n        /* \"#utility.yul\":2202:2542   */\n      swap3\n      swap2\n      pop\n      pop\n      jump\t// out\n        /* \"#utility.yul\":2548:2625   */\n    tag_46:\n        /* \"#utility.yul\":2585:2592   */\n      0x00\n        /* \"#utility.yul\":2614:2619   */\n      dup2\n        /* \"#utility.yul\":2603:2619   */\n      swap1\n      pop\n        /* \"#utility.yul\":2548:2625   */\n      swap2\n      swap1\n      pop\n      jump\t// out\n        /* \"#utility.yul\":2631:2753   */\n    tag_47:\n        /* \"#utility.yul\":2704:2728   */\n      tag_91\n        /* \"#utility.yul\":2722:2727   */\n      dup2\n        /* \"#utility.yul\":2704:2728   */\n      tag_46\n      jump\t// in\n    tag_91:\n        /* \"#utility.yul\":2697:2702   */\n      dup2\n        /* \"#utility.yul\":2694:2729   */\n      eq\n        /* \"#utility.yul\":2684:2747   */\n      tag_92\n      jumpi\n        /* \"#utility.yul\":2743:2744   */\n      0x00\n        /* \"#utility.yul\":2740:2741   */\n      dup1\n        /* \"#utility.yul\":2733:2745   */\n      revert\n        /* \"#utility.yul\":2684:2747   */\n    tag_92:\n        /* \"#utility.yul\":2631:2753   */\n      pop\n      jump\t// out\n        /* \"#utility.yul\":2759:2898   */\n    tag_48:\n        /* \"#utility.yul\":2805:2810   */\n      0x00\n        /* \"#utility.yul\":2843:2849   */\n      dup2\n        /* \"#utility.yul\":2830:2850   */\n      calldataload\n        /* \"#utility.yul\":2821:2850   */\n      swap1\n      pop\n        /* \"#utility.yul\":2859:2892   */\n      tag_94\n        /* \"#utility.yul\":2886:2891   */\n      dup2\n        /* \"#utility.yul\":2859:2892   */\n      tag_47\n      jump\t// in\n    tag_94:\n        /* \"#utility.yul\":2759:2898   */\n      swap3\n      swap2\n      pop\n      pop\n      jump\t// out\n        /* \"#utility.yul\":2904:3030   */\n    tag_49:\n        /* \"#utility.yul\":2941:2948   */\n      0x00\n        /* \"#utility.yul\":2981:3023   */\n      0xffffffffffffffffffffffffffffffffffffffff\n        /* \"#utility.yul\":2974:2979   */\n      dup3\n        /* \"#utility.yul\":2970:3024   */\n      and\n        /* \"#utility.yul\":2959:3024   */\n      swap1\n      pop\n        /* \"#utility.yul\":2904:3030   */\n      swap2\n      swap1\n      pop\n      jump\t// out\n        /* \"#utility.yul\":3036:3132   */\n    tag_50:\n        /* \"#utility.yul\":3073:3080   */\n      0x00\n        /* \"#utility.yul\":3102:3126   */\n      tag_97\n        /* \"#utility.yul\":3120:3125   */\n      dup3\n        /* \"#utility.yul\":3102:3126   */\n      tag_49\n      jump\t// in\n    tag_97:\n        /* \"#utility.yul\":3091:3126   */\n      swap1\n      pop\n        /* \"#utility.yul\":3036:3132   */\n      swap2\n      swap1\n      pop\n      jump\t// out\n        /* \"#utility.yul\":3138:3260   */\n    tag_51:\n        /* \"#utility.yul\":3211:3235   */\n      tag_99\n        /* \"#utility.yul\":3229:3234   */\n      dup2\n        /* \"#utility.yul\":3211:3235   */\n      tag_50\n      jump\t// in\n    tag_99:\n        /* \"#utility.yul\":3204:3209   */\n      dup2\n        /* \"#utility.yul\":3201:3236   */\n      eq\n        /* \"#utility.yul\":3191:3254   */\n      tag_100\n      jumpi\n        /* \"#utility.yul\":3250:3251   */\n      0x00\n        /* \"#utility.yul\":3247:3248   */\n      dup1\n        /* \"#utility.yul\":3240:3252   */\n      revert\n        /* \"#utility.yul\":3191:3254   */\n    tag_100:\n        /* \"#utility.yul\":3138:3260   */\n      pop\n      jump\t// out\n        /* \"#utility.yul\":3266:3405   */\n    tag_52:\n        /* \"#utility.yul\":3312:3317   */\n      0x00\n        /* \"#utility.yul\":3350:3356   */\n      dup2\n        /* \"#utility.yul\":3337:3357   */\n      calldataload\n        /* \"#utility.yul\":3328:3357   */\n      swap1\n      pop\n        /* \"#utility.yul\":3366:3399   */\n      tag_102\n        /* \"#utility.yul\":3393:3398   */\n      dup2\n        /* \"#utility.yul\":3366:3399   */\n      tag_51\n      jump\t// in\n    tag_102:\n        /* \"#utility.yul\":3266:3405   */\n      swap3\n      swap2\n      pop\n      pop\n      jump\t// out\n        /* \"#utility.yul\":3411:4210   */\n    tag_7:\n        /* \"#utility.yul\":3498:3504   */\n      0x00\n        /* \"#utility.yul\":3506:3512   */\n      dup1\n        /* \"#utility.yul\":3514:3520   */\n      0x00\n        /* \"#utility.yul\":3563:3565   */\n      0x60\n        /* \"#utility.yul\":3551:3560   */\n      dup5\n        /* \"#utility.yul\":3542:3549   */\n      dup7\n        /* \"#utility.yul\":3538:3561   */\n      sub\n        /* \"#utility.yul\":3534:3566   */\n      slt\n        /* \"#utility.yul\":3531:3650   */\n      iszero\n      tag_104\n      jumpi\n        /* \"#utility.yul\":3569:3648   */\n      tag_105\n      tag_34\n      jump\t// in\n    tag_105:\n        /* \"#utility.yul\":3531:3650   */\n    tag_104:\n        /* \"#utility.yul\":3717:3718   */\n      0x00\n        /* \"#utility.yul\":3706:3715   */\n      dup5\n        /* \"#utility.yul\":3702:3719   */\n      add\n        /* \"#utility.yul\":3689:3720   */\n      calldataload\n        /* \"#utility.yul\":3747:3765   */\n      0xffffffffffffffff\n        /* \"#utility.yul\":3739:3745   */\n      dup2\n        /* \"#utility.yul\":3736:3766   */\n      gt\n        /* \"#utility.yul\":3733:3850   */\n      iszero\n      tag_106\n      jumpi\n        /* \"#utility.yul\":3769:3848   */\n      tag_107\n      tag_35\n      jump\t// in\n    tag_107:\n        /* \"#utility.yul\":3733:3850   */\n    tag_106:\n        /* \"#utility.yul\":3874:3937   */\n      tag_108\n        /* \"#utility.yul\":3929:3936   */\n      dup7\n        /* \"#utility.yul\":3920:3926   */\n      dup3\n        /* \"#utility.yul\":3909:3918   */\n      dup8\n        /* \"#utility.yul\":3905:3927   */\n      add\n        /* \"#utility.yul\":3874:3937   */\n      tag_45\n      jump\t// in\n    tag_108:\n        /* \"#utility.yul\":3864:3937   */\n      swap4\n      pop\n        /* \"#utility.yul\":3660:3947   */\n      pop\n        /* \"#utility.yul\":3986:3988   */\n      0x20\n        /* \"#utility.yul\":4012:4065   */\n      tag_109\n        /* \"#utility.yul\":4057:4064   */\n      dup7\n        /* \"#utility.yul\":4048:4054   */\n      dup3\n        /* \"#utility.yul\":4037:4046   */\n      dup8\n        /* \"#utility.yul\":4033:4055   */\n      add\n        /* \"#utility.yul\":4012:4065   */\n      tag_48\n      jump\t// in\n    tag_109:\n        /* \"#utility.yul\":4002:4065   */\n      swap3\n      pop\n        /* \"#utility.yul\":3957:4075   */\n      pop\n        /* \"#utility.yul\":4114:4116   */\n      0x40\n        /* \"#utility.yul\":4140:4193   */\n      tag_110\n        /* \"#utility.yul\":4185:4192   */\n      dup7\n        /* \"#utility.yul\":4176:4182   */\n      dup3\n        /* \"#utility.yul\":4165:4174   */\n      dup8\n        /* \"#utility.yul\":4161:4183   */\n      add\n        /* \"#utility.yul\":4140:4193   */\n      tag_52\n      jump\t// in\n    tag_110:\n        /* \"#utility.yul\":4130:4193   */\n      swap2\n      pop\n        /* \"#utility.yul\":4085:4203   */\n      pop\n        /* \"#utility.yul\":3411:4210   */\n      swap3\n      pop\n      swap3\n      pop\n      swap3\n      jump\t// out\n        /* \"#utility.yul\":4216:4725   */\n    tag_11:\n        /* \"#utility.yul\":4285:4291   */\n      0x00\n        /* \"#utility.yul\":4334:4336   */\n      0x20\n        /* \"#utility.yul\":4322:4331   */\n      dup3\n        /* \"#utility.yul\":4313:4320   */\n      dup5\n        /* \"#utility.yul\":4309:4332   */\n      sub\n        /* \"#utility.yul\":4305:4337   */\n      slt\n        /* \"#utility.yul\":4302:4421   */\n      iszero\n      tag_112\n      jumpi\n        /* \"#utility.yul\":4340:4419   */\n      tag_113\n      tag_34\n      jump\t// in\n    tag_113:\n        /* \"#utility.yul\":4302:4421   */\n    tag_112:\n        /* \"#utility.yul\":4488:4489   */\n      0x00\n        /* \"#utility.yul\":4477:4486   */\n      dup3\n        /* \"#utility.yul\":4473:4490   */\n      add\n        /* \"#utility.yul\":4460:4491   */\n      calldataload\n        /* \"#utility.yul\":4518:4536   */\n      0xffffffffffffffff\n        /* \"#utility.yul\":4510:4516   */\n      dup2\n        /* \"#utility.yul\":4507:4537   */\n      gt\n        /* \"#utility.yul\":4504:4621   */\n      iszero\n      tag_114\n      jumpi\n        /* \"#utility.yul\":4540:4619   */\n      tag_115\n      tag_35\n      jump\t// in\n    tag_115:\n        /* \"#utility.yul\":4504:4621   */\n    tag_114:\n        /* \"#utility.yul\":4645:4708   */\n      tag_116\n        /* \"#utility.yul\":4700:4707   */\n      dup5\n        /* \"#utility.yul\":4691:4697   */\n      dup3\n        /* \"#utility.yul\":4680:4689   */\n      dup6\n        /* \"#utility.yul\":4676:4698   */\n      add\n        /* \"#utility.yul\":4645:4708   */\n      tag_45\n      jump\t// in\n    tag_116:\n        /* \"#utility.yul\":4635:4708   */\n      swap2\n      pop\n        /* \"#utility.yul\":4431:4718   */\n      pop\n        /* \"#utility.yul\":4216:4725   */\n      swap3\n      swap2\n      pop\n      pop\n      jump\t// out\n        /* \"#utility.yul\":4731:4849   */\n    tag_53:\n        /* \"#utility.yul\":4818:4842   */\n      tag_118\n        /* \"#utility.yul\":4836:4841   */\n      dup2\n        /* \"#utility.yul\":4818:4842   */\n      tag_46\n      jump\t// in\n    tag_118:\n        /* \"#utility.yul\":4813:4816   */\n      dup3\n        /* \"#utility.yul\":4806:4843   */\n      mstore\n        /* \"#utility.yul\":4731:4849   */\n      pop\n      pop\n      jump\t// out\n        /* \"#utility.yul\":4855:5077   */\n    tag_14:\n        /* \"#utility.yul\":4948:4952   */\n      0x00\n        /* \"#utility.yul\":4986:4988   */\n      0x20\n        /* \"#utility.yul\":4975:4984   */\n      dup3\n        /* \"#utility.yul\":4971:4989   */\n      add\n        /* \"#utility.yul\":4963:4989   */\n      swap1\n      pop\n        /* \"#utility.yul\":4999:5070   */\n      tag_120\n        /* \"#utility.yul\":5067:5068   */\n      0x00\n        /* \"#utility.yul\":5056:5065   */\n      dup4\n        /* \"#utility.yul\":5052:5069   */\n      add\n        /* \"#utility.yul\":5043:5049   */\n      dup5\n        /* \"#utility.yul\":4999:5070   */\n      tag_53\n      jump\t// in\n    tag_120:\n        /* \"#utility.yul\":4855:5077   */\n      swap3\n      swap2\n      pop\n      pop\n      jump\t// out\n        /* \"#utility.yul\":5083:5182   */\n    tag_54:\n        /* \"#utility.yul\":5135:5141   */\n      0x00\n        /* \"#utility.yul\":5169:5174   */\n      dup2\n        /* \"#utility.yul\":5163:5175   */\n      mload\n        /* \"#utility.yul\":5153:5175   */\n      swap1\n      pop\n        /* \"#utility.yul\":5083:5182   */\n      swap2\n      swap1\n      pop\n      jump\t// out\n        /* \"#utility.yul\":5188:5336   */\n    tag_55:\n        /* \"#utility.yul\":5290:5301   */\n      0x00\n        /* \"#utility.yul\":5327:5330   */\n      dup2\n        /* \"#utility.yul\":5312:5330   */\n      swap1\n      pop\n        /* \"#utility.yul\":5188:5336   */\n      swap3\n      swap2\n      pop\n      pop\n      jump\t// out\n        /* \"#utility.yul\":5342:5649   */\n    tag_56:\n        /* \"#utility.yul\":5410:5411   */\n      0x00\n        /* \"#utility.yul\":5420:5533   */\n    tag_124:\n        /* \"#utility.yul\":5434:5440   */\n      dup4\n        /* \"#utility.yul\":5431:5432   */\n      dup2\n        /* \"#utility.yul\":5428:5441   */\n      lt\n        /* \"#utility.yul\":5420:5533   */\n      iszero\n      tag_126\n      jumpi\n        /* \"#utility.yul\":5519:5520   */\n      dup1\n        /* \"#utility.yul\":5514:5517   */\n      dup3\n        /* \"#utility.yul\":5510:5521   */\n      add\n        /* \"#utility.yul\":5504:5522   */\n      mload\n        /* \"#utility.yul\":5500:5501   */\n      dup2\n        /* \"#utility.yul\":5495:5498   */\n      dup5\n        /* \"#utility.yul\":5491:5502   */\n      add\n        /* \"#utility.yul\":5484:5523   */\n      mstore\n        /* \"#utility.yul\":5456:5458   */\n      0x20\n        /* \"#utility.yul\":5453:5454   */\n      dup2\n        /* \"#utility.yul\":5449:5459   */\n      add\n        /* \"#utility.yul\":5444:5459   */\n      swap1\n      pop\n        /* \"#utility.yul\":5420:5533   */\n      jump(tag_124)\n    tag_126:\n        /* \"#utility.yul\":5551:5557   */\n      dup4\n        /* \"#utility.yul\":5548:5549   */\n      dup2\n        /* \"#utility.yul\":5545:5558   */\n      gt\n        /* \"#utility.yul\":5542:5643   */\n      iszero\n      tag_127\n      jumpi\n        /* \"#utility.yul\":5631:5632   */\n      0x00\n        /* \"#utility.yul\":5622:5628   */\n      dup5\n        /* \"#utility.yul\":5617:5620   */\n      dup5\n        /* \"#utility.yul\":5613:5629   */\n      add\n        /* \"#utility.yul\":5606:5633   */\n      mstore\n        /* \"#utility.yul\":5542:5643   */\n    tag_127:\n        /* \"#utility.yul\":5391:5649   */\n      pop\n        /* \"#utility.yul\":5342:5649   */\n      pop\n      pop\n      pop\n      jump\t// out\n        /* \"#utility.yul\":5655:6032   */\n    tag_57:\n        /* \"#utility.yul\":5761:5764   */\n      0x00\n        /* \"#utility.yul\":5789:5828   */\n      tag_129\n        /* \"#utility.yul\":5822:5827   */\n      dup3\n        /* \"#utility.yul\":5789:5828   */\n      tag_54\n      jump\t// in\n    tag_129:\n        /* \"#utility.yul\":5844:5933   */\n      tag_130\n        /* \"#utility.yul\":5926:5932   */\n      dup2\n        /* \"#utility.yul\":5921:5924   */\n      dup6\n        /* \"#utility.yul\":5844:5933   */\n      tag_55\n      jump\t// in\n    tag_130:\n        /* \"#utility.yul\":5837:5933   */\n      swap4\n      pop\n        /* \"#utility.yul\":5942:5994   */\n      tag_131\n        /* \"#utility.yul\":5987:5993   */\n      dup2\n        /* \"#utility.yul\":5982:5985   */\n      dup6\n        /* \"#utility.yul\":5975:5979   */\n      0x20\n        /* \"#utility.yul\":5968:5973   */\n      dup7\n        /* \"#utility.yul\":5964:5980   */\n      add\n        /* \"#utility.yul\":5942:5994   */\n      tag_56\n      jump\t// in\n    tag_131:\n        /* \"#utility.yul\":6019:6025   */\n      dup1\n        /* \"#utility.yul\":6014:6017   */\n      dup5\n        /* \"#utility.yul\":6010:6026   */\n      add\n        /* \"#utility.yul\":6003:6026   */\n      swap2\n      pop\n        /* \"#utility.yul\":5765:6032   */\n      pop\n        /* \"#utility.yul\":5655:6032   */\n      swap3\n      swap2\n      pop\n      pop\n      jump\t// out\n        /* \"#utility.yul\":6038:6313   */\n    tag_17:\n        /* \"#utility.yul\":6170:6173   */\n      0x00\n        /* \"#utility.yul\":6192:6287   */\n      tag_133\n        /* \"#utility.yul\":6283:6286   */\n      dup3\n        /* \"#utility.yul\":6274:6280   */\n      dup5\n        /* \"#utility.yul\":6192:6287   */\n      tag_57\n      jump\t// in\n    tag_133:\n        /* \"#utility.yul\":6185:6287   */\n      swap2\n      pop\n        /* \"#utility.yul\":6304:6307   */\n      dup2\n        /* \"#utility.yul\":6297:6307   */\n      swap1\n      pop\n        /* \"#utility.yul\":6038:6313   */\n      swap3\n      swap2\n      pop\n      pop\n      jump\t// out\n        /* \"#utility.yul\":6319:6499   */\n    tag_58:\n        /* \"#utility.yul\":6367:6444   */\n      0x4e487b7100000000000000000000000000000000000000000000000000000000\n        /* \"#utility.yul\":6364:6365   */\n      0x00\n        /* \"#utility.yul\":6357:6445   */\n      mstore\n        /* \"#utility.yul\":6464:6468   */\n      0x22\n        /* \"#utility.yul\":6461:6462   */\n      0x04\n        /* \"#utility.yul\":6454:6469   */\n      mstore\n        /* \"#utility.yul\":6488:6492   */\n      0x24\n        /* \"#utility.yul\":6485:6486   */\n      0x00\n        /* \"#utility.yul\":6478:6493   */\n      revert\n        /* \"#utility.yul\":6505:6825   */\n    tag_23:\n        /* \"#utility.yul\":6549:6555   */\n      0x00\n        /* \"#utility.yul\":6586:6587   */\n      0x02\n        /* \"#utility.yul\":6580:6584   */\n      dup3\n        /* \"#utility.yul\":6576:6588   */\n      div\n        /* \"#utility.yul\":6566:6588   */\n      swap1\n      pop\n        /* \"#utility.yul\":6633:6634   */\n      0x01\n        /* \"#utility.yul\":6627:6631   */\n      dup3\n        /* \"#utility.yul\":6623:6635   */\n      and\n        /* \"#utility.yul\":6654:6672   */\n      dup1\n        /* \"#utility.yul\":6644:6725   */\n      tag_136\n      jumpi\n        /* \"#utility.yul\":6710:6714   */\n      0x7f\n        /* \"#utility.yul\":6702:6708   */\n      dup3\n        /* \"#utility.yul\":6698:6715   */\n      and\n        /* \"#utility.yul\":6688:6715   */\n      swap2\n      pop\n        /* \"#utility.yul\":6644:6725   */\n    tag_136:\n        /* \"#utility.yul\":6772:6774   */\n      0x20\n        /* \"#utility.yul\":6764:6770   */\n      dup3\n        /* \"#utility.yul\":6761:6775   */\n      lt\n        /* \"#utility.yul\":6741:6759   */\n      dup2\n        /* \"#utility.yul\":6738:6776   */\n      sub\n        /* \"#utility.yul\":6735:6819   */\n      tag_137\n      jumpi\n        /* \"#utility.yul\":6791:6809   */\n      tag_138\n      tag_58\n      jump\t// in\n    tag_138:\n        /* \"#utility.yul\":6735:6819   */\n    tag_137:\n        /* \"#utility.yul\":6556:6825   */\n      pop\n        /* \"#utility.yul\":6505:6825   */\n      swap2\n      swap1\n      pop\n      jump\t// out\n\n    auxdata: 0xa2646970667358221220f0448c14de5ed8a36d9356bdfd9f74c4df8f01e8b859b4bea80d415a723d898c64736f6c634300080e0033\n}\n",
				"bytecode": {
					"linkReferences": {},
					"object": "608060405234801561001057600080fd5b50610610806100206000396000f3fe608060405234801561001057600080fd5b50600436106100365760003560e01c8063e65c9e751461003b578063ece9a4e914610057575b600080fd5b61005560048036038101906100509190610407565b610087565b005b610071600480360381019061006c9190610476565b61014c565b60405161007e91906104ce565b60405180910390f35b60405180606001604052808481526020018381526020018273ffffffffffffffffffffffffffffffffffffffff168152506000846040516100c89190610563565b908152602001604051809103902060008201518160000190805190602001906100f2929190610176565b506020820151816001015560408201518160020160006101000a81548173ffffffffffffffffffffffffffffffffffffffff021916908373ffffffffffffffffffffffffffffffffffffffff160217905550905050505050565b6000808260405161015d9190610563565b9081526020016040518091039020600101549050919050565b828054610182906105a9565b90600052602060002090601f0160209004810192826101a457600085556101eb565b82601f106101bd57805160ff19168380011785556101eb565b828001600101855582156101eb579182015b828111156101ea5782518255916020019190600101906101cf565b5b5090506101f891906101fc565b5090565b5b808211156102155760008160009055506001016101fd565b5090565b6000604051905090565b600080fd5b600080fd5b600080fd5b600080fd5b6000601f19601f8301169050919050565b7f4e487b7100000000000000000000000000000000000000000000000000000000600052604160045260246000fd5b61028082610237565b810181811067ffffffffffffffff8211171561029f5761029e610248565b5b80604052505050565b60006102b2610219565b90506102be8282610277565b919050565b600067ffffffffffffffff8211156102de576102dd610248565b5b6102e782610237565b9050602081019050919050565b82818337600083830152505050565b6000610316610311846102c3565b6102a8565b90508281526020810184848401111561033257610331610232565b5b61033d8482856102f4565b509392505050565b600082601f83011261035a5761035961022d565b5b813561036a848260208601610303565b91505092915050565b6000819050919050565b61038681610373565b811461039157600080fd5b50565b6000813590506103a38161037d565b92915050565b600073ffffffffffffffffffffffffffffffffffffffff82169050919050565b60006103d4826103a9565b9050919050565b6103e4816103c9565b81146103ef57600080fd5b50565b600081359050610401816103db565b92915050565b6000806000606084860312156104205761041f610223565b5b600084013567ffffffffffffffff81111561043e5761043d610228565b5b61044a86828701610345565b935050602061045b86828701610394565b925050604061046c868287016103f2565b9150509250925092565b60006020828403121561048c5761048b610223565b5b600082013567ffffffffffffffff8111156104aa576104a9610228565b5b6104b684828501610345565b91505092915050565b6104c881610373565b82525050565b60006020820190506104e360008301846104bf565b92915050565b600081519050919050565b600081905092915050565b60005b8381101561051d578082015181840152602081019050610502565b8381111561052c576000848401525b50505050565b600061053d826104e9565b61054781856104f4565b93506105578185602086016104ff565b80840191505092915050565b600061056f8284610532565b915081905092915050565b7f4e487b7100000000000000000000000000000000000000000000000000000000600052602260045260246000fd5b600060028204905060018216806105c157607f821691505b6020821081036105d4576105d361057a565b5b5091905056fea2646970667358221220f0448c14de5ed8a36d9356bdfd9f74c4df8f01e8b859b4bea80d415a723d898c64736f6c634300080e0033",
					"opcodes": "PUSH1 0x80 PUSH1 0x40 MSTORE CALLVALUE DUP1 ISZERO PUSH2 0x10 JUMPI PUSH1 0x0 DUP1 REVERT JUMPDEST POP PUSH2 0x610 DUP1 PUSH2 0x20 PUSH1 0x0 CODECOPY PUSH1 0x0 RETURN INVALID PUSH1 0x80 PUSH1 0x40 MSTORE CALLVALUE DUP1 ISZERO PUSH2 0x10 JUMPI PUSH1 0x0 DUP1 REVERT JUMPDEST POP PUSH1 0x4 CALLDATASIZE LT PUSH2 0x36 JUMPI PUSH1 0x0 CALLDATALOAD PUSH1 0xE0 SHR DUP1 PUSH4 0xE65C9E75 EQ PUSH2 0x3B JUMPI DUP1 PUSH4 0xECE9A4E9 EQ PUSH2 0x57 JUMPI JUMPDEST PUSH1 0x0 DUP1 REVERT JUMPDEST PUSH2 0x55 PUSH1 0x4 DUP1 CALLDATASIZE SUB DUP2 ADD SWAP1 PUSH2 0x50 SWAP2 SWAP1 PUSH2 0x407 JUMP JUMPDEST PUSH2 0x87 JUMP JUMPDEST STOP JUMPDEST PUSH2 0x71 PUSH1 0x4 DUP1 CALLDATASIZE SUB DUP2 ADD SWAP1 PUSH2 0x6C SWAP2 SWAP1 PUSH2 0x476 JUMP JUMPDEST PUSH2 0x14C JUMP JUMPDEST PUSH1 0x40 MLOAD PUSH2 0x7E SWAP2 SWAP1 PUSH2 0x4CE JUMP JUMPDEST PUSH1 0x40 MLOAD DUP1 SWAP2 SUB SWAP1 RETURN JUMPDEST PUSH1 0x40 MLOAD DUP1 PUSH1 0x60 ADD PUSH1 0x40 MSTORE DUP1 DUP5 DUP2 MSTORE PUSH1 0x20 ADD DUP4 DUP2 MSTORE PUSH1 0x20 ADD DUP3 PUSH20 0xFFFFFFFFFFFFFFFFFFFFFFFFFFFFFFFFFFFFFFFF AND DUP2 MSTORE POP PUSH1 0x0 DUP5 PUSH1 0x40 MLOAD PUSH2 0xC8 SWAP2 SWAP1 PUSH2 0x563 JUMP JUMPDEST SWAP1 DUP2 MSTORE PUSH1 0x20 ADD PUSH1 0x40 MLOAD DUP1 SWAP2 SUB SWAP1 KECCAK256 PUSH1 0x0 DUP3 ADD MLOAD DUP2 PUSH1 0x0 ADD SWAP1 DUP1 MLOAD SWAP1 PUSH1 0x20 ADD SWAP1 PUSH2 0xF2 SWAP3 SWAP2 SWAP1 PUSH2 0x176 JUMP JUMPDEST POP PUSH1 0x20 DUP3 ADD MLOAD DUP2 PUSH1 0x1 ADD SSTORE PUSH1 0x40 DUP3 ADD MLOAD DUP2 PUSH1 0x2 ADD PUSH1 0x0 PUSH2 0x100 EXP DUP2 SLOAD DUP2 PUSH20 0xFFFFFFFFFFFFFFFFFFFFFFFFFFFFFFFFFFFFFFFF MUL NOT AND SWAP1 DUP4 PUSH20 0xFFFFFFFFFFFFFFFFFFFFFFFFFFFFFFFFFFFFFFFF AND MUL OR SWAP1 SSTORE POP SWAP1 POP POP POP POP POP JUMP JUMPDEST PUSH1 0x0 DUP1 DUP3 PUSH1 0x40 MLOAD PUSH2 0x15D SWAP2 SWAP1 PUSH2 0x563 JUMP JUMPDEST SWAP1 DUP2 MSTORE PUSH1 0x20 ADD PUSH1 0x40 MLOAD DUP1 SWAP2 SUB SWAP1 KECCAK256 PUSH1 0x1 ADD SLOAD SWAP1 POP SWAP2 SWAP1 POP JUMP JUMPDEST DUP3 DUP1 SLOAD PUSH2 0x182 SWAP1 PUSH2 0x5A9 JUMP JUMPDEST SWAP1 PUSH1 0x0 MSTORE PUSH1 0x20 PUSH1 0x0 KECCAK256 SWAP1 PUSH1 0x1F ADD PUSH1 0x20 SWAP1 DIV DUP2 ADD SWAP3 DUP3 PUSH2 0x1A4 JUMPI PUSH1 0x0 DUP6 SSTORE PUSH2 0x1EB JUMP JUMPDEST DUP3 PUSH1 0x1F LT PUSH2 0x1BD JUMPI DUP1 MLOAD PUSH1 0xFF NOT AND DUP4 DUP1 ADD OR DUP6 SSTORE PUSH2 0x1EB JUMP JUMPDEST DUP3 DUP1 ADD PUSH1 0x1 ADD DUP6 SSTORE DUP3 ISZERO PUSH2 0x1EB JUMPI SWAP2 DUP3 ADD JUMPDEST DUP3 DUP2 GT ISZERO PUSH2 0x1EA JUMPI DUP3 MLOAD DUP3 SSTORE SWAP2 PUSH1 0x20 ADD SWAP2 SWAP1 PUSH1 0x1 ADD SWAP1 PUSH2 0x1CF JUMP JUMPDEST JUMPDEST POP SWAP1 POP PUSH2 0x1F8 SWAP2 SWAP1 PUSH2 0x1FC JUMP JUMPDEST POP SWAP1 JUMP JUMPDEST JUMPDEST DUP1 DUP3 GT ISZERO PUSH2 0x215 JUMPI PUSH1 0x0 DUP2 PUSH1 0x0 SWAP1 SSTORE POP PUSH1 0x1 ADD PUSH2 0x1FD JUMP JUMPDEST POP SWAP1 JUMP JUMPDEST PUSH1 0x0 PUSH1 0x40 MLOAD SWAP1 POP SWAP1 JUMP JUMPDEST PUSH1 0x0 DUP1 REVERT JUMPDEST PUSH1 0x0 DUP1 REVERT JUMPDEST PUSH1 0x0 DUP1 REVERT JUMPDEST PUSH1 0x0 DUP1 REVERT JUMPDEST PUSH1 0x0 PUSH1 0x1F NOT PUSH1 0x1F DUP4 ADD AND SWAP1 POP SWAP2 SWAP1 POP JUMP JUMPDEST PUSH32 0x4E487B7100000000000000000000000000000000000000000000000000000000 PUSH1 0x0 MSTORE PUSH1 0x41 PUSH1 0x4 MSTORE PUSH1 0x24 PUSH1 0x0 REVERT JUMPDEST PUSH2 0x280 DUP3 PUSH2 0x237 JUMP JUMPDEST DUP2 ADD DUP2 DUP2 LT PUSH8 0xFFFFFFFFFFFFFFFF DUP3 GT OR ISZERO PUSH2 0x29F JUMPI PUSH2 0x29E PUSH2 0x248 JUMP JUMPDEST JUMPDEST DUP1 PUSH1 0x40 MSTORE POP POP POP JUMP JUMPDEST PUSH1 0x0 PUSH2 0x2B2 PUSH2 0x219 JUMP JUMPDEST SWAP1 POP PUSH2 0x2BE DUP3 DUP3 PUSH2 0x277 JUMP JUMPDEST SWAP2 SWAP1 POP JUMP JUMPDEST PUSH1 0x0 PUSH8 0xFFFFFFFFFFFFFFFF DUP3 GT ISZERO PUSH2 0x2DE JUMPI PUSH2 0x2DD PUSH2 0x248 JUMP JUMPDEST JUMPDEST PUSH2 0x2E7 DUP3 PUSH2 0x237 JUMP JUMPDEST SWAP1 POP PUSH1 0x20 DUP2 ADD SWAP1 POP SWAP2 SWAP1 POP JUMP JUMPDEST DUP3 DUP2 DUP4 CALLDATACOPY PUSH1 0x0 DUP4 DUP4 ADD MSTORE POP POP POP JUMP JUMPDEST PUSH1 0x0 PUSH2 0x316 PUSH2 0x311 DUP5 PUSH2 0x2C3 JUMP JUMPDEST PUSH2 0x2A8 JUMP JUMPDEST SWAP1 POP DUP3 DUP2 MSTORE PUSH1 0x20 DUP2 ADD DUP5 DUP5 DUP5 ADD GT ISZERO PUSH2 0x332 JUMPI PUSH2 0x331 PUSH2 0x232 JUMP JUMPDEST JUMPDEST PUSH2 0x33D DUP5 DUP3 DUP6 PUSH2 0x2F4 JUMP JUMPDEST POP SWAP4 SWAP3 POP POP POP JUMP JUMPDEST PUSH1 0x0 DUP3 PUSH1 0x1F DUP4 ADD SLT PUSH2 0x35A JUMPI PUSH2 0x359 PUSH2 0x22D JUMP JUMPDEST JUMPDEST DUP2 CALLDATALOAD PUSH2 0x36A DUP5 DUP3 PUSH1 0x20 DUP7 ADD PUSH2 0x303 JUMP JUMPDEST SWAP2 POP POP SWAP3 SWAP2 POP POP JUMP JUMPDEST PUSH1 0x0 DUP2 SWAP1 POP SWAP2 SWAP1 POP JUMP JUMPDEST PUSH2 0x386 DUP2 PUSH2 0x373 JUMP JUMPDEST DUP2 EQ PUSH2 0x391 JUMPI PUSH1 0x0 DUP1 REVERT JUMPDEST POP JUMP JUMPDEST PUSH1 0x0 DUP2 CALLDATALOAD SWAP1 POP PUSH2 0x3A3 DUP2 PUSH2 0x37D JUMP JUMPDEST SWAP3 SWAP2 POP POP JUMP JUMPDEST PUSH1 0x0 PUSH20 0xFFFFFFFFFFFFFFFFFFFFFFFFFFFFFFFFFFFFFFFF DUP3 AND SWAP1 POP SWAP2 SWAP1 POP JUMP JUMPDEST PUSH1 0x0 PUSH2 0x3D4 DUP3 PUSH2 0x3A9 JUMP JUMPDEST SWAP1 POP SWAP2 SWAP1 POP JUMP JUMPDEST PUSH2 0x3E4 DUP2 PUSH2 0x3C9 JUMP JUMPDEST DUP2 EQ PUSH2 0x3EF JUMPI PUSH1 0x0 DUP1 REVERT JUMPDEST POP JUMP JUMPDEST PUSH1 0x0 DUP2 CALLDATALOAD SWAP1 POP PUSH2 0x401 DUP2 PUSH2 0x3DB JUMP JUMPDEST SWAP3 SWAP2 POP POP JUMP JUMPDEST PUSH1 0x0 DUP1 PUSH1 0x0 PUSH1 0x60 DUP5 DUP7 SUB SLT ISZERO PUSH2 0x420 JUMPI PUSH2 0x41F PUSH2 0x223 JUMP JUMPDEST JUMPDEST PUSH1 0x0 DUP5 ADD CALLDATALOAD PUSH8 0xFFFFFFFFFFFFFFFF DUP2 GT ISZERO PUSH2 0x43E JUMPI PUSH2 0x43D PUSH2 0x228 JUMP JUMPDEST JUMPDEST PUSH2 0x44A DUP7 DUP3 DUP8 ADD PUSH2 0x345 JUMP JUMPDEST SWAP4 POP POP PUSH1 0x20 PUSH2 0x45B DUP7 DUP3 DUP8 ADD PUSH2 0x394 JUMP JUMPDEST SWAP3 POP POP PUSH1 0x40 PUSH2 0x46C DUP7 DUP3 DUP8 ADD PUSH2 0x3F2 JUMP JUMPDEST SWAP2 POP POP SWAP3 POP SWAP3 POP SWAP3 JUMP JUMPDEST PUSH1 0x0 PUSH1 0x20 DUP3 DUP5 SUB SLT ISZERO PUSH2 0x48C JUMPI PUSH2 0x48B PUSH2 0x223 JUMP JUMPDEST JUMPDEST PUSH1 0x0 DUP3 ADD CALLDATALOAD PUSH8 0xFFFFFFFFFFFFFFFF DUP2 GT ISZERO PUSH2 0x4AA JUMPI PUSH2 0x4A9 PUSH2 0x228 JUMP JUMPDEST JUMPDEST PUSH2 0x4B6 DUP5 DUP3 DUP6 ADD PUSH2 0x345 JUMP JUMPDEST SWAP2 POP POP SWAP3 SWAP2 POP POP JUMP JUMPDEST PUSH2 0x4C8 DUP2 PUSH2 0x373 JUMP JUMPDEST DUP3 MSTORE POP POP JUMP JUMPDEST PUSH1 0x0 PUSH1 0x20 DUP3 ADD SWAP1 POP PUSH2 0x4E3 PUSH1 0x0 DUP4 ADD DUP5 PUSH2 0x4BF JUMP JUMPDEST SWAP3 SWAP2 POP POP JUMP JUMPDEST PUSH1 0x0 DUP2 MLOAD SWAP1 POP SWAP2 SWAP1 POP JUMP JUMPDEST PUSH1 0x0 DUP2 SWAP1 POP SWAP3 SWAP2 POP POP JUMP JUMPDEST PUSH1 0x0 JUMPDEST DUP4 DUP2 LT ISZERO PUSH2 0x51D JUMPI DUP1 DUP3 ADD MLOAD DUP2 DUP5 ADD MSTORE PUSH1 0x20 DUP2 ADD SWAP1 POP PUSH2 0x502 JUMP JUMPDEST DUP4 DUP2 GT ISZERO PUSH2 0x52C JUMPI PUSH1 0x0 DUP5 DUP5 ADD MSTORE JUMPDEST POP POP POP POP JUMP JUMPDEST PUSH1 0x0 PUSH2 0x53D DUP3 PUSH2 0x4E9 JUMP JUMPDEST PUSH2 0x547 DUP2 DUP6 PUSH2 0x4F4 JUMP JUMPDEST SWAP4 POP PUSH2 0x557 DUP2 DUP6 PUSH1 0x20 DUP7 ADD PUSH2 0x4FF JUMP JUMPDEST DUP1 DUP5 ADD SWAP2 POP POP SWAP3 SWAP2 POP POP JUMP JUMPDEST PUSH1 0x0 PUSH2 0x56F DUP3 DUP5 PUSH2 0x532 JUMP JUMPDEST SWAP2 POP DUP2 SWAP1 POP SWAP3 SWAP2 POP POP JUMP JUMPDEST PUSH32 0x4E487B7100000000000000000000000000000000000000000000000000000000 PUSH1 0x0 MSTORE PUSH1 0x22 PUSH1 0x4 MSTORE PUSH1 0x24 PUSH1 0x0 REVERT JUMPDEST PUSH1 0x0 PUSH1 0x2 DUP3 DIV SWAP1 POP PUSH1 0x1 DUP3 AND DUP1 PUSH2 0x5C1 JUMPI PUSH1 0x7F DUP3 AND SWAP2 POP JUMPDEST PUSH1 0x20 DUP3 LT DUP2 SUB PUSH2 0x5D4 JUMPI PUSH2 0x5D3 PUSH2 0x57A JUMP JUMPDEST JUMPDEST POP SWAP2 SWAP1 POP JUMP INVALID LOG2 PUSH5 0x6970667358 0x22 SLT KECCAK256 CREATE DIFFICULTY DUP13 EQ 0xDE 0x5E 0xD8 LOG3 PUSH14 0x9356BDFD9F74C4DF8F01E8B859B4 0xBE 0xA8 0xD COINBASE GAS PUSH19 0x3D898C64736F6C634300080E00330000000000 "
				},
				"gasEstimates": {
					"creation": {
						"codeDepositCost": "310400",
						"executionCost": "349",
						"totalCost": "310749"
					},
					"external": {
						"addCustomer(string,uint256,address)": "infinite",
						"getCustomerBalance(string)": "infinite"
					}
				},
				"methodIdentifiers": {
					"addCustomer(string,uint256,address)": "e65c9e75",
					"getCustomerBalance(string)": "ece9a4e9"
				}
			},
			"storageLayout": {
				"storage": [
					{
						"astId": 13,
						"contract": "contracts/Learning Solidity/2. MyFirstSmartcontract.sol:MyFirstSmartcontract",
						"label": "customers",
						"offset": 0,
						"slot": "0",
						"type": "t_mapping(t_string_memory_ptr,t_struct(Customer)8_storage)"
					}
				],
				"types": {
					"t_address": {
						"encoding": "inplace",
						"label": "address",
						"numberOfBytes": "20"
					},
					"t_mapping(t_string_memory_ptr,t_struct(Customer)8_storage)": {
						"encoding": "mapping",
						"key": "t_string_memory_ptr",
						"label": "mapping(string => struct MyFirstSmartcontract.Customer)",
						"numberOfBytes": "32",
						"value": "t_struct(Customer)8_storage"
					},
					"t_string_memory_ptr": {
						"encoding": "bytes",
						"label": "string",
						"numberOfBytes": "32"
					},
					"t_string_storage": {
						"encoding": "bytes",
						"label": "string",
						"numberOfBytes": "32"
					},
					"t_struct(Customer)8_storage": {
						"encoding": "inplace",
						"label": "struct MyFirstSmartcontract.Customer",
						"members": [
							{
								"astId": 3,
								"contract": "contracts/Learning Solidity/2. MyFirstSmartcontract.sol:MyFirstSmartcontract",
								"label": "name",
								"offset": 0,
								"slot": "0",
								"type": "t_string_storage"
							},
							{
								"astId": 5,
								"contract": "contracts/Learning Solidity/2. MyFirstSmartcontract.sol:MyFirstSmartcontract",
								"label": "balance",
								"offset": 0,
								"slot": "1",
								"type": "t_uint256"
							},
							{
								"astId": 7,
								"contract": "contracts/Learning Solidity/2. MyFirstSmartcontract.sol:MyFirstSmartcontract",
								"label": "ethAddress",
								"offset": 0,
								"slot": "2",
								"type": "t_address"
							}
						],
						"numberOfBytes": "96"
					},
					"t_uint256": {
						"encoding": "inplace",
						"label": "uint256",
						"numberOfBytes": "32"
					}
				}
			},
			"userdoc": {
				"kind": "user",
				"methods": {},
				"version": 1
			}
		}
	}
}