{
	"contracts/CryptoPunksOg.sol": {
		"CryptoPunksMarket": {
			"abi": [
				{
					"constant": true,
					"inputs": [],
					"name": "name",
					"outputs": [
						{
							"name": "",
							"type": "string"
						}
					],
					"payable": false,
					"stateMutability": "view",
					"type": "function"
				},
				{
					"constant": true,
					"inputs": [
						{
							"name": "",
							"type": "uint256"
						}
					],
					"name": "punksOfferedForSale",
					"outputs": [
						{
							"name": "isForSale",
							"type": "bool"
						},
						{
							"name": "punkIndex",
							"type": "uint256"
						},
						{
							"name": "seller",
							"type": "address"
						},
						{
							"name": "minValue",
							"type": "uint256"
						},
						{
							"name": "onlySellTo",
							"type": "address"
						}
					],
					"payable": false,
					"stateMutability": "view",
					"type": "function"
				},
				{
					"constant": false,
					"inputs": [
						{
							"name": "punkIndex",
							"type": "uint256"
						}
					],
					"name": "enterBidForPunk",
					"outputs": [],
					"payable": true,
					"stateMutability": "payable",
					"type": "function"
				},
				{
					"constant": true,
					"inputs": [],
					"name": "totalSupply",
					"outputs": [
						{
							"name": "",
							"type": "uint256"
						}
					],
					"payable": false,
					"stateMutability": "view",
					"type": "function"
				},
				{
					"constant": false,
					"inputs": [
						{
							"name": "punkIndex",
							"type": "uint256"
						},
						{
							"name": "minPrice",
							"type": "uint256"
						}
					],
					"name": "acceptBidForPunk",
					"outputs": [],
					"payable": false,
					"stateMutability": "nonpayable",
					"type": "function"
				},
				{
					"constant": true,
					"inputs": [],
					"name": "decimals",
					"outputs": [
						{
							"name": "",
							"type": "uint8"
						}
					],
					"payable": false,
					"stateMutability": "view",
					"type": "function"
				},
				{
					"constant": false,
					"inputs": [
						{
							"name": "addresses",
							"type": "address[]"
						},
						{
							"name": "indices",
							"type": "uint256[]"
						}
					],
					"name": "setInitialOwners",
					"outputs": [],
					"payable": false,
					"stateMutability": "nonpayable",
					"type": "function"
				},
				{
					"constant": false,
					"inputs": [],
					"name": "withdraw",
					"outputs": [],
					"payable": false,
					"stateMutability": "nonpayable",
					"type": "function"
				},
				{
					"constant": true,
					"inputs": [],
					"name": "imageHash",
					"outputs": [
						{
							"name": "",
							"type": "string"
						}
					],
					"payable": false,
					"stateMutability": "view",
					"type": "function"
				},
				{
					"constant": true,
					"inputs": [],
					"name": "nextPunkIndexToAssign",
					"outputs": [
						{
							"name": "",
							"type": "uint256"
						}
					],
					"payable": false,
					"stateMutability": "view",
					"type": "function"
				},
				{
					"constant": true,
					"inputs": [
						{
							"name": "",
							"type": "uint256"
						}
					],
					"name": "punkIndexToAddress",
					"outputs": [
						{
							"name": "",
							"type": "address"
						}
					],
					"payable": false,
					"stateMutability": "view",
					"type": "function"
				},
				{
					"constant": true,
					"inputs": [],
					"name": "standard",
					"outputs": [
						{
							"name": "",
							"type": "string"
						}
					],
					"payable": false,
					"stateMutability": "view",
					"type": "function"
				},
				{
					"constant": true,
					"inputs": [
						{
							"name": "",
							"type": "uint256"
						}
					],
					"name": "punkBids",
					"outputs": [
						{
							"name": "hasBid",
							"type": "bool"
						},
						{
							"name": "punkIndex",
							"type": "uint256"
						},
						{
							"name": "bidder",
							"type": "address"
						},
						{
							"name": "value",
							"type": "uint256"
						}
					],
					"payable": false,
					"stateMutability": "view",
					"type": "function"
				},
				{
					"constant": true,
					"inputs": [
						{
							"name": "",
							"type": "address"
						}
					],
					"name": "balanceOf",
					"outputs": [
						{
							"name": "",
							"type": "uint256"
						}
					],
					"payable": false,
					"stateMutability": "view",
					"type": "function"
				},
				{
					"constant": false,
					"inputs": [],
					"name": "allInitialOwnersAssigned",
					"outputs": [],
					"payable": false,
					"stateMutability": "nonpayable",
					"type": "function"
				},
				{
					"constant": true,
					"inputs": [],
					"name": "allPunksAssigned",
					"outputs": [
						{
							"name": "",
							"type": "bool"
						}
					],
					"payable": false,
					"stateMutability": "view",
					"type": "function"
				},
				{
					"constant": false,
					"inputs": [
						{
							"name": "punkIndex",
							"type": "uint256"
						}
					],
					"name": "buyPunk",
					"outputs": [],
					"payable": true,
					"stateMutability": "payable",
					"type": "function"
				},
				{
					"constant": false,
					"inputs": [
						{
							"name": "to",
							"type": "address"
						},
						{
							"name": "punkIndex",
							"type": "uint256"
						}
					],
					"name": "transferPunk",
					"outputs": [],
					"payable": false,
					"stateMutability": "nonpayable",
					"type": "function"
				},
				{
					"constant": true,
					"inputs": [],
					"name": "symbol",
					"outputs": [
						{
							"name": "",
							"type": "string"
						}
					],
					"payable": false,
					"stateMutability": "view",
					"type": "function"
				},
				{
					"constant": false,
					"inputs": [
						{
							"name": "punkIndex",
							"type": "uint256"
						}
					],
					"name": "withdrawBidForPunk",
					"outputs": [],
					"payable": false,
					"stateMutability": "nonpayable",
					"type": "function"
				},
				{
					"constant": false,
					"inputs": [
						{
							"name": "to",
							"type": "address"
						},
						{
							"name": "punkIndex",
							"type": "uint256"
						}
					],
					"name": "setInitialOwner",
					"outputs": [],
					"payable": false,
					"stateMutability": "nonpayable",
					"type": "function"
				},
				{
					"constant": false,
					"inputs": [
						{
							"name": "punkIndex",
							"type": "uint256"
						},
						{
							"name": "minSalePriceInWei",
							"type": "uint256"
						},
						{
							"name": "toAddress",
							"type": "address"
						}
					],
					"name": "offerPunkForSaleToAddress",
					"outputs": [],
					"payable": false,
					"stateMutability": "nonpayable",
					"type": "function"
				},
				{
					"constant": true,
					"inputs": [],
					"name": "punksRemainingToAssign",
					"outputs": [
						{
							"name": "",
							"type": "uint256"
						}
					],
					"payable": false,
					"stateMutability": "view",
					"type": "function"
				},
				{
					"constant": false,
					"inputs": [
						{
							"name": "punkIndex",
							"type": "uint256"
						},
						{
							"name": "minSalePriceInWei",
							"type": "uint256"
						}
					],
					"name": "offerPunkForSale",
					"outputs": [],
					"payable": false,
					"stateMutability": "nonpayable",
					"type": "function"
				},
				{
					"constant": false,
					"inputs": [
						{
							"name": "punkIndex",
							"type": "uint256"
						}
					],
					"name": "getPunk",
					"outputs": [],
					"payable": false,
					"stateMutability": "nonpayable",
					"type": "function"
				},
				{
					"constant": true,
					"inputs": [
						{
							"name": "",
							"type": "address"
						}
					],
					"name": "pendingWithdrawals",
					"outputs": [
						{
							"name": "",
							"type": "uint256"
						}
					],
					"payable": false,
					"stateMutability": "view",
					"type": "function"
				},
				{
					"constant": false,
					"inputs": [
						{
							"name": "punkIndex",
							"type": "uint256"
						}
					],
					"name": "punkNoLongerForSale",
					"outputs": [],
					"payable": false,
					"stateMutability": "nonpayable",
					"type": "function"
				},
				{
					"inputs": [],
					"payable": true,
					"stateMutability": "payable",
					"type": "constructor"
				},
				{
					"anonymous": false,
					"inputs": [
						{
							"indexed": true,
							"name": "to",
							"type": "address"
						},
						{
							"indexed": false,
							"name": "punkIndex",
							"type": "uint256"
						}
					],
					"name": "Assign",
					"type": "event"
				},
				{
					"anonymous": false,
					"inputs": [
						{
							"indexed": true,
							"name": "from",
							"type": "address"
						},
						{
							"indexed": true,
							"name": "to",
							"type": "address"
						},
						{
							"indexed": false,
							"name": "value",
							"type": "uint256"
						}
					],
					"name": "Transfer",
					"type": "event"
				},
				{
					"anonymous": false,
					"inputs": [
						{
							"indexed": true,
							"name": "from",
							"type": "address"
						},
						{
							"indexed": true,
							"name": "to",
							"type": "address"
						},
						{
							"indexed": false,
							"name": "punkIndex",
							"type": "uint256"
						}
					],
					"name": "PunkTransfer",
					"type": "event"
				},
				{
					"anonymous": false,
					"inputs": [
						{
							"indexed": true,
							"name": "punkIndex",
							"type": "uint256"
						},
						{
							"indexed": false,
							"name": "minValue",
							"type": "uint256"
						},
						{
							"indexed": true,
							"name": "toAddress",
							"type": "address"
						}
					],
					"name": "PunkOffered",
					"type": "event"
				},
				{
					"anonymous": false,
					"inputs": [
						{
							"indexed": true,
							"name": "punkIndex",
							"type": "uint256"
						},
						{
							"indexed": false,
							"name": "value",
							"type": "uint256"
						},
						{
							"indexed": true,
							"name": "fromAddress",
							"type": "address"
						}
					],
					"name": "PunkBidEntered",
					"type": "event"
				},
				{
					"anonymous": false,
					"inputs": [
						{
							"indexed": true,
							"name": "punkIndex",
							"type": "uint256"
						},
						{
							"indexed": false,
							"name": "value",
							"type": "uint256"
						},
						{
							"indexed": true,
							"name": "fromAddress",
							"type": "address"
						}
					],
					"name": "PunkBidWithdrawn",
					"type": "event"
				},
				{
					"anonymous": false,
					"inputs": [
						{
							"indexed": true,
							"name": "punkIndex",
							"type": "uint256"
						},
						{
							"indexed": false,
							"name": "value",
							"type": "uint256"
						},
						{
							"indexed": true,
							"name": "fromAddress",
							"type": "address"
						},
						{
							"indexed": true,
							"name": "toAddress",
							"type": "address"
						}
					],
					"name": "PunkBought",
					"type": "event"
				},
				{
					"anonymous": false,
					"inputs": [
						{
							"indexed": true,
							"name": "punkIndex",
							"type": "uint256"
						}
					],
					"name": "PunkNoLongerForSale",
					"type": "event"
				}
			],
			"devdoc": {
				"methods": {}
			},
			"evm": {
				"assembly": "    /* \"contracts/CryptoPunksOg.sol\":24:9827  contract CryptoPunksMarket {... */\n  mstore(0x40, 0x80)\n    /* \"contracts/CryptoPunksOg.sol\":137:229  string public imageHash = \"ac39af4793119ee46bbff351d8cb6b5f23da60222126add4268e261199a2921b\" */\n  0x60\n  mload(0x40)\n  swap1\n  dup2\n  add\n  0x40\n  mstore\n  dup1\n  0x40\n  dup2\n  mstore\n  0x20\n  add\n  0x6163333961663437393331313965653436626266663335316438636236623566\n  dup2\n  mstore\n  0x20\n  add\n  0x3233646136303232323132366164643432363865323631313939613239323162\n  dup2\n  mstore\n  pop\n  0x0\n  swap1\n  dup1\n  mload\n  swap1\n  0x20\n  add\n  swap1\n  tag_1\n  swap3\n  swap2\n  swap1\n  jump\t// in(tag_2)\ntag_1:\n  pop\n    /* \"contracts/CryptoPunksOg.sol\":256:294  string public standard = 'CryptoPunks' */\n  0x40\n  dup1\n  mload\n  swap1\n  dup2\n  add\n  0x40\n  mstore\n  dup1\n  0xb\n  dup2\n  mstore\n  0x20\n  add\n  0x43727970746f50756e6b73000000000000000000000000000000000000000000\n  dup2\n  mstore\n  pop\n  0x2\n  swap1\n  dup1\n  mload\n  swap1\n  0x20\n  add\n  swap1\n  tag_3\n  swap3\n  swap2\n  swap1\n  jump\t// in(tag_2)\ntag_3:\n  pop\n    /* \"contracts/CryptoPunksOg.sol\":446:447  0 */\n  0x0\n    /* \"contracts/CryptoPunksOg.sol\":410:447  uint public nextPunkIndexToAssign = 0 */\n  0x7\n  sstore\n    /* \"contracts/CryptoPunksOg.sol\":485:490  false */\n  0x0\n    /* \"contracts/CryptoPunksOg.sol\":454:490  bool public allPunksAssigned = false */\n  0x8\n  exp(0x100, 0x0)\n  dup2\n  sload\n  dup2\n  0xff\n  mul\n  not\n  and\n  swap1\n  dup4\n  iszero\n  iszero\n  mul\n  or\n  swap1\n  sstore\n  pop\n    /* \"contracts/CryptoPunksOg.sol\":533:534  0 */\n  0x0\n    /* \"contracts/CryptoPunksOg.sol\":496:534  uint public punksRemainingToAssign = 0 */\n  0x9\n  sstore\n    /* \"contracts/CryptoPunksOg.sol\":2319:2329  msg.sender */\n  caller\n    /* \"contracts/CryptoPunksOg.sol\":2311:2316  owner */\n  0x1\n  0x0\n    /* \"contracts/CryptoPunksOg.sol\":2311:2329  owner = msg.sender */\n  0x100\n  exp\n  dup2\n  sload\n  dup2\n  0xffffffffffffffffffffffffffffffffffffffff\n  mul\n  not\n  and\n  swap1\n  dup4\n  0xffffffffffffffffffffffffffffffffffffffff\n  and\n  mul\n  or\n  swap1\n  sstore\n  pop\n    /* \"contracts/CryptoPunksOg.sol\":2353:2358  10000 */\n  0x2710\n    /* \"contracts/CryptoPunksOg.sol\":2339:2350  totalSupply */\n  0x6\n    /* \"contracts/CryptoPunksOg.sol\":2339:2358  totalSupply = 10000 */\n  dup2\n  swap1\n  sstore\n  pop\n    /* \"contracts/CryptoPunksOg.sol\":2439:2450  totalSupply */\n  sload(0x6)\n    /* \"contracts/CryptoPunksOg.sol\":2414:2436  punksRemainingToAssign */\n  0x9\n    /* \"contracts/CryptoPunksOg.sol\":2414:2450  punksRemainingToAssign = totalSupply */\n  dup2\n  swap1\n  sstore\n  pop\n    /* \"contracts/CryptoPunksOg.sol\":2460:2480  name = \"CRYPTOPUNKS\" */\n  0x40\n  dup1\n  mload\n  swap1\n  dup2\n  add\n  0x40\n  mstore\n  dup1\n  0xb\n  dup2\n  mstore\n  0x20\n  add\n  0x43525950544f50554e4b53000000000000000000000000000000000000000000\n  dup2\n  mstore\n  pop\n    /* \"contracts/CryptoPunksOg.sol\":2460:2464  name */\n  0x3\n    /* \"contracts/CryptoPunksOg.sol\":2460:2480  name = \"CRYPTOPUNKS\" */\n  swap1\n  dup1\n  mload\n  swap1\n  0x20\n  add\n  swap1\n  tag_6\n  swap3\n  swap2\n  swap1\n  jump\t// in(tag_2)\ntag_6:\n  pop\n    /* \"contracts/CryptoPunksOg.sol\":2561:2574  symbol = \"Ͼ\" */\n  0x40\n  dup1\n  mload\n  swap1\n  dup2\n  add\n  0x40\n  mstore\n  dup1\n  0x2\n  dup2\n  mstore\n  0x20\n  add\n  0xcfbe000000000000000000000000000000000000000000000000000000000000\n  dup2\n  mstore\n  pop\n    /* \"contracts/CryptoPunksOg.sol\":2561:2567  symbol */\n  0x4\n    /* \"contracts/CryptoPunksOg.sol\":2561:2574  symbol = \"Ͼ\" */\n  swap1\n  dup1\n  mload\n  swap1\n  0x20\n  add\n  swap1\n  tag_7\n  swap3\n  swap2\n  swap1\n  jump\t// in(tag_2)\ntag_7:\n  pop\n    /* \"contracts/CryptoPunksOg.sol\":2664:2665  0 */\n  0x0\n    /* \"contracts/CryptoPunksOg.sol\":2653:2661  decimals */\n  0x5\n  0x0\n    /* \"contracts/CryptoPunksOg.sol\":2653:2665  decimals = 0 */\n  0x100\n  exp\n  dup2\n  sload\n  dup2\n  0xff\n  mul\n  not\n  and\n  swap1\n  dup4\n  0xff\n  and\n  mul\n  or\n  swap1\n  sstore\n  pop\n    /* \"contracts/CryptoPunksOg.sol\":24:9827  contract CryptoPunksMarket {... */\n  jump(tag_8)\ntag_2:\n  dup3\n  dup1\n  sload\n  0x1\n  dup2\n  0x1\n  and\n  iszero\n  0x100\n  mul\n  sub\n  and\n  0x2\n  swap1\n  div\n  swap1\n  0x0\n  mstore\n  keccak256(0x0, 0x20)\n  swap1\n  0x1f\n  add\n  0x20\n  swap1\n  div\n  dup2\n  add\n  swap3\n  dup3\n  0x1f\n  lt\n  tag_10\n  jumpi\n  dup1\n  mload\n  not(0xff)\n  and\n  dup4\n  dup1\n  add\n  or\n  dup6\n  sstore\n  jump(tag_9)\ntag_10:\n  dup3\n  dup1\n  add\n  0x1\n  add\n  dup6\n  sstore\n  dup3\n  iszero\n  tag_9\n  jumpi\n  swap2\n  dup3\n  add\ntag_11:\n  dup3\n  dup2\n  gt\n  iszero\n  tag_12\n  jumpi\n  dup3\n  mload\n  dup3\n  sstore\n  swap2\n  0x20\n  add\n  swap2\n  swap1\n  0x1\n  add\n  swap1\n  jump(tag_11)\ntag_12:\ntag_9:\n  pop\n  swap1\n  pop\n  tag_13\n  swap2\n  swap1\n  jump\t// in(tag_14)\ntag_13:\n  pop\n  swap1\n  jump\t// out\ntag_14:\n  tag_15\n  swap2\n  swap1\ntag_16:\n  dup1\n  dup3\n  gt\n  iszero\n  tag_17\n  jumpi\n  0x0\n  dup2\n  0x0\n  swap1\n  sstore\n  pop\n  0x1\n  add\n  jump(tag_16)\ntag_17:\n  pop\n  swap1\n  jump\ntag_15:\n  swap1\n  jump\t// out\ntag_8:\n  dataSize(sub_0)\n  dup1\n  dataOffset(sub_0)\n  0x0\n  codecopy\n  0x0\n  return\nstop\n\nsub_0: assembly {\n        /* \"contracts/CryptoPunksOg.sol\":24:9827  contract CryptoPunksMarket {... */\n      mstore(0x40, 0x80)\n      jumpi(tag_1, lt(calldatasize, 0x4))\n      calldataload(0x0)\n      0x100000000000000000000000000000000000000000000000000000000\n      swap1\n      div\n      0xffffffff\n      and\n      dup1\n      0x6fdde03\n      eq\n      tag_2\n      jumpi\n      dup1\n      0x88f11f3\n      eq\n      tag_3\n      jumpi\n      dup1\n      0x91dbfd2\n      eq\n      tag_4\n      jumpi\n      dup1\n      0x18160ddd\n      eq\n      tag_5\n      jumpi\n      dup1\n      0x23165b75\n      eq\n      tag_6\n      jumpi\n      dup1\n      0x313ce567\n      eq\n      tag_7\n      jumpi\n      dup1\n      0x39c5dde6\n      eq\n      tag_8\n      jumpi\n      dup1\n      0x3ccfd60b\n      eq\n      tag_9\n      jumpi\n      dup1\n      0x51605d80\n      eq\n      tag_10\n      jumpi\n      dup1\n      0x52f29a25\n      eq\n      tag_11\n      jumpi\n      dup1\n      0x58178168\n      eq\n      tag_12\n      jumpi\n      dup1\n      0x5a3b7e42\n      eq\n      tag_13\n      jumpi\n      dup1\n      0x6e743fa9\n      eq\n      tag_14\n      jumpi\n      dup1\n      0x70a08231\n      eq\n      tag_15\n      jumpi\n      dup1\n      0x7ecedac9\n      eq\n      tag_16\n      jumpi\n      dup1\n      0x8126c38a\n      eq\n      tag_17\n      jumpi\n      dup1\n      0x8264fe98\n      eq\n      tag_18\n      jumpi\n      dup1\n      0x8b72a2ec\n      eq\n      tag_19\n      jumpi\n      dup1\n      0x95d89b41\n      eq\n      tag_20\n      jumpi\n      dup1\n      0x979bc638\n      eq\n      tag_21\n      jumpi\n      dup1\n      0xa75a9049\n      eq\n      tag_22\n      jumpi\n      dup1\n      0xbf31196f\n      eq\n      tag_23\n      jumpi\n      dup1\n      0xc0d6ce63\n      eq\n      tag_24\n      jumpi\n      dup1\n      0xc44193c3\n      eq\n      tag_25\n      jumpi\n      dup1\n      0xc81d1d5b\n      eq\n      tag_26\n      jumpi\n      dup1\n      0xf3f43703\n      eq\n      tag_27\n      jumpi\n      dup1\n      0xf6eeff1e\n      eq\n      tag_28\n      jumpi\n    tag_1:\n      0x0\n      dup1\n      revert\n        /* \"contracts/CryptoPunksOg.sol\":300:318  string public name */\n    tag_2:\n      callvalue\n        /* \"--CODEGEN--\":8:17   */\n      dup1\n        /* \"--CODEGEN--\":5:7   */\n      iszero\n      tag_29\n      jumpi\n        /* \"--CODEGEN--\":30:31   */\n      0x0\n        /* \"--CODEGEN--\":27:28   */\n      dup1\n        /* \"--CODEGEN--\":20:32   */\n      revert\n        /* \"--CODEGEN--\":5:7   */\n    tag_29:\n        /* \"contracts/CryptoPunksOg.sol\":300:318  string public name */\n      pop\n      tag_30\n      jump(tag_31)\n    tag_30:\n      mload(0x40)\n      dup1\n      dup1\n      0x20\n      add\n      dup3\n      dup2\n      sub\n      dup3\n      mstore\n      dup4\n      dup2\n      dup2\n      mload\n      dup2\n      mstore\n      0x20\n      add\n      swap2\n      pop\n      dup1\n      mload\n      swap1\n      0x20\n      add\n      swap1\n      dup1\n      dup4\n      dup4\n        /* \"--CODEGEN--\":23:24   */\n      0x0\n        /* \"--CODEGEN--\":8:108   */\n    tag_32:\n        /* \"--CODEGEN--\":33:36   */\n      dup4\n        /* \"--CODEGEN--\":30:31   */\n      dup2\n        /* \"--CODEGEN--\":27:37   */\n      lt\n        /* \"--CODEGEN--\":8:108   */\n      iszero\n      tag_33\n      jumpi\n        /* \"--CODEGEN--\":99:100   */\n      dup1\n        /* \"--CODEGEN--\":94:97   */\n      dup3\n        /* \"--CODEGEN--\":90:101   */\n      add\n        /* \"--CODEGEN--\":84:102   */\n      mload\n        /* \"--CODEGEN--\":80:81   */\n      dup2\n        /* \"--CODEGEN--\":75:78   */\n      dup5\n        /* \"--CODEGEN--\":71:82   */\n      add\n        /* \"--CODEGEN--\":64:103   */\n      mstore\n        /* \"--CODEGEN--\":52:54   */\n      0x20\n        /* \"--CODEGEN--\":49:50   */\n      dup2\n        /* \"--CODEGEN--\":45:55   */\n      add\n        /* \"--CODEGEN--\":40:55   */\n      swap1\n      pop\n        /* \"--CODEGEN--\":8:108   */\n      jump(tag_32)\n    tag_33:\n        /* \"--CODEGEN--\":12:26   */\n      pop\n        /* \"contracts/CryptoPunksOg.sol\":300:318  string public name */\n      pop\n      pop\n      pop\n      swap1\n      pop\n      swap1\n      dup2\n      add\n      swap1\n      0x1f\n      and\n      dup1\n      iszero\n      tag_35\n      jumpi\n      dup1\n      dup3\n      sub\n      dup1\n      mload\n      0x1\n      dup4\n      0x20\n      sub\n      0x100\n      exp\n      sub\n      not\n      and\n      dup2\n      mstore\n      0x20\n      add\n      swap2\n      pop\n    tag_35:\n      pop\n      swap3\n      pop\n      pop\n      pop\n      mload(0x40)\n      dup1\n      swap2\n      sub\n      swap1\n      return\n        /* \"contracts/CryptoPunksOg.sol\":1205:1255  mapping (uint => Offer) public punksOfferedForSale */\n    tag_3:\n      callvalue\n        /* \"--CODEGEN--\":8:17   */\n      dup1\n        /* \"--CODEGEN--\":5:7   */\n      iszero\n      tag_36\n      jumpi\n        /* \"--CODEGEN--\":30:31   */\n      0x0\n        /* \"--CODEGEN--\":27:28   */\n      dup1\n        /* \"--CODEGEN--\":20:32   */\n      revert\n        /* \"--CODEGEN--\":5:7   */\n    tag_36:\n        /* \"contracts/CryptoPunksOg.sol\":1205:1255  mapping (uint => Offer) public punksOfferedForSale */\n      pop\n      tag_37\n      0x4\n      dup1\n      calldatasize\n      sub\n      dup2\n      add\n      swap1\n      dup1\n      dup1\n      calldataload\n      swap1\n      0x20\n      add\n      swap1\n      swap3\n      swap2\n      swap1\n      pop\n      pop\n      pop\n      jump(tag_38)\n    tag_37:\n      mload(0x40)\n      dup1\n      dup7\n      iszero\n      iszero\n      iszero\n      iszero\n      dup2\n      mstore\n      0x20\n      add\n      dup6\n      dup2\n      mstore\n      0x20\n      add\n      dup5\n      0xffffffffffffffffffffffffffffffffffffffff\n      and\n      0xffffffffffffffffffffffffffffffffffffffff\n      and\n      dup2\n      mstore\n      0x20\n      add\n      dup4\n      dup2\n      mstore\n      0x20\n      add\n      dup3\n      0xffffffffffffffffffffffffffffffffffffffff\n      and\n      0xffffffffffffffffffffffffffffffffffffffff\n      and\n      dup2\n      mstore\n      0x20\n      add\n      swap6\n      pop\n      pop\n      pop\n      pop\n      pop\n      pop\n      mload(0x40)\n      dup1\n      swap2\n      sub\n      swap1\n      return\n        /* \"contracts/CryptoPunksOg.sol\":7743:8422  function enterBidForPunk(uint punkIndex) payable {... */\n    tag_4:\n      tag_39\n      0x4\n      dup1\n      calldatasize\n      sub\n      dup2\n      add\n      swap1\n      dup1\n      dup1\n      calldataload\n      swap1\n      0x20\n      add\n      swap1\n      swap3\n      swap2\n      swap1\n      pop\n      pop\n      pop\n      jump(tag_40)\n    tag_39:\n      stop\n        /* \"contracts/CryptoPunksOg.sol\":377:403  uint256 public totalSupply */\n    tag_5:\n      callvalue\n        /* \"--CODEGEN--\":8:17   */\n      dup1\n        /* \"--CODEGEN--\":5:7   */\n      iszero\n      tag_41\n      jumpi\n        /* \"--CODEGEN--\":30:31   */\n      0x0\n        /* \"--CODEGEN--\":27:28   */\n      dup1\n        /* \"--CODEGEN--\":20:32   */\n      revert\n        /* \"--CODEGEN--\":5:7   */\n    tag_41:\n        /* \"contracts/CryptoPunksOg.sol\":377:403  uint256 public totalSupply */\n      pop\n      tag_42\n      jump(tag_43)\n    tag_42:\n      mload(0x40)\n      dup1\n      dup3\n      dup2\n      mstore\n      0x20\n      add\n      swap2\n      pop\n      pop\n      mload(0x40)\n      dup1\n      swap2\n      sub\n      swap1\n      return\n        /* \"contracts/CryptoPunksOg.sol\":8428:9246  function acceptBidForPunk(uint punkIndex, uint minPrice) {... */\n    tag_6:\n      callvalue\n        /* \"--CODEGEN--\":8:17   */\n      dup1\n        /* \"--CODEGEN--\":5:7   */\n      iszero\n      tag_44\n      jumpi\n        /* \"--CODEGEN--\":30:31   */\n      0x0\n        /* \"--CODEGEN--\":27:28   */\n      dup1\n        /* \"--CODEGEN--\":20:32   */\n      revert\n        /* \"--CODEGEN--\":5:7   */\n    tag_44:\n        /* \"contracts/CryptoPunksOg.sol\":8428:9246  function acceptBidForPunk(uint punkIndex, uint minPrice) {... */\n      pop\n      tag_45\n      0x4\n      dup1\n      calldatasize\n      sub\n      dup2\n      add\n      swap1\n      dup1\n      dup1\n      calldataload\n      swap1\n      0x20\n      add\n      swap1\n      swap3\n      swap2\n      swap1\n      dup1\n      calldataload\n      swap1\n      0x20\n      add\n      swap1\n      swap3\n      swap2\n      swap1\n      pop\n      pop\n      pop\n      jump(tag_46)\n    tag_45:\n      stop\n        /* \"contracts/CryptoPunksOg.sol\":350:371  uint8 public decimals */\n    tag_7:\n      callvalue\n        /* \"--CODEGEN--\":8:17   */\n      dup1\n        /* \"--CODEGEN--\":5:7   */\n      iszero\n      tag_47\n      jumpi\n        /* \"--CODEGEN--\":30:31   */\n      0x0\n        /* \"--CODEGEN--\":27:28   */\n      dup1\n        /* \"--CODEGEN--\":20:32   */\n      revert\n        /* \"--CODEGEN--\":5:7   */\n    tag_47:\n        /* \"contracts/CryptoPunksOg.sol\":350:371  uint8 public decimals */\n      pop\n      tag_48\n      jump(tag_49)\n    tag_48:\n      mload(0x40)\n      dup1\n      dup3\n      0xff\n      and\n      0xff\n      and\n      dup2\n      mstore\n      0x20\n      add\n      swap2\n      pop\n      pop\n      mload(0x40)\n      dup1\n      swap2\n      sub\n      swap1\n      return\n        /* \"contracts/CryptoPunksOg.sol\":3307:3556  function setInitialOwners(address[] addresses, uint[] indices) {... */\n    tag_8:\n      callvalue\n        /* \"--CODEGEN--\":8:17   */\n      dup1\n        /* \"--CODEGEN--\":5:7   */\n      iszero\n      tag_50\n      jumpi\n        /* \"--CODEGEN--\":30:31   */\n      0x0\n        /* \"--CODEGEN--\":27:28   */\n      dup1\n        /* \"--CODEGEN--\":20:32   */\n      revert\n        /* \"--CODEGEN--\":5:7   */\n    tag_50:\n        /* \"contracts/CryptoPunksOg.sol\":3307:3556  function setInitialOwners(address[] addresses, uint[] indices) {... */\n      pop\n      tag_51\n      0x4\n      dup1\n      calldatasize\n      sub\n      dup2\n      add\n      swap1\n      dup1\n      dup1\n      calldataload\n      swap1\n      0x20\n      add\n      swap1\n      dup3\n      add\n      dup1\n      calldataload\n      swap1\n      0x20\n      add\n      swap1\n      dup1\n      dup1\n      0x20\n      mul\n      0x20\n      add\n      mload(0x40)\n      swap1\n      dup2\n      add\n      0x40\n      mstore\n      dup1\n      swap4\n      swap3\n      swap2\n      swap1\n      dup2\n      dup2\n      mstore\n      0x20\n      add\n      dup4\n      dup4\n      0x20\n      mul\n      dup1\n      dup3\n      dup5\n      calldatacopy\n      dup3\n      add\n      swap2\n      pop\n      pop\n      pop\n      pop\n      pop\n      pop\n      swap2\n      swap3\n      swap2\n      swap3\n      swap1\n      dup1\n      calldataload\n      swap1\n      0x20\n      add\n      swap1\n      dup3\n      add\n      dup1\n      calldataload\n      swap1\n      0x20\n      add\n      swap1\n      dup1\n      dup1\n      0x20\n      mul\n      0x20\n      add\n      mload(0x40)\n      swap1\n      dup2\n      add\n      0x40\n      mstore\n      dup1\n      swap4\n      swap3\n      swap2\n      swap1\n      dup2\n      dup2\n      mstore\n      0x20\n      add\n      dup4\n      dup4\n      0x20\n      mul\n      dup1\n      dup3\n      dup5\n      calldatacopy\n      dup3\n      add\n      swap2\n      pop\n      pop\n      pop\n      pop\n      pop\n      pop\n      swap2\n      swap3\n      swap2\n      swap3\n      swap1\n      pop\n      pop\n      pop\n      jump(tag_52)\n    tag_51:\n      stop\n        /* \"contracts/CryptoPunksOg.sol\":7433:7737  function withdraw() {... */\n    tag_9:\n      callvalue\n        /* \"--CODEGEN--\":8:17   */\n      dup1\n        /* \"--CODEGEN--\":5:7   */\n      iszero\n      tag_53\n      jumpi\n        /* \"--CODEGEN--\":30:31   */\n      0x0\n        /* \"--CODEGEN--\":27:28   */\n      dup1\n        /* \"--CODEGEN--\":20:32   */\n      revert\n        /* \"--CODEGEN--\":5:7   */\n    tag_53:\n        /* \"contracts/CryptoPunksOg.sol\":7433:7737  function withdraw() {... */\n      pop\n      tag_54\n      jump(tag_55)\n    tag_54:\n      stop\n        /* \"contracts/CryptoPunksOg.sol\":137:229  string public imageHash = \"ac39af4793119ee46bbff351d8cb6b5f23da60222126add4268e261199a2921b\" */\n    tag_10:\n      callvalue\n        /* \"--CODEGEN--\":8:17   */\n      dup1\n        /* \"--CODEGEN--\":5:7   */\n      iszero\n      tag_56\n      jumpi\n        /* \"--CODEGEN--\":30:31   */\n      0x0\n        /* \"--CODEGEN--\":27:28   */\n      dup1\n        /* \"--CODEGEN--\":20:32   */\n      revert\n        /* \"--CODEGEN--\":5:7   */\n    tag_56:\n        /* \"contracts/CryptoPunksOg.sol\":137:229  string public imageHash = \"ac39af4793119ee46bbff351d8cb6b5f23da60222126add4268e261199a2921b\" */\n      pop\n      tag_57\n      jump(tag_58)\n    tag_57:\n      mload(0x40)\n      dup1\n      dup1\n      0x20\n      add\n      dup3\n      dup2\n      sub\n      dup3\n      mstore\n      dup4\n      dup2\n      dup2\n      mload\n      dup2\n      mstore\n      0x20\n      add\n      swap2\n      pop\n      dup1\n      mload\n      swap1\n      0x20\n      add\n      swap1\n      dup1\n      dup4\n      dup4\n        /* \"--CODEGEN--\":23:24   */\n      0x0\n        /* \"--CODEGEN--\":8:108   */\n    tag_59:\n        /* \"--CODEGEN--\":33:36   */\n      dup4\n        /* \"--CODEGEN--\":30:31   */\n      dup2\n        /* \"--CODEGEN--\":27:37   */\n      lt\n        /* \"--CODEGEN--\":8:108   */\n      iszero\n      tag_60\n      jumpi\n        /* \"--CODEGEN--\":99:100   */\n      dup1\n        /* \"--CODEGEN--\":94:97   */\n      dup3\n        /* \"--CODEGEN--\":90:101   */\n      add\n        /* \"--CODEGEN--\":84:102   */\n      mload\n        /* \"--CODEGEN--\":80:81   */\n      dup2\n        /* \"--CODEGEN--\":75:78   */\n      dup5\n        /* \"--CODEGEN--\":71:82   */\n      add\n        /* \"--CODEGEN--\":64:103   */\n      mstore\n        /* \"--CODEGEN--\":52:54   */\n      0x20\n        /* \"--CODEGEN--\":49:50   */\n      dup2\n        /* \"--CODEGEN--\":45:55   */\n      add\n        /* \"--CODEGEN--\":40:55   */\n      swap1\n      pop\n        /* \"--CODEGEN--\":8:108   */\n      jump(tag_59)\n    tag_60:\n        /* \"--CODEGEN--\":12:26   */\n      pop\n        /* \"contracts/CryptoPunksOg.sol\":137:229  string public imageHash = \"ac39af4793119ee46bbff351d8cb6b5f23da60222126add4268e261199a2921b\" */\n      pop\n      pop\n      pop\n      swap1\n      pop\n      swap1\n      dup2\n      add\n      swap1\n      0x1f\n      and\n      dup1\n      iszero\n      tag_62\n      jumpi\n      dup1\n      dup3\n      sub\n      dup1\n      mload\n      0x1\n      dup4\n      0x20\n      sub\n      0x100\n      exp\n      sub\n      not\n      and\n      dup2\n      mstore\n      0x20\n      add\n      swap2\n      pop\n    tag_62:\n      pop\n      swap3\n      pop\n      pop\n      pop\n      mload(0x40)\n      dup1\n      swap2\n      sub\n      swap1\n      return\n        /* \"contracts/CryptoPunksOg.sol\":410:447  uint public nextPunkIndexToAssign = 0 */\n    tag_11:\n      callvalue\n        /* \"--CODEGEN--\":8:17   */\n      dup1\n        /* \"--CODEGEN--\":5:7   */\n      iszero\n      tag_63\n      jumpi\n        /* \"--CODEGEN--\":30:31   */\n      0x0\n        /* \"--CODEGEN--\":27:28   */\n      dup1\n        /* \"--CODEGEN--\":20:32   */\n      revert\n        /* \"--CODEGEN--\":5:7   */\n    tag_63:\n        /* \"contracts/CryptoPunksOg.sol\":410:447  uint public nextPunkIndexToAssign = 0 */\n      pop\n      tag_64\n      jump(tag_65)\n    tag_64:\n      mload(0x40)\n      dup1\n      dup3\n      dup2\n      mstore\n      0x20\n      add\n      swap2\n      pop\n      pop\n      mload(0x40)\n      dup1\n      swap2\n      sub\n      swap1\n      return\n        /* \"contracts/CryptoPunksOg.sol\":600:651  mapping (uint => address) public punkIndexToAddress */\n    tag_12:\n      callvalue\n        /* \"--CODEGEN--\":8:17   */\n      dup1\n        /* \"--CODEGEN--\":5:7   */\n      iszero\n      tag_66\n      jumpi\n        /* \"--CODEGEN--\":30:31   */\n      0x0\n        /* \"--CODEGEN--\":27:28   */\n      dup1\n        /* \"--CODEGEN--\":20:32   */\n      revert\n        /* \"--CODEGEN--\":5:7   */\n    tag_66:\n        /* \"contracts/CryptoPunksOg.sol\":600:651  mapping (uint => address) public punkIndexToAddress */\n      pop\n      tag_67\n      0x4\n      dup1\n      calldatasize\n      sub\n      dup2\n      add\n      swap1\n      dup1\n      dup1\n      calldataload\n      swap1\n      0x20\n      add\n      swap1\n      swap3\n      swap2\n      swap1\n      pop\n      pop\n      pop\n      jump(tag_68)\n    tag_67:\n      mload(0x40)\n      dup1\n      dup3\n      0xffffffffffffffffffffffffffffffffffffffff\n      and\n      0xffffffffffffffffffffffffffffffffffffffff\n      and\n      dup2\n      mstore\n      0x20\n      add\n      swap2\n      pop\n      pop\n      mload(0x40)\n      dup1\n      swap2\n      sub\n      swap1\n      return\n        /* \"contracts/CryptoPunksOg.sol\":256:294  string public standard = 'CryptoPunks' */\n    tag_13:\n      callvalue\n        /* \"--CODEGEN--\":8:17   */\n      dup1\n        /* \"--CODEGEN--\":5:7   */\n      iszero\n      tag_69\n      jumpi\n        /* \"--CODEGEN--\":30:31   */\n      0x0\n        /* \"--CODEGEN--\":27:28   */\n      dup1\n        /* \"--CODEGEN--\":20:32   */\n      revert\n        /* \"--CODEGEN--\":5:7   */\n    tag_69:\n        /* \"contracts/CryptoPunksOg.sol\":256:294  string public standard = 'CryptoPunks' */\n      pop\n      tag_70\n      jump(tag_71)\n    tag_70:\n      mload(0x40)\n      dup1\n      dup1\n      0x20\n      add\n      dup3\n      dup2\n      sub\n      dup3\n      mstore\n      dup4\n      dup2\n      dup2\n      mload\n      dup2\n      mstore\n      0x20\n      add\n      swap2\n      pop\n      dup1\n      mload\n      swap1\n      0x20\n      add\n      swap1\n      dup1\n      dup4\n      dup4\n        /* \"--CODEGEN--\":23:24   */\n      0x0\n        /* \"--CODEGEN--\":8:108   */\n    tag_72:\n        /* \"--CODEGEN--\":33:36   */\n      dup4\n        /* \"--CODEGEN--\":30:31   */\n      dup2\n        /* \"--CODEGEN--\":27:37   */\n      lt\n        /* \"--CODEGEN--\":8:108   */\n      iszero\n      tag_73\n      jumpi\n        /* \"--CODEGEN--\":99:100   */\n      dup1\n        /* \"--CODEGEN--\":94:97   */\n      dup3\n        /* \"--CODEGEN--\":90:101   */\n      add\n        /* \"--CODEGEN--\":84:102   */\n      mload\n        /* \"--CODEGEN--\":80:81   */\n      dup2\n        /* \"--CODEGEN--\":75:78   */\n      dup5\n        /* \"--CODEGEN--\":71:82   */\n      add\n        /* \"--CODEGEN--\":64:103   */\n      mstore\n        /* \"--CODEGEN--\":52:54   */\n      0x20\n        /* \"--CODEGEN--\":49:50   */\n      dup2\n        /* \"--CODEGEN--\":45:55   */\n      add\n        /* \"--CODEGEN--\":40:55   */\n      swap1\n      pop\n        /* \"--CODEGEN--\":8:108   */\n      jump(tag_72)\n    tag_73:\n        /* \"--CODEGEN--\":12:26   */\n      pop\n        /* \"contracts/CryptoPunksOg.sol\":256:294  string public standard = 'CryptoPunks' */\n      pop\n      pop\n      pop\n      swap1\n      pop\n      swap1\n      dup2\n      add\n      swap1\n      0x1f\n      and\n      dup1\n      iszero\n      tag_75\n      jumpi\n      dup1\n      dup3\n      sub\n      dup1\n      mload\n      0x1\n      dup4\n      0x20\n      sub\n      0x100\n      exp\n      sub\n      not\n      and\n      dup2\n      mstore\n      0x20\n      add\n      swap2\n      pop\n    tag_75:\n      pop\n      swap3\n      pop\n      pop\n      pop\n      mload(0x40)\n      dup1\n      swap2\n      sub\n      swap1\n      return\n        /* \"contracts/CryptoPunksOg.sol\":1302:1339  mapping (uint => Bid) public punkBids */\n    tag_14:\n      callvalue\n        /* \"--CODEGEN--\":8:17   */\n      dup1\n        /* \"--CODEGEN--\":5:7   */\n      iszero\n      tag_76\n      jumpi\n        /* \"--CODEGEN--\":30:31   */\n      0x0\n        /* \"--CODEGEN--\":27:28   */\n      dup1\n        /* \"--CODEGEN--\":20:32   */\n      revert\n        /* \"--CODEGEN--\":5:7   */\n    tag_76:\n        /* \"contracts/CryptoPunksOg.sol\":1302:1339  mapping (uint => Bid) public punkBids */\n      pop\n      tag_77\n      0x4\n      dup1\n      calldatasize\n      sub\n      dup2\n      add\n      swap1\n      dup1\n      dup1\n      calldataload\n      swap1\n      0x20\n      add\n      swap1\n      swap3\n      swap2\n      swap1\n      pop\n      pop\n      pop\n      jump(tag_78)\n    tag_77:\n      mload(0x40)\n      dup1\n      dup6\n      iszero\n      iszero\n      iszero\n      iszero\n      dup2\n      mstore\n      0x20\n      add\n      dup5\n      dup2\n      mstore\n      0x20\n      add\n      dup4\n      0xffffffffffffffffffffffffffffffffffffffff\n      and\n      0xffffffffffffffffffffffffffffffffffffffff\n      and\n      dup2\n      mstore\n      0x20\n      add\n      dup3\n      dup2\n      mstore\n      0x20\n      add\n      swap5\n      pop\n      pop\n      pop\n      pop\n      pop\n      mload(0x40)\n      dup1\n      swap2\n      sub\n      swap1\n      return\n        /* \"contracts/CryptoPunksOg.sol\":708:753  mapping (address => uint256) public balanceOf */\n    tag_15:\n      callvalue\n        /* \"--CODEGEN--\":8:17   */\n      dup1\n        /* \"--CODEGEN--\":5:7   */\n      iszero\n      tag_79\n      jumpi\n        /* \"--CODEGEN--\":30:31   */\n      0x0\n        /* \"--CODEGEN--\":27:28   */\n      dup1\n        /* \"--CODEGEN--\":20:32   */\n      revert\n        /* \"--CODEGEN--\":5:7   */\n    tag_79:\n        /* \"contracts/CryptoPunksOg.sol\":708:753  mapping (address => uint256) public balanceOf */\n      pop\n      tag_80\n      0x4\n      dup1\n      calldatasize\n      sub\n      dup2\n      add\n      swap1\n      dup1\n      dup1\n      calldataload\n      0xffffffffffffffffffffffffffffffffffffffff\n      and\n      swap1\n      0x20\n      add\n      swap1\n      swap3\n      swap2\n      swap1\n      pop\n      pop\n      pop\n      jump(tag_81)\n    tag_80:\n      mload(0x40)\n      dup1\n      dup3\n      dup2\n      mstore\n      0x20\n      add\n      swap2\n      pop\n      pop\n      mload(0x40)\n      dup1\n      swap2\n      sub\n      swap1\n      return\n        /* \"contracts/CryptoPunksOg.sol\":3562:3678  function allInitialOwnersAssigned() {... */\n    tag_16:\n      callvalue\n        /* \"--CODEGEN--\":8:17   */\n      dup1\n        /* \"--CODEGEN--\":5:7   */\n      iszero\n      tag_82\n      jumpi\n        /* \"--CODEGEN--\":30:31   */\n      0x0\n        /* \"--CODEGEN--\":27:28   */\n      dup1\n        /* \"--CODEGEN--\":20:32   */\n      revert\n        /* \"--CODEGEN--\":5:7   */\n    tag_82:\n        /* \"contracts/CryptoPunksOg.sol\":3562:3678  function allInitialOwnersAssigned() {... */\n      pop\n      tag_83\n      jump(tag_84)\n    tag_83:\n      stop\n        /* \"contracts/CryptoPunksOg.sol\":454:490  bool public allPunksAssigned = false */\n    tag_17:\n      callvalue\n        /* \"--CODEGEN--\":8:17   */\n      dup1\n        /* \"--CODEGEN--\":5:7   */\n      iszero\n      tag_85\n      jumpi\n        /* \"--CODEGEN--\":30:31   */\n      0x0\n        /* \"--CODEGEN--\":27:28   */\n      dup1\n        /* \"--CODEGEN--\":20:32   */\n      revert\n        /* \"--CODEGEN--\":5:7   */\n    tag_85:\n        /* \"contracts/CryptoPunksOg.sol\":454:490  bool public allPunksAssigned = false */\n      pop\n      tag_86\n      jump(tag_87)\n    tag_86:\n      mload(0x40)\n      dup1\n      dup3\n      iszero\n      iszero\n      iszero\n      iszero\n      dup2\n      mstore\n      0x20\n      add\n      swap2\n      pop\n      pop\n      mload(0x40)\n      dup1\n      swap2\n      sub\n      swap1\n      return\n        /* \"contracts/CryptoPunksOg.sol\":6134:7427  function buyPunk(uint punkIndex) payable {... */\n    tag_18:\n      tag_88\n      0x4\n      dup1\n      calldatasize\n      sub\n      dup2\n      add\n      swap1\n      dup1\n      dup1\n      calldataload\n      swap1\n      0x20\n      add\n      swap1\n      swap3\n      swap2\n      swap1\n      pop\n      pop\n      pop\n      jump(tag_89)\n    tag_88:\n      stop\n        /* \"contracts/CryptoPunksOg.sol\":4148:5009  function transferPunk(address to, uint punkIndex) {... */\n    tag_19:\n      callvalue\n        /* \"--CODEGEN--\":8:17   */\n      dup1\n        /* \"--CODEGEN--\":5:7   */\n      iszero\n      tag_90\n      jumpi\n        /* \"--CODEGEN--\":30:31   */\n      0x0\n        /* \"--CODEGEN--\":27:28   */\n      dup1\n        /* \"--CODEGEN--\":20:32   */\n      revert\n        /* \"--CODEGEN--\":5:7   */\n    tag_90:\n        /* \"contracts/CryptoPunksOg.sol\":4148:5009  function transferPunk(address to, uint punkIndex) {... */\n      pop\n      tag_91\n      0x4\n      dup1\n      calldatasize\n      sub\n      dup2\n      add\n      swap1\n      dup1\n      dup1\n      calldataload\n      0xffffffffffffffffffffffffffffffffffffffff\n      and\n      swap1\n      0x20\n      add\n      swap1\n      swap3\n      swap2\n      swap1\n      dup1\n      calldataload\n      swap1\n      0x20\n      add\n      swap1\n      swap3\n      swap2\n      swap1\n      pop\n      pop\n      pop\n      jump(tag_92)\n    tag_91:\n      stop\n        /* \"contracts/CryptoPunksOg.sol\":324:344  string public symbol */\n    tag_20:\n      callvalue\n        /* \"--CODEGEN--\":8:17   */\n      dup1\n        /* \"--CODEGEN--\":5:7   */\n      iszero\n      tag_93\n      jumpi\n        /* \"--CODEGEN--\":30:31   */\n      0x0\n        /* \"--CODEGEN--\":27:28   */\n      dup1\n        /* \"--CODEGEN--\":20:32   */\n      revert\n        /* \"--CODEGEN--\":5:7   */\n    tag_93:\n        /* \"contracts/CryptoPunksOg.sol\":324:344  string public symbol */\n      pop\n      tag_94\n      jump(tag_95)\n    tag_94:\n      mload(0x40)\n      dup1\n      dup1\n      0x20\n      add\n      dup3\n      dup2\n      sub\n      dup3\n      mstore\n      dup4\n      dup2\n      dup2\n      mload\n      dup2\n      mstore\n      0x20\n      add\n      swap2\n      pop\n      dup1\n      mload\n      swap1\n      0x20\n      add\n      swap1\n      dup1\n      dup4\n      dup4\n        /* \"--CODEGEN--\":23:24   */\n      0x0\n        /* \"--CODEGEN--\":8:108   */\n    tag_96:\n        /* \"--CODEGEN--\":33:36   */\n      dup4\n        /* \"--CODEGEN--\":30:31   */\n      dup2\n        /* \"--CODEGEN--\":27:37   */\n      lt\n        /* \"--CODEGEN--\":8:108   */\n      iszero\n      tag_97\n      jumpi\n        /* \"--CODEGEN--\":99:100   */\n      dup1\n        /* \"--CODEGEN--\":94:97   */\n      dup3\n        /* \"--CODEGEN--\":90:101   */\n      add\n        /* \"--CODEGEN--\":84:102   */\n      mload\n        /* \"--CODEGEN--\":80:81   */\n      dup2\n        /* \"--CODEGEN--\":75:78   */\n      dup5\n        /* \"--CODEGEN--\":71:82   */\n      add\n        /* \"--CODEGEN--\":64:103   */\n      mstore\n        /* \"--CODEGEN--\":52:54   */\n      0x20\n        /* \"--CODEGEN--\":49:50   */\n      dup2\n        /* \"--CODEGEN--\":45:55   */\n      add\n        /* \"--CODEGEN--\":40:55   */\n      swap1\n      pop\n        /* \"--CODEGEN--\":8:108   */\n      jump(tag_96)\n    tag_97:\n        /* \"--CODEGEN--\":12:26   */\n      pop\n        /* \"contracts/CryptoPunksOg.sol\":324:344  string public symbol */\n      pop\n      pop\n      pop\n      swap1\n      pop\n      swap1\n      dup2\n      add\n      swap1\n      0x1f\n      and\n      dup1\n      iszero\n      tag_99\n      jumpi\n      dup1\n      dup3\n      sub\n      dup1\n      mload\n      0x1\n      dup4\n      0x20\n      sub\n      0x100\n      exp\n      sub\n      not\n      and\n      dup2\n      mstore\n      0x20\n      add\n      swap2\n      pop\n    tag_99:\n      pop\n      swap3\n      pop\n      pop\n      pop\n      mload(0x40)\n      dup1\n      swap2\n      sub\n      swap1\n      return\n        /* \"contracts/CryptoPunksOg.sol\":9252:9824  function withdrawBidForPunk(uint punkIndex) {... */\n    tag_21:\n      callvalue\n        /* \"--CODEGEN--\":8:17   */\n      dup1\n        /* \"--CODEGEN--\":5:7   */\n      iszero\n      tag_100\n      jumpi\n        /* \"--CODEGEN--\":30:31   */\n      0x0\n        /* \"--CODEGEN--\":27:28   */\n      dup1\n        /* \"--CODEGEN--\":20:32   */\n      revert\n        /* \"--CODEGEN--\":5:7   */\n    tag_100:\n        /* \"contracts/CryptoPunksOg.sol\":9252:9824  function withdrawBidForPunk(uint punkIndex) {... */\n      pop\n      tag_101\n      0x4\n      dup1\n      calldatasize\n      sub\n      dup2\n      add\n      swap1\n      dup1\n      dup1\n      calldataload\n      swap1\n      0x20\n      add\n      swap1\n      swap3\n      swap2\n      swap1\n      pop\n      pop\n      pop\n      jump(tag_102)\n    tag_101:\n      stop\n        /* \"contracts/CryptoPunksOg.sol\":2759:3301  function setInitialOwner(address to, uint punkIndex) {... */\n    tag_22:\n      callvalue\n        /* \"--CODEGEN--\":8:17   */\n      dup1\n        /* \"--CODEGEN--\":5:7   */\n      iszero\n      tag_103\n      jumpi\n        /* \"--CODEGEN--\":30:31   */\n      0x0\n        /* \"--CODEGEN--\":27:28   */\n      dup1\n        /* \"--CODEGEN--\":20:32   */\n      revert\n        /* \"--CODEGEN--\":5:7   */\n    tag_103:\n        /* \"contracts/CryptoPunksOg.sol\":2759:3301  function setInitialOwner(address to, uint punkIndex) {... */\n      pop\n      tag_104\n      0x4\n      dup1\n      calldatasize\n      sub\n      dup2\n      add\n      swap1\n      dup1\n      dup1\n      calldataload\n      0xffffffffffffffffffffffffffffffffffffffff\n      and\n      swap1\n      0x20\n      add\n      swap1\n      swap3\n      swap2\n      swap1\n      dup1\n      calldataload\n      swap1\n      0x20\n      add\n      swap1\n      swap3\n      swap2\n      swap1\n      pop\n      pop\n      pop\n      jump(tag_105)\n    tag_104:\n      stop\n        /* \"contracts/CryptoPunksOg.sol\":5717:6128  function offerPunkForSaleToAddress(uint punkIndex, uint minSalePriceInWei, address toAddress) {... */\n    tag_23:\n      callvalue\n        /* \"--CODEGEN--\":8:17   */\n      dup1\n        /* \"--CODEGEN--\":5:7   */\n      iszero\n      tag_106\n      jumpi\n        /* \"--CODEGEN--\":30:31   */\n      0x0\n        /* \"--CODEGEN--\":27:28   */\n      dup1\n        /* \"--CODEGEN--\":20:32   */\n      revert\n        /* \"--CODEGEN--\":5:7   */\n    tag_106:\n        /* \"contracts/CryptoPunksOg.sol\":5717:6128  function offerPunkForSaleToAddress(uint punkIndex, uint minSalePriceInWei, address toAddress) {... */\n      pop\n      tag_107\n      0x4\n      dup1\n      calldatasize\n      sub\n      dup2\n      add\n      swap1\n      dup1\n      dup1\n      calldataload\n      swap1\n      0x20\n      add\n      swap1\n      swap3\n      swap2\n      swap1\n      dup1\n      calldataload\n      swap1\n      0x20\n      add\n      swap1\n      swap3\n      swap2\n      swap1\n      dup1\n      calldataload\n      0xffffffffffffffffffffffffffffffffffffffff\n      and\n      swap1\n      0x20\n      add\n      swap1\n      swap3\n      swap2\n      swap1\n      pop\n      pop\n      pop\n      jump(tag_108)\n    tag_107:\n      stop\n        /* \"contracts/CryptoPunksOg.sol\":496:534  uint public punksRemainingToAssign = 0 */\n    tag_24:\n      callvalue\n        /* \"--CODEGEN--\":8:17   */\n      dup1\n        /* \"--CODEGEN--\":5:7   */\n      iszero\n      tag_109\n      jumpi\n        /* \"--CODEGEN--\":30:31   */\n      0x0\n        /* \"--CODEGEN--\":27:28   */\n      dup1\n        /* \"--CODEGEN--\":20:32   */\n      revert\n        /* \"--CODEGEN--\":5:7   */\n    tag_109:\n        /* \"contracts/CryptoPunksOg.sol\":496:534  uint public punksRemainingToAssign = 0 */\n      pop\n      tag_110\n      jump(tag_111)\n    tag_110:\n      mload(0x40)\n      dup1\n      dup3\n      dup2\n      mstore\n      0x20\n      add\n      swap2\n      pop\n      pop\n      mload(0x40)\n      dup1\n      swap2\n      sub\n      swap1\n      return\n        /* \"contracts/CryptoPunksOg.sol\":5340:5711  function offerPunkForSale(uint punkIndex, uint minSalePriceInWei) {... */\n    tag_25:\n      callvalue\n        /* \"--CODEGEN--\":8:17   */\n      dup1\n        /* \"--CODEGEN--\":5:7   */\n      iszero\n      tag_112\n      jumpi\n        /* \"--CODEGEN--\":30:31   */\n      0x0\n        /* \"--CODEGEN--\":27:28   */\n      dup1\n        /* \"--CODEGEN--\":20:32   */\n      revert\n        /* \"--CODEGEN--\":5:7   */\n    tag_112:\n        /* \"contracts/CryptoPunksOg.sol\":5340:5711  function offerPunkForSale(uint punkIndex, uint minSalePriceInWei) {... */\n      pop\n      tag_113\n      0x4\n      dup1\n      calldatasize\n      sub\n      dup2\n      add\n      swap1\n      dup1\n      dup1\n      calldataload\n      swap1\n      0x20\n      add\n      swap1\n      swap3\n      swap2\n      swap1\n      dup1\n      calldataload\n      swap1\n      0x20\n      add\n      swap1\n      swap3\n      swap2\n      swap1\n      pop\n      pop\n      pop\n      jump(tag_114)\n    tag_113:\n      stop\n        /* \"contracts/CryptoPunksOg.sol\":3684:4064  function getPunk(uint punkIndex) {... */\n    tag_26:\n      callvalue\n        /* \"--CODEGEN--\":8:17   */\n      dup1\n        /* \"--CODEGEN--\":5:7   */\n      iszero\n      tag_115\n      jumpi\n        /* \"--CODEGEN--\":30:31   */\n      0x0\n        /* \"--CODEGEN--\":27:28   */\n      dup1\n        /* \"--CODEGEN--\":20:32   */\n      revert\n        /* \"--CODEGEN--\":5:7   */\n    tag_115:\n        /* \"contracts/CryptoPunksOg.sol\":3684:4064  function getPunk(uint punkIndex) {... */\n      pop\n      tag_116\n      0x4\n      dup1\n      calldatasize\n      sub\n      dup2\n      add\n      swap1\n      dup1\n      dup1\n      calldataload\n      swap1\n      0x20\n      add\n      swap1\n      swap3\n      swap2\n      swap1\n      pop\n      pop\n      pop\n      jump(tag_117)\n    tag_116:\n      stop\n        /* \"contracts/CryptoPunksOg.sol\":1346:1397  mapping (address => uint) public pendingWithdrawals */\n    tag_27:\n      callvalue\n        /* \"--CODEGEN--\":8:17   */\n      dup1\n        /* \"--CODEGEN--\":5:7   */\n      iszero\n      tag_118\n      jumpi\n        /* \"--CODEGEN--\":30:31   */\n      0x0\n        /* \"--CODEGEN--\":27:28   */\n      dup1\n        /* \"--CODEGEN--\":20:32   */\n      revert\n        /* \"--CODEGEN--\":5:7   */\n    tag_118:\n        /* \"contracts/CryptoPunksOg.sol\":1346:1397  mapping (address => uint) public pendingWithdrawals */\n      pop\n      tag_119\n      0x4\n      dup1\n      calldatasize\n      sub\n      dup2\n      add\n      swap1\n      dup1\n      dup1\n      calldataload\n      0xffffffffffffffffffffffffffffffffffffffff\n      and\n      swap1\n      0x20\n      add\n      swap1\n      swap3\n      swap2\n      swap1\n      pop\n      pop\n      pop\n      jump(tag_120)\n    tag_119:\n      mload(0x40)\n      dup1\n      dup3\n      dup2\n      mstore\n      0x20\n      add\n      swap2\n      pop\n      pop\n      mload(0x40)\n      dup1\n      swap2\n      sub\n      swap1\n      return\n        /* \"contracts/CryptoPunksOg.sol\":5015:5334  function punkNoLongerForSale(uint punkIndex) {... */\n    tag_28:\n      callvalue\n        /* \"--CODEGEN--\":8:17   */\n      dup1\n        /* \"--CODEGEN--\":5:7   */\n      iszero\n      tag_121\n      jumpi\n        /* \"--CODEGEN--\":30:31   */\n      0x0\n        /* \"--CODEGEN--\":27:28   */\n      dup1\n        /* \"--CODEGEN--\":20:32   */\n      revert\n        /* \"--CODEGEN--\":5:7   */\n    tag_121:\n        /* \"contracts/CryptoPunksOg.sol\":5015:5334  function punkNoLongerForSale(uint punkIndex) {... */\n      pop\n      tag_122\n      0x4\n      dup1\n      calldatasize\n      sub\n      dup2\n      add\n      swap1\n      dup1\n      dup1\n      calldataload\n      swap1\n      0x20\n      add\n      swap1\n      swap3\n      swap2\n      swap1\n      pop\n      pop\n      pop\n      jump(tag_123)\n    tag_122:\n      stop\n        /* \"contracts/CryptoPunksOg.sol\":300:318  string public name */\n    tag_31:\n      0x3\n      dup1\n      sload\n      0x1\n      dup2\n      0x1\n      and\n      iszero\n      0x100\n      mul\n      sub\n      and\n      0x2\n      swap1\n      div\n      dup1\n      0x1f\n      add\n      0x20\n      dup1\n      swap2\n      div\n      mul\n      0x20\n      add\n      mload(0x40)\n      swap1\n      dup2\n      add\n      0x40\n      mstore\n      dup1\n      swap3\n      swap2\n      swap1\n      dup2\n      dup2\n      mstore\n      0x20\n      add\n      dup3\n      dup1\n      sload\n      0x1\n      dup2\n      0x1\n      and\n      iszero\n      0x100\n      mul\n      sub\n      and\n      0x2\n      swap1\n      div\n      dup1\n      iszero\n      tag_124\n      jumpi\n      dup1\n      0x1f\n      lt\n      tag_125\n      jumpi\n      0x100\n      dup1\n      dup4\n      sload\n      div\n      mul\n      dup4\n      mstore\n      swap2\n      0x20\n      add\n      swap2\n      jump(tag_124)\n    tag_125:\n      dup3\n      add\n      swap2\n      swap1\n      0x0\n      mstore\n      keccak256(0x0, 0x20)\n      swap1\n    tag_126:\n      dup2\n      sload\n      dup2\n      mstore\n      swap1\n      0x1\n      add\n      swap1\n      0x20\n      add\n      dup1\n      dup4\n      gt\n      tag_126\n      jumpi\n      dup3\n      swap1\n      sub\n      0x1f\n      and\n      dup3\n      add\n      swap2\n    tag_124:\n      pop\n      pop\n      pop\n      pop\n      pop\n      dup2\n      jump\t// out\n        /* \"contracts/CryptoPunksOg.sol\":1205:1255  mapping (uint => Offer) public punksOfferedForSale */\n    tag_38:\n      mstore(0x20, 0xc)\n      dup1\n      0x0\n      mstore\n      keccak256(0x0, 0x40)\n      0x0\n      swap2\n      pop\n      swap1\n      pop\n      dup1\n      0x0\n      add\n      0x0\n      swap1\n      sload\n      swap1\n      0x100\n      exp\n      swap1\n      div\n      0xff\n      and\n      swap1\n      dup1\n      0x1\n      add\n      sload\n      swap1\n      dup1\n      0x2\n      add\n      0x0\n      swap1\n      sload\n      swap1\n      0x100\n      exp\n      swap1\n      div\n      0xffffffffffffffffffffffffffffffffffffffff\n      and\n      swap1\n      dup1\n      0x3\n      add\n      sload\n      swap1\n      dup1\n      0x4\n      add\n      0x0\n      swap1\n      sload\n      swap1\n      0x100\n      exp\n      swap1\n      div\n      0xffffffffffffffffffffffffffffffffffffffff\n      and\n      swap1\n      pop\n      dup6\n      jump\t// out\n        /* \"contracts/CryptoPunksOg.sol\":7743:8422  function enterBidForPunk(uint punkIndex) payable {... */\n    tag_40:\n        /* \"contracts/CryptoPunksOg.sol\":8051:8063  Bid existing */\n      0x0\n        /* \"contracts/CryptoPunksOg.sol\":7819:7824  10000 */\n      0x2710\n        /* \"contracts/CryptoPunksOg.sol\":7806:7815  punkIndex */\n      dup3\n        /* \"contracts/CryptoPunksOg.sol\":7806:7824  punkIndex >= 10000 */\n      lt\n      iszero\n        /* \"contracts/CryptoPunksOg.sol\":7802:7831  if (punkIndex >= 10000) throw */\n      iszero\n      tag_128\n      jumpi\n        /* \"contracts/CryptoPunksOg.sol\":7826:7831  throw */\n      0x0\n      dup1\n      revert\n        /* \"contracts/CryptoPunksOg.sol\":7802:7831  if (punkIndex >= 10000) throw */\n    tag_128:\n        /* \"contracts/CryptoPunksOg.sol\":7846:7862  allPunksAssigned */\n      0x8\n      0x0\n      swap1\n      sload\n      swap1\n      0x100\n      exp\n      swap1\n      div\n      0xff\n      and\n        /* \"contracts/CryptoPunksOg.sol\":7845:7862  !allPunksAssigned */\n      iszero\n        /* \"contracts/CryptoPunksOg.sol\":7841:7869  if (!allPunksAssigned) throw */\n      iszero\n      tag_129\n      jumpi\n        /* \"contracts/CryptoPunksOg.sol\":7864:7869  throw */\n      0x0\n      dup1\n      revert\n        /* \"contracts/CryptoPunksOg.sol\":7841:7869  if (!allPunksAssigned) throw */\n    tag_129:\n        /* \"contracts/CryptoPunksOg.sol\":7932:7935  0x0 */\n      0x0\n        /* \"contracts/CryptoPunksOg.sol\":7899:7917  punkIndexToAddress */\n      0xa\n        /* \"contracts/CryptoPunksOg.sol\":7899:7928  punkIndexToAddress[punkIndex] */\n      0x0\n        /* \"contracts/CryptoPunksOg.sol\":7918:7927  punkIndex */\n      dup5\n        /* \"contracts/CryptoPunksOg.sol\":7899:7928  punkIndexToAddress[punkIndex] */\n      dup2\n      mstore\n      0x20\n      add\n      swap1\n      dup2\n      mstore\n      0x20\n      add\n      0x0\n      keccak256\n      0x0\n      swap1\n      sload\n      swap1\n      0x100\n      exp\n      swap1\n      div\n      0xffffffffffffffffffffffffffffffffffffffff\n      and\n        /* \"contracts/CryptoPunksOg.sol\":7899:7935  punkIndexToAddress[punkIndex] == 0x0 */\n      0xffffffffffffffffffffffffffffffffffffffff\n      and\n      eq\n        /* \"contracts/CryptoPunksOg.sol\":7895:7942  if (punkIndexToAddress[punkIndex] == 0x0) throw */\n      iszero\n      tag_130\n      jumpi\n        /* \"contracts/CryptoPunksOg.sol\":7937:7942  throw */\n      0x0\n      dup1\n      revert\n        /* \"contracts/CryptoPunksOg.sol\":7895:7942  if (punkIndexToAddress[punkIndex] == 0x0) throw */\n    tag_130:\n        /* \"contracts/CryptoPunksOg.sol\":7989:7999  msg.sender */\n      caller\n        /* \"contracts/CryptoPunksOg.sol\":7956:7999  punkIndexToAddress[punkIndex] == msg.sender */\n      0xffffffffffffffffffffffffffffffffffffffff\n      and\n        /* \"contracts/CryptoPunksOg.sol\":7956:7974  punkIndexToAddress */\n      0xa\n        /* \"contracts/CryptoPunksOg.sol\":7956:7985  punkIndexToAddress[punkIndex] */\n      0x0\n        /* \"contracts/CryptoPunksOg.sol\":7975:7984  punkIndex */\n      dup5\n        /* \"contracts/CryptoPunksOg.sol\":7956:7985  punkIndexToAddress[punkIndex] */\n      dup2\n      mstore\n      0x20\n      add\n      swap1\n      dup2\n      mstore\n      0x20\n      add\n      0x0\n      keccak256\n      0x0\n      swap1\n      sload\n      swap1\n      0x100\n      exp\n      swap1\n      div\n      0xffffffffffffffffffffffffffffffffffffffff\n      and\n        /* \"contracts/CryptoPunksOg.sol\":7956:7999  punkIndexToAddress[punkIndex] == msg.sender */\n      0xffffffffffffffffffffffffffffffffffffffff\n      and\n      eq\n        /* \"contracts/CryptoPunksOg.sol\":7952:8006  if (punkIndexToAddress[punkIndex] == msg.sender) throw */\n      iszero\n      tag_131\n      jumpi\n        /* \"contracts/CryptoPunksOg.sol\":8001:8006  throw */\n      0x0\n      dup1\n      revert\n        /* \"contracts/CryptoPunksOg.sol\":7952:8006  if (punkIndexToAddress[punkIndex] == msg.sender) throw */\n    tag_131:\n        /* \"contracts/CryptoPunksOg.sol\":8033:8034  0 */\n      0x0\n        /* \"contracts/CryptoPunksOg.sol\":8020:8029  msg.value */\n      callvalue\n        /* \"contracts/CryptoPunksOg.sol\":8020:8034  msg.value == 0 */\n      eq\n        /* \"contracts/CryptoPunksOg.sol\":8016:8041  if (msg.value == 0) throw */\n      iszero\n      tag_132\n      jumpi\n        /* \"contracts/CryptoPunksOg.sol\":8036:8041  throw */\n      0x0\n      dup1\n      revert\n        /* \"contracts/CryptoPunksOg.sol\":8016:8041  if (msg.value == 0) throw */\n    tag_132:\n        /* \"contracts/CryptoPunksOg.sol\":8066:8074  punkBids */\n      0xd\n        /* \"contracts/CryptoPunksOg.sol\":8066:8085  punkBids[punkIndex] */\n      0x0\n        /* \"contracts/CryptoPunksOg.sol\":8075:8084  punkIndex */\n      dup4\n        /* \"contracts/CryptoPunksOg.sol\":8066:8085  punkBids[punkIndex] */\n      dup2\n      mstore\n      0x20\n      add\n      swap1\n      dup2\n      mstore\n      0x20\n      add\n      0x0\n      keccak256\n        /* \"contracts/CryptoPunksOg.sol\":8051:8085  Bid existing = punkBids[punkIndex] */\n      swap1\n      pop\n        /* \"contracts/CryptoPunksOg.sol\":8112:8120  existing */\n      dup1\n        /* \"contracts/CryptoPunksOg.sol\":8112:8126  existing.value */\n      0x3\n      add\n      sload\n        /* \"contracts/CryptoPunksOg.sol\":8099:8108  msg.value */\n      callvalue\n        /* \"contracts/CryptoPunksOg.sol\":8099:8126  msg.value <= existing.value */\n      gt\n      iszero\n        /* \"contracts/CryptoPunksOg.sol\":8095:8133  if (msg.value <= existing.value) throw */\n      iszero\n      tag_133\n      jumpi\n        /* \"contracts/CryptoPunksOg.sol\":8128:8133  throw */\n      0x0\n      dup1\n      revert\n        /* \"contracts/CryptoPunksOg.sol\":8095:8133  if (msg.value <= existing.value) throw */\n    tag_133:\n        /* \"contracts/CryptoPunksOg.sol\":8164:8165  0 */\n      0x0\n        /* \"contracts/CryptoPunksOg.sol\":8147:8155  existing */\n      dup2\n        /* \"contracts/CryptoPunksOg.sol\":8147:8161  existing.value */\n      0x3\n      add\n      sload\n        /* \"contracts/CryptoPunksOg.sol\":8147:8165  existing.value > 0 */\n      gt\n        /* \"contracts/CryptoPunksOg.sol\":8143:8283  if (existing.value > 0) {... */\n      iszero\n      tag_134\n      jumpi\n        /* \"contracts/CryptoPunksOg.sol\":8258:8266  existing */\n      dup1\n        /* \"contracts/CryptoPunksOg.sol\":8258:8272  existing.value */\n      0x3\n      add\n      sload\n        /* \"contracts/CryptoPunksOg.sol\":8219:8237  pendingWithdrawals */\n      0xe\n        /* \"contracts/CryptoPunksOg.sol\":8219:8254  pendingWithdrawals[existing.bidder] */\n      0x0\n        /* \"contracts/CryptoPunksOg.sol\":8238:8246  existing */\n      dup4\n        /* \"contracts/CryptoPunksOg.sol\":8238:8253  existing.bidder */\n      0x2\n      add\n      0x0\n      swap1\n      sload\n      swap1\n      0x100\n      exp\n      swap1\n      div\n      0xffffffffffffffffffffffffffffffffffffffff\n      and\n        /* \"contracts/CryptoPunksOg.sol\":8219:8254  pendingWithdrawals[existing.bidder] */\n      0xffffffffffffffffffffffffffffffffffffffff\n      and\n      0xffffffffffffffffffffffffffffffffffffffff\n      and\n      dup2\n      mstore\n      0x20\n      add\n      swap1\n      dup2\n      mstore\n      0x20\n      add\n      0x0\n      keccak256\n      0x0\n        /* \"contracts/CryptoPunksOg.sol\":8219:8272  pendingWithdrawals[existing.bidder] += existing.value */\n      dup3\n      dup3\n      sload\n      add\n      swap3\n      pop\n      pop\n      dup2\n      swap1\n      sstore\n      pop\n        /* \"contracts/CryptoPunksOg.sol\":8143:8283  if (existing.value > 0) {... */\n    tag_134:\n        /* \"contracts/CryptoPunksOg.sol\":8314:8357  Bid(true, punkIndex, msg.sender, msg.value) */\n      0x80\n      mload(0x40)\n      swap1\n      dup2\n      add\n      0x40\n      mstore\n      dup1\n        /* \"contracts/CryptoPunksOg.sol\":8318:8322  true */\n      0x1\n        /* \"contracts/CryptoPunksOg.sol\":8314:8357  Bid(true, punkIndex, msg.sender, msg.value) */\n      iszero\n      iszero\n      dup2\n      mstore\n      0x20\n      add\n        /* \"contracts/CryptoPunksOg.sol\":8324:8333  punkIndex */\n      dup4\n        /* \"contracts/CryptoPunksOg.sol\":8314:8357  Bid(true, punkIndex, msg.sender, msg.value) */\n      dup2\n      mstore\n      0x20\n      add\n        /* \"contracts/CryptoPunksOg.sol\":8335:8345  msg.sender */\n      caller\n        /* \"contracts/CryptoPunksOg.sol\":8314:8357  Bid(true, punkIndex, msg.sender, msg.value) */\n      0xffffffffffffffffffffffffffffffffffffffff\n      and\n      dup2\n      mstore\n      0x20\n      add\n        /* \"contracts/CryptoPunksOg.sol\":8347:8356  msg.value */\n      callvalue\n        /* \"contracts/CryptoPunksOg.sol\":8314:8357  Bid(true, punkIndex, msg.sender, msg.value) */\n      dup2\n      mstore\n      pop\n        /* \"contracts/CryptoPunksOg.sol\":8292:8300  punkBids */\n      0xd\n        /* \"contracts/CryptoPunksOg.sol\":8292:8311  punkBids[punkIndex] */\n      0x0\n        /* \"contracts/CryptoPunksOg.sol\":8301:8310  punkIndex */\n      dup5\n        /* \"contracts/CryptoPunksOg.sol\":8292:8311  punkBids[punkIndex] */\n      dup2\n      mstore\n      0x20\n      add\n      swap1\n      dup2\n      mstore\n      0x20\n      add\n      0x0\n      keccak256\n        /* \"contracts/CryptoPunksOg.sol\":8292:8357  punkBids[punkIndex] = Bid(true, punkIndex, msg.sender, msg.value) */\n      0x0\n      dup3\n      add\n      mload\n      dup2\n      0x0\n      add\n      exp(0x100, 0x0)\n      dup2\n      sload\n      dup2\n      0xff\n      mul\n      not\n      and\n      swap1\n      dup4\n      iszero\n      iszero\n      mul\n      or\n      swap1\n      sstore\n      pop\n      0x20\n      dup3\n      add\n      mload\n      dup2\n      0x1\n      add\n      sstore\n      0x40\n      dup3\n      add\n      mload\n      dup2\n      0x2\n      add\n      exp(0x100, 0x0)\n      dup2\n      sload\n      dup2\n      0xffffffffffffffffffffffffffffffffffffffff\n      mul\n      not\n      and\n      swap1\n      dup4\n      0xffffffffffffffffffffffffffffffffffffffff\n      and\n      mul\n      or\n      swap1\n      sstore\n      pop\n      0x60\n      dup3\n      add\n      mload\n      dup2\n      0x3\n      add\n      sstore\n      swap1\n      pop\n      pop\n        /* \"contracts/CryptoPunksOg.sol\":8404:8414  msg.sender */\n      caller\n        /* \"contracts/CryptoPunksOg.sol\":8367:8415  PunkBidEntered(punkIndex, msg.value, msg.sender) */\n      0xffffffffffffffffffffffffffffffffffffffff\n      and\n        /* \"contracts/CryptoPunksOg.sol\":8382:8391  punkIndex */\n      dup3\n        /* \"contracts/CryptoPunksOg.sol\":8367:8415  PunkBidEntered(punkIndex, msg.value, msg.sender) */\n      0x5b859394fabae0c1ba88baffe67e751ab5248d2e879028b8c8d6897b0519f56a\n        /* \"contracts/CryptoPunksOg.sol\":8393:8402  msg.value */\n      callvalue\n        /* \"contracts/CryptoPunksOg.sol\":8367:8415  PunkBidEntered(punkIndex, msg.value, msg.sender) */\n      mload(0x40)\n      dup1\n      dup3\n      dup2\n      mstore\n      0x20\n      add\n      swap2\n      pop\n      pop\n      mload(0x40)\n      dup1\n      swap2\n      sub\n      swap1\n      log3\n        /* \"contracts/CryptoPunksOg.sol\":7743:8422  function enterBidForPunk(uint punkIndex) payable {... */\n      pop\n      pop\n      jump\t// out\n        /* \"contracts/CryptoPunksOg.sol\":377:403  uint256 public totalSupply */\n    tag_43:\n      sload(0x6)\n      dup2\n      jump\t// out\n        /* \"contracts/CryptoPunksOg.sol\":8428:9246  function acceptBidForPunk(uint punkIndex, uint minPrice) {... */\n    tag_46:\n        /* \"contracts/CryptoPunksOg.sol\":8652:8666  address seller */\n      0x0\n        /* \"contracts/CryptoPunksOg.sol\":8689:8696  Bid bid */\n      dup1\n        /* \"contracts/CryptoPunksOg.sol\":9047:9058  uint amount */\n      0x0\n        /* \"contracts/CryptoPunksOg.sol\":8512:8517  10000 */\n      0x2710\n        /* \"contracts/CryptoPunksOg.sol\":8499:8508  punkIndex */\n      dup6\n        /* \"contracts/CryptoPunksOg.sol\":8499:8517  punkIndex >= 10000 */\n      lt\n      iszero\n        /* \"contracts/CryptoPunksOg.sol\":8495:8524  if (punkIndex >= 10000) throw */\n      iszero\n      tag_136\n      jumpi\n        /* \"contracts/CryptoPunksOg.sol\":8519:8524  throw */\n      0x0\n      dup1\n      revert\n        /* \"contracts/CryptoPunksOg.sol\":8495:8524  if (punkIndex >= 10000) throw */\n    tag_136:\n        /* \"contracts/CryptoPunksOg.sol\":8539:8555  allPunksAssigned */\n      0x8\n      0x0\n      swap1\n      sload\n      swap1\n      0x100\n      exp\n      swap1\n      div\n      0xff\n      and\n        /* \"contracts/CryptoPunksOg.sol\":8538:8555  !allPunksAssigned */\n      iszero\n        /* \"contracts/CryptoPunksOg.sol\":8534:8562  if (!allPunksAssigned) throw */\n      iszero\n      tag_137\n      jumpi\n        /* \"contracts/CryptoPunksOg.sol\":8557:8562  throw */\n      0x0\n      dup1\n      revert\n        /* \"contracts/CryptoPunksOg.sol\":8534:8562  if (!allPunksAssigned) throw */\n    tag_137:\n        /* \"contracts/CryptoPunksOg.sol\":8625:8635  msg.sender */\n      caller\n        /* \"contracts/CryptoPunksOg.sol\":8592:8635  punkIndexToAddress[punkIndex] != msg.sender */\n      0xffffffffffffffffffffffffffffffffffffffff\n      and\n        /* \"contracts/CryptoPunksOg.sol\":8592:8610  punkIndexToAddress */\n      0xa\n        /* \"contracts/CryptoPunksOg.sol\":8592:8621  punkIndexToAddress[punkIndex] */\n      0x0\n        /* \"contracts/CryptoPunksOg.sol\":8611:8620  punkIndex */\n      dup8\n        /* \"contracts/CryptoPunksOg.sol\":8592:8621  punkIndexToAddress[punkIndex] */\n      dup2\n      mstore\n      0x20\n      add\n      swap1\n      dup2\n      mstore\n      0x20\n      add\n      0x0\n      keccak256\n      0x0\n      swap1\n      sload\n      swap1\n      0x100\n      exp\n      swap1\n      div\n      0xffffffffffffffffffffffffffffffffffffffff\n      and\n        /* \"contracts/CryptoPunksOg.sol\":8592:8635  punkIndexToAddress[punkIndex] != msg.sender */\n      0xffffffffffffffffffffffffffffffffffffffff\n      and\n      eq\n      iszero\n        /* \"contracts/CryptoPunksOg.sol\":8588:8642  if (punkIndexToAddress[punkIndex] != msg.sender) throw */\n      iszero\n      tag_138\n      jumpi\n        /* \"contracts/CryptoPunksOg.sol\":8637:8642  throw */\n      0x0\n      dup1\n      revert\n        /* \"contracts/CryptoPunksOg.sol\":8588:8642  if (punkIndexToAddress[punkIndex] != msg.sender) throw */\n    tag_138:\n        /* \"contracts/CryptoPunksOg.sol\":8669:8679  msg.sender */\n      caller\n        /* \"contracts/CryptoPunksOg.sol\":8652:8679  address seller = msg.sender */\n      swap3\n      pop\n        /* \"contracts/CryptoPunksOg.sol\":8699:8707  punkBids */\n      0xd\n        /* \"contracts/CryptoPunksOg.sol\":8699:8718  punkBids[punkIndex] */\n      0x0\n        /* \"contracts/CryptoPunksOg.sol\":8708:8717  punkIndex */\n      dup7\n        /* \"contracts/CryptoPunksOg.sol\":8699:8718  punkBids[punkIndex] */\n      dup2\n      mstore\n      0x20\n      add\n      swap1\n      dup2\n      mstore\n      0x20\n      add\n      0x0\n      keccak256\n        /* \"contracts/CryptoPunksOg.sol\":8689:8718  Bid bid = punkBids[punkIndex] */\n      swap2\n      pop\n        /* \"contracts/CryptoPunksOg.sol\":8745:8746  0 */\n      0x0\n        /* \"contracts/CryptoPunksOg.sol\":8732:8735  bid */\n      dup3\n        /* \"contracts/CryptoPunksOg.sol\":8732:8741  bid.value */\n      0x3\n      add\n      sload\n        /* \"contracts/CryptoPunksOg.sol\":8732:8746  bid.value == 0 */\n      eq\n        /* \"contracts/CryptoPunksOg.sol\":8728:8753  if (bid.value == 0) throw */\n      iszero\n      tag_139\n      jumpi\n        /* \"contracts/CryptoPunksOg.sol\":8748:8753  throw */\n      0x0\n      dup1\n      revert\n        /* \"contracts/CryptoPunksOg.sol\":8728:8753  if (bid.value == 0) throw */\n    tag_139:\n        /* \"contracts/CryptoPunksOg.sol\":8779:8787  minPrice */\n      dup4\n        /* \"contracts/CryptoPunksOg.sol\":8767:8770  bid */\n      dup3\n        /* \"contracts/CryptoPunksOg.sol\":8767:8776  bid.value */\n      0x3\n      add\n      sload\n        /* \"contracts/CryptoPunksOg.sol\":8767:8787  bid.value < minPrice */\n      lt\n        /* \"contracts/CryptoPunksOg.sol\":8763:8794  if (bid.value < minPrice) throw */\n      iszero\n      tag_140\n      jumpi\n        /* \"contracts/CryptoPunksOg.sol\":8789:8794  throw */\n      0x0\n      dup1\n      revert\n        /* \"contracts/CryptoPunksOg.sol\":8763:8794  if (bid.value < minPrice) throw */\n    tag_140:\n        /* \"contracts/CryptoPunksOg.sol\":8837:8840  bid */\n      dup2\n        /* \"contracts/CryptoPunksOg.sol\":8837:8847  bid.bidder */\n      0x2\n      add\n      0x0\n      swap1\n      sload\n      swap1\n      0x100\n      exp\n      swap1\n      div\n      0xffffffffffffffffffffffffffffffffffffffff\n      and\n        /* \"contracts/CryptoPunksOg.sol\":8805:8823  punkIndexToAddress */\n      0xa\n        /* \"contracts/CryptoPunksOg.sol\":8805:8834  punkIndexToAddress[punkIndex] */\n      0x0\n        /* \"contracts/CryptoPunksOg.sol\":8824:8833  punkIndex */\n      dup8\n        /* \"contracts/CryptoPunksOg.sol\":8805:8834  punkIndexToAddress[punkIndex] */\n      dup2\n      mstore\n      0x20\n      add\n      swap1\n      dup2\n      mstore\n      0x20\n      add\n      0x0\n      keccak256\n      0x0\n        /* \"contracts/CryptoPunksOg.sol\":8805:8847  punkIndexToAddress[punkIndex] = bid.bidder */\n      0x100\n      exp\n      dup2\n      sload\n      dup2\n      0xffffffffffffffffffffffffffffffffffffffff\n      mul\n      not\n      and\n      swap1\n      dup4\n      0xffffffffffffffffffffffffffffffffffffffff\n      and\n      mul\n      or\n      swap1\n      sstore\n      pop\n        /* \"contracts/CryptoPunksOg.sol\":8857:8866  balanceOf */\n      0xb\n        /* \"contracts/CryptoPunksOg.sol\":8857:8874  balanceOf[seller] */\n      0x0\n        /* \"contracts/CryptoPunksOg.sol\":8867:8873  seller */\n      dup5\n        /* \"contracts/CryptoPunksOg.sol\":8857:8874  balanceOf[seller] */\n      0xffffffffffffffffffffffffffffffffffffffff\n      and\n      0xffffffffffffffffffffffffffffffffffffffff\n      and\n      dup2\n      mstore\n      0x20\n      add\n      swap1\n      dup2\n      mstore\n      0x20\n      add\n      0x0\n      keccak256\n      0x0\n        /* \"contracts/CryptoPunksOg.sol\":8857:8876  balanceOf[seller]-- */\n      dup2\n      sload\n      dup1\n      swap3\n      swap2\n      swap1\n      0x1\n      swap1\n      sub\n      swap2\n      swap1\n      pop\n      sstore\n      pop\n        /* \"contracts/CryptoPunksOg.sol\":8886:8895  balanceOf */\n      0xb\n        /* \"contracts/CryptoPunksOg.sol\":8886:8907  balanceOf[bid.bidder] */\n      0x0\n        /* \"contracts/CryptoPunksOg.sol\":8896:8899  bid */\n      dup4\n        /* \"contracts/CryptoPunksOg.sol\":8896:8906  bid.bidder */\n      0x2\n      add\n      0x0\n      swap1\n      sload\n      swap1\n      0x100\n      exp\n      swap1\n      div\n      0xffffffffffffffffffffffffffffffffffffffff\n      and\n        /* \"contracts/CryptoPunksOg.sol\":8886:8907  balanceOf[bid.bidder] */\n      0xffffffffffffffffffffffffffffffffffffffff\n      and\n      0xffffffffffffffffffffffffffffffffffffffff\n      and\n      dup2\n      mstore\n      0x20\n      add\n      swap1\n      dup2\n      mstore\n      0x20\n      add\n      0x0\n      keccak256\n      0x0\n        /* \"contracts/CryptoPunksOg.sol\":8886:8909  balanceOf[bid.bidder]++ */\n      dup2\n      sload\n      dup1\n      swap3\n      swap2\n      swap1\n      0x1\n      add\n      swap2\n      swap1\n      pop\n      sstore\n      pop\n        /* \"contracts/CryptoPunksOg.sol\":8936:8939  bid */\n      dup2\n        /* \"contracts/CryptoPunksOg.sol\":8936:8946  bid.bidder */\n      0x2\n      add\n      0x0\n      swap1\n      sload\n      swap1\n      0x100\n      exp\n      swap1\n      div\n      0xffffffffffffffffffffffffffffffffffffffff\n      and\n        /* \"contracts/CryptoPunksOg.sol\":8919:8950  Transfer(seller, bid.bidder, 1) */\n      0xffffffffffffffffffffffffffffffffffffffff\n      and\n        /* \"contracts/CryptoPunksOg.sol\":8928:8934  seller */\n      dup4\n        /* \"contracts/CryptoPunksOg.sol\":8919:8950  Transfer(seller, bid.bidder, 1) */\n      0xffffffffffffffffffffffffffffffffffffffff\n      and\n      0xddf252ad1be2c89b69c2b068fc378daa952ba7f163c4a11628f55a4df523b3ef\n        /* \"contracts/CryptoPunksOg.sol\":8948:8949  1 */\n      0x1\n        /* \"contracts/CryptoPunksOg.sol\":8919:8950  Transfer(seller, bid.bidder, 1) */\n      mload(0x40)\n      dup1\n      dup3\n      dup2\n      mstore\n      0x20\n      add\n      swap2\n      pop\n      pop\n      mload(0x40)\n      dup1\n      swap2\n      sub\n      swap1\n      log3\n        /* \"contracts/CryptoPunksOg.sol\":8994:9037  Offer(false, punkIndex, bid.bidder, 0, 0x0) */\n      0xa0\n      mload(0x40)\n      swap1\n      dup2\n      add\n      0x40\n      mstore\n      dup1\n        /* \"contracts/CryptoPunksOg.sol\":9000:9005  false */\n      0x0\n        /* \"contracts/CryptoPunksOg.sol\":8994:9037  Offer(false, punkIndex, bid.bidder, 0, 0x0) */\n      iszero\n      iszero\n      dup2\n      mstore\n      0x20\n      add\n        /* \"contracts/CryptoPunksOg.sol\":9007:9016  punkIndex */\n      dup7\n        /* \"contracts/CryptoPunksOg.sol\":8994:9037  Offer(false, punkIndex, bid.bidder, 0, 0x0) */\n      dup2\n      mstore\n      0x20\n      add\n        /* \"contracts/CryptoPunksOg.sol\":9018:9021  bid */\n      dup4\n        /* \"contracts/CryptoPunksOg.sol\":9018:9028  bid.bidder */\n      0x2\n      add\n      0x0\n      swap1\n      sload\n      swap1\n      0x100\n      exp\n      swap1\n      div\n      0xffffffffffffffffffffffffffffffffffffffff\n      and\n        /* \"contracts/CryptoPunksOg.sol\":8994:9037  Offer(false, punkIndex, bid.bidder, 0, 0x0) */\n      0xffffffffffffffffffffffffffffffffffffffff\n      and\n      dup2\n      mstore\n      0x20\n      add\n        /* \"contracts/CryptoPunksOg.sol\":9030:9031  0 */\n      0x0\n        /* \"contracts/CryptoPunksOg.sol\":8994:9037  Offer(false, punkIndex, bid.bidder, 0, 0x0) */\n      dup2\n      mstore\n      0x20\n      add\n        /* \"contracts/CryptoPunksOg.sol\":9033:9036  0x0 */\n      0x0\n        /* \"contracts/CryptoPunksOg.sol\":8994:9037  Offer(false, punkIndex, bid.bidder, 0, 0x0) */\n      0xffffffffffffffffffffffffffffffffffffffff\n      and\n      dup2\n      mstore\n      pop\n        /* \"contracts/CryptoPunksOg.sol\":8961:8980  punksOfferedForSale */\n      0xc\n        /* \"contracts/CryptoPunksOg.sol\":8961:8991  punksOfferedForSale[punkIndex] */\n      0x0\n        /* \"contracts/CryptoPunksOg.sol\":8981:8990  punkIndex */\n      dup8\n        /* \"contracts/CryptoPunksOg.sol\":8961:8991  punksOfferedForSale[punkIndex] */\n      dup2\n      mstore\n      0x20\n      add\n      swap1\n      dup2\n      mstore\n      0x20\n      add\n      0x0\n      keccak256\n        /* \"contracts/CryptoPunksOg.sol\":8961:9037  punksOfferedForSale[punkIndex] = Offer(false, punkIndex, bid.bidder, 0, 0x0) */\n      0x0\n      dup3\n      add\n      mload\n      dup2\n      0x0\n      add\n      exp(0x100, 0x0)\n      dup2\n      sload\n      dup2\n      0xff\n      mul\n      not\n      and\n      swap1\n      dup4\n      iszero\n      iszero\n      mul\n      or\n      swap1\n      sstore\n      pop\n      0x20\n      dup3\n      add\n      mload\n      dup2\n      0x1\n      add\n      sstore\n      0x40\n      dup3\n      add\n      mload\n      dup2\n      0x2\n      add\n      exp(0x100, 0x0)\n      dup2\n      sload\n      dup2\n      0xffffffffffffffffffffffffffffffffffffffff\n      mul\n      not\n      and\n      swap1\n      dup4\n      0xffffffffffffffffffffffffffffffffffffffff\n      and\n      mul\n      or\n      swap1\n      sstore\n      pop\n      0x60\n      dup3\n      add\n      mload\n      dup2\n      0x3\n      add\n      sstore\n      0x80\n      dup3\n      add\n      mload\n      dup2\n      0x4\n      add\n      exp(0x100, 0x0)\n      dup2\n      sload\n      dup2\n      0xffffffffffffffffffffffffffffffffffffffff\n      mul\n      not\n      and\n      swap1\n      dup4\n      0xffffffffffffffffffffffffffffffffffffffff\n      and\n      mul\n      or\n      swap1\n      sstore\n      pop\n      swap1\n      pop\n      pop\n        /* \"contracts/CryptoPunksOg.sol\":9061:9064  bid */\n      dup2\n        /* \"contracts/CryptoPunksOg.sol\":9061:9070  bid.value */\n      0x3\n      add\n      sload\n        /* \"contracts/CryptoPunksOg.sol\":9047:9070  uint amount = bid.value */\n      swap1\n      pop\n        /* \"contracts/CryptoPunksOg.sol\":9102:9131  Bid(false, punkIndex, 0x0, 0) */\n      0x80\n      mload(0x40)\n      swap1\n      dup2\n      add\n      0x40\n      mstore\n      dup1\n        /* \"contracts/CryptoPunksOg.sol\":9106:9111  false */\n      0x0\n        /* \"contracts/CryptoPunksOg.sol\":9102:9131  Bid(false, punkIndex, 0x0, 0) */\n      iszero\n      iszero\n      dup2\n      mstore\n      0x20\n      add\n        /* \"contracts/CryptoPunksOg.sol\":9113:9122  punkIndex */\n      dup7\n        /* \"contracts/CryptoPunksOg.sol\":9102:9131  Bid(false, punkIndex, 0x0, 0) */\n      dup2\n      mstore\n      0x20\n      add\n        /* \"contracts/CryptoPunksOg.sol\":9124:9127  0x0 */\n      0x0\n        /* \"contracts/CryptoPunksOg.sol\":9102:9131  Bid(false, punkIndex, 0x0, 0) */\n      0xffffffffffffffffffffffffffffffffffffffff\n      and\n      dup2\n      mstore\n      0x20\n      add\n        /* \"contracts/CryptoPunksOg.sol\":9129:9130  0 */\n      0x0\n        /* \"contracts/CryptoPunksOg.sol\":9102:9131  Bid(false, punkIndex, 0x0, 0) */\n      dup2\n      mstore\n      pop\n        /* \"contracts/CryptoPunksOg.sol\":9080:9088  punkBids */\n      0xd\n        /* \"contracts/CryptoPunksOg.sol\":9080:9099  punkBids[punkIndex] */\n      0x0\n        /* \"contracts/CryptoPunksOg.sol\":9089:9098  punkIndex */\n      dup8\n        /* \"contracts/CryptoPunksOg.sol\":9080:9099  punkBids[punkIndex] */\n      dup2\n      mstore\n      0x20\n      add\n      swap1\n      dup2\n      mstore\n      0x20\n      add\n      0x0\n      keccak256\n        /* \"contracts/CryptoPunksOg.sol\":9080:9131  punkBids[punkIndex] = Bid(false, punkIndex, 0x0, 0) */\n      0x0\n      dup3\n      add\n      mload\n      dup2\n      0x0\n      add\n      exp(0x100, 0x0)\n      dup2\n      sload\n      dup2\n      0xff\n      mul\n      not\n      and\n      swap1\n      dup4\n      iszero\n      iszero\n      mul\n      or\n      swap1\n      sstore\n      pop\n      0x20\n      dup3\n      add\n      mload\n      dup2\n      0x1\n      add\n      sstore\n      0x40\n      dup3\n      add\n      mload\n      dup2\n      0x2\n      add\n      exp(0x100, 0x0)\n      dup2\n      sload\n      dup2\n      0xffffffffffffffffffffffffffffffffffffffff\n      mul\n      not\n      and\n      swap1\n      dup4\n      0xffffffffffffffffffffffffffffffffffffffff\n      and\n      mul\n      or\n      swap1\n      sstore\n      pop\n      0x60\n      dup3\n      add\n      mload\n      dup2\n      0x3\n      add\n      sstore\n      swap1\n      pop\n      pop\n        /* \"contracts/CryptoPunksOg.sol\":9171:9177  amount */\n      dup1\n        /* \"contracts/CryptoPunksOg.sol\":9141:9159  pendingWithdrawals */\n      0xe\n        /* \"contracts/CryptoPunksOg.sol\":9141:9167  pendingWithdrawals[seller] */\n      0x0\n        /* \"contracts/CryptoPunksOg.sol\":9160:9166  seller */\n      dup6\n        /* \"contracts/CryptoPunksOg.sol\":9141:9167  pendingWithdrawals[seller] */\n      0xffffffffffffffffffffffffffffffffffffffff\n      and\n      0xffffffffffffffffffffffffffffffffffffffff\n      and\n      dup2\n      mstore\n      0x20\n      add\n      swap1\n      dup2\n      mstore\n      0x20\n      add\n      0x0\n      keccak256\n      0x0\n        /* \"contracts/CryptoPunksOg.sol\":9141:9177  pendingWithdrawals[seller] += amount */\n      dup3\n      dup3\n      sload\n      add\n      swap3\n      pop\n      pop\n      dup2\n      swap1\n      sstore\n      pop\n        /* \"contracts/CryptoPunksOg.sol\":9228:9231  bid */\n      dup2\n        /* \"contracts/CryptoPunksOg.sol\":9228:9238  bid.bidder */\n      0x2\n      add\n      0x0\n      swap1\n      sload\n      swap1\n      0x100\n      exp\n      swap1\n      div\n      0xffffffffffffffffffffffffffffffffffffffff\n      and\n        /* \"contracts/CryptoPunksOg.sol\":9187:9239  PunkBought(punkIndex, bid.value, seller, bid.bidder) */\n      0xffffffffffffffffffffffffffffffffffffffff\n      and\n        /* \"contracts/CryptoPunksOg.sol\":9220:9226  seller */\n      dup4\n        /* \"contracts/CryptoPunksOg.sol\":9187:9239  PunkBought(punkIndex, bid.value, seller, bid.bidder) */\n      0xffffffffffffffffffffffffffffffffffffffff\n      and\n        /* \"contracts/CryptoPunksOg.sol\":9198:9207  punkIndex */\n      dup7\n        /* \"contracts/CryptoPunksOg.sol\":9187:9239  PunkBought(punkIndex, bid.value, seller, bid.bidder) */\n      0x58e5d5a525e3b40bc15abaa38b5882678db1ee68befd2f60bafe3a7fd06db9e3\n        /* \"contracts/CryptoPunksOg.sol\":9209:9212  bid */\n      dup6\n        /* \"contracts/CryptoPunksOg.sol\":9209:9218  bid.value */\n      0x3\n      add\n      sload\n        /* \"contracts/CryptoPunksOg.sol\":9187:9239  PunkBought(punkIndex, bid.value, seller, bid.bidder) */\n      mload(0x40)\n      dup1\n      dup3\n      dup2\n      mstore\n      0x20\n      add\n      swap2\n      pop\n      pop\n      mload(0x40)\n      dup1\n      swap2\n      sub\n      swap1\n      log4\n        /* \"contracts/CryptoPunksOg.sol\":8428:9246  function acceptBidForPunk(uint punkIndex, uint minPrice) {... */\n      pop\n      pop\n      pop\n      pop\n      pop\n      jump\t// out\n        /* \"contracts/CryptoPunksOg.sol\":350:371  uint8 public decimals */\n    tag_49:\n      0x5\n      0x0\n      swap1\n      sload\n      swap1\n      0x100\n      exp\n      swap1\n      div\n      0xff\n      and\n      dup2\n      jump\t// out\n        /* \"contracts/CryptoPunksOg.sol\":3307:3556  function setInitialOwners(address[] addresses, uint[] indices) {... */\n    tag_52:\n        /* \"contracts/CryptoPunksOg.sol\":3420:3426  uint n */\n      0x0\n        /* \"contracts/CryptoPunksOg.sol\":3460:3466  uint i */\n      dup1\n        /* \"contracts/CryptoPunksOg.sol\":3398:3403  owner */\n      0x1\n      0x0\n      swap1\n      sload\n      swap1\n      0x100\n      exp\n      swap1\n      div\n      0xffffffffffffffffffffffffffffffffffffffff\n      and\n        /* \"contracts/CryptoPunksOg.sol\":3384:3403  msg.sender != owner */\n      0xffffffffffffffffffffffffffffffffffffffff\n      and\n        /* \"contracts/CryptoPunksOg.sol\":3384:3394  msg.sender */\n      caller\n        /* \"contracts/CryptoPunksOg.sol\":3384:3403  msg.sender != owner */\n      0xffffffffffffffffffffffffffffffffffffffff\n      and\n      eq\n      iszero\n        /* \"contracts/CryptoPunksOg.sol\":3380:3410  if (msg.sender != owner) throw */\n      iszero\n      tag_142\n      jumpi\n        /* \"contracts/CryptoPunksOg.sol\":3405:3410  throw */\n      0x0\n      dup1\n      revert\n        /* \"contracts/CryptoPunksOg.sol\":3380:3410  if (msg.sender != owner) throw */\n    tag_142:\n        /* \"contracts/CryptoPunksOg.sol\":3429:3438  addresses */\n      dup4\n        /* \"contracts/CryptoPunksOg.sol\":3429:3445  addresses.length */\n      mload\n        /* \"contracts/CryptoPunksOg.sol\":3420:3445  uint n = addresses.length */\n      swap2\n      pop\n        /* \"contracts/CryptoPunksOg.sol\":3469:3470  0 */\n      0x0\n        /* \"contracts/CryptoPunksOg.sol\":3460:3470  uint i = 0 */\n      swap1\n      pop\n        /* \"contracts/CryptoPunksOg.sol\":3455:3550  for (uint i = 0; i < n; i++) {... */\n    tag_143:\n        /* \"contracts/CryptoPunksOg.sol\":3476:3477  n */\n      dup2\n        /* \"contracts/CryptoPunksOg.sol\":3472:3473  i */\n      dup2\n        /* \"contracts/CryptoPunksOg.sol\":3472:3477  i < n */\n      lt\n        /* \"contracts/CryptoPunksOg.sol\":3455:3550  for (uint i = 0; i < n; i++) {... */\n      iszero\n      tag_144\n      jumpi\n        /* \"contracts/CryptoPunksOg.sol\":3498:3539  setInitialOwner(addresses[i], indices[i]) */\n      tag_146\n        /* \"contracts/CryptoPunksOg.sol\":3514:3523  addresses */\n      dup5\n        /* \"contracts/CryptoPunksOg.sol\":3524:3525  i */\n      dup3\n        /* \"contracts/CryptoPunksOg.sol\":3514:3526  addresses[i] */\n      dup2\n      mload\n      dup2\n      lt\n      iszero\n      iszero\n      tag_147\n      jumpi\n      invalid\n    tag_147:\n      swap1\n      0x20\n      add\n      swap1\n      0x20\n      mul\n      add\n      mload\n        /* \"contracts/CryptoPunksOg.sol\":3528:3535  indices */\n      dup5\n        /* \"contracts/CryptoPunksOg.sol\":3536:3537  i */\n      dup4\n        /* \"contracts/CryptoPunksOg.sol\":3528:3538  indices[i] */\n      dup2\n      mload\n      dup2\n      lt\n      iszero\n      iszero\n      tag_148\n      jumpi\n      invalid\n    tag_148:\n      swap1\n      0x20\n      add\n      swap1\n      0x20\n      mul\n      add\n      mload\n        /* \"contracts/CryptoPunksOg.sol\":3498:3513  setInitialOwner */\n      tag_105\n        /* \"contracts/CryptoPunksOg.sol\":3498:3539  setInitialOwner(addresses[i], indices[i]) */\n      jump\t// in\n    tag_146:\n        /* \"contracts/CryptoPunksOg.sol\":3479:3482  i++ */\n      dup1\n      dup1\n      0x1\n      add\n      swap2\n      pop\n      pop\n        /* \"contracts/CryptoPunksOg.sol\":3455:3550  for (uint i = 0; i < n; i++) {... */\n      jump(tag_143)\n    tag_144:\n        /* \"contracts/CryptoPunksOg.sol\":3307:3556  function setInitialOwners(address[] addresses, uint[] indices) {... */\n      pop\n      pop\n      pop\n      pop\n      jump\t// out\n        /* \"contracts/CryptoPunksOg.sol\":7433:7737  function withdraw() {... */\n    tag_55:\n        /* \"contracts/CryptoPunksOg.sol\":7501:7512  uint amount */\n      0x0\n        /* \"contracts/CryptoPunksOg.sol\":7468:7484  allPunksAssigned */\n      0x8\n      0x0\n      swap1\n      sload\n      swap1\n      0x100\n      exp\n      swap1\n      div\n      0xff\n      and\n        /* \"contracts/CryptoPunksOg.sol\":7467:7484  !allPunksAssigned */\n      iszero\n        /* \"contracts/CryptoPunksOg.sol\":7463:7491  if (!allPunksAssigned) throw */\n      iszero\n      tag_150\n      jumpi\n        /* \"contracts/CryptoPunksOg.sol\":7486:7491  throw */\n      0x0\n      dup1\n      revert\n        /* \"contracts/CryptoPunksOg.sol\":7463:7491  if (!allPunksAssigned) throw */\n    tag_150:\n        /* \"contracts/CryptoPunksOg.sol\":7515:7533  pendingWithdrawals */\n      0xe\n        /* \"contracts/CryptoPunksOg.sol\":7515:7545  pendingWithdrawals[msg.sender] */\n      0x0\n        /* \"contracts/CryptoPunksOg.sol\":7534:7544  msg.sender */\n      caller\n        /* \"contracts/CryptoPunksOg.sol\":7515:7545  pendingWithdrawals[msg.sender] */\n      0xffffffffffffffffffffffffffffffffffffffff\n      and\n      0xffffffffffffffffffffffffffffffffffffffff\n      and\n      dup2\n      mstore\n      0x20\n      add\n      swap1\n      dup2\n      mstore\n      0x20\n      add\n      0x0\n      keccak256\n      sload\n        /* \"contracts/CryptoPunksOg.sol\":7501:7545  uint amount = pendingWithdrawals[msg.sender] */\n      swap1\n      pop\n        /* \"contracts/CryptoPunksOg.sol\":7692:7693  0 */\n      0x0\n        /* \"contracts/CryptoPunksOg.sol\":7659:7677  pendingWithdrawals */\n      0xe\n        /* \"contracts/CryptoPunksOg.sol\":7659:7689  pendingWithdrawals[msg.sender] */\n      0x0\n        /* \"contracts/CryptoPunksOg.sol\":7678:7688  msg.sender */\n      caller\n        /* \"contracts/CryptoPunksOg.sol\":7659:7689  pendingWithdrawals[msg.sender] */\n      0xffffffffffffffffffffffffffffffffffffffff\n      and\n      0xffffffffffffffffffffffffffffffffffffffff\n      and\n      dup2\n      mstore\n      0x20\n      add\n      swap1\n      dup2\n      mstore\n      0x20\n      add\n      0x0\n      keccak256\n        /* \"contracts/CryptoPunksOg.sol\":7659:7693  pendingWithdrawals[msg.sender] = 0 */\n      dup2\n      swap1\n      sstore\n      pop\n        /* \"contracts/CryptoPunksOg.sol\":7703:7713  msg.sender */\n      caller\n        /* \"contracts/CryptoPunksOg.sol\":7703:7722  msg.sender.transfer */\n      0xffffffffffffffffffffffffffffffffffffffff\n      and\n        /* \"contracts/CryptoPunksOg.sol\":7703:7730  msg.sender.transfer(amount) */\n      0x8fc\n        /* \"contracts/CryptoPunksOg.sol\":7723:7729  amount */\n      dup3\n        /* \"contracts/CryptoPunksOg.sol\":7703:7730  msg.sender.transfer(amount) */\n      swap1\n      dup2\n      iszero\n      mul\n      swap1\n      mload(0x40)\n      0x0\n      mload(0x40)\n      dup1\n      dup4\n      sub\n      dup2\n      dup6\n      dup9\n      dup9\n      call\n      swap4\n      pop\n      pop\n      pop\n      pop\n      iszero\n        /* \"--CODEGEN--\":8:17   */\n      dup1\n        /* \"--CODEGEN--\":5:7   */\n      iszero\n      tag_151\n      jumpi\n        /* \"--CODEGEN--\":45:61   */\n      returndatasize\n        /* \"--CODEGEN--\":42:43   */\n      0x0\n        /* \"--CODEGEN--\":39:40   */\n      dup1\n        /* \"--CODEGEN--\":24:62   */\n      returndatacopy\n        /* \"--CODEGEN--\":77:93   */\n      returndatasize\n        /* \"--CODEGEN--\":74:75   */\n      0x0\n        /* \"--CODEGEN--\":67:94   */\n      revert\n        /* \"--CODEGEN--\":5:7   */\n    tag_151:\n        /* \"contracts/CryptoPunksOg.sol\":7703:7730  msg.sender.transfer(amount) */\n      pop\n        /* \"contracts/CryptoPunksOg.sol\":7433:7737  function withdraw() {... */\n      pop\n      jump\t// out\n        /* \"contracts/CryptoPunksOg.sol\":137:229  string public imageHash = \"ac39af4793119ee46bbff351d8cb6b5f23da60222126add4268e261199a2921b\" */\n    tag_58:\n      0x0\n      dup1\n      sload\n      0x1\n      dup2\n      0x1\n      and\n      iszero\n      0x100\n      mul\n      sub\n      and\n      0x2\n      swap1\n      div\n      dup1\n      0x1f\n      add\n      0x20\n      dup1\n      swap2\n      div\n      mul\n      0x20\n      add\n      mload(0x40)\n      swap1\n      dup2\n      add\n      0x40\n      mstore\n      dup1\n      swap3\n      swap2\n      swap1\n      dup2\n      dup2\n      mstore\n      0x20\n      add\n      dup3\n      dup1\n      sload\n      0x1\n      dup2\n      0x1\n      and\n      iszero\n      0x100\n      mul\n      sub\n      and\n      0x2\n      swap1\n      div\n      dup1\n      iszero\n      tag_152\n      jumpi\n      dup1\n      0x1f\n      lt\n      tag_153\n      jumpi\n      0x100\n      dup1\n      dup4\n      sload\n      div\n      mul\n      dup4\n      mstore\n      swap2\n      0x20\n      add\n      swap2\n      jump(tag_152)\n    tag_153:\n      dup3\n      add\n      swap2\n      swap1\n      0x0\n      mstore\n      keccak256(0x0, 0x20)\n      swap1\n    tag_154:\n      dup2\n      sload\n      dup2\n      mstore\n      swap1\n      0x1\n      add\n      swap1\n      0x20\n      add\n      dup1\n      dup4\n      gt\n      tag_154\n      jumpi\n      dup3\n      swap1\n      sub\n      0x1f\n      and\n      dup3\n      add\n      swap2\n    tag_152:\n      pop\n      pop\n      pop\n      pop\n      pop\n      dup2\n      jump\t// out\n        /* \"contracts/CryptoPunksOg.sol\":410:447  uint public nextPunkIndexToAssign = 0 */\n    tag_65:\n      sload(0x7)\n      dup2\n      jump\t// out\n        /* \"contracts/CryptoPunksOg.sol\":600:651  mapping (uint => address) public punkIndexToAddress */\n    tag_68:\n      mstore(0x20, 0xa)\n      dup1\n      0x0\n      mstore\n      keccak256(0x0, 0x40)\n      0x0\n      swap2\n      pop\n      sload\n      swap1\n      0x100\n      exp\n      swap1\n      div\n      0xffffffffffffffffffffffffffffffffffffffff\n      and\n      dup2\n      jump\t// out\n        /* \"contracts/CryptoPunksOg.sol\":256:294  string public standard = 'CryptoPunks' */\n    tag_71:\n      0x2\n      dup1\n      sload\n      0x1\n      dup2\n      0x1\n      and\n      iszero\n      0x100\n      mul\n      sub\n      and\n      0x2\n      swap1\n      div\n      dup1\n      0x1f\n      add\n      0x20\n      dup1\n      swap2\n      div\n      mul\n      0x20\n      add\n      mload(0x40)\n      swap1\n      dup2\n      add\n      0x40\n      mstore\n      dup1\n      swap3\n      swap2\n      swap1\n      dup2\n      dup2\n      mstore\n      0x20\n      add\n      dup3\n      dup1\n      sload\n      0x1\n      dup2\n      0x1\n      and\n      iszero\n      0x100\n      mul\n      sub\n      and\n      0x2\n      swap1\n      div\n      dup1\n      iszero\n      tag_155\n      jumpi\n      dup1\n      0x1f\n      lt\n      tag_156\n      jumpi\n      0x100\n      dup1\n      dup4\n      sload\n      div\n      mul\n      dup4\n      mstore\n      swap2\n      0x20\n      add\n      swap2\n      jump(tag_155)\n    tag_156:\n      dup3\n      add\n      swap2\n      swap1\n      0x0\n      mstore\n      keccak256(0x0, 0x20)\n      swap1\n    tag_157:\n      dup2\n      sload\n      dup2\n      mstore\n      swap1\n      0x1\n      add\n      swap1\n      0x20\n      add\n      dup1\n      dup4\n      gt\n      tag_157\n      jumpi\n      dup3\n      swap1\n      sub\n      0x1f\n      and\n      dup3\n      add\n      swap2\n    tag_155:\n      pop\n      pop\n      pop\n      pop\n      pop\n      dup2\n      jump\t// out\n        /* \"contracts/CryptoPunksOg.sol\":1302:1339  mapping (uint => Bid) public punkBids */\n    tag_78:\n      mstore(0x20, 0xd)\n      dup1\n      0x0\n      mstore\n      keccak256(0x0, 0x40)\n      0x0\n      swap2\n      pop\n      swap1\n      pop\n      dup1\n      0x0\n      add\n      0x0\n      swap1\n      sload\n      swap1\n      0x100\n      exp\n      swap1\n      div\n      0xff\n      and\n      swap1\n      dup1\n      0x1\n      add\n      sload\n      swap1\n      dup1\n      0x2\n      add\n      0x0\n      swap1\n      sload\n      swap1\n      0x100\n      exp\n      swap1\n      div\n      0xffffffffffffffffffffffffffffffffffffffff\n      and\n      swap1\n      dup1\n      0x3\n      add\n      sload\n      swap1\n      pop\n      dup5\n      jump\t// out\n        /* \"contracts/CryptoPunksOg.sol\":708:753  mapping (address => uint256) public balanceOf */\n    tag_81:\n      mstore(0x20, 0xb)\n      dup1\n      0x0\n      mstore\n      keccak256(0x0, 0x40)\n      0x0\n      swap2\n      pop\n      swap1\n      pop\n      sload\n      dup2\n      jump\t// out\n        /* \"contracts/CryptoPunksOg.sol\":3562:3678  function allInitialOwnersAssigned() {... */\n    tag_84:\n        /* \"contracts/CryptoPunksOg.sol\":3626:3631  owner */\n      0x1\n      0x0\n      swap1\n      sload\n      swap1\n      0x100\n      exp\n      swap1\n      div\n      0xffffffffffffffffffffffffffffffffffffffff\n      and\n        /* \"contracts/CryptoPunksOg.sol\":3612:3631  msg.sender != owner */\n      0xffffffffffffffffffffffffffffffffffffffff\n      and\n        /* \"contracts/CryptoPunksOg.sol\":3612:3622  msg.sender */\n      caller\n        /* \"contracts/CryptoPunksOg.sol\":3612:3631  msg.sender != owner */\n      0xffffffffffffffffffffffffffffffffffffffff\n      and\n      eq\n      iszero\n        /* \"contracts/CryptoPunksOg.sol\":3608:3638  if (msg.sender != owner) throw */\n      iszero\n      tag_159\n      jumpi\n        /* \"contracts/CryptoPunksOg.sol\":3633:3638  throw */\n      0x0\n      dup1\n      revert\n        /* \"contracts/CryptoPunksOg.sol\":3608:3638  if (msg.sender != owner) throw */\n    tag_159:\n        /* \"contracts/CryptoPunksOg.sol\":3667:3671  true */\n      0x1\n        /* \"contracts/CryptoPunksOg.sol\":3648:3664  allPunksAssigned */\n      0x8\n      0x0\n        /* \"contracts/CryptoPunksOg.sol\":3648:3671  allPunksAssigned = true */\n      0x100\n      exp\n      dup2\n      sload\n      dup2\n      0xff\n      mul\n      not\n      and\n      swap1\n      dup4\n      iszero\n      iszero\n      mul\n      or\n      swap1\n      sstore\n      pop\n        /* \"contracts/CryptoPunksOg.sol\":3562:3678  function allInitialOwnersAssigned() {... */\n      jump\t// out\n        /* \"contracts/CryptoPunksOg.sol\":454:490  bool public allPunksAssigned = false */\n    tag_87:\n      0x8\n      0x0\n      swap1\n      sload\n      swap1\n      0x100\n      exp\n      swap1\n      div\n      0xff\n      and\n      dup2\n      jump\t// out\n        /* \"contracts/CryptoPunksOg.sol\":6134:7427  function buyPunk(uint punkIndex) payable {... */\n    tag_89:\n        /* \"contracts/CryptoPunksOg.sol\":6223:6234  Offer offer */\n      0x0\n        /* \"contracts/CryptoPunksOg.sol\":6701:6715  address seller */\n      dup1\n        /* \"contracts/CryptoPunksOg.sol\":7178:7185  Bid bid */\n      0x0\n        /* \"contracts/CryptoPunksOg.sol\":6190:6206  allPunksAssigned */\n      0x8\n      0x0\n      swap1\n      sload\n      swap1\n      0x100\n      exp\n      swap1\n      div\n      0xff\n      and\n        /* \"contracts/CryptoPunksOg.sol\":6189:6206  !allPunksAssigned */\n      iszero\n        /* \"contracts/CryptoPunksOg.sol\":6185:6213  if (!allPunksAssigned) throw */\n      iszero\n      tag_161\n      jumpi\n        /* \"contracts/CryptoPunksOg.sol\":6208:6213  throw */\n      0x0\n      dup1\n      revert\n        /* \"contracts/CryptoPunksOg.sol\":6185:6213  if (!allPunksAssigned) throw */\n    tag_161:\n        /* \"contracts/CryptoPunksOg.sol\":6237:6256  punksOfferedForSale */\n      0xc\n        /* \"contracts/CryptoPunksOg.sol\":6237:6267  punksOfferedForSale[punkIndex] */\n      0x0\n        /* \"contracts/CryptoPunksOg.sol\":6257:6266  punkIndex */\n      dup6\n        /* \"contracts/CryptoPunksOg.sol\":6237:6267  punksOfferedForSale[punkIndex] */\n      dup2\n      mstore\n      0x20\n      add\n      swap1\n      dup2\n      mstore\n      0x20\n      add\n      0x0\n      keccak256\n        /* \"contracts/CryptoPunksOg.sol\":6223:6267  Offer offer = punksOfferedForSale[punkIndex] */\n      swap3\n      pop\n        /* \"contracts/CryptoPunksOg.sol\":6294:6299  10000 */\n      0x2710\n        /* \"contracts/CryptoPunksOg.sol\":6281:6290  punkIndex */\n      dup5\n        /* \"contracts/CryptoPunksOg.sol\":6281:6299  punkIndex >= 10000 */\n      lt\n      iszero\n        /* \"contracts/CryptoPunksOg.sol\":6277:6306  if (punkIndex >= 10000) throw */\n      iszero\n      tag_162\n      jumpi\n        /* \"contracts/CryptoPunksOg.sol\":6301:6306  throw */\n      0x0\n      dup1\n      revert\n        /* \"contracts/CryptoPunksOg.sol\":6277:6306  if (punkIndex >= 10000) throw */\n    tag_162:\n        /* \"contracts/CryptoPunksOg.sol\":6321:6326  offer */\n      dup3\n        /* \"contracts/CryptoPunksOg.sol\":6321:6336  offer.isForSale */\n      0x0\n      add\n      0x0\n      swap1\n      sload\n      swap1\n      0x100\n      exp\n      swap1\n      div\n      0xff\n      and\n        /* \"contracts/CryptoPunksOg.sol\":6320:6336  !offer.isForSale */\n      iszero\n        /* \"contracts/CryptoPunksOg.sol\":6316:6343  if (!offer.isForSale) throw */\n      iszero\n      tag_163\n      jumpi\n        /* \"contracts/CryptoPunksOg.sol\":6338:6343  throw */\n      0x0\n      dup1\n      revert\n        /* \"contracts/CryptoPunksOg.sol\":6316:6343  if (!offer.isForSale) throw */\n    tag_163:\n        /* \"contracts/CryptoPunksOg.sol\":6422:6425  0x0 */\n      0x0\n        /* \"contracts/CryptoPunksOg.sol\":6402:6407  offer */\n      dup4\n        /* \"contracts/CryptoPunksOg.sol\":6402:6418  offer.onlySellTo */\n      0x4\n      add\n      0x0\n      swap1\n      sload\n      swap1\n      0x100\n      exp\n      swap1\n      div\n      0xffffffffffffffffffffffffffffffffffffffff\n      and\n        /* \"contracts/CryptoPunksOg.sol\":6402:6425  offer.onlySellTo != 0x0 */\n      0xffffffffffffffffffffffffffffffffffffffff\n      and\n      eq\n      iszero\n        /* \"contracts/CryptoPunksOg.sol\":6402:6459  offer.onlySellTo != 0x0 && offer.onlySellTo != msg.sender */\n      dup1\n      iszero\n      tag_164\n      jumpi\n      pop\n        /* \"contracts/CryptoPunksOg.sol\":6449:6459  msg.sender */\n      caller\n        /* \"contracts/CryptoPunksOg.sol\":6429:6459  offer.onlySellTo != msg.sender */\n      0xffffffffffffffffffffffffffffffffffffffff\n      and\n        /* \"contracts/CryptoPunksOg.sol\":6429:6434  offer */\n      dup4\n        /* \"contracts/CryptoPunksOg.sol\":6429:6445  offer.onlySellTo */\n      0x4\n      add\n      0x0\n      swap1\n      sload\n      swap1\n      0x100\n      exp\n      swap1\n      div\n      0xffffffffffffffffffffffffffffffffffffffff\n      and\n        /* \"contracts/CryptoPunksOg.sol\":6429:6459  offer.onlySellTo != msg.sender */\n      0xffffffffffffffffffffffffffffffffffffffff\n      and\n      eq\n      iszero\n        /* \"contracts/CryptoPunksOg.sol\":6402:6459  offer.onlySellTo != 0x0 && offer.onlySellTo != msg.sender */\n    tag_164:\n        /* \"contracts/CryptoPunksOg.sol\":6398:6466  if (offer.onlySellTo != 0x0 && offer.onlySellTo != msg.sender) throw */\n      iszero\n      tag_165\n      jumpi\n        /* \"contracts/CryptoPunksOg.sol\":6461:6466  throw */\n      0x0\n      dup1\n      revert\n        /* \"contracts/CryptoPunksOg.sol\":6398:6466  if (offer.onlySellTo != 0x0 && offer.onlySellTo != msg.sender) throw */\n    tag_165:\n        /* \"contracts/CryptoPunksOg.sol\":6538:6543  offer */\n      dup3\n        /* \"contracts/CryptoPunksOg.sol\":6538:6552  offer.minValue */\n      0x3\n      add\n      sload\n        /* \"contracts/CryptoPunksOg.sol\":6526:6535  msg.value */\n      callvalue\n        /* \"contracts/CryptoPunksOg.sol\":6526:6552  msg.value < offer.minValue */\n      lt\n        /* \"contracts/CryptoPunksOg.sol\":6522:6559  if (msg.value < offer.minValue) throw */\n      iszero\n      tag_166\n      jumpi\n        /* \"contracts/CryptoPunksOg.sol\":6554:6559  throw */\n      0x0\n      dup1\n      revert\n        /* \"contracts/CryptoPunksOg.sol\":6522:6559  if (msg.value < offer.minValue) throw */\n    tag_166:\n        /* \"contracts/CryptoPunksOg.sol\":6620:6638  punkIndexToAddress */\n      0xa\n        /* \"contracts/CryptoPunksOg.sol\":6620:6649  punkIndexToAddress[punkIndex] */\n      0x0\n        /* \"contracts/CryptoPunksOg.sol\":6639:6648  punkIndex */\n      dup6\n        /* \"contracts/CryptoPunksOg.sol\":6620:6649  punkIndexToAddress[punkIndex] */\n      dup2\n      mstore\n      0x20\n      add\n      swap1\n      dup2\n      mstore\n      0x20\n      add\n      0x0\n      keccak256\n      0x0\n      swap1\n      sload\n      swap1\n      0x100\n      exp\n      swap1\n      div\n      0xffffffffffffffffffffffffffffffffffffffff\n      and\n        /* \"contracts/CryptoPunksOg.sol\":6604:6649  offer.seller != punkIndexToAddress[punkIndex] */\n      0xffffffffffffffffffffffffffffffffffffffff\n      and\n        /* \"contracts/CryptoPunksOg.sol\":6604:6609  offer */\n      dup4\n        /* \"contracts/CryptoPunksOg.sol\":6604:6616  offer.seller */\n      0x2\n      add\n      0x0\n      swap1\n      sload\n      swap1\n      0x100\n      exp\n      swap1\n      div\n      0xffffffffffffffffffffffffffffffffffffffff\n      and\n        /* \"contracts/CryptoPunksOg.sol\":6604:6649  offer.seller != punkIndexToAddress[punkIndex] */\n      0xffffffffffffffffffffffffffffffffffffffff\n      and\n      eq\n      iszero\n        /* \"contracts/CryptoPunksOg.sol\":6600:6656  if (offer.seller != punkIndexToAddress[punkIndex]) throw */\n      iszero\n      tag_167\n      jumpi\n        /* \"contracts/CryptoPunksOg.sol\":6651:6656  throw */\n      0x0\n      dup1\n      revert\n        /* \"contracts/CryptoPunksOg.sol\":6600:6656  if (offer.seller != punkIndexToAddress[punkIndex]) throw */\n    tag_167:\n        /* \"contracts/CryptoPunksOg.sol\":6718:6723  offer */\n      dup3\n        /* \"contracts/CryptoPunksOg.sol\":6718:6730  offer.seller */\n      0x2\n      add\n      0x0\n      swap1\n      sload\n      swap1\n      0x100\n      exp\n      swap1\n      div\n      0xffffffffffffffffffffffffffffffffffffffff\n      and\n        /* \"contracts/CryptoPunksOg.sol\":6701:6730  address seller = offer.seller */\n      swap2\n      pop\n        /* \"contracts/CryptoPunksOg.sol\":6773:6783  msg.sender */\n      caller\n        /* \"contracts/CryptoPunksOg.sol\":6741:6759  punkIndexToAddress */\n      0xa\n        /* \"contracts/CryptoPunksOg.sol\":6741:6770  punkIndexToAddress[punkIndex] */\n      0x0\n        /* \"contracts/CryptoPunksOg.sol\":6760:6769  punkIndex */\n      dup7\n        /* \"contracts/CryptoPunksOg.sol\":6741:6770  punkIndexToAddress[punkIndex] */\n      dup2\n      mstore\n      0x20\n      add\n      swap1\n      dup2\n      mstore\n      0x20\n      add\n      0x0\n      keccak256\n      0x0\n        /* \"contracts/CryptoPunksOg.sol\":6741:6783  punkIndexToAddress[punkIndex] = msg.sender */\n      0x100\n      exp\n      dup2\n      sload\n      dup2\n      0xffffffffffffffffffffffffffffffffffffffff\n      mul\n      not\n      and\n      swap1\n      dup4\n      0xffffffffffffffffffffffffffffffffffffffff\n      and\n      mul\n      or\n      swap1\n      sstore\n      pop\n        /* \"contracts/CryptoPunksOg.sol\":6793:6802  balanceOf */\n      0xb\n        /* \"contracts/CryptoPunksOg.sol\":6793:6810  balanceOf[seller] */\n      0x0\n        /* \"contracts/CryptoPunksOg.sol\":6803:6809  seller */\n      dup4\n        /* \"contracts/CryptoPunksOg.sol\":6793:6810  balanceOf[seller] */\n      0xffffffffffffffffffffffffffffffffffffffff\n      and\n      0xffffffffffffffffffffffffffffffffffffffff\n      and\n      dup2\n      mstore\n      0x20\n      add\n      swap1\n      dup2\n      mstore\n      0x20\n      add\n      0x0\n      keccak256\n      0x0\n        /* \"contracts/CryptoPunksOg.sol\":6793:6812  balanceOf[seller]-- */\n      dup2\n      sload\n      dup1\n      swap3\n      swap2\n      swap1\n      0x1\n      swap1\n      sub\n      swap2\n      swap1\n      pop\n      sstore\n      pop\n        /* \"contracts/CryptoPunksOg.sol\":6822:6831  balanceOf */\n      0xb\n        /* \"contracts/CryptoPunksOg.sol\":6822:6843  balanceOf[msg.sender] */\n      0x0\n        /* \"contracts/CryptoPunksOg.sol\":6832:6842  msg.sender */\n      caller\n        /* \"contracts/CryptoPunksOg.sol\":6822:6843  balanceOf[msg.sender] */\n      0xffffffffffffffffffffffffffffffffffffffff\n      and\n      0xffffffffffffffffffffffffffffffffffffffff\n      and\n      dup2\n      mstore\n      0x20\n      add\n      swap1\n      dup2\n      mstore\n      0x20\n      add\n      0x0\n      keccak256\n      0x0\n        /* \"contracts/CryptoPunksOg.sol\":6822:6845  balanceOf[msg.sender]++ */\n      dup2\n      sload\n      dup1\n      swap3\n      swap2\n      swap1\n      0x1\n      add\n      swap2\n      swap1\n      pop\n      sstore\n      pop\n        /* \"contracts/CryptoPunksOg.sol\":6872:6882  msg.sender */\n      caller\n        /* \"contracts/CryptoPunksOg.sol\":6855:6886  Transfer(seller, msg.sender, 1) */\n      0xffffffffffffffffffffffffffffffffffffffff\n      and\n        /* \"contracts/CryptoPunksOg.sol\":6864:6870  seller */\n      dup3\n        /* \"contracts/CryptoPunksOg.sol\":6855:6886  Transfer(seller, msg.sender, 1) */\n      0xffffffffffffffffffffffffffffffffffffffff\n      and\n      0xddf252ad1be2c89b69c2b068fc378daa952ba7f163c4a11628f55a4df523b3ef\n        /* \"contracts/CryptoPunksOg.sol\":6884:6885  1 */\n      0x1\n        /* \"contracts/CryptoPunksOg.sol\":6855:6886  Transfer(seller, msg.sender, 1) */\n      mload(0x40)\n      dup1\n      dup3\n      dup2\n      mstore\n      0x20\n      add\n      swap2\n      pop\n      pop\n      mload(0x40)\n      dup1\n      swap2\n      sub\n      swap1\n      log3\n        /* \"contracts/CryptoPunksOg.sol\":6897:6927  punkNoLongerForSale(punkIndex) */\n      tag_168\n        /* \"contracts/CryptoPunksOg.sol\":6917:6926  punkIndex */\n      dup5\n        /* \"contracts/CryptoPunksOg.sol\":6897:6916  punkNoLongerForSale */\n      tag_123\n        /* \"contracts/CryptoPunksOg.sol\":6897:6927  punkNoLongerForSale(punkIndex) */\n      jump\t// in\n    tag_168:\n        /* \"contracts/CryptoPunksOg.sol\":6967:6976  msg.value */\n      callvalue\n        /* \"contracts/CryptoPunksOg.sol\":6937:6955  pendingWithdrawals */\n      0xe\n        /* \"contracts/CryptoPunksOg.sol\":6937:6963  pendingWithdrawals[seller] */\n      0x0\n        /* \"contracts/CryptoPunksOg.sol\":6956:6962  seller */\n      dup5\n        /* \"contracts/CryptoPunksOg.sol\":6937:6963  pendingWithdrawals[seller] */\n      0xffffffffffffffffffffffffffffffffffffffff\n      and\n      0xffffffffffffffffffffffffffffffffffffffff\n      and\n      dup2\n      mstore\n      0x20\n      add\n      swap1\n      dup2\n      mstore\n      0x20\n      add\n      0x0\n      keccak256\n      0x0\n        /* \"contracts/CryptoPunksOg.sol\":6937:6976  pendingWithdrawals[seller] += msg.value */\n      dup3\n      dup3\n      sload\n      add\n      swap3\n      pop\n      pop\n      dup2\n      swap1\n      sstore\n      pop\n        /* \"contracts/CryptoPunksOg.sol\":7027:7037  msg.sender */\n      caller\n        /* \"contracts/CryptoPunksOg.sol\":6986:7038  PunkBought(punkIndex, msg.value, seller, msg.sender) */\n      0xffffffffffffffffffffffffffffffffffffffff\n      and\n        /* \"contracts/CryptoPunksOg.sol\":7019:7025  seller */\n      dup3\n        /* \"contracts/CryptoPunksOg.sol\":6986:7038  PunkBought(punkIndex, msg.value, seller, msg.sender) */\n      0xffffffffffffffffffffffffffffffffffffffff\n      and\n        /* \"contracts/CryptoPunksOg.sol\":6997:7006  punkIndex */\n      dup6\n        /* \"contracts/CryptoPunksOg.sol\":6986:7038  PunkBought(punkIndex, msg.value, seller, msg.sender) */\n      0x58e5d5a525e3b40bc15abaa38b5882678db1ee68befd2f60bafe3a7fd06db9e3\n        /* \"contracts/CryptoPunksOg.sol\":7008:7017  msg.value */\n      callvalue\n        /* \"contracts/CryptoPunksOg.sol\":6986:7038  PunkBought(punkIndex, msg.value, seller, msg.sender) */\n      mload(0x40)\n      dup1\n      dup3\n      dup2\n      mstore\n      0x20\n      add\n      swap2\n      pop\n      pop\n      mload(0x40)\n      dup1\n      swap2\n      sub\n      swap1\n      log4\n        /* \"contracts/CryptoPunksOg.sol\":7188:7196  punkBids */\n      0xd\n        /* \"contracts/CryptoPunksOg.sol\":7188:7207  punkBids[punkIndex] */\n      0x0\n        /* \"contracts/CryptoPunksOg.sol\":7197:7206  punkIndex */\n      dup6\n        /* \"contracts/CryptoPunksOg.sol\":7188:7207  punkBids[punkIndex] */\n      dup2\n      mstore\n      0x20\n      add\n      swap1\n      dup2\n      mstore\n      0x20\n      add\n      0x0\n      keccak256\n        /* \"contracts/CryptoPunksOg.sol\":7178:7207  Bid bid = punkBids[punkIndex] */\n      swap1\n      pop\n        /* \"contracts/CryptoPunksOg.sol\":7235:7245  msg.sender */\n      caller\n        /* \"contracts/CryptoPunksOg.sol\":7221:7245  bid.bidder == msg.sender */\n      0xffffffffffffffffffffffffffffffffffffffff\n      and\n        /* \"contracts/CryptoPunksOg.sol\":7221:7224  bid */\n      dup2\n        /* \"contracts/CryptoPunksOg.sol\":7221:7231  bid.bidder */\n      0x2\n      add\n      0x0\n      swap1\n      sload\n      swap1\n      0x100\n      exp\n      swap1\n      div\n      0xffffffffffffffffffffffffffffffffffffffff\n      and\n        /* \"contracts/CryptoPunksOg.sol\":7221:7245  bid.bidder == msg.sender */\n      0xffffffffffffffffffffffffffffffffffffffff\n      and\n      eq\n        /* \"contracts/CryptoPunksOg.sol\":7217:7421  if (bid.bidder == msg.sender) {... */\n      iszero\n      tag_169\n      jumpi\n        /* \"contracts/CryptoPunksOg.sol\":7336:7339  bid */\n      dup1\n        /* \"contracts/CryptoPunksOg.sol\":7336:7345  bid.value */\n      0x3\n      add\n      sload\n        /* \"contracts/CryptoPunksOg.sol\":7302:7320  pendingWithdrawals */\n      0xe\n        /* \"contracts/CryptoPunksOg.sol\":7302:7332  pendingWithdrawals[msg.sender] */\n      0x0\n        /* \"contracts/CryptoPunksOg.sol\":7321:7331  msg.sender */\n      caller\n        /* \"contracts/CryptoPunksOg.sol\":7302:7332  pendingWithdrawals[msg.sender] */\n      0xffffffffffffffffffffffffffffffffffffffff\n      and\n      0xffffffffffffffffffffffffffffffffffffffff\n      and\n      dup2\n      mstore\n      0x20\n      add\n      swap1\n      dup2\n      mstore\n      0x20\n      add\n      0x0\n      keccak256\n      0x0\n        /* \"contracts/CryptoPunksOg.sol\":7302:7345  pendingWithdrawals[msg.sender] += bid.value */\n      dup3\n      dup3\n      sload\n      add\n      swap3\n      pop\n      pop\n      dup2\n      swap1\n      sstore\n      pop\n        /* \"contracts/CryptoPunksOg.sol\":7381:7410  Bid(false, punkIndex, 0x0, 0) */\n      0x80\n      mload(0x40)\n      swap1\n      dup2\n      add\n      0x40\n      mstore\n      dup1\n        /* \"contracts/CryptoPunksOg.sol\":7385:7390  false */\n      0x0\n        /* \"contracts/CryptoPunksOg.sol\":7381:7410  Bid(false, punkIndex, 0x0, 0) */\n      iszero\n      iszero\n      dup2\n      mstore\n      0x20\n      add\n        /* \"contracts/CryptoPunksOg.sol\":7392:7401  punkIndex */\n      dup6\n        /* \"contracts/CryptoPunksOg.sol\":7381:7410  Bid(false, punkIndex, 0x0, 0) */\n      dup2\n      mstore\n      0x20\n      add\n        /* \"contracts/CryptoPunksOg.sol\":7403:7406  0x0 */\n      0x0\n        /* \"contracts/CryptoPunksOg.sol\":7381:7410  Bid(false, punkIndex, 0x0, 0) */\n      0xffffffffffffffffffffffffffffffffffffffff\n      and\n      dup2\n      mstore\n      0x20\n      add\n        /* \"contracts/CryptoPunksOg.sol\":7408:7409  0 */\n      0x0\n        /* \"contracts/CryptoPunksOg.sol\":7381:7410  Bid(false, punkIndex, 0x0, 0) */\n      dup2\n      mstore\n      pop\n        /* \"contracts/CryptoPunksOg.sol\":7359:7367  punkBids */\n      0xd\n        /* \"contracts/CryptoPunksOg.sol\":7359:7378  punkBids[punkIndex] */\n      0x0\n        /* \"contracts/CryptoPunksOg.sol\":7368:7377  punkIndex */\n      dup7\n        /* \"contracts/CryptoPunksOg.sol\":7359:7378  punkBids[punkIndex] */\n      dup2\n      mstore\n      0x20\n      add\n      swap1\n      dup2\n      mstore\n      0x20\n      add\n      0x0\n      keccak256\n        /* \"contracts/CryptoPunksOg.sol\":7359:7410  punkBids[punkIndex] = Bid(false, punkIndex, 0x0, 0) */\n      0x0\n      dup3\n      add\n      mload\n      dup2\n      0x0\n      add\n      exp(0x100, 0x0)\n      dup2\n      sload\n      dup2\n      0xff\n      mul\n      not\n      and\n      swap1\n      dup4\n      iszero\n      iszero\n      mul\n      or\n      swap1\n      sstore\n      pop\n      0x20\n      dup3\n      add\n      mload\n      dup2\n      0x1\n      add\n      sstore\n      0x40\n      dup3\n      add\n      mload\n      dup2\n      0x2\n      add\n      exp(0x100, 0x0)\n      dup2\n      sload\n      dup2\n      0xffffffffffffffffffffffffffffffffffffffff\n      mul\n      not\n      and\n      swap1\n      dup4\n      0xffffffffffffffffffffffffffffffffffffffff\n      and\n      mul\n      or\n      swap1\n      sstore\n      pop\n      0x60\n      dup3\n      add\n      mload\n      dup2\n      0x3\n      add\n      sstore\n      swap1\n      pop\n      pop\n        /* \"contracts/CryptoPunksOg.sol\":7217:7421  if (bid.bidder == msg.sender) {... */\n    tag_169:\n        /* \"contracts/CryptoPunksOg.sol\":6134:7427  function buyPunk(uint punkIndex) payable {... */\n      pop\n      pop\n      pop\n      pop\n      jump\t// out\n        /* \"contracts/CryptoPunksOg.sol\":4148:5009  function transferPunk(address to, uint punkIndex) {... */\n    tag_92:\n        /* \"contracts/CryptoPunksOg.sol\":4776:4783  Bid bid */\n      0x0\n        /* \"contracts/CryptoPunksOg.sol\":4213:4229  allPunksAssigned */\n      0x8\n      0x0\n      swap1\n      sload\n      swap1\n      0x100\n      exp\n      swap1\n      div\n      0xff\n      and\n        /* \"contracts/CryptoPunksOg.sol\":4212:4229  !allPunksAssigned */\n      iszero\n        /* \"contracts/CryptoPunksOg.sol\":4208:4236  if (!allPunksAssigned) throw */\n      iszero\n      tag_171\n      jumpi\n        /* \"contracts/CryptoPunksOg.sol\":4231:4236  throw */\n      0x0\n      dup1\n      revert\n        /* \"contracts/CryptoPunksOg.sol\":4208:4236  if (!allPunksAssigned) throw */\n    tag_171:\n        /* \"contracts/CryptoPunksOg.sol\":4283:4293  msg.sender */\n      caller\n        /* \"contracts/CryptoPunksOg.sol\":4250:4293  punkIndexToAddress[punkIndex] != msg.sender */\n      0xffffffffffffffffffffffffffffffffffffffff\n      and\n        /* \"contracts/CryptoPunksOg.sol\":4250:4268  punkIndexToAddress */\n      0xa\n        /* \"contracts/CryptoPunksOg.sol\":4250:4279  punkIndexToAddress[punkIndex] */\n      0x0\n        /* \"contracts/CryptoPunksOg.sol\":4269:4278  punkIndex */\n      dup5\n        /* \"contracts/CryptoPunksOg.sol\":4250:4279  punkIndexToAddress[punkIndex] */\n      dup2\n      mstore\n      0x20\n      add\n      swap1\n      dup2\n      mstore\n      0x20\n      add\n      0x0\n      keccak256\n      0x0\n      swap1\n      sload\n      swap1\n      0x100\n      exp\n      swap1\n      div\n      0xffffffffffffffffffffffffffffffffffffffff\n      and\n        /* \"contracts/CryptoPunksOg.sol\":4250:4293  punkIndexToAddress[punkIndex] != msg.sender */\n      0xffffffffffffffffffffffffffffffffffffffff\n      and\n      eq\n      iszero\n        /* \"contracts/CryptoPunksOg.sol\":4246:4300  if (punkIndexToAddress[punkIndex] != msg.sender) throw */\n      iszero\n      tag_172\n      jumpi\n        /* \"contracts/CryptoPunksOg.sol\":4295:4300  throw */\n      0x0\n      dup1\n      revert\n        /* \"contracts/CryptoPunksOg.sol\":4246:4300  if (punkIndexToAddress[punkIndex] != msg.sender) throw */\n    tag_172:\n        /* \"contracts/CryptoPunksOg.sol\":4327:4332  10000 */\n      0x2710\n        /* \"contracts/CryptoPunksOg.sol\":4314:4323  punkIndex */\n      dup3\n        /* \"contracts/CryptoPunksOg.sol\":4314:4332  punkIndex >= 10000 */\n      lt\n      iszero\n        /* \"contracts/CryptoPunksOg.sol\":4310:4339  if (punkIndex >= 10000) throw */\n      iszero\n      tag_173\n      jumpi\n        /* \"contracts/CryptoPunksOg.sol\":4334:4339  throw */\n      0x0\n      dup1\n      revert\n        /* \"contracts/CryptoPunksOg.sol\":4310:4339  if (punkIndex >= 10000) throw */\n    tag_173:\n        /* \"contracts/CryptoPunksOg.sol\":4353:4372  punksOfferedForSale */\n      0xc\n        /* \"contracts/CryptoPunksOg.sol\":4353:4383  punksOfferedForSale[punkIndex] */\n      0x0\n        /* \"contracts/CryptoPunksOg.sol\":4373:4382  punkIndex */\n      dup4\n        /* \"contracts/CryptoPunksOg.sol\":4353:4383  punksOfferedForSale[punkIndex] */\n      dup2\n      mstore\n      0x20\n      add\n      swap1\n      dup2\n      mstore\n      0x20\n      add\n      0x0\n      keccak256\n        /* \"contracts/CryptoPunksOg.sol\":4353:4393  punksOfferedForSale[punkIndex].isForSale */\n      0x0\n      add\n      0x0\n      swap1\n      sload\n      swap1\n      0x100\n      exp\n      swap1\n      div\n      0xff\n      and\n        /* \"contracts/CryptoPunksOg.sol\":4349:4450  if (punksOfferedForSale[punkIndex].isForSale) {... */\n      iszero\n      tag_174\n      jumpi\n        /* \"contracts/CryptoPunksOg.sol\":4409:4439  punkNoLongerForSale(punkIndex) */\n      tag_175\n        /* \"contracts/CryptoPunksOg.sol\":4429:4438  punkIndex */\n      dup3\n        /* \"contracts/CryptoPunksOg.sol\":4409:4428  punkNoLongerForSale */\n      tag_123\n        /* \"contracts/CryptoPunksOg.sol\":4409:4439  punkNoLongerForSale(punkIndex) */\n      jump\t// in\n    tag_175:\n        /* \"contracts/CryptoPunksOg.sol\":4349:4450  if (punksOfferedForSale[punkIndex].isForSale) {... */\n    tag_174:\n        /* \"contracts/CryptoPunksOg.sol\":4491:4493  to */\n      dup3\n        /* \"contracts/CryptoPunksOg.sol\":4459:4477  punkIndexToAddress */\n      0xa\n        /* \"contracts/CryptoPunksOg.sol\":4459:4488  punkIndexToAddress[punkIndex] */\n      0x0\n        /* \"contracts/CryptoPunksOg.sol\":4478:4487  punkIndex */\n      dup5\n        /* \"contracts/CryptoPunksOg.sol\":4459:4488  punkIndexToAddress[punkIndex] */\n      dup2\n      mstore\n      0x20\n      add\n      swap1\n      dup2\n      mstore\n      0x20\n      add\n      0x0\n      keccak256\n      0x0\n        /* \"contracts/CryptoPunksOg.sol\":4459:4493  punkIndexToAddress[punkIndex] = to */\n      0x100\n      exp\n      dup2\n      sload\n      dup2\n      0xffffffffffffffffffffffffffffffffffffffff\n      mul\n      not\n      and\n      swap1\n      dup4\n      0xffffffffffffffffffffffffffffffffffffffff\n      and\n      mul\n      or\n      swap1\n      sstore\n      pop\n        /* \"contracts/CryptoPunksOg.sol\":4503:4512  balanceOf */\n      0xb\n        /* \"contracts/CryptoPunksOg.sol\":4503:4524  balanceOf[msg.sender] */\n      0x0\n        /* \"contracts/CryptoPunksOg.sol\":4513:4523  msg.sender */\n      caller\n        /* \"contracts/CryptoPunksOg.sol\":4503:4524  balanceOf[msg.sender] */\n      0xffffffffffffffffffffffffffffffffffffffff\n      and\n      0xffffffffffffffffffffffffffffffffffffffff\n      and\n      dup2\n      mstore\n      0x20\n      add\n      swap1\n      dup2\n      mstore\n      0x20\n      add\n      0x0\n      keccak256\n      0x0\n        /* \"contracts/CryptoPunksOg.sol\":4503:4526  balanceOf[msg.sender]-- */\n      dup2\n      sload\n      dup1\n      swap3\n      swap2\n      swap1\n      0x1\n      swap1\n      sub\n      swap2\n      swap1\n      pop\n      sstore\n      pop\n        /* \"contracts/CryptoPunksOg.sol\":4536:4545  balanceOf */\n      0xb\n        /* \"contracts/CryptoPunksOg.sol\":4536:4549  balanceOf[to] */\n      0x0\n        /* \"contracts/CryptoPunksOg.sol\":4546:4548  to */\n      dup5\n        /* \"contracts/CryptoPunksOg.sol\":4536:4549  balanceOf[to] */\n      0xffffffffffffffffffffffffffffffffffffffff\n      and\n      0xffffffffffffffffffffffffffffffffffffffff\n      and\n      dup2\n      mstore\n      0x20\n      add\n      swap1\n      dup2\n      mstore\n      0x20\n      add\n      0x0\n      keccak256\n      0x0\n        /* \"contracts/CryptoPunksOg.sol\":4536:4551  balanceOf[to]++ */\n      dup2\n      sload\n      dup1\n      swap3\n      swap2\n      swap1\n      0x1\n      add\n      swap2\n      swap1\n      pop\n      sstore\n      pop\n        /* \"contracts/CryptoPunksOg.sol\":4582:4584  to */\n      dup3\n        /* \"contracts/CryptoPunksOg.sol\":4561:4588  Transfer(msg.sender, to, 1) */\n      0xffffffffffffffffffffffffffffffffffffffff\n      and\n        /* \"contracts/CryptoPunksOg.sol\":4570:4580  msg.sender */\n      caller\n        /* \"contracts/CryptoPunksOg.sol\":4561:4588  Transfer(msg.sender, to, 1) */\n      0xffffffffffffffffffffffffffffffffffffffff\n      and\n      0xddf252ad1be2c89b69c2b068fc378daa952ba7f163c4a11628f55a4df523b3ef\n        /* \"contracts/CryptoPunksOg.sol\":4586:4587  1 */\n      0x1\n        /* \"contracts/CryptoPunksOg.sol\":4561:4588  Transfer(msg.sender, to, 1) */\n      mload(0x40)\n      dup1\n      dup3\n      dup2\n      mstore\n      0x20\n      add\n      swap2\n      pop\n      pop\n      mload(0x40)\n      dup1\n      swap2\n      sub\n      swap1\n      log3\n        /* \"contracts/CryptoPunksOg.sol\":4623:4625  to */\n      dup3\n        /* \"contracts/CryptoPunksOg.sol\":4598:4637  PunkTransfer(msg.sender, to, punkIndex) */\n      0xffffffffffffffffffffffffffffffffffffffff\n      and\n        /* \"contracts/CryptoPunksOg.sol\":4611:4621  msg.sender */\n      caller\n        /* \"contracts/CryptoPunksOg.sol\":4598:4637  PunkTransfer(msg.sender, to, punkIndex) */\n      0xffffffffffffffffffffffffffffffffffffffff\n      and\n      0x5af636b70da6819000c49f85b21fa82081c632069bb626f30932034099107d8\n        /* \"contracts/CryptoPunksOg.sol\":4627:4636  punkIndex */\n      dup5\n        /* \"contracts/CryptoPunksOg.sol\":4598:4637  PunkTransfer(msg.sender, to, punkIndex) */\n      mload(0x40)\n      dup1\n      dup3\n      dup2\n      mstore\n      0x20\n      add\n      swap2\n      pop\n      pop\n      mload(0x40)\n      dup1\n      swap2\n      sub\n      swap1\n      log3\n        /* \"contracts/CryptoPunksOg.sol\":4786:4794  punkBids */\n      0xd\n        /* \"contracts/CryptoPunksOg.sol\":4786:4805  punkBids[punkIndex] */\n      0x0\n        /* \"contracts/CryptoPunksOg.sol\":4795:4804  punkIndex */\n      dup4\n        /* \"contracts/CryptoPunksOg.sol\":4786:4805  punkBids[punkIndex] */\n      dup2\n      mstore\n      0x20\n      add\n      swap1\n      dup2\n      mstore\n      0x20\n      add\n      0x0\n      keccak256\n        /* \"contracts/CryptoPunksOg.sol\":4776:4805  Bid bid = punkBids[punkIndex] */\n      swap1\n      pop\n        /* \"contracts/CryptoPunksOg.sol\":4833:4835  to */\n      dup3\n        /* \"contracts/CryptoPunksOg.sol\":4819:4835  bid.bidder == to */\n      0xffffffffffffffffffffffffffffffffffffffff\n      and\n        /* \"contracts/CryptoPunksOg.sol\":4819:4822  bid */\n      dup2\n        /* \"contracts/CryptoPunksOg.sol\":4819:4829  bid.bidder */\n      0x2\n      add\n      0x0\n      swap1\n      sload\n      swap1\n      0x100\n      exp\n      swap1\n      div\n      0xffffffffffffffffffffffffffffffffffffffff\n      and\n        /* \"contracts/CryptoPunksOg.sol\":4819:4835  bid.bidder == to */\n      0xffffffffffffffffffffffffffffffffffffffff\n      and\n      eq\n        /* \"contracts/CryptoPunksOg.sol\":4815:5003  if (bid.bidder == to) {... */\n      iszero\n      tag_176\n      jumpi\n        /* \"contracts/CryptoPunksOg.sol\":4918:4921  bid */\n      dup1\n        /* \"contracts/CryptoPunksOg.sol\":4918:4927  bid.value */\n      0x3\n      add\n      sload\n        /* \"contracts/CryptoPunksOg.sol\":4892:4910  pendingWithdrawals */\n      0xe\n        /* \"contracts/CryptoPunksOg.sol\":4892:4914  pendingWithdrawals[to] */\n      0x0\n        /* \"contracts/CryptoPunksOg.sol\":4911:4913  to */\n      dup6\n        /* \"contracts/CryptoPunksOg.sol\":4892:4914  pendingWithdrawals[to] */\n      0xffffffffffffffffffffffffffffffffffffffff\n      and\n      0xffffffffffffffffffffffffffffffffffffffff\n      and\n      dup2\n      mstore\n      0x20\n      add\n      swap1\n      dup2\n      mstore\n      0x20\n      add\n      0x0\n      keccak256\n      0x0\n        /* \"contracts/CryptoPunksOg.sol\":4892:4927  pendingWithdrawals[to] += bid.value */\n      dup3\n      dup3\n      sload\n      add\n      swap3\n      pop\n      pop\n      dup2\n      swap1\n      sstore\n      pop\n        /* \"contracts/CryptoPunksOg.sol\":4963:4992  Bid(false, punkIndex, 0x0, 0) */\n      0x80\n      mload(0x40)\n      swap1\n      dup2\n      add\n      0x40\n      mstore\n      dup1\n        /* \"contracts/CryptoPunksOg.sol\":4967:4972  false */\n      0x0\n        /* \"contracts/CryptoPunksOg.sol\":4963:4992  Bid(false, punkIndex, 0x0, 0) */\n      iszero\n      iszero\n      dup2\n      mstore\n      0x20\n      add\n        /* \"contracts/CryptoPunksOg.sol\":4974:4983  punkIndex */\n      dup4\n        /* \"contracts/CryptoPunksOg.sol\":4963:4992  Bid(false, punkIndex, 0x0, 0) */\n      dup2\n      mstore\n      0x20\n      add\n        /* \"contracts/CryptoPunksOg.sol\":4985:4988  0x0 */\n      0x0\n        /* \"contracts/CryptoPunksOg.sol\":4963:4992  Bid(false, punkIndex, 0x0, 0) */\n      0xffffffffffffffffffffffffffffffffffffffff\n      and\n      dup2\n      mstore\n      0x20\n      add\n        /* \"contracts/CryptoPunksOg.sol\":4990:4991  0 */\n      0x0\n        /* \"contracts/CryptoPunksOg.sol\":4963:4992  Bid(false, punkIndex, 0x0, 0) */\n      dup2\n      mstore\n      pop\n        /* \"contracts/CryptoPunksOg.sol\":4941:4949  punkBids */\n      0xd\n        /* \"contracts/CryptoPunksOg.sol\":4941:4960  punkBids[punkIndex] */\n      0x0\n        /* \"contracts/CryptoPunksOg.sol\":4950:4959  punkIndex */\n      dup5\n        /* \"contracts/CryptoPunksOg.sol\":4941:4960  punkBids[punkIndex] */\n      dup2\n      mstore\n      0x20\n      add\n      swap1\n      dup2\n      mstore\n      0x20\n      add\n      0x0\n      keccak256\n        /* \"contracts/CryptoPunksOg.sol\":4941:4992  punkBids[punkIndex] = Bid(false, punkIndex, 0x0, 0) */\n      0x0\n      dup3\n      add\n      mload\n      dup2\n      0x0\n      add\n      exp(0x100, 0x0)\n      dup2\n      sload\n      dup2\n      0xff\n      mul\n      not\n      and\n      swap1\n      dup4\n      iszero\n      iszero\n      mul\n      or\n      swap1\n      sstore\n      pop\n      0x20\n      dup3\n      add\n      mload\n      dup2\n      0x1\n      add\n      sstore\n      0x40\n      dup3\n      add\n      mload\n      dup2\n      0x2\n      add\n      exp(0x100, 0x0)\n      dup2\n      sload\n      dup2\n      0xffffffffffffffffffffffffffffffffffffffff\n      mul\n      not\n      and\n      swap1\n      dup4\n      0xffffffffffffffffffffffffffffffffffffffff\n      and\n      mul\n      or\n      swap1\n      sstore\n      pop\n      0x60\n      dup3\n      add\n      mload\n      dup2\n      0x3\n      add\n      sstore\n      swap1\n      pop\n      pop\n        /* \"contracts/CryptoPunksOg.sol\":4815:5003  if (bid.bidder == to) {... */\n    tag_176:\n        /* \"contracts/CryptoPunksOg.sol\":4148:5009  function transferPunk(address to, uint punkIndex) {... */\n      pop\n      pop\n      pop\n      jump\t// out\n        /* \"contracts/CryptoPunksOg.sol\":324:344  string public symbol */\n    tag_95:\n      0x4\n      dup1\n      sload\n      0x1\n      dup2\n      0x1\n      and\n      iszero\n      0x100\n      mul\n      sub\n      and\n      0x2\n      swap1\n      div\n      dup1\n      0x1f\n      add\n      0x20\n      dup1\n      swap2\n      div\n      mul\n      0x20\n      add\n      mload(0x40)\n      swap1\n      dup2\n      add\n      0x40\n      mstore\n      dup1\n      swap3\n      swap2\n      swap1\n      dup2\n      dup2\n      mstore\n      0x20\n      add\n      dup3\n      dup1\n      sload\n      0x1\n      dup2\n      0x1\n      and\n      iszero\n      0x100\n      mul\n      sub\n      and\n      0x2\n      swap1\n      div\n      dup1\n      iszero\n      tag_177\n      jumpi\n      dup1\n      0x1f\n      lt\n      tag_178\n      jumpi\n      0x100\n      dup1\n      dup4\n      sload\n      div\n      mul\n      dup4\n      mstore\n      swap2\n      0x20\n      add\n      swap2\n      jump(tag_177)\n    tag_178:\n      dup3\n      add\n      swap2\n      swap1\n      0x0\n      mstore\n      keccak256(0x0, 0x20)\n      swap1\n    tag_179:\n      dup2\n      sload\n      dup2\n      mstore\n      swap1\n      0x1\n      add\n      swap1\n      0x20\n      add\n      dup1\n      dup4\n      gt\n      tag_179\n      jumpi\n      dup3\n      swap1\n      sub\n      0x1f\n      and\n      dup3\n      add\n      swap2\n    tag_177:\n      pop\n      pop\n      pop\n      pop\n      pop\n      dup2\n      jump\t// out\n        /* \"contracts/CryptoPunksOg.sol\":9252:9824  function withdrawBidForPunk(uint punkIndex) {... */\n    tag_102:\n        /* \"contracts/CryptoPunksOg.sol\":9520:9527  Bid bid */\n      0x0\n        /* \"contracts/CryptoPunksOg.sol\":9664:9675  uint amount */\n      dup1\n        /* \"contracts/CryptoPunksOg.sol\":9323:9328  10000 */\n      0x2710\n        /* \"contracts/CryptoPunksOg.sol\":9310:9319  punkIndex */\n      dup4\n        /* \"contracts/CryptoPunksOg.sol\":9310:9328  punkIndex >= 10000 */\n      lt\n      iszero\n        /* \"contracts/CryptoPunksOg.sol\":9306:9335  if (punkIndex >= 10000) throw */\n      iszero\n      tag_181\n      jumpi\n        /* \"contracts/CryptoPunksOg.sol\":9330:9335  throw */\n      0x0\n      dup1\n      revert\n        /* \"contracts/CryptoPunksOg.sol\":9306:9335  if (punkIndex >= 10000) throw */\n    tag_181:\n        /* \"contracts/CryptoPunksOg.sol\":9350:9366  allPunksAssigned */\n      0x8\n      0x0\n      swap1\n      sload\n      swap1\n      0x100\n      exp\n      swap1\n      div\n      0xff\n      and\n        /* \"contracts/CryptoPunksOg.sol\":9349:9366  !allPunksAssigned */\n      iszero\n        /* \"contracts/CryptoPunksOg.sol\":9345:9373  if (!allPunksAssigned) throw */\n      iszero\n      tag_182\n      jumpi\n        /* \"contracts/CryptoPunksOg.sol\":9368:9373  throw */\n      0x0\n      dup1\n      revert\n        /* \"contracts/CryptoPunksOg.sol\":9345:9373  if (!allPunksAssigned) throw */\n    tag_182:\n        /* \"contracts/CryptoPunksOg.sol\":9436:9439  0x0 */\n      0x0\n        /* \"contracts/CryptoPunksOg.sol\":9403:9421  punkIndexToAddress */\n      0xa\n        /* \"contracts/CryptoPunksOg.sol\":9403:9432  punkIndexToAddress[punkIndex] */\n      0x0\n        /* \"contracts/CryptoPunksOg.sol\":9422:9431  punkIndex */\n      dup6\n        /* \"contracts/CryptoPunksOg.sol\":9403:9432  punkIndexToAddress[punkIndex] */\n      dup2\n      mstore\n      0x20\n      add\n      swap1\n      dup2\n      mstore\n      0x20\n      add\n      0x0\n      keccak256\n      0x0\n      swap1\n      sload\n      swap1\n      0x100\n      exp\n      swap1\n      div\n      0xffffffffffffffffffffffffffffffffffffffff\n      and\n        /* \"contracts/CryptoPunksOg.sol\":9403:9439  punkIndexToAddress[punkIndex] == 0x0 */\n      0xffffffffffffffffffffffffffffffffffffffff\n      and\n      eq\n        /* \"contracts/CryptoPunksOg.sol\":9399:9446  if (punkIndexToAddress[punkIndex] == 0x0) throw */\n      iszero\n      tag_183\n      jumpi\n        /* \"contracts/CryptoPunksOg.sol\":9441:9446  throw */\n      0x0\n      dup1\n      revert\n        /* \"contracts/CryptoPunksOg.sol\":9399:9446  if (punkIndexToAddress[punkIndex] == 0x0) throw */\n    tag_183:\n        /* \"contracts/CryptoPunksOg.sol\":9493:9503  msg.sender */\n      caller\n        /* \"contracts/CryptoPunksOg.sol\":9460:9503  punkIndexToAddress[punkIndex] == msg.sender */\n      0xffffffffffffffffffffffffffffffffffffffff\n      and\n        /* \"contracts/CryptoPunksOg.sol\":9460:9478  punkIndexToAddress */\n      0xa\n        /* \"contracts/CryptoPunksOg.sol\":9460:9489  punkIndexToAddress[punkIndex] */\n      0x0\n        /* \"contracts/CryptoPunksOg.sol\":9479:9488  punkIndex */\n      dup6\n        /* \"contracts/CryptoPunksOg.sol\":9460:9489  punkIndexToAddress[punkIndex] */\n      dup2\n      mstore\n      0x20\n      add\n      swap1\n      dup2\n      mstore\n      0x20\n      add\n      0x0\n      keccak256\n      0x0\n      swap1\n      sload\n      swap1\n      0x100\n      exp\n      swap1\n      div\n      0xffffffffffffffffffffffffffffffffffffffff\n      and\n        /* \"contracts/CryptoPunksOg.sol\":9460:9503  punkIndexToAddress[punkIndex] == msg.sender */\n      0xffffffffffffffffffffffffffffffffffffffff\n      and\n      eq\n        /* \"contracts/CryptoPunksOg.sol\":9456:9510  if (punkIndexToAddress[punkIndex] == msg.sender) throw */\n      iszero\n      tag_184\n      jumpi\n        /* \"contracts/CryptoPunksOg.sol\":9505:9510  throw */\n      0x0\n      dup1\n      revert\n        /* \"contracts/CryptoPunksOg.sol\":9456:9510  if (punkIndexToAddress[punkIndex] == msg.sender) throw */\n    tag_184:\n        /* \"contracts/CryptoPunksOg.sol\":9530:9538  punkBids */\n      0xd\n        /* \"contracts/CryptoPunksOg.sol\":9530:9549  punkBids[punkIndex] */\n      0x0\n        /* \"contracts/CryptoPunksOg.sol\":9539:9548  punkIndex */\n      dup5\n        /* \"contracts/CryptoPunksOg.sol\":9530:9549  punkBids[punkIndex] */\n      dup2\n      mstore\n      0x20\n      add\n      swap1\n      dup2\n      mstore\n      0x20\n      add\n      0x0\n      keccak256\n        /* \"contracts/CryptoPunksOg.sol\":9520:9549  Bid bid = punkBids[punkIndex] */\n      swap2\n      pop\n        /* \"contracts/CryptoPunksOg.sol\":9577:9587  msg.sender */\n      caller\n        /* \"contracts/CryptoPunksOg.sol\":9563:9587  bid.bidder != msg.sender */\n      0xffffffffffffffffffffffffffffffffffffffff\n      and\n        /* \"contracts/CryptoPunksOg.sol\":9563:9566  bid */\n      dup3\n        /* \"contracts/CryptoPunksOg.sol\":9563:9573  bid.bidder */\n      0x2\n      add\n      0x0\n      swap1\n      sload\n      swap1\n      0x100\n      exp\n      swap1\n      div\n      0xffffffffffffffffffffffffffffffffffffffff\n      and\n        /* \"contracts/CryptoPunksOg.sol\":9563:9587  bid.bidder != msg.sender */\n      0xffffffffffffffffffffffffffffffffffffffff\n      and\n      eq\n      iszero\n        /* \"contracts/CryptoPunksOg.sol\":9559:9594  if (bid.bidder != msg.sender) throw */\n      iszero\n      tag_185\n      jumpi\n        /* \"contracts/CryptoPunksOg.sol\":9589:9594  throw */\n      0x0\n      dup1\n      revert\n        /* \"contracts/CryptoPunksOg.sol\":9559:9594  if (bid.bidder != msg.sender) throw */\n    tag_185:\n        /* \"contracts/CryptoPunksOg.sol\":9643:9653  msg.sender */\n      caller\n        /* \"contracts/CryptoPunksOg.sol\":9604:9654  PunkBidWithdrawn(punkIndex, bid.value, msg.sender) */\n      0xffffffffffffffffffffffffffffffffffffffff\n      and\n        /* \"contracts/CryptoPunksOg.sol\":9621:9630  punkIndex */\n      dup4\n        /* \"contracts/CryptoPunksOg.sol\":9604:9654  PunkBidWithdrawn(punkIndex, bid.value, msg.sender) */\n      0x6f30e1ee4d81dcc7a8a478577f65d2ed2edb120565960ac45fe7c50551c87932\n        /* \"contracts/CryptoPunksOg.sol\":9632:9635  bid */\n      dup5\n        /* \"contracts/CryptoPunksOg.sol\":9632:9641  bid.value */\n      0x3\n      add\n      sload\n        /* \"contracts/CryptoPunksOg.sol\":9604:9654  PunkBidWithdrawn(punkIndex, bid.value, msg.sender) */\n      mload(0x40)\n      dup1\n      dup3\n      dup2\n      mstore\n      0x20\n      add\n      swap2\n      pop\n      pop\n      mload(0x40)\n      dup1\n      swap2\n      sub\n      swap1\n      log3\n        /* \"contracts/CryptoPunksOg.sol\":9678:9681  bid */\n      dup2\n        /* \"contracts/CryptoPunksOg.sol\":9678:9687  bid.value */\n      0x3\n      add\n      sload\n        /* \"contracts/CryptoPunksOg.sol\":9664:9687  uint amount = bid.value */\n      swap1\n      pop\n        /* \"contracts/CryptoPunksOg.sol\":9719:9748  Bid(false, punkIndex, 0x0, 0) */\n      0x80\n      mload(0x40)\n      swap1\n      dup2\n      add\n      0x40\n      mstore\n      dup1\n        /* \"contracts/CryptoPunksOg.sol\":9723:9728  false */\n      0x0\n        /* \"contracts/CryptoPunksOg.sol\":9719:9748  Bid(false, punkIndex, 0x0, 0) */\n      iszero\n      iszero\n      dup2\n      mstore\n      0x20\n      add\n        /* \"contracts/CryptoPunksOg.sol\":9730:9739  punkIndex */\n      dup5\n        /* \"contracts/CryptoPunksOg.sol\":9719:9748  Bid(false, punkIndex, 0x0, 0) */\n      dup2\n      mstore\n      0x20\n      add\n        /* \"contracts/CryptoPunksOg.sol\":9741:9744  0x0 */\n      0x0\n        /* \"contracts/CryptoPunksOg.sol\":9719:9748  Bid(false, punkIndex, 0x0, 0) */\n      0xffffffffffffffffffffffffffffffffffffffff\n      and\n      dup2\n      mstore\n      0x20\n      add\n        /* \"contracts/CryptoPunksOg.sol\":9746:9747  0 */\n      0x0\n        /* \"contracts/CryptoPunksOg.sol\":9719:9748  Bid(false, punkIndex, 0x0, 0) */\n      dup2\n      mstore\n      pop\n        /* \"contracts/CryptoPunksOg.sol\":9697:9705  punkBids */\n      0xd\n        /* \"contracts/CryptoPunksOg.sol\":9697:9716  punkBids[punkIndex] */\n      0x0\n        /* \"contracts/CryptoPunksOg.sol\":9706:9715  punkIndex */\n      dup6\n        /* \"contracts/CryptoPunksOg.sol\":9697:9716  punkBids[punkIndex] */\n      dup2\n      mstore\n      0x20\n      add\n      swap1\n      dup2\n      mstore\n      0x20\n      add\n      0x0\n      keccak256\n        /* \"contracts/CryptoPunksOg.sol\":9697:9748  punkBids[punkIndex] = Bid(false, punkIndex, 0x0, 0) */\n      0x0\n      dup3\n      add\n      mload\n      dup2\n      0x0\n      add\n      exp(0x100, 0x0)\n      dup2\n      sload\n      dup2\n      0xff\n      mul\n      not\n      and\n      swap1\n      dup4\n      iszero\n      iszero\n      mul\n      or\n      swap1\n      sstore\n      pop\n      0x20\n      dup3\n      add\n      mload\n      dup2\n      0x1\n      add\n      sstore\n      0x40\n      dup3\n      add\n      mload\n      dup2\n      0x2\n      add\n      exp(0x100, 0x0)\n      dup2\n      sload\n      dup2\n      0xffffffffffffffffffffffffffffffffffffffff\n      mul\n      not\n      and\n      swap1\n      dup4\n      0xffffffffffffffffffffffffffffffffffffffff\n      and\n      mul\n      or\n      swap1\n      sstore\n      pop\n      0x60\n      dup3\n      add\n      mload\n      dup2\n      0x3\n      add\n      sstore\n      swap1\n      pop\n      pop\n        /* \"contracts/CryptoPunksOg.sol\":9790:9800  msg.sender */\n      caller\n        /* \"contracts/CryptoPunksOg.sol\":9790:9809  msg.sender.transfer */\n      0xffffffffffffffffffffffffffffffffffffffff\n      and\n        /* \"contracts/CryptoPunksOg.sol\":9790:9817  msg.sender.transfer(amount) */\n      0x8fc\n        /* \"contracts/CryptoPunksOg.sol\":9810:9816  amount */\n      dup3\n        /* \"contracts/CryptoPunksOg.sol\":9790:9817  msg.sender.transfer(amount) */\n      swap1\n      dup2\n      iszero\n      mul\n      swap1\n      mload(0x40)\n      0x0\n      mload(0x40)\n      dup1\n      dup4\n      sub\n      dup2\n      dup6\n      dup9\n      dup9\n      call\n      swap4\n      pop\n      pop\n      pop\n      pop\n      iszero\n        /* \"--CODEGEN--\":8:17   */\n      dup1\n        /* \"--CODEGEN--\":5:7   */\n      iszero\n      tag_186\n      jumpi\n        /* \"--CODEGEN--\":45:61   */\n      returndatasize\n        /* \"--CODEGEN--\":42:43   */\n      0x0\n        /* \"--CODEGEN--\":39:40   */\n      dup1\n        /* \"--CODEGEN--\":24:62   */\n      returndatacopy\n        /* \"--CODEGEN--\":77:93   */\n      returndatasize\n        /* \"--CODEGEN--\":74:75   */\n      0x0\n        /* \"--CODEGEN--\":67:94   */\n      revert\n        /* \"--CODEGEN--\":5:7   */\n    tag_186:\n        /* \"contracts/CryptoPunksOg.sol\":9790:9817  msg.sender.transfer(amount) */\n      pop\n        /* \"contracts/CryptoPunksOg.sol\":9252:9824  function withdrawBidForPunk(uint punkIndex) {... */\n      pop\n      pop\n      pop\n      jump\t// out\n        /* \"contracts/CryptoPunksOg.sol\":2759:3301  function setInitialOwner(address to, uint punkIndex) {... */\n    tag_105:\n        /* \"contracts/CryptoPunksOg.sol\":2840:2845  owner */\n      0x1\n      0x0\n      swap1\n      sload\n      swap1\n      0x100\n      exp\n      swap1\n      div\n      0xffffffffffffffffffffffffffffffffffffffff\n      and\n        /* \"contracts/CryptoPunksOg.sol\":2826:2845  msg.sender != owner */\n      0xffffffffffffffffffffffffffffffffffffffff\n      and\n        /* \"contracts/CryptoPunksOg.sol\":2826:2836  msg.sender */\n      caller\n        /* \"contracts/CryptoPunksOg.sol\":2826:2845  msg.sender != owner */\n      0xffffffffffffffffffffffffffffffffffffffff\n      and\n      eq\n      iszero\n        /* \"contracts/CryptoPunksOg.sol\":2822:2852  if (msg.sender != owner) throw */\n      iszero\n      tag_188\n      jumpi\n        /* \"contracts/CryptoPunksOg.sol\":2847:2852  throw */\n      0x0\n      dup1\n      revert\n        /* \"contracts/CryptoPunksOg.sol\":2822:2852  if (msg.sender != owner) throw */\n    tag_188:\n        /* \"contracts/CryptoPunksOg.sol\":2866:2882  allPunksAssigned */\n      0x8\n      0x0\n      swap1\n      sload\n      swap1\n      0x100\n      exp\n      swap1\n      div\n      0xff\n      and\n        /* \"contracts/CryptoPunksOg.sol\":2862:2889  if (allPunksAssigned) throw */\n      iszero\n      tag_189\n      jumpi\n        /* \"contracts/CryptoPunksOg.sol\":2884:2889  throw */\n      0x0\n      dup1\n      revert\n        /* \"contracts/CryptoPunksOg.sol\":2862:2889  if (allPunksAssigned) throw */\n    tag_189:\n        /* \"contracts/CryptoPunksOg.sol\":2916:2921  10000 */\n      0x2710\n        /* \"contracts/CryptoPunksOg.sol\":2903:2912  punkIndex */\n      dup2\n        /* \"contracts/CryptoPunksOg.sol\":2903:2921  punkIndex >= 10000 */\n      lt\n      iszero\n        /* \"contracts/CryptoPunksOg.sol\":2899:2928  if (punkIndex >= 10000) throw */\n      iszero\n      tag_190\n      jumpi\n        /* \"contracts/CryptoPunksOg.sol\":2923:2928  throw */\n      0x0\n      dup1\n      revert\n        /* \"contracts/CryptoPunksOg.sol\":2899:2928  if (punkIndex >= 10000) throw */\n    tag_190:\n        /* \"contracts/CryptoPunksOg.sol\":2975:2977  to */\n      dup2\n        /* \"contracts/CryptoPunksOg.sol\":2942:2977  punkIndexToAddress[punkIndex] != to */\n      0xffffffffffffffffffffffffffffffffffffffff\n      and\n        /* \"contracts/CryptoPunksOg.sol\":2942:2960  punkIndexToAddress */\n      0xa\n        /* \"contracts/CryptoPunksOg.sol\":2942:2971  punkIndexToAddress[punkIndex] */\n      0x0\n        /* \"contracts/CryptoPunksOg.sol\":2961:2970  punkIndex */\n      dup4\n        /* \"contracts/CryptoPunksOg.sol\":2942:2971  punkIndexToAddress[punkIndex] */\n      dup2\n      mstore\n      0x20\n      add\n      swap1\n      dup2\n      mstore\n      0x20\n      add\n      0x0\n      keccak256\n      0x0\n      swap1\n      sload\n      swap1\n      0x100\n      exp\n      swap1\n      div\n      0xffffffffffffffffffffffffffffffffffffffff\n      and\n        /* \"contracts/CryptoPunksOg.sol\":2942:2977  punkIndexToAddress[punkIndex] != to */\n      0xffffffffffffffffffffffffffffffffffffffff\n      and\n      eq\n      iszero\n        /* \"contracts/CryptoPunksOg.sol\":2938:3295  if (punkIndexToAddress[punkIndex] != to) {... */\n      iszero\n      tag_191\n      jumpi\n        /* \"contracts/CryptoPunksOg.sol\":3030:3033  0x0 */\n      0x0\n        /* \"contracts/CryptoPunksOg.sol\":2997:3015  punkIndexToAddress */\n      0xa\n        /* \"contracts/CryptoPunksOg.sol\":2997:3026  punkIndexToAddress[punkIndex] */\n      0x0\n        /* \"contracts/CryptoPunksOg.sol\":3016:3025  punkIndex */\n      dup4\n        /* \"contracts/CryptoPunksOg.sol\":2997:3026  punkIndexToAddress[punkIndex] */\n      dup2\n      mstore\n      0x20\n      add\n      swap1\n      dup2\n      mstore\n      0x20\n      add\n      0x0\n      keccak256\n      0x0\n      swap1\n      sload\n      swap1\n      0x100\n      exp\n      swap1\n      div\n      0xffffffffffffffffffffffffffffffffffffffff\n      and\n        /* \"contracts/CryptoPunksOg.sol\":2997:3033  punkIndexToAddress[punkIndex] != 0x0 */\n      0xffffffffffffffffffffffffffffffffffffffff\n      and\n      eq\n      iszero\n        /* \"contracts/CryptoPunksOg.sol\":2993:3173  if (punkIndexToAddress[punkIndex] != 0x0) {... */\n      iszero\n      tag_192\n      jumpi\n        /* \"contracts/CryptoPunksOg.sol\":3053:3062  balanceOf */\n      0xb\n        /* \"contracts/CryptoPunksOg.sol\":3053:3093  balanceOf[punkIndexToAddress[punkIndex]] */\n      0x0\n        /* \"contracts/CryptoPunksOg.sol\":3063:3081  punkIndexToAddress */\n      0xa\n        /* \"contracts/CryptoPunksOg.sol\":3063:3092  punkIndexToAddress[punkIndex] */\n      0x0\n        /* \"contracts/CryptoPunksOg.sol\":3082:3091  punkIndex */\n      dup5\n        /* \"contracts/CryptoPunksOg.sol\":3063:3092  punkIndexToAddress[punkIndex] */\n      dup2\n      mstore\n      0x20\n      add\n      swap1\n      dup2\n      mstore\n      0x20\n      add\n      0x0\n      keccak256\n      0x0\n      swap1\n      sload\n      swap1\n      0x100\n      exp\n      swap1\n      div\n      0xffffffffffffffffffffffffffffffffffffffff\n      and\n        /* \"contracts/CryptoPunksOg.sol\":3053:3093  balanceOf[punkIndexToAddress[punkIndex]] */\n      0xffffffffffffffffffffffffffffffffffffffff\n      and\n      0xffffffffffffffffffffffffffffffffffffffff\n      and\n      dup2\n      mstore\n      0x20\n      add\n      swap1\n      dup2\n      mstore\n      0x20\n      add\n      0x0\n      keccak256\n      0x0\n        /* \"contracts/CryptoPunksOg.sol\":3053:3095  balanceOf[punkIndexToAddress[punkIndex]]-- */\n      dup2\n      sload\n      dup1\n      swap3\n      swap2\n      swap1\n      0x1\n      swap1\n      sub\n      swap2\n      swap1\n      pop\n      sstore\n      pop\n        /* \"contracts/CryptoPunksOg.sol\":2993:3173  if (punkIndexToAddress[punkIndex] != 0x0) {... */\n      jump(tag_193)\n    tag_192:\n        /* \"contracts/CryptoPunksOg.sol\":3134:3156  punksRemainingToAssign */\n      0x9\n      0x0\n        /* \"contracts/CryptoPunksOg.sol\":3134:3158  punksRemainingToAssign-- */\n      dup2\n      sload\n      dup1\n      swap3\n      swap2\n      swap1\n      0x1\n      swap1\n      sub\n      swap2\n      swap1\n      pop\n      sstore\n      pop\n        /* \"contracts/CryptoPunksOg.sol\":2993:3173  if (punkIndexToAddress[punkIndex] != 0x0) {... */\n    tag_193:\n        /* \"contracts/CryptoPunksOg.sol\":3218:3220  to */\n      dup2\n        /* \"contracts/CryptoPunksOg.sol\":3186:3204  punkIndexToAddress */\n      0xa\n        /* \"contracts/CryptoPunksOg.sol\":3186:3215  punkIndexToAddress[punkIndex] */\n      0x0\n        /* \"contracts/CryptoPunksOg.sol\":3205:3214  punkIndex */\n      dup4\n        /* \"contracts/CryptoPunksOg.sol\":3186:3215  punkIndexToAddress[punkIndex] */\n      dup2\n      mstore\n      0x20\n      add\n      swap1\n      dup2\n      mstore\n      0x20\n      add\n      0x0\n      keccak256\n      0x0\n        /* \"contracts/CryptoPunksOg.sol\":3186:3220  punkIndexToAddress[punkIndex] = to */\n      0x100\n      exp\n      dup2\n      sload\n      dup2\n      0xffffffffffffffffffffffffffffffffffffffff\n      mul\n      not\n      and\n      swap1\n      dup4\n      0xffffffffffffffffffffffffffffffffffffffff\n      and\n      mul\n      or\n      swap1\n      sstore\n      pop\n        /* \"contracts/CryptoPunksOg.sol\":3234:3243  balanceOf */\n      0xb\n        /* \"contracts/CryptoPunksOg.sol\":3234:3247  balanceOf[to] */\n      0x0\n        /* \"contracts/CryptoPunksOg.sol\":3244:3246  to */\n      dup4\n        /* \"contracts/CryptoPunksOg.sol\":3234:3247  balanceOf[to] */\n      0xffffffffffffffffffffffffffffffffffffffff\n      and\n      0xffffffffffffffffffffffffffffffffffffffff\n      and\n      dup2\n      mstore\n      0x20\n      add\n      swap1\n      dup2\n      mstore\n      0x20\n      add\n      0x0\n      keccak256\n      0x0\n        /* \"contracts/CryptoPunksOg.sol\":3234:3249  balanceOf[to]++ */\n      dup2\n      sload\n      dup1\n      swap3\n      swap2\n      swap1\n      0x1\n      add\n      swap2\n      swap1\n      pop\n      sstore\n      pop\n        /* \"contracts/CryptoPunksOg.sol\":3270:3272  to */\n      dup2\n        /* \"contracts/CryptoPunksOg.sol\":3263:3284  Assign(to, punkIndex) */\n      0xffffffffffffffffffffffffffffffffffffffff\n      and\n      0x8a0e37b73a0d9c82e205d4d1a3ff3d0b57ce5f4d7bccf6bac03336dc101cb7ba\n        /* \"contracts/CryptoPunksOg.sol\":3274:3283  punkIndex */\n      dup3\n        /* \"contracts/CryptoPunksOg.sol\":3263:3284  Assign(to, punkIndex) */\n      mload(0x40)\n      dup1\n      dup3\n      dup2\n      mstore\n      0x20\n      add\n      swap2\n      pop\n      pop\n      mload(0x40)\n      dup1\n      swap2\n      sub\n      swap1\n      log2\n        /* \"contracts/CryptoPunksOg.sol\":2938:3295  if (punkIndexToAddress[punkIndex] != to) {... */\n    tag_191:\n        /* \"contracts/CryptoPunksOg.sol\":2759:3301  function setInitialOwner(address to, uint punkIndex) {... */\n      pop\n      pop\n      jump\t// out\n        /* \"contracts/CryptoPunksOg.sol\":5717:6128  function offerPunkForSaleToAddress(uint punkIndex, uint minSalePriceInWei, address toAddress) {... */\n    tag_108:\n        /* \"contracts/CryptoPunksOg.sol\":5826:5842  allPunksAssigned */\n      0x8\n      0x0\n      swap1\n      sload\n      swap1\n      0x100\n      exp\n      swap1\n      div\n      0xff\n      and\n        /* \"contracts/CryptoPunksOg.sol\":5825:5842  !allPunksAssigned */\n      iszero\n        /* \"contracts/CryptoPunksOg.sol\":5821:5849  if (!allPunksAssigned) throw */\n      iszero\n      tag_195\n      jumpi\n        /* \"contracts/CryptoPunksOg.sol\":5844:5849  throw */\n      0x0\n      dup1\n      revert\n        /* \"contracts/CryptoPunksOg.sol\":5821:5849  if (!allPunksAssigned) throw */\n    tag_195:\n        /* \"contracts/CryptoPunksOg.sol\":5896:5906  msg.sender */\n      caller\n        /* \"contracts/CryptoPunksOg.sol\":5863:5906  punkIndexToAddress[punkIndex] != msg.sender */\n      0xffffffffffffffffffffffffffffffffffffffff\n      and\n        /* \"contracts/CryptoPunksOg.sol\":5863:5881  punkIndexToAddress */\n      0xa\n        /* \"contracts/CryptoPunksOg.sol\":5863:5892  punkIndexToAddress[punkIndex] */\n      0x0\n        /* \"contracts/CryptoPunksOg.sol\":5882:5891  punkIndex */\n      dup6\n        /* \"contracts/CryptoPunksOg.sol\":5863:5892  punkIndexToAddress[punkIndex] */\n      dup2\n      mstore\n      0x20\n      add\n      swap1\n      dup2\n      mstore\n      0x20\n      add\n      0x0\n      keccak256\n      0x0\n      swap1\n      sload\n      swap1\n      0x100\n      exp\n      swap1\n      div\n      0xffffffffffffffffffffffffffffffffffffffff\n      and\n        /* \"contracts/CryptoPunksOg.sol\":5863:5906  punkIndexToAddress[punkIndex] != msg.sender */\n      0xffffffffffffffffffffffffffffffffffffffff\n      and\n      eq\n      iszero\n        /* \"contracts/CryptoPunksOg.sol\":5859:5913  if (punkIndexToAddress[punkIndex] != msg.sender) throw */\n      iszero\n      tag_196\n      jumpi\n        /* \"contracts/CryptoPunksOg.sol\":5908:5913  throw */\n      0x0\n      dup1\n      revert\n        /* \"contracts/CryptoPunksOg.sol\":5859:5913  if (punkIndexToAddress[punkIndex] != msg.sender) throw */\n    tag_196:\n        /* \"contracts/CryptoPunksOg.sol\":5940:5945  10000 */\n      0x2710\n        /* \"contracts/CryptoPunksOg.sol\":5927:5936  punkIndex */\n      dup4\n        /* \"contracts/CryptoPunksOg.sol\":5927:5945  punkIndex >= 10000 */\n      lt\n      iszero\n        /* \"contracts/CryptoPunksOg.sol\":5923:5952  if (punkIndex >= 10000) throw */\n      iszero\n      tag_197\n      jumpi\n        /* \"contracts/CryptoPunksOg.sol\":5947:5952  throw */\n      0x0\n      dup1\n      revert\n        /* \"contracts/CryptoPunksOg.sol\":5923:5952  if (punkIndex >= 10000) throw */\n    tag_197:\n        /* \"contracts/CryptoPunksOg.sol\":5995:6059  Offer(true, punkIndex, msg.sender, minSalePriceInWei, toAddress) */\n      0xa0\n      mload(0x40)\n      swap1\n      dup2\n      add\n      0x40\n      mstore\n      dup1\n        /* \"contracts/CryptoPunksOg.sol\":6001:6005  true */\n      0x1\n        /* \"contracts/CryptoPunksOg.sol\":5995:6059  Offer(true, punkIndex, msg.sender, minSalePriceInWei, toAddress) */\n      iszero\n      iszero\n      dup2\n      mstore\n      0x20\n      add\n        /* \"contracts/CryptoPunksOg.sol\":6007:6016  punkIndex */\n      dup5\n        /* \"contracts/CryptoPunksOg.sol\":5995:6059  Offer(true, punkIndex, msg.sender, minSalePriceInWei, toAddress) */\n      dup2\n      mstore\n      0x20\n      add\n        /* \"contracts/CryptoPunksOg.sol\":6018:6028  msg.sender */\n      caller\n        /* \"contracts/CryptoPunksOg.sol\":5995:6059  Offer(true, punkIndex, msg.sender, minSalePriceInWei, toAddress) */\n      0xffffffffffffffffffffffffffffffffffffffff\n      and\n      dup2\n      mstore\n      0x20\n      add\n        /* \"contracts/CryptoPunksOg.sol\":6030:6047  minSalePriceInWei */\n      dup4\n        /* \"contracts/CryptoPunksOg.sol\":5995:6059  Offer(true, punkIndex, msg.sender, minSalePriceInWei, toAddress) */\n      dup2\n      mstore\n      0x20\n      add\n        /* \"contracts/CryptoPunksOg.sol\":6049:6058  toAddress */\n      dup3\n        /* \"contracts/CryptoPunksOg.sol\":5995:6059  Offer(true, punkIndex, msg.sender, minSalePriceInWei, toAddress) */\n      0xffffffffffffffffffffffffffffffffffffffff\n      and\n      dup2\n      mstore\n      pop\n        /* \"contracts/CryptoPunksOg.sol\":5962:5981  punksOfferedForSale */\n      0xc\n        /* \"contracts/CryptoPunksOg.sol\":5962:5992  punksOfferedForSale[punkIndex] */\n      0x0\n        /* \"contracts/CryptoPunksOg.sol\":5982:5991  punkIndex */\n      dup6\n        /* \"contracts/CryptoPunksOg.sol\":5962:5992  punksOfferedForSale[punkIndex] */\n      dup2\n      mstore\n      0x20\n      add\n      swap1\n      dup2\n      mstore\n      0x20\n      add\n      0x0\n      keccak256\n        /* \"contracts/CryptoPunksOg.sol\":5962:6059  punksOfferedForSale[punkIndex] = Offer(true, punkIndex, msg.sender, minSalePriceInWei, toAddress) */\n      0x0\n      dup3\n      add\n      mload\n      dup2\n      0x0\n      add\n      exp(0x100, 0x0)\n      dup2\n      sload\n      dup2\n      0xff\n      mul\n      not\n      and\n      swap1\n      dup4\n      iszero\n      iszero\n      mul\n      or\n      swap1\n      sstore\n      pop\n      0x20\n      dup3\n      add\n      mload\n      dup2\n      0x1\n      add\n      sstore\n      0x40\n      dup3\n      add\n      mload\n      dup2\n      0x2\n      add\n      exp(0x100, 0x0)\n      dup2\n      sload\n      dup2\n      0xffffffffffffffffffffffffffffffffffffffff\n      mul\n      not\n      and\n      swap1\n      dup4\n      0xffffffffffffffffffffffffffffffffffffffff\n      and\n      mul\n      or\n      swap1\n      sstore\n      pop\n      0x60\n      dup3\n      add\n      mload\n      dup2\n      0x3\n      add\n      sstore\n      0x80\n      dup3\n      add\n      mload\n      dup2\n      0x4\n      add\n      exp(0x100, 0x0)\n      dup2\n      sload\n      dup2\n      0xffffffffffffffffffffffffffffffffffffffff\n      mul\n      not\n      and\n      swap1\n      dup4\n      0xffffffffffffffffffffffffffffffffffffffff\n      and\n      mul\n      or\n      swap1\n      sstore\n      pop\n      swap1\n      pop\n      pop\n        /* \"contracts/CryptoPunksOg.sol\":6111:6120  toAddress */\n      dup1\n        /* \"contracts/CryptoPunksOg.sol\":6069:6121  PunkOffered(punkIndex, minSalePriceInWei, toAddress) */\n      0xffffffffffffffffffffffffffffffffffffffff\n      and\n        /* \"contracts/CryptoPunksOg.sol\":6081:6090  punkIndex */\n      dup4\n        /* \"contracts/CryptoPunksOg.sol\":6069:6121  PunkOffered(punkIndex, minSalePriceInWei, toAddress) */\n      0x3c7b682d5da98001a9b8cbda6c647d2c63d698a4184fd1d55e2ce7b66f5d21eb\n        /* \"contracts/CryptoPunksOg.sol\":6092:6109  minSalePriceInWei */\n      dup5\n        /* \"contracts/CryptoPunksOg.sol\":6069:6121  PunkOffered(punkIndex, minSalePriceInWei, toAddress) */\n      mload(0x40)\n      dup1\n      dup3\n      dup2\n      mstore\n      0x20\n      add\n      swap2\n      pop\n      pop\n      mload(0x40)\n      dup1\n      swap2\n      sub\n      swap1\n      log3\n        /* \"contracts/CryptoPunksOg.sol\":5717:6128  function offerPunkForSaleToAddress(uint punkIndex, uint minSalePriceInWei, address toAddress) {... */\n      pop\n      pop\n      pop\n      jump\t// out\n        /* \"contracts/CryptoPunksOg.sol\":496:534  uint public punksRemainingToAssign = 0 */\n    tag_111:\n      sload(0x9)\n      dup2\n      jump\t// out\n        /* \"contracts/CryptoPunksOg.sol\":5340:5711  function offerPunkForSale(uint punkIndex, uint minSalePriceInWei) {... */\n    tag_114:\n        /* \"contracts/CryptoPunksOg.sol\":5421:5437  allPunksAssigned */\n      0x8\n      0x0\n      swap1\n      sload\n      swap1\n      0x100\n      exp\n      swap1\n      div\n      0xff\n      and\n        /* \"contracts/CryptoPunksOg.sol\":5420:5437  !allPunksAssigned */\n      iszero\n        /* \"contracts/CryptoPunksOg.sol\":5416:5444  if (!allPunksAssigned) throw */\n      iszero\n      tag_199\n      jumpi\n        /* \"contracts/CryptoPunksOg.sol\":5439:5444  throw */\n      0x0\n      dup1\n      revert\n        /* \"contracts/CryptoPunksOg.sol\":5416:5444  if (!allPunksAssigned) throw */\n    tag_199:\n        /* \"contracts/CryptoPunksOg.sol\":5491:5501  msg.sender */\n      caller\n        /* \"contracts/CryptoPunksOg.sol\":5458:5501  punkIndexToAddress[punkIndex] != msg.sender */\n      0xffffffffffffffffffffffffffffffffffffffff\n      and\n        /* \"contracts/CryptoPunksOg.sol\":5458:5476  punkIndexToAddress */\n      0xa\n        /* \"contracts/CryptoPunksOg.sol\":5458:5487  punkIndexToAddress[punkIndex] */\n      0x0\n        /* \"contracts/CryptoPunksOg.sol\":5477:5486  punkIndex */\n      dup5\n        /* \"contracts/CryptoPunksOg.sol\":5458:5487  punkIndexToAddress[punkIndex] */\n      dup2\n      mstore\n      0x20\n      add\n      swap1\n      dup2\n      mstore\n      0x20\n      add\n      0x0\n      keccak256\n      0x0\n      swap1\n      sload\n      swap1\n      0x100\n      exp\n      swap1\n      div\n      0xffffffffffffffffffffffffffffffffffffffff\n      and\n        /* \"contracts/CryptoPunksOg.sol\":5458:5501  punkIndexToAddress[punkIndex] != msg.sender */\n      0xffffffffffffffffffffffffffffffffffffffff\n      and\n      eq\n      iszero\n        /* \"contracts/CryptoPunksOg.sol\":5454:5508  if (punkIndexToAddress[punkIndex] != msg.sender) throw */\n      iszero\n      tag_200\n      jumpi\n        /* \"contracts/CryptoPunksOg.sol\":5503:5508  throw */\n      0x0\n      dup1\n      revert\n        /* \"contracts/CryptoPunksOg.sol\":5454:5508  if (punkIndexToAddress[punkIndex] != msg.sender) throw */\n    tag_200:\n        /* \"contracts/CryptoPunksOg.sol\":5535:5540  10000 */\n      0x2710\n        /* \"contracts/CryptoPunksOg.sol\":5522:5531  punkIndex */\n      dup3\n        /* \"contracts/CryptoPunksOg.sol\":5522:5540  punkIndex >= 10000 */\n      lt\n      iszero\n        /* \"contracts/CryptoPunksOg.sol\":5518:5547  if (punkIndex >= 10000) throw */\n      iszero\n      tag_201\n      jumpi\n        /* \"contracts/CryptoPunksOg.sol\":5542:5547  throw */\n      0x0\n      dup1\n      revert\n        /* \"contracts/CryptoPunksOg.sol\":5518:5547  if (punkIndex >= 10000) throw */\n    tag_201:\n        /* \"contracts/CryptoPunksOg.sol\":5590:5648  Offer(true, punkIndex, msg.sender, minSalePriceInWei, 0x0) */\n      0xa0\n      mload(0x40)\n      swap1\n      dup2\n      add\n      0x40\n      mstore\n      dup1\n        /* \"contracts/CryptoPunksOg.sol\":5596:5600  true */\n      0x1\n        /* \"contracts/CryptoPunksOg.sol\":5590:5648  Offer(true, punkIndex, msg.sender, minSalePriceInWei, 0x0) */\n      iszero\n      iszero\n      dup2\n      mstore\n      0x20\n      add\n        /* \"contracts/CryptoPunksOg.sol\":5602:5611  punkIndex */\n      dup4\n        /* \"contracts/CryptoPunksOg.sol\":5590:5648  Offer(true, punkIndex, msg.sender, minSalePriceInWei, 0x0) */\n      dup2\n      mstore\n      0x20\n      add\n        /* \"contracts/CryptoPunksOg.sol\":5613:5623  msg.sender */\n      caller\n        /* \"contracts/CryptoPunksOg.sol\":5590:5648  Offer(true, punkIndex, msg.sender, minSalePriceInWei, 0x0) */\n      0xffffffffffffffffffffffffffffffffffffffff\n      and\n      dup2\n      mstore\n      0x20\n      add\n        /* \"contracts/CryptoPunksOg.sol\":5625:5642  minSalePriceInWei */\n      dup3\n        /* \"contracts/CryptoPunksOg.sol\":5590:5648  Offer(true, punkIndex, msg.sender, minSalePriceInWei, 0x0) */\n      dup2\n      mstore\n      0x20\n      add\n        /* \"contracts/CryptoPunksOg.sol\":5644:5647  0x0 */\n      0x0\n        /* \"contracts/CryptoPunksOg.sol\":5590:5648  Offer(true, punkIndex, msg.sender, minSalePriceInWei, 0x0) */\n      0xffffffffffffffffffffffffffffffffffffffff\n      and\n      dup2\n      mstore\n      pop\n        /* \"contracts/CryptoPunksOg.sol\":5557:5576  punksOfferedForSale */\n      0xc\n        /* \"contracts/CryptoPunksOg.sol\":5557:5587  punksOfferedForSale[punkIndex] */\n      0x0\n        /* \"contracts/CryptoPunksOg.sol\":5577:5586  punkIndex */\n      dup5\n        /* \"contracts/CryptoPunksOg.sol\":5557:5587  punksOfferedForSale[punkIndex] */\n      dup2\n      mstore\n      0x20\n      add\n      swap1\n      dup2\n      mstore\n      0x20\n      add\n      0x0\n      keccak256\n        /* \"contracts/CryptoPunksOg.sol\":5557:5648  punksOfferedForSale[punkIndex] = Offer(true, punkIndex, msg.sender, minSalePriceInWei, 0x0) */\n      0x0\n      dup3\n      add\n      mload\n      dup2\n      0x0\n      add\n      exp(0x100, 0x0)\n      dup2\n      sload\n      dup2\n      0xff\n      mul\n      not\n      and\n      swap1\n      dup4\n      iszero\n      iszero\n      mul\n      or\n      swap1\n      sstore\n      pop\n      0x20\n      dup3\n      add\n      mload\n      dup2\n      0x1\n      add\n      sstore\n      0x40\n      dup3\n      add\n      mload\n      dup2\n      0x2\n      add\n      exp(0x100, 0x0)\n      dup2\n      sload\n      dup2\n      0xffffffffffffffffffffffffffffffffffffffff\n      mul\n      not\n      and\n      swap1\n      dup4\n      0xffffffffffffffffffffffffffffffffffffffff\n      and\n      mul\n      or\n      swap1\n      sstore\n      pop\n      0x60\n      dup3\n      add\n      mload\n      dup2\n      0x3\n      add\n      sstore\n      0x80\n      dup3\n      add\n      mload\n      dup2\n      0x4\n      add\n      exp(0x100, 0x0)\n      dup2\n      sload\n      dup2\n      0xffffffffffffffffffffffffffffffffffffffff\n      mul\n      not\n      and\n      swap1\n      dup4\n      0xffffffffffffffffffffffffffffffffffffffff\n      and\n      mul\n      or\n      swap1\n      sstore\n      pop\n      swap1\n      pop\n      pop\n        /* \"contracts/CryptoPunksOg.sol\":5700:5703  0x0 */\n      0x0\n        /* \"contracts/CryptoPunksOg.sol\":5670:5679  punkIndex */\n      dup3\n        /* \"contracts/CryptoPunksOg.sol\":5658:5704  PunkOffered(punkIndex, minSalePriceInWei, 0x0) */\n      0x3c7b682d5da98001a9b8cbda6c647d2c63d698a4184fd1d55e2ce7b66f5d21eb\n        /* \"contracts/CryptoPunksOg.sol\":5681:5698  minSalePriceInWei */\n      dup4\n        /* \"contracts/CryptoPunksOg.sol\":5658:5704  PunkOffered(punkIndex, minSalePriceInWei, 0x0) */\n      mload(0x40)\n      dup1\n      dup3\n      dup2\n      mstore\n      0x20\n      add\n      swap2\n      pop\n      pop\n      mload(0x40)\n      dup1\n      swap2\n      sub\n      swap1\n      log3\n        /* \"contracts/CryptoPunksOg.sol\":5340:5711  function offerPunkForSale(uint punkIndex, uint minSalePriceInWei) {... */\n      pop\n      pop\n      jump\t// out\n        /* \"contracts/CryptoPunksOg.sol\":3684:4064  function getPunk(uint punkIndex) {... */\n    tag_117:\n        /* \"contracts/CryptoPunksOg.sol\":3732:3748  allPunksAssigned */\n      0x8\n      0x0\n      swap1\n      sload\n      swap1\n      0x100\n      exp\n      swap1\n      div\n      0xff\n      and\n        /* \"contracts/CryptoPunksOg.sol\":3731:3748  !allPunksAssigned */\n      iszero\n        /* \"contracts/CryptoPunksOg.sol\":3727:3755  if (!allPunksAssigned) throw */\n      iszero\n      tag_203\n      jumpi\n        /* \"contracts/CryptoPunksOg.sol\":3750:3755  throw */\n      0x0\n      dup1\n      revert\n        /* \"contracts/CryptoPunksOg.sol\":3727:3755  if (!allPunksAssigned) throw */\n    tag_203:\n        /* \"contracts/CryptoPunksOg.sol\":3795:3796  0 */\n      0x0\n        /* \"contracts/CryptoPunksOg.sol\":3769:3791  punksRemainingToAssign */\n      sload(0x9)\n        /* \"contracts/CryptoPunksOg.sol\":3769:3796  punksRemainingToAssign == 0 */\n      eq\n        /* \"contracts/CryptoPunksOg.sol\":3765:3803  if (punksRemainingToAssign == 0) throw */\n      iszero\n      tag_204\n      jumpi\n        /* \"contracts/CryptoPunksOg.sol\":3798:3803  throw */\n      0x0\n      dup1\n      revert\n        /* \"contracts/CryptoPunksOg.sol\":3765:3803  if (punksRemainingToAssign == 0) throw */\n    tag_204:\n        /* \"contracts/CryptoPunksOg.sol\":3850:3853  0x0 */\n      0x0\n        /* \"contracts/CryptoPunksOg.sol\":3817:3835  punkIndexToAddress */\n      0xa\n        /* \"contracts/CryptoPunksOg.sol\":3817:3846  punkIndexToAddress[punkIndex] */\n      0x0\n        /* \"contracts/CryptoPunksOg.sol\":3836:3845  punkIndex */\n      dup4\n        /* \"contracts/CryptoPunksOg.sol\":3817:3846  punkIndexToAddress[punkIndex] */\n      dup2\n      mstore\n      0x20\n      add\n      swap1\n      dup2\n      mstore\n      0x20\n      add\n      0x0\n      keccak256\n      0x0\n      swap1\n      sload\n      swap1\n      0x100\n      exp\n      swap1\n      div\n      0xffffffffffffffffffffffffffffffffffffffff\n      and\n        /* \"contracts/CryptoPunksOg.sol\":3817:3853  punkIndexToAddress[punkIndex] != 0x0 */\n      0xffffffffffffffffffffffffffffffffffffffff\n      and\n      eq\n      iszero\n        /* \"contracts/CryptoPunksOg.sol\":3813:3860  if (punkIndexToAddress[punkIndex] != 0x0) throw */\n      iszero\n      tag_205\n      jumpi\n        /* \"contracts/CryptoPunksOg.sol\":3855:3860  throw */\n      0x0\n      dup1\n      revert\n        /* \"contracts/CryptoPunksOg.sol\":3813:3860  if (punkIndexToAddress[punkIndex] != 0x0) throw */\n    tag_205:\n        /* \"contracts/CryptoPunksOg.sol\":3887:3892  10000 */\n      0x2710\n        /* \"contracts/CryptoPunksOg.sol\":3874:3883  punkIndex */\n      dup2\n        /* \"contracts/CryptoPunksOg.sol\":3874:3892  punkIndex >= 10000 */\n      lt\n      iszero\n        /* \"contracts/CryptoPunksOg.sol\":3870:3899  if (punkIndex >= 10000) throw */\n      iszero\n      tag_206\n      jumpi\n        /* \"contracts/CryptoPunksOg.sol\":3894:3899  throw */\n      0x0\n      dup1\n      revert\n        /* \"contracts/CryptoPunksOg.sol\":3870:3899  if (punkIndex >= 10000) throw */\n    tag_206:\n        /* \"contracts/CryptoPunksOg.sol\":3941:3951  msg.sender */\n      caller\n        /* \"contracts/CryptoPunksOg.sol\":3909:3927  punkIndexToAddress */\n      0xa\n        /* \"contracts/CryptoPunksOg.sol\":3909:3938  punkIndexToAddress[punkIndex] */\n      0x0\n        /* \"contracts/CryptoPunksOg.sol\":3928:3937  punkIndex */\n      dup4\n        /* \"contracts/CryptoPunksOg.sol\":3909:3938  punkIndexToAddress[punkIndex] */\n      dup2\n      mstore\n      0x20\n      add\n      swap1\n      dup2\n      mstore\n      0x20\n      add\n      0x0\n      keccak256\n      0x0\n        /* \"contracts/CryptoPunksOg.sol\":3909:3951  punkIndexToAddress[punkIndex] = msg.sender */\n      0x100\n      exp\n      dup2\n      sload\n      dup2\n      0xffffffffffffffffffffffffffffffffffffffff\n      mul\n      not\n      and\n      swap1\n      dup4\n      0xffffffffffffffffffffffffffffffffffffffff\n      and\n      mul\n      or\n      swap1\n      sstore\n      pop\n        /* \"contracts/CryptoPunksOg.sol\":3961:3970  balanceOf */\n      0xb\n        /* \"contracts/CryptoPunksOg.sol\":3961:3982  balanceOf[msg.sender] */\n      0x0\n        /* \"contracts/CryptoPunksOg.sol\":3971:3981  msg.sender */\n      caller\n        /* \"contracts/CryptoPunksOg.sol\":3961:3982  balanceOf[msg.sender] */\n      0xffffffffffffffffffffffffffffffffffffffff\n      and\n      0xffffffffffffffffffffffffffffffffffffffff\n      and\n      dup2\n      mstore\n      0x20\n      add\n      swap1\n      dup2\n      mstore\n      0x20\n      add\n      0x0\n      keccak256\n      0x0\n        /* \"contracts/CryptoPunksOg.sol\":3961:3984  balanceOf[msg.sender]++ */\n      dup2\n      sload\n      dup1\n      swap3\n      swap2\n      swap1\n      0x1\n      add\n      swap2\n      swap1\n      pop\n      sstore\n      pop\n        /* \"contracts/CryptoPunksOg.sol\":3994:4016  punksRemainingToAssign */\n      0x9\n      0x0\n        /* \"contracts/CryptoPunksOg.sol\":3994:4018  punksRemainingToAssign-- */\n      dup2\n      sload\n      dup1\n      swap3\n      swap2\n      swap1\n      0x1\n      swap1\n      sub\n      swap2\n      swap1\n      pop\n      sstore\n      pop\n        /* \"contracts/CryptoPunksOg.sol\":4035:4045  msg.sender */\n      caller\n        /* \"contracts/CryptoPunksOg.sol\":4028:4057  Assign(msg.sender, punkIndex) */\n      0xffffffffffffffffffffffffffffffffffffffff\n      and\n      0x8a0e37b73a0d9c82e205d4d1a3ff3d0b57ce5f4d7bccf6bac03336dc101cb7ba\n        /* \"contracts/CryptoPunksOg.sol\":4047:4056  punkIndex */\n      dup3\n        /* \"contracts/CryptoPunksOg.sol\":4028:4057  Assign(msg.sender, punkIndex) */\n      mload(0x40)\n      dup1\n      dup3\n      dup2\n      mstore\n      0x20\n      add\n      swap2\n      pop\n      pop\n      mload(0x40)\n      dup1\n      swap2\n      sub\n      swap1\n      log2\n        /* \"contracts/CryptoPunksOg.sol\":3684:4064  function getPunk(uint punkIndex) {... */\n      pop\n      jump\t// out\n        /* \"contracts/CryptoPunksOg.sol\":1346:1397  mapping (address => uint) public pendingWithdrawals */\n    tag_120:\n      mstore(0x20, 0xe)\n      dup1\n      0x0\n      mstore\n      keccak256(0x0, 0x40)\n      0x0\n      swap2\n      pop\n      swap1\n      pop\n      sload\n      dup2\n      jump\t// out\n        /* \"contracts/CryptoPunksOg.sol\":5015:5334  function punkNoLongerForSale(uint punkIndex) {... */\n    tag_123:\n        /* \"contracts/CryptoPunksOg.sol\":5075:5091  allPunksAssigned */\n      0x8\n      0x0\n      swap1\n      sload\n      swap1\n      0x100\n      exp\n      swap1\n      div\n      0xff\n      and\n        /* \"contracts/CryptoPunksOg.sol\":5074:5091  !allPunksAssigned */\n      iszero\n        /* \"contracts/CryptoPunksOg.sol\":5070:5098  if (!allPunksAssigned) throw */\n      iszero\n      tag_208\n      jumpi\n        /* \"contracts/CryptoPunksOg.sol\":5093:5098  throw */\n      0x0\n      dup1\n      revert\n        /* \"contracts/CryptoPunksOg.sol\":5070:5098  if (!allPunksAssigned) throw */\n    tag_208:\n        /* \"contracts/CryptoPunksOg.sol\":5145:5155  msg.sender */\n      caller\n        /* \"contracts/CryptoPunksOg.sol\":5112:5155  punkIndexToAddress[punkIndex] != msg.sender */\n      0xffffffffffffffffffffffffffffffffffffffff\n      and\n        /* \"contracts/CryptoPunksOg.sol\":5112:5130  punkIndexToAddress */\n      0xa\n        /* \"contracts/CryptoPunksOg.sol\":5112:5141  punkIndexToAddress[punkIndex] */\n      0x0\n        /* \"contracts/CryptoPunksOg.sol\":5131:5140  punkIndex */\n      dup4\n        /* \"contracts/CryptoPunksOg.sol\":5112:5141  punkIndexToAddress[punkIndex] */\n      dup2\n      mstore\n      0x20\n      add\n      swap1\n      dup2\n      mstore\n      0x20\n      add\n      0x0\n      keccak256\n      0x0\n      swap1\n      sload\n      swap1\n      0x100\n      exp\n      swap1\n      div\n      0xffffffffffffffffffffffffffffffffffffffff\n      and\n        /* \"contracts/CryptoPunksOg.sol\":5112:5155  punkIndexToAddress[punkIndex] != msg.sender */\n      0xffffffffffffffffffffffffffffffffffffffff\n      and\n      eq\n      iszero\n        /* \"contracts/CryptoPunksOg.sol\":5108:5162  if (punkIndexToAddress[punkIndex] != msg.sender) throw */\n      iszero\n      tag_209\n      jumpi\n        /* \"contracts/CryptoPunksOg.sol\":5157:5162  throw */\n      0x0\n      dup1\n      revert\n        /* \"contracts/CryptoPunksOg.sol\":5108:5162  if (punkIndexToAddress[punkIndex] != msg.sender) throw */\n    tag_209:\n        /* \"contracts/CryptoPunksOg.sol\":5189:5194  10000 */\n      0x2710\n        /* \"contracts/CryptoPunksOg.sol\":5176:5185  punkIndex */\n      dup2\n        /* \"contracts/CryptoPunksOg.sol\":5176:5194  punkIndex >= 10000 */\n      lt\n      iszero\n        /* \"contracts/CryptoPunksOg.sol\":5172:5201  if (punkIndex >= 10000) throw */\n      iszero\n      tag_210\n      jumpi\n        /* \"contracts/CryptoPunksOg.sol\":5196:5201  throw */\n      0x0\n      dup1\n      revert\n        /* \"contracts/CryptoPunksOg.sol\":5172:5201  if (punkIndex >= 10000) throw */\n    tag_210:\n        /* \"contracts/CryptoPunksOg.sol\":5244:5287  Offer(false, punkIndex, msg.sender, 0, 0x0) */\n      0xa0\n      mload(0x40)\n      swap1\n      dup2\n      add\n      0x40\n      mstore\n      dup1\n        /* \"contracts/CryptoPunksOg.sol\":5250:5255  false */\n      0x0\n        /* \"contracts/CryptoPunksOg.sol\":5244:5287  Offer(false, punkIndex, msg.sender, 0, 0x0) */\n      iszero\n      iszero\n      dup2\n      mstore\n      0x20\n      add\n        /* \"contracts/CryptoPunksOg.sol\":5257:5266  punkIndex */\n      dup3\n        /* \"contracts/CryptoPunksOg.sol\":5244:5287  Offer(false, punkIndex, msg.sender, 0, 0x0) */\n      dup2\n      mstore\n      0x20\n      add\n        /* \"contracts/CryptoPunksOg.sol\":5268:5278  msg.sender */\n      caller\n        /* \"contracts/CryptoPunksOg.sol\":5244:5287  Offer(false, punkIndex, msg.sender, 0, 0x0) */\n      0xffffffffffffffffffffffffffffffffffffffff\n      and\n      dup2\n      mstore\n      0x20\n      add\n        /* \"contracts/CryptoPunksOg.sol\":5280:5281  0 */\n      0x0\n        /* \"contracts/CryptoPunksOg.sol\":5244:5287  Offer(false, punkIndex, msg.sender, 0, 0x0) */\n      dup2\n      mstore\n      0x20\n      add\n        /* \"contracts/CryptoPunksOg.sol\":5283:5286  0x0 */\n      0x0\n        /* \"contracts/CryptoPunksOg.sol\":5244:5287  Offer(false, punkIndex, msg.sender, 0, 0x0) */\n      0xffffffffffffffffffffffffffffffffffffffff\n      and\n      dup2\n      mstore\n      pop\n        /* \"contracts/CryptoPunksOg.sol\":5211:5230  punksOfferedForSale */\n      0xc\n        /* \"contracts/CryptoPunksOg.sol\":5211:5241  punksOfferedForSale[punkIndex] */\n      0x0\n        /* \"contracts/CryptoPunksOg.sol\":5231:5240  punkIndex */\n      dup4\n        /* \"contracts/CryptoPunksOg.sol\":5211:5241  punksOfferedForSale[punkIndex] */\n      dup2\n      mstore\n      0x20\n      add\n      swap1\n      dup2\n      mstore\n      0x20\n      add\n      0x0\n      keccak256\n        /* \"contracts/CryptoPunksOg.sol\":5211:5287  punksOfferedForSale[punkIndex] = Offer(false, punkIndex, msg.sender, 0, 0x0) */\n      0x0\n      dup3\n      add\n      mload\n      dup2\n      0x0\n      add\n      exp(0x100, 0x0)\n      dup2\n      sload\n      dup2\n      0xff\n      mul\n      not\n      and\n      swap1\n      dup4\n      iszero\n      iszero\n      mul\n      or\n      swap1\n      sstore\n      pop\n      0x20\n      dup3\n      add\n      mload\n      dup2\n      0x1\n      add\n      sstore\n      0x40\n      dup3\n      add\n      mload\n      dup2\n      0x2\n      add\n      exp(0x100, 0x0)\n      dup2\n      sload\n      dup2\n      0xffffffffffffffffffffffffffffffffffffffff\n      mul\n      not\n      and\n      swap1\n      dup4\n      0xffffffffffffffffffffffffffffffffffffffff\n      and\n      mul\n      or\n      swap1\n      sstore\n      pop\n      0x60\n      dup3\n      add\n      mload\n      dup2\n      0x3\n      add\n      sstore\n      0x80\n      dup3\n      add\n      mload\n      dup2\n      0x4\n      add\n      exp(0x100, 0x0)\n      dup2\n      sload\n      dup2\n      0xffffffffffffffffffffffffffffffffffffffff\n      mul\n      not\n      and\n      swap1\n      dup4\n      0xffffffffffffffffffffffffffffffffffffffff\n      and\n      mul\n      or\n      swap1\n      sstore\n      pop\n      swap1\n      pop\n      pop\n        /* \"contracts/CryptoPunksOg.sol\":5317:5326  punkIndex */\n      dup1\n        /* \"contracts/CryptoPunksOg.sol\":5297:5327  PunkNoLongerForSale(punkIndex) */\n      0xb0e0a660b4e50f26f0b7ce75c24655fc76cc66e3334a54ff410277229fa10bd4\n      mload(0x40)\n      mload(0x40)\n      dup1\n      swap2\n      sub\n      swap1\n      log2\n        /* \"contracts/CryptoPunksOg.sol\":5015:5334  function punkNoLongerForSale(uint punkIndex) {... */\n      pop\n      jump\t// out\n\n    auxdata: 0xa165627a7a723058201f9fb0b3ed734d247853694a109c191b546685277ec9a3fb991ac14feecb25d70029\n}\n",
				"bytecode": {
					"linkReferences": {},
					"object": "6080604052606060405190810160405280604081526020017f616333396166343739333131396565343662626666333531643863623662356681526020017f32336461363032323231323661646434323638653236313139396132393231628152506000908051906020019062000078929190620001fd565b506040805190810160405280600b81526020017f43727970746f50756e6b7300000000000000000000000000000000000000000081525060029080519060200190620000c6929190620001fd565b5060006007556000600860006101000a81548160ff021916908315150217905550600060095533600160006101000a81548173ffffffffffffffffffffffffffffffffffffffff021916908373ffffffffffffffffffffffffffffffffffffffff1602179055506127106006819055506006546009819055506040805190810160405280600b81526020017f43525950544f50554e4b53000000000000000000000000000000000000000000815250600390805190602001906200018c929190620001fd565b506040805190810160405280600281526020017fcfbe00000000000000000000000000000000000000000000000000000000000081525060049080519060200190620001da929190620001fd565b506000600560006101000a81548160ff021916908360ff160217905550620002ac565b828054600181600116156101000203166002900490600052602060002090601f016020900481019282601f106200024057805160ff191683800117855562000271565b8280016001018555821562000271579182015b828111156200027057825182559160200191906001019062000253565b5b50905062000280919062000284565b5090565b620002a991905b80821115620002a55760008160009055506001016200028b565b5090565b90565b612f7780620002bc6000396000f30060806040526004361061015f576000357c0100000000000000000000000000000000000000000000000000000000900463ffffffff16806306fdde0314610164578063088f11f3146101f4578063091dbfd2146102ad57806318160ddd146102cd57806323165b75146102f8578063313ce5671461032f57806339c5dde6146103605780633ccfd60b1461040957806351605d801461042057806352f29a25146104b057806358178168146104db5780635a3b7e42146105485780636e743fa9146105d857806370a082311461065e5780637ecedac9146106b55780638126c38a146106cc5780638264fe98146106fb5780638b72a2ec1461071b57806395d89b4114610768578063979bc638146107f8578063a75a904914610825578063bf31196f14610872578063c0d6ce63146108c9578063c44193c3146108f4578063c81d1d5b1461092b578063f3f4370314610958578063f6eeff1e146109af575b600080fd5b34801561017057600080fd5b506101796109dc565b6040518080602001828103825283818151815260200191508051906020019080838360005b838110156101b957808201518184015260208101905061019e565b50505050905090810190601f1680156101e65780820380516001836020036101000a031916815260200191505b509250505060405180910390f35b34801561020057600080fd5b5061021f60048036038101908080359060200190929190505050610a7a565b60405180861515151581526020018581526020018473ffffffffffffffffffffffffffffffffffffffff1673ffffffffffffffffffffffffffffffffffffffff1681526020018381526020018273ffffffffffffffffffffffffffffffffffffffff1673ffffffffffffffffffffffffffffffffffffffff1681526020019550505050505060405180910390f35b6102cb60048036038101908080359060200190929190505050610afd565b005b3480156102d957600080fd5b506102e2610dc4565b6040518082815260200191505060405180910390f35b34801561030457600080fd5b5061032d6004803603810190808035906020019092919080359060200190929190505050610dca565b005b34801561033b57600080fd5b50610344611371565b604051808260ff1660ff16815260200191505060405180910390f35b34801561036c57600080fd5b506104076004803603810190808035906020019082018035906020019080806020026020016040519081016040528093929190818152602001838360200280828437820191505050505050919291929080359060200190820180359060200190808060200260200160405190810160405280939291908181526020018383602002808284378201915050505050509192919290505050611384565b005b34801561041557600080fd5b5061041e61143f565b005b34801561042c57600080fd5b5061043561152d565b6040518080602001828103825283818151815260200191508051906020019080838360005b8381101561047557808201518184015260208101905061045a565b50505050905090810190601f1680156104a25780820380516001836020036101000a031916815260200191505b509250505060405180910390f35b3480156104bc57600080fd5b506104c56115cb565b6040518082815260200191505060405180910390f35b3480156104e757600080fd5b50610506600480360381019080803590602001909291905050506115d1565b604051808273ffffffffffffffffffffffffffffffffffffffff1673ffffffffffffffffffffffffffffffffffffffff16815260200191505060405180910390f35b34801561055457600080fd5b5061055d611604565b6040518080602001828103825283818151815260200191508051906020019080838360005b8381101561059d578082015181840152602081019050610582565b50505050905090810190601f1680156105ca5780820380516001836020036101000a031916815260200191505b509250505060405180910390f35b3480156105e457600080fd5b50610603600480360381019080803590602001909291905050506116a2565b60405180851515151581526020018481526020018373ffffffffffffffffffffffffffffffffffffffff1673ffffffffffffffffffffffffffffffffffffffff16815260200182815260200194505050505060405180910390f35b34801561066a57600080fd5b5061069f600480360381019080803573ffffffffffffffffffffffffffffffffffffffff1690602001909291905050506116ff565b6040518082815260200191505060405180910390f35b3480156106c157600080fd5b506106ca611717565b005b3480156106d857600080fd5b506106e1611790565b604051808215151515815260200191505060405180910390f35b610719600480360381019080803590602001909291905050506117a3565b005b34801561072757600080fd5b50610766600480360381019080803573ffffffffffffffffffffffffffffffffffffffff16906020019092919080359060200190929190505050611d19565b005b34801561077457600080fd5b5061077d612134565b6040518080602001828103825283818151815260200191508051906020019080838360005b838110156107bd5780820151818401526020810190506107a2565b50505050905090810190601f1680156107ea5780820380516001836020036101000a031916815260200191505b509250505060405180910390f35b34801561080457600080fd5b50610823600480360381019080803590602001909291905050506121d2565b005b34801561083157600080fd5b50610870600480360381019080803573ffffffffffffffffffffffffffffffffffffffff169060200190929190803590602001909291905050506124aa565b005b34801561087e57600080fd5b506108c76004803603810190808035906020019092919080359060200190929190803573ffffffffffffffffffffffffffffffffffffffff16906020019092919050505061277b565b005b3480156108d557600080fd5b506108de612996565b6040518082815260200191505060405180910390f35b34801561090057600080fd5b50610929600480360381019080803590602001909291908035906020019092919050505061299c565b005b34801561093757600080fd5b5061095660048036038101908080359060200190929190505050612ba2565b005b34801561096457600080fd5b50610999600480360381019080803573ffffffffffffffffffffffffffffffffffffffff169060200190929190505050612d3a565b6040518082815260200191505060405180910390f35b3480156109bb57600080fd5b506109da60048036038101908080359060200190929190505050612d52565b005b60038054600181600116156101000203166002900480601f016020809104026020016040519081016040528092919081815260200182805460018160011615610100020316600290048015610a725780601f10610a4757610100808354040283529160200191610a72565b820191906000526020600020905b815481529060010190602001808311610a5557829003601f168201915b505050505081565b600c6020528060005260406000206000915090508060000160009054906101000a900460ff16908060010154908060020160009054906101000a900473ffffffffffffffffffffffffffffffffffffffff16908060030154908060040160009054906101000a900473ffffffffffffffffffffffffffffffffffffffff16905085565b600061271082101515610b0f57600080fd5b600860009054906101000a900460ff161515610b2a57600080fd5b6000600a600084815260200190815260200160002060009054906101000a900473ffffffffffffffffffffffffffffffffffffffff1673ffffffffffffffffffffffffffffffffffffffff161415610b8157600080fd5b3373ffffffffffffffffffffffffffffffffffffffff16600a600084815260200190815260200160002060009054906101000a900473ffffffffffffffffffffffffffffffffffffffff1673ffffffffffffffffffffffffffffffffffffffff161415610bed57600080fd5b6000341415610bfb57600080fd5b600d60008381526020019081526020016000209050806003015434111515610c2257600080fd5b600081600301541115610ca5578060030154600e60008360020160009054906101000a900473ffffffffffffffffffffffffffffffffffffffff1673ffffffffffffffffffffffffffffffffffffffff1673ffffffffffffffffffffffffffffffffffffffff168152602001908152602001600020600082825401925050819055505b6080604051908101604052806001151581526020018381526020013373ffffffffffffffffffffffffffffffffffffffff16815260200134815250600d600084815260200190815260200160002060008201518160000160006101000a81548160ff0219169083151502179055506020820151816001015560408201518160020160006101000a81548173ffffffffffffffffffffffffffffffffffffffff021916908373ffffffffffffffffffffffffffffffffffffffff160217905550606082015181600301559050503373ffffffffffffffffffffffffffffffffffffffff16827f5b859394fabae0c1ba88baffe67e751ab5248d2e879028b8c8d6897b0519f56a346040518082815260200191505060405180910390a35050565b60065481565b600080600061271085101515610ddf57600080fd5b600860009054906101000a900460ff161515610dfa57600080fd5b3373ffffffffffffffffffffffffffffffffffffffff16600a600087815260200190815260200160002060009054906101000a900473ffffffffffffffffffffffffffffffffffffffff1673ffffffffffffffffffffffffffffffffffffffff16141515610e6757600080fd5b339250600d60008681526020019081526020016000209150600082600301541415610e9157600080fd5b8382600301541015610ea257600080fd5b8160020160009054906101000a900473ffffffffffffffffffffffffffffffffffffffff16600a600087815260200190815260200160002060006101000a81548173ffffffffffffffffffffffffffffffffffffffff021916908373ffffffffffffffffffffffffffffffffffffffff160217905550600b60008473ffffffffffffffffffffffffffffffffffffffff1673ffffffffffffffffffffffffffffffffffffffff1681526020019081526020016000206000815480929190600190039190505550600b60008360020160009054906101000a900473ffffffffffffffffffffffffffffffffffffffff1673ffffffffffffffffffffffffffffffffffffffff1673ffffffffffffffffffffffffffffffffffffffff168152602001908152602001600020600081548092919060010191905055508160020160009054906101000a900473ffffffffffffffffffffffffffffffffffffffff1673ffffffffffffffffffffffffffffffffffffffff168373ffffffffffffffffffffffffffffffffffffffff167fddf252ad1be2c89b69c2b068fc378daa952ba7f163c4a11628f55a4df523b3ef60016040518082815260200191505060405180910390a360a0604051908101604052806000151581526020018681526020018360020160009054906101000a900473ffffffffffffffffffffffffffffffffffffffff1673ffffffffffffffffffffffffffffffffffffffff16815260200160008152602001600073ffffffffffffffffffffffffffffffffffffffff16815250600c600087815260200190815260200160002060008201518160000160006101000a81548160ff0219169083151502179055506020820151816001015560408201518160020160006101000a81548173ffffffffffffffffffffffffffffffffffffffff021916908373ffffffffffffffffffffffffffffffffffffffff1602179055506060820151816003015560808201518160040160006101000a81548173ffffffffffffffffffffffffffffffffffffffff021916908373ffffffffffffffffffffffffffffffffffffffff16021790555090505081600301549050608060405190810160405280600015158152602001868152602001600073ffffffffffffffffffffffffffffffffffffffff1681526020016000815250600d600087815260200190815260200160002060008201518160000160006101000a81548160ff0219169083151502179055506020820151816001015560408201518160020160006101000a81548173ffffffffffffffffffffffffffffffffffffffff021916908373ffffffffffffffffffffffffffffffffffffffff1602179055506060820151816003015590505080600e60008573ffffffffffffffffffffffffffffffffffffffff1673ffffffffffffffffffffffffffffffffffffffff168152602001908152602001600020600082825401925050819055508160020160009054906101000a900473ffffffffffffffffffffffffffffffffffffffff1673ffffffffffffffffffffffffffffffffffffffff168373ffffffffffffffffffffffffffffffffffffffff16867f58e5d5a525e3b40bc15abaa38b5882678db1ee68befd2f60bafe3a7fd06db9e385600301546040518082815260200191505060405180910390a45050505050565b600560009054906101000a900460ff1681565b600080600160009054906101000a900473ffffffffffffffffffffffffffffffffffffffff1673ffffffffffffffffffffffffffffffffffffffff163373ffffffffffffffffffffffffffffffffffffffff161415156113e357600080fd5b83519150600090505b818110156114395761142c848281518110151561140557fe5b90602001906020020151848381518110151561141d57fe5b906020019060200201516124aa565b80806001019150506113ec565b50505050565b6000600860009054906101000a900460ff16151561145c57600080fd5b600e60003373ffffffffffffffffffffffffffffffffffffffff1673ffffffffffffffffffffffffffffffffffffffff1681526020019081526020016000205490506000600e60003373ffffffffffffffffffffffffffffffffffffffff1673ffffffffffffffffffffffffffffffffffffffff168152602001908152602001600020819055503373ffffffffffffffffffffffffffffffffffffffff166108fc829081150290604051600060405180830381858888f19350505050158015611529573d6000803e3d6000fd5b5050565b60008054600181600116156101000203166002900480601f0160208091040260200160405190810160405280929190818152602001828054600181600116156101000203166002900480156115c35780601f10611598576101008083540402835291602001916115c3565b820191906000526020600020905b8154815290600101906020018083116115a657829003601f168201915b505050505081565b60075481565b600a6020528060005260406000206000915054906101000a900473ffffffffffffffffffffffffffffffffffffffff1681565b60028054600181600116156101000203166002900480601f01602080910402602001604051908101604052809291908181526020018280546001816001161561010002031660029004801561169a5780601f1061166f5761010080835404028352916020019161169a565b820191906000526020600020905b81548152906001019060200180831161167d57829003601f168201915b505050505081565b600d6020528060005260406000206000915090508060000160009054906101000a900460ff16908060010154908060020160009054906101000a900473ffffffffffffffffffffffffffffffffffffffff16908060030154905084565b600b6020528060005260406000206000915090505481565b600160009054906101000a900473ffffffffffffffffffffffffffffffffffffffff1673ffffffffffffffffffffffffffffffffffffffff163373ffffffffffffffffffffffffffffffffffffffff1614151561177357600080fd5b6001600860006101000a81548160ff021916908315150217905550565b600860009054906101000a900460ff1681565b6000806000600860009054906101000a900460ff1615156117c357600080fd5b600c60008581526020019081526020016000209250612710841015156117e857600080fd5b8260000160009054906101000a900460ff16151561180557600080fd5b60008360040160009054906101000a900473ffffffffffffffffffffffffffffffffffffffff1673ffffffffffffffffffffffffffffffffffffffff16141580156118a057503373ffffffffffffffffffffffffffffffffffffffff168360040160009054906101000a900473ffffffffffffffffffffffffffffffffffffffff1673ffffffffffffffffffffffffffffffffffffffff1614155b156118aa57600080fd5b82600301543410156118bb57600080fd5b600a600085815260200190815260200160002060009054906101000a900473ffffffffffffffffffffffffffffffffffffffff1673ffffffffffffffffffffffffffffffffffffffff168360020160009054906101000a900473ffffffffffffffffffffffffffffffffffffffff1673ffffffffffffffffffffffffffffffffffffffff1614151561194c57600080fd5b8260020160009054906101000a900473ffffffffffffffffffffffffffffffffffffffff16915033600a600086815260200190815260200160002060006101000a81548173ffffffffffffffffffffffffffffffffffffffff021916908373ffffffffffffffffffffffffffffffffffffffff160217905550600b60008373ffffffffffffffffffffffffffffffffffffffff1673ffffffffffffffffffffffffffffffffffffffff1681526020019081526020016000206000815480929190600190039190505550600b60003373ffffffffffffffffffffffffffffffffffffffff1673ffffffffffffffffffffffffffffffffffffffff168152602001908152602001600020600081548092919060010191905055503373ffffffffffffffffffffffffffffffffffffffff168273ffffffffffffffffffffffffffffffffffffffff167fddf252ad1be2c89b69c2b068fc378daa952ba7f163c4a11628f55a4df523b3ef60016040518082815260200191505060405180910390a3611ad384612d52565b34600e60008473ffffffffffffffffffffffffffffffffffffffff1673ffffffffffffffffffffffffffffffffffffffff168152602001908152602001600020600082825401925050819055503373ffffffffffffffffffffffffffffffffffffffff168273ffffffffffffffffffffffffffffffffffffffff16857f58e5d5a525e3b40bc15abaa38b5882678db1ee68befd2f60bafe3a7fd06db9e3346040518082815260200191505060405180910390a4600d600085815260200190815260200160002090503373ffffffffffffffffffffffffffffffffffffffff168160020160009054906101000a900473ffffffffffffffffffffffffffffffffffffffff1673ffffffffffffffffffffffffffffffffffffffff161415611d13578060030154600e60003373ffffffffffffffffffffffffffffffffffffffff1673ffffffffffffffffffffffffffffffffffffffff16815260200190815260200160002060008282540192505081905550608060405190810160405280600015158152602001858152602001600073ffffffffffffffffffffffffffffffffffffffff1681526020016000815250600d600086815260200190815260200160002060008201518160000160006101000a81548160ff0219169083151502179055506020820151816001015560408201518160020160006101000a81548173ffffffffffffffffffffffffffffffffffffffff021916908373ffffffffffffffffffffffffffffffffffffffff160217905550606082015181600301559050505b50505050565b6000600860009054906101000a900460ff161515611d3657600080fd5b3373ffffffffffffffffffffffffffffffffffffffff16600a600084815260200190815260200160002060009054906101000a900473ffffffffffffffffffffffffffffffffffffffff1673ffffffffffffffffffffffffffffffffffffffff16141515611da357600080fd5b61271082101515611db357600080fd5b600c600083815260200190815260200160002060000160009054906101000a900460ff1615611de657611de582612d52565b5b82600a600084815260200190815260200160002060006101000a81548173ffffffffffffffffffffffffffffffffffffffff021916908373ffffffffffffffffffffffffffffffffffffffff160217905550600b60003373ffffffffffffffffffffffffffffffffffffffff1673ffffffffffffffffffffffffffffffffffffffff1681526020019081526020016000206000815480929190600190039190505550600b60008473ffffffffffffffffffffffffffffffffffffffff1673ffffffffffffffffffffffffffffffffffffffff168152602001908152602001600020600081548092919060010191905055508273ffffffffffffffffffffffffffffffffffffffff163373ffffffffffffffffffffffffffffffffffffffff167fddf252ad1be2c89b69c2b068fc378daa952ba7f163c4a11628f55a4df523b3ef60016040518082815260200191505060405180910390a38273ffffffffffffffffffffffffffffffffffffffff163373ffffffffffffffffffffffffffffffffffffffff167f05af636b70da6819000c49f85b21fa82081c632069bb626f30932034099107d8846040518082815260200191505060405180910390a3600d600083815260200190815260200160002090508273ffffffffffffffffffffffffffffffffffffffff168160020160009054906101000a900473ffffffffffffffffffffffffffffffffffffffff1673ffffffffffffffffffffffffffffffffffffffff16141561212f578060030154600e60008573ffffffffffffffffffffffffffffffffffffffff1673ffffffffffffffffffffffffffffffffffffffff16815260200190815260200160002060008282540192505081905550608060405190810160405280600015158152602001838152602001600073ffffffffffffffffffffffffffffffffffffffff1681526020016000815250600d600084815260200190815260200160002060008201518160000160006101000a81548160ff0219169083151502179055506020820151816001015560408201518160020160006101000a81548173ffffffffffffffffffffffffffffffffffffffff021916908373ffffffffffffffffffffffffffffffffffffffff160217905550606082015181600301559050505b505050565b60048054600181600116156101000203166002900480601f0160208091040260200160405190810160405280929190818152602001828054600181600116156101000203166002900480156121ca5780601f1061219f576101008083540402835291602001916121ca565b820191906000526020600020905b8154815290600101906020018083116121ad57829003601f168201915b505050505081565b600080612710831015156121e557600080fd5b600860009054906101000a900460ff16151561220057600080fd5b6000600a600085815260200190815260200160002060009054906101000a900473ffffffffffffffffffffffffffffffffffffffff1673ffffffffffffffffffffffffffffffffffffffff16141561225757600080fd5b3373ffffffffffffffffffffffffffffffffffffffff16600a600085815260200190815260200160002060009054906101000a900473ffffffffffffffffffffffffffffffffffffffff1673ffffffffffffffffffffffffffffffffffffffff1614156122c357600080fd5b600d600084815260200190815260200160002091503373ffffffffffffffffffffffffffffffffffffffff168260020160009054906101000a900473ffffffffffffffffffffffffffffffffffffffff1673ffffffffffffffffffffffffffffffffffffffff1614151561233657600080fd5b3373ffffffffffffffffffffffffffffffffffffffff16837f6f30e1ee4d81dcc7a8a478577f65d2ed2edb120565960ac45fe7c50551c8793284600301546040518082815260200191505060405180910390a381600301549050608060405190810160405280600015158152602001848152602001600073ffffffffffffffffffffffffffffffffffffffff1681526020016000815250600d600085815260200190815260200160002060008201518160000160006101000a81548160ff0219169083151502179055506020820151816001015560408201518160020160006101000a81548173ffffffffffffffffffffffffffffffffffffffff021916908373ffffffffffffffffffffffffffffffffffffffff160217905550606082015181600301559050503373ffffffffffffffffffffffffffffffffffffffff166108fc829081150290604051600060405180830381858888f193505050501580156124a4573d6000803e3d6000fd5b50505050565b600160009054906101000a900473ffffffffffffffffffffffffffffffffffffffff1673ffffffffffffffffffffffffffffffffffffffff163373ffffffffffffffffffffffffffffffffffffffff1614151561250657600080fd5b600860009054906101000a900460ff161561252057600080fd5b6127108110151561253057600080fd5b8173ffffffffffffffffffffffffffffffffffffffff16600a600083815260200190815260200160002060009054906101000a900473ffffffffffffffffffffffffffffffffffffffff1673ffffffffffffffffffffffffffffffffffffffff16141515612777576000600a600083815260200190815260200160002060009054906101000a900473ffffffffffffffffffffffffffffffffffffffff1673ffffffffffffffffffffffffffffffffffffffff1614151561267357600b6000600a600084815260200190815260200160002060009054906101000a900473ffffffffffffffffffffffffffffffffffffffff1673ffffffffffffffffffffffffffffffffffffffff1673ffffffffffffffffffffffffffffffffffffffff1681526020019081526020016000206000815480929190600190039190505550612687565b600960008154809291906001900391905055505b81600a600083815260200190815260200160002060006101000a81548173ffffffffffffffffffffffffffffffffffffffff021916908373ffffffffffffffffffffffffffffffffffffffff160217905550600b60008373ffffffffffffffffffffffffffffffffffffffff1673ffffffffffffffffffffffffffffffffffffffff168152602001908152602001600020600081548092919060010191905055508173ffffffffffffffffffffffffffffffffffffffff167f8a0e37b73a0d9c82e205d4d1a3ff3d0b57ce5f4d7bccf6bac03336dc101cb7ba826040518082815260200191505060405180910390a25b5050565b600860009054906101000a900460ff16151561279657600080fd5b3373ffffffffffffffffffffffffffffffffffffffff16600a600085815260200190815260200160002060009054906101000a900473ffffffffffffffffffffffffffffffffffffffff1673ffffffffffffffffffffffffffffffffffffffff1614151561280357600080fd5b6127108310151561281357600080fd5b60a0604051908101604052806001151581526020018481526020013373ffffffffffffffffffffffffffffffffffffffff1681526020018381526020018273ffffffffffffffffffffffffffffffffffffffff16815250600c600085815260200190815260200160002060008201518160000160006101000a81548160ff0219169083151502179055506020820151816001015560408201518160020160006101000a81548173ffffffffffffffffffffffffffffffffffffffff021916908373ffffffffffffffffffffffffffffffffffffffff1602179055506060820151816003015560808201518160040160006101000a81548173ffffffffffffffffffffffffffffffffffffffff021916908373ffffffffffffffffffffffffffffffffffffffff1602179055509050508073ffffffffffffffffffffffffffffffffffffffff16837f3c7b682d5da98001a9b8cbda6c647d2c63d698a4184fd1d55e2ce7b66f5d21eb846040518082815260200191505060405180910390a3505050565b60095481565b600860009054906101000a900460ff1615156129b757600080fd5b3373ffffffffffffffffffffffffffffffffffffffff16600a600084815260200190815260200160002060009054906101000a900473ffffffffffffffffffffffffffffffffffffffff1673ffffffffffffffffffffffffffffffffffffffff16141515612a2457600080fd5b61271082101515612a3457600080fd5b60a0604051908101604052806001151581526020018381526020013373ffffffffffffffffffffffffffffffffffffffff168152602001828152602001600073ffffffffffffffffffffffffffffffffffffffff16815250600c600084815260200190815260200160002060008201518160000160006101000a81548160ff0219169083151502179055506020820151816001015560408201518160020160006101000a81548173ffffffffffffffffffffffffffffffffffffffff021916908373ffffffffffffffffffffffffffffffffffffffff1602179055506060820151816003015560808201518160040160006101000a81548173ffffffffffffffffffffffffffffffffffffffff021916908373ffffffffffffffffffffffffffffffffffffffff1602179055509050506000827f3c7b682d5da98001a9b8cbda6c647d2c63d698a4184fd1d55e2ce7b66f5d21eb836040518082815260200191505060405180910390a35050565b600860009054906101000a900460ff161515612bbd57600080fd5b60006009541415612bcd57600080fd5b6000600a600083815260200190815260200160002060009054906101000a900473ffffffffffffffffffffffffffffffffffffffff1673ffffffffffffffffffffffffffffffffffffffff16141515612c2557600080fd5b61271081101515612c3557600080fd5b33600a600083815260200190815260200160002060006101000a81548173ffffffffffffffffffffffffffffffffffffffff021916908373ffffffffffffffffffffffffffffffffffffffff160217905550600b60003373ffffffffffffffffffffffffffffffffffffffff1673ffffffffffffffffffffffffffffffffffffffff16815260200190815260200160002060008154809291906001019190505550600960008154809291906001900391905055503373ffffffffffffffffffffffffffffffffffffffff167f8a0e37b73a0d9c82e205d4d1a3ff3d0b57ce5f4d7bccf6bac03336dc101cb7ba826040518082815260200191505060405180910390a250565b600e6020528060005260406000206000915090505481565b600860009054906101000a900460ff161515612d6d57600080fd5b3373ffffffffffffffffffffffffffffffffffffffff16600a600083815260200190815260200160002060009054906101000a900473ffffffffffffffffffffffffffffffffffffffff1673ffffffffffffffffffffffffffffffffffffffff16141515612dda57600080fd5b61271081101515612dea57600080fd5b60a0604051908101604052806000151581526020018281526020013373ffffffffffffffffffffffffffffffffffffffff16815260200160008152602001600073ffffffffffffffffffffffffffffffffffffffff16815250600c600083815260200190815260200160002060008201518160000160006101000a81548160ff0219169083151502179055506020820151816001015560408201518160020160006101000a81548173ffffffffffffffffffffffffffffffffffffffff021916908373ffffffffffffffffffffffffffffffffffffffff1602179055506060820151816003015560808201518160040160006101000a81548173ffffffffffffffffffffffffffffffffffffffff021916908373ffffffffffffffffffffffffffffffffffffffff160217905550905050807fb0e0a660b4e50f26f0b7ce75c24655fc76cc66e3334a54ff410277229fa10bd460405160405180910390a2505600a165627a7a723058201f9fb0b3ed734d247853694a109c191b546685277ec9a3fb991ac14feecb25d70029",
					"opcodes": "PUSH1 0x80 PUSH1 0x40 MSTORE PUSH1 0x60 PUSH1 0x40 MLOAD SWAP1 DUP2 ADD PUSH1 0x40 MSTORE DUP1 PUSH1 0x40 DUP2 MSTORE PUSH1 0x20 ADD PUSH32 0x6163333961663437393331313965653436626266663335316438636236623566 DUP2 MSTORE PUSH1 0x20 ADD PUSH32 0x3233646136303232323132366164643432363865323631313939613239323162 DUP2 MSTORE POP PUSH1 0x0 SWAP1 DUP1 MLOAD SWAP1 PUSH1 0x20 ADD SWAP1 PUSH3 0x78 SWAP3 SWAP2 SWAP1 PUSH3 0x1FD JUMP JUMPDEST POP PUSH1 0x40 DUP1 MLOAD SWAP1 DUP2 ADD PUSH1 0x40 MSTORE DUP1 PUSH1 0xB DUP2 MSTORE PUSH1 0x20 ADD PUSH32 0x43727970746F50756E6B73000000000000000000000000000000000000000000 DUP2 MSTORE POP PUSH1 0x2 SWAP1 DUP1 MLOAD SWAP1 PUSH1 0x20 ADD SWAP1 PUSH3 0xC6 SWAP3 SWAP2 SWAP1 PUSH3 0x1FD JUMP JUMPDEST POP PUSH1 0x0 PUSH1 0x7 SSTORE PUSH1 0x0 PUSH1 0x8 PUSH1 0x0 PUSH2 0x100 EXP DUP2 SLOAD DUP2 PUSH1 0xFF MUL NOT AND SWAP1 DUP4 ISZERO ISZERO MUL OR SWAP1 SSTORE POP PUSH1 0x0 PUSH1 0x9 SSTORE CALLER PUSH1 0x1 PUSH1 0x0 PUSH2 0x100 EXP DUP2 SLOAD DUP2 PUSH20 0xFFFFFFFFFFFFFFFFFFFFFFFFFFFFFFFFFFFFFFFF MUL NOT AND SWAP1 DUP4 PUSH20 0xFFFFFFFFFFFFFFFFFFFFFFFFFFFFFFFFFFFFFFFF AND MUL OR SWAP1 SSTORE POP PUSH2 0x2710 PUSH1 0x6 DUP2 SWAP1 SSTORE POP PUSH1 0x6 SLOAD PUSH1 0x9 DUP2 SWAP1 SSTORE POP PUSH1 0x40 DUP1 MLOAD SWAP1 DUP2 ADD PUSH1 0x40 MSTORE DUP1 PUSH1 0xB DUP2 MSTORE PUSH1 0x20 ADD PUSH32 0x43525950544F50554E4B53000000000000000000000000000000000000000000 DUP2 MSTORE POP PUSH1 0x3 SWAP1 DUP1 MLOAD SWAP1 PUSH1 0x20 ADD SWAP1 PUSH3 0x18C SWAP3 SWAP2 SWAP1 PUSH3 0x1FD JUMP JUMPDEST POP PUSH1 0x40 DUP1 MLOAD SWAP1 DUP2 ADD PUSH1 0x40 MSTORE DUP1 PUSH1 0x2 DUP2 MSTORE PUSH1 0x20 ADD PUSH32 0xCFBE000000000000000000000000000000000000000000000000000000000000 DUP2 MSTORE POP PUSH1 0x4 SWAP1 DUP1 MLOAD SWAP1 PUSH1 0x20 ADD SWAP1 PUSH3 0x1DA SWAP3 SWAP2 SWAP1 PUSH3 0x1FD JUMP JUMPDEST POP PUSH1 0x0 PUSH1 0x5 PUSH1 0x0 PUSH2 0x100 EXP DUP2 SLOAD DUP2 PUSH1 0xFF MUL NOT AND SWAP1 DUP4 PUSH1 0xFF AND MUL OR SWAP1 SSTORE POP PUSH3 0x2AC JUMP JUMPDEST DUP3 DUP1 SLOAD PUSH1 0x1 DUP2 PUSH1 0x1 AND ISZERO PUSH2 0x100 MUL SUB AND PUSH1 0x2 SWAP1 DIV SWAP1 PUSH1 0x0 MSTORE PUSH1 0x20 PUSH1 0x0 KECCAK256 SWAP1 PUSH1 0x1F ADD PUSH1 0x20 SWAP1 DIV DUP2 ADD SWAP3 DUP3 PUSH1 0x1F LT PUSH3 0x240 JUMPI DUP1 MLOAD PUSH1 0xFF NOT AND DUP4 DUP1 ADD OR DUP6 SSTORE PUSH3 0x271 JUMP JUMPDEST DUP3 DUP1 ADD PUSH1 0x1 ADD DUP6 SSTORE DUP3 ISZERO PUSH3 0x271 JUMPI SWAP2 DUP3 ADD JUMPDEST DUP3 DUP2 GT ISZERO PUSH3 0x270 JUMPI DUP3 MLOAD DUP3 SSTORE SWAP2 PUSH1 0x20 ADD SWAP2 SWAP1 PUSH1 0x1 ADD SWAP1 PUSH3 0x253 JUMP JUMPDEST JUMPDEST POP SWAP1 POP PUSH3 0x280 SWAP2 SWAP1 PUSH3 0x284 JUMP JUMPDEST POP SWAP1 JUMP JUMPDEST PUSH3 0x2A9 SWAP2 SWAP1 JUMPDEST DUP1 DUP3 GT ISZERO PUSH3 0x2A5 JUMPI PUSH1 0x0 DUP2 PUSH1 0x0 SWAP1 SSTORE POP PUSH1 0x1 ADD PUSH3 0x28B JUMP JUMPDEST POP SWAP1 JUMP JUMPDEST SWAP1 JUMP JUMPDEST PUSH2 0x2F77 DUP1 PUSH3 0x2BC PUSH1 0x0 CODECOPY PUSH1 0x0 RETURN STOP PUSH1 0x80 PUSH1 0x40 MSTORE PUSH1 0x4 CALLDATASIZE LT PUSH2 0x15F JUMPI PUSH1 0x0 CALLDATALOAD PUSH29 0x100000000000000000000000000000000000000000000000000000000 SWAP1 DIV PUSH4 0xFFFFFFFF AND DUP1 PUSH4 0x6FDDE03 EQ PUSH2 0x164 JUMPI DUP1 PUSH4 0x88F11F3 EQ PUSH2 0x1F4 JUMPI DUP1 PUSH4 0x91DBFD2 EQ PUSH2 0x2AD JUMPI DUP1 PUSH4 0x18160DDD EQ PUSH2 0x2CD JUMPI DUP1 PUSH4 0x23165B75 EQ PUSH2 0x2F8 JUMPI DUP1 PUSH4 0x313CE567 EQ PUSH2 0x32F JUMPI DUP1 PUSH4 0x39C5DDE6 EQ PUSH2 0x360 JUMPI DUP1 PUSH4 0x3CCFD60B EQ PUSH2 0x409 JUMPI DUP1 PUSH4 0x51605D80 EQ PUSH2 0x420 JUMPI DUP1 PUSH4 0x52F29A25 EQ PUSH2 0x4B0 JUMPI DUP1 PUSH4 0x58178168 EQ PUSH2 0x4DB JUMPI DUP1 PUSH4 0x5A3B7E42 EQ PUSH2 0x548 JUMPI DUP1 PUSH4 0x6E743FA9 EQ PUSH2 0x5D8 JUMPI DUP1 PUSH4 0x70A08231 EQ PUSH2 0x65E JUMPI DUP1 PUSH4 0x7ECEDAC9 EQ PUSH2 0x6B5 JUMPI DUP1 PUSH4 0x8126C38A EQ PUSH2 0x6CC JUMPI DUP1 PUSH4 0x8264FE98 EQ PUSH2 0x6FB JUMPI DUP1 PUSH4 0x8B72A2EC EQ PUSH2 0x71B JUMPI DUP1 PUSH4 0x95D89B41 EQ PUSH2 0x768 JUMPI DUP1 PUSH4 0x979BC638 EQ PUSH2 0x7F8 JUMPI DUP1 PUSH4 0xA75A9049 EQ PUSH2 0x825 JUMPI DUP1 PUSH4 0xBF31196F EQ PUSH2 0x872 JUMPI DUP1 PUSH4 0xC0D6CE63 EQ PUSH2 0x8C9 JUMPI DUP1 PUSH4 0xC44193C3 EQ PUSH2 0x8F4 JUMPI DUP1 PUSH4 0xC81D1D5B EQ PUSH2 0x92B JUMPI DUP1 PUSH4 0xF3F43703 EQ PUSH2 0x958 JUMPI DUP1 PUSH4 0xF6EEFF1E EQ PUSH2 0x9AF JUMPI JUMPDEST PUSH1 0x0 DUP1 REVERT JUMPDEST CALLVALUE DUP1 ISZERO PUSH2 0x170 JUMPI PUSH1 0x0 DUP1 REVERT JUMPDEST POP PUSH2 0x179 PUSH2 0x9DC JUMP JUMPDEST PUSH1 0x40 MLOAD DUP1 DUP1 PUSH1 0x20 ADD DUP3 DUP2 SUB DUP3 MSTORE DUP4 DUP2 DUP2 MLOAD DUP2 MSTORE PUSH1 0x20 ADD SWAP2 POP DUP1 MLOAD SWAP1 PUSH1 0x20 ADD SWAP1 DUP1 DUP4 DUP4 PUSH1 0x0 JUMPDEST DUP4 DUP2 LT ISZERO PUSH2 0x1B9 JUMPI DUP1 DUP3 ADD MLOAD DUP2 DUP5 ADD MSTORE PUSH1 0x20 DUP2 ADD SWAP1 POP PUSH2 0x19E JUMP JUMPDEST POP POP POP POP SWAP1 POP SWAP1 DUP2 ADD SWAP1 PUSH1 0x1F AND DUP1 ISZERO PUSH2 0x1E6 JUMPI DUP1 DUP3 SUB DUP1 MLOAD PUSH1 0x1 DUP4 PUSH1 0x20 SUB PUSH2 0x100 EXP SUB NOT AND DUP2 MSTORE PUSH1 0x20 ADD SWAP2 POP JUMPDEST POP SWAP3 POP POP POP PUSH1 0x40 MLOAD DUP1 SWAP2 SUB SWAP1 RETURN JUMPDEST CALLVALUE DUP1 ISZERO PUSH2 0x200 JUMPI PUSH1 0x0 DUP1 REVERT JUMPDEST POP PUSH2 0x21F PUSH1 0x4 DUP1 CALLDATASIZE SUB DUP2 ADD SWAP1 DUP1 DUP1 CALLDATALOAD SWAP1 PUSH1 0x20 ADD SWAP1 SWAP3 SWAP2 SWAP1 POP POP POP PUSH2 0xA7A JUMP JUMPDEST PUSH1 0x40 MLOAD DUP1 DUP7 ISZERO ISZERO ISZERO ISZERO DUP2 MSTORE PUSH1 0x20 ADD DUP6 DUP2 MSTORE PUSH1 0x20 ADD DUP5 PUSH20 0xFFFFFFFFFFFFFFFFFFFFFFFFFFFFFFFFFFFFFFFF AND PUSH20 0xFFFFFFFFFFFFFFFFFFFFFFFFFFFFFFFFFFFFFFFF AND DUP2 MSTORE PUSH1 0x20 ADD DUP4 DUP2 MSTORE PUSH1 0x20 ADD DUP3 PUSH20 0xFFFFFFFFFFFFFFFFFFFFFFFFFFFFFFFFFFFFFFFF AND PUSH20 0xFFFFFFFFFFFFFFFFFFFFFFFFFFFFFFFFFFFFFFFF AND DUP2 MSTORE PUSH1 0x20 ADD SWAP6 POP POP POP POP POP POP PUSH1 0x40 MLOAD DUP1 SWAP2 SUB SWAP1 RETURN JUMPDEST PUSH2 0x2CB PUSH1 0x4 DUP1 CALLDATASIZE SUB DUP2 ADD SWAP1 DUP1 DUP1 CALLDATALOAD SWAP1 PUSH1 0x20 ADD SWAP1 SWAP3 SWAP2 SWAP1 POP POP POP PUSH2 0xAFD JUMP JUMPDEST STOP JUMPDEST CALLVALUE DUP1 ISZERO PUSH2 0x2D9 JUMPI PUSH1 0x0 DUP1 REVERT JUMPDEST POP PUSH2 0x2E2 PUSH2 0xDC4 JUMP JUMPDEST PUSH1 0x40 MLOAD DUP1 DUP3 DUP2 MSTORE PUSH1 0x20 ADD SWAP2 POP POP PUSH1 0x40 MLOAD DUP1 SWAP2 SUB SWAP1 RETURN JUMPDEST CALLVALUE DUP1 ISZERO PUSH2 0x304 JUMPI PUSH1 0x0 DUP1 REVERT JUMPDEST POP PUSH2 0x32D PUSH1 0x4 DUP1 CALLDATASIZE SUB DUP2 ADD SWAP1 DUP1 DUP1 CALLDATALOAD SWAP1 PUSH1 0x20 ADD SWAP1 SWAP3 SWAP2 SWAP1 DUP1 CALLDATALOAD SWAP1 PUSH1 0x20 ADD SWAP1 SWAP3 SWAP2 SWAP1 POP POP POP PUSH2 0xDCA JUMP JUMPDEST STOP JUMPDEST CALLVALUE DUP1 ISZERO PUSH2 0x33B JUMPI PUSH1 0x0 DUP1 REVERT JUMPDEST POP PUSH2 0x344 PUSH2 0x1371 JUMP JUMPDEST PUSH1 0x40 MLOAD DUP1 DUP3 PUSH1 0xFF AND PUSH1 0xFF AND DUP2 MSTORE PUSH1 0x20 ADD SWAP2 POP POP PUSH1 0x40 MLOAD DUP1 SWAP2 SUB SWAP1 RETURN JUMPDEST CALLVALUE DUP1 ISZERO PUSH2 0x36C JUMPI PUSH1 0x0 DUP1 REVERT JUMPDEST POP PUSH2 0x407 PUSH1 0x4 DUP1 CALLDATASIZE SUB DUP2 ADD SWAP1 DUP1 DUP1 CALLDATALOAD SWAP1 PUSH1 0x20 ADD SWAP1 DUP3 ADD DUP1 CALLDATALOAD SWAP1 PUSH1 0x20 ADD SWAP1 DUP1 DUP1 PUSH1 0x20 MUL PUSH1 0x20 ADD PUSH1 0x40 MLOAD SWAP1 DUP2 ADD PUSH1 0x40 MSTORE DUP1 SWAP4 SWAP3 SWAP2 SWAP1 DUP2 DUP2 MSTORE PUSH1 0x20 ADD DUP4 DUP4 PUSH1 0x20 MUL DUP1 DUP3 DUP5 CALLDATACOPY DUP3 ADD SWAP2 POP POP POP POP POP POP SWAP2 SWAP3 SWAP2 SWAP3 SWAP1 DUP1 CALLDATALOAD SWAP1 PUSH1 0x20 ADD SWAP1 DUP3 ADD DUP1 CALLDATALOAD SWAP1 PUSH1 0x20 ADD SWAP1 DUP1 DUP1 PUSH1 0x20 MUL PUSH1 0x20 ADD PUSH1 0x40 MLOAD SWAP1 DUP2 ADD PUSH1 0x40 MSTORE DUP1 SWAP4 SWAP3 SWAP2 SWAP1 DUP2 DUP2 MSTORE PUSH1 0x20 ADD DUP4 DUP4 PUSH1 0x20 MUL DUP1 DUP3 DUP5 CALLDATACOPY DUP3 ADD SWAP2 POP POP POP POP POP POP SWAP2 SWAP3 SWAP2 SWAP3 SWAP1 POP POP POP PUSH2 0x1384 JUMP JUMPDEST STOP JUMPDEST CALLVALUE DUP1 ISZERO PUSH2 0x415 JUMPI PUSH1 0x0 DUP1 REVERT JUMPDEST POP PUSH2 0x41E PUSH2 0x143F JUMP JUMPDEST STOP JUMPDEST CALLVALUE DUP1 ISZERO PUSH2 0x42C JUMPI PUSH1 0x0 DUP1 REVERT JUMPDEST POP PUSH2 0x435 PUSH2 0x152D JUMP JUMPDEST PUSH1 0x40 MLOAD DUP1 DUP1 PUSH1 0x20 ADD DUP3 DUP2 SUB DUP3 MSTORE DUP4 DUP2 DUP2 MLOAD DUP2 MSTORE PUSH1 0x20 ADD SWAP2 POP DUP1 MLOAD SWAP1 PUSH1 0x20 ADD SWAP1 DUP1 DUP4 DUP4 PUSH1 0x0 JUMPDEST DUP4 DUP2 LT ISZERO PUSH2 0x475 JUMPI DUP1 DUP3 ADD MLOAD DUP2 DUP5 ADD MSTORE PUSH1 0x20 DUP2 ADD SWAP1 POP PUSH2 0x45A JUMP JUMPDEST POP POP POP POP SWAP1 POP SWAP1 DUP2 ADD SWAP1 PUSH1 0x1F AND DUP1 ISZERO PUSH2 0x4A2 JUMPI DUP1 DUP3 SUB DUP1 MLOAD PUSH1 0x1 DUP4 PUSH1 0x20 SUB PUSH2 0x100 EXP SUB NOT AND DUP2 MSTORE PUSH1 0x20 ADD SWAP2 POP JUMPDEST POP SWAP3 POP POP POP PUSH1 0x40 MLOAD DUP1 SWAP2 SUB SWAP1 RETURN JUMPDEST CALLVALUE DUP1 ISZERO PUSH2 0x4BC JUMPI PUSH1 0x0 DUP1 REVERT JUMPDEST POP PUSH2 0x4C5 PUSH2 0x15CB JUMP JUMPDEST PUSH1 0x40 MLOAD DUP1 DUP3 DUP2 MSTORE PUSH1 0x20 ADD SWAP2 POP POP PUSH1 0x40 MLOAD DUP1 SWAP2 SUB SWAP1 RETURN JUMPDEST CALLVALUE DUP1 ISZERO PUSH2 0x4E7 JUMPI PUSH1 0x0 DUP1 REVERT JUMPDEST POP PUSH2 0x506 PUSH1 0x4 DUP1 CALLDATASIZE SUB DUP2 ADD SWAP1 DUP1 DUP1 CALLDATALOAD SWAP1 PUSH1 0x20 ADD SWAP1 SWAP3 SWAP2 SWAP1 POP POP POP PUSH2 0x15D1 JUMP JUMPDEST PUSH1 0x40 MLOAD DUP1 DUP3 PUSH20 0xFFFFFFFFFFFFFFFFFFFFFFFFFFFFFFFFFFFFFFFF AND PUSH20 0xFFFFFFFFFFFFFFFFFFFFFFFFFFFFFFFFFFFFFFFF AND DUP2 MSTORE PUSH1 0x20 ADD SWAP2 POP POP PUSH1 0x40 MLOAD DUP1 SWAP2 SUB SWAP1 RETURN JUMPDEST CALLVALUE DUP1 ISZERO PUSH2 0x554 JUMPI PUSH1 0x0 DUP1 REVERT JUMPDEST POP PUSH2 0x55D PUSH2 0x1604 JUMP JUMPDEST PUSH1 0x40 MLOAD DUP1 DUP1 PUSH1 0x20 ADD DUP3 DUP2 SUB DUP3 MSTORE DUP4 DUP2 DUP2 MLOAD DUP2 MSTORE PUSH1 0x20 ADD SWAP2 POP DUP1 MLOAD SWAP1 PUSH1 0x20 ADD SWAP1 DUP1 DUP4 DUP4 PUSH1 0x0 JUMPDEST DUP4 DUP2 LT ISZERO PUSH2 0x59D JUMPI DUP1 DUP3 ADD MLOAD DUP2 DUP5 ADD MSTORE PUSH1 0x20 DUP2 ADD SWAP1 POP PUSH2 0x582 JUMP JUMPDEST POP POP POP POP SWAP1 POP SWAP1 DUP2 ADD SWAP1 PUSH1 0x1F AND DUP1 ISZERO PUSH2 0x5CA JUMPI DUP1 DUP3 SUB DUP1 MLOAD PUSH1 0x1 DUP4 PUSH1 0x20 SUB PUSH2 0x100 EXP SUB NOT AND DUP2 MSTORE PUSH1 0x20 ADD SWAP2 POP JUMPDEST POP SWAP3 POP POP POP PUSH1 0x40 MLOAD DUP1 SWAP2 SUB SWAP1 RETURN JUMPDEST CALLVALUE DUP1 ISZERO PUSH2 0x5E4 JUMPI PUSH1 0x0 DUP1 REVERT JUMPDEST POP PUSH2 0x603 PUSH1 0x4 DUP1 CALLDATASIZE SUB DUP2 ADD SWAP1 DUP1 DUP1 CALLDATALOAD SWAP1 PUSH1 0x20 ADD SWAP1 SWAP3 SWAP2 SWAP1 POP POP POP PUSH2 0x16A2 JUMP JUMPDEST PUSH1 0x40 MLOAD DUP1 DUP6 ISZERO ISZERO ISZERO ISZERO DUP2 MSTORE PUSH1 0x20 ADD DUP5 DUP2 MSTORE PUSH1 0x20 ADD DUP4 PUSH20 0xFFFFFFFFFFFFFFFFFFFFFFFFFFFFFFFFFFFFFFFF AND PUSH20 0xFFFFFFFFFFFFFFFFFFFFFFFFFFFFFFFFFFFFFFFF AND DUP2 MSTORE PUSH1 0x20 ADD DUP3 DUP2 MSTORE PUSH1 0x20 ADD SWAP5 POP POP POP POP POP PUSH1 0x40 MLOAD DUP1 SWAP2 SUB SWAP1 RETURN JUMPDEST CALLVALUE DUP1 ISZERO PUSH2 0x66A JUMPI PUSH1 0x0 DUP1 REVERT JUMPDEST POP PUSH2 0x69F PUSH1 0x4 DUP1 CALLDATASIZE SUB DUP2 ADD SWAP1 DUP1 DUP1 CALLDATALOAD PUSH20 0xFFFFFFFFFFFFFFFFFFFFFFFFFFFFFFFFFFFFFFFF AND SWAP1 PUSH1 0x20 ADD SWAP1 SWAP3 SWAP2 SWAP1 POP POP POP PUSH2 0x16FF JUMP JUMPDEST PUSH1 0x40 MLOAD DUP1 DUP3 DUP2 MSTORE PUSH1 0x20 ADD SWAP2 POP POP PUSH1 0x40 MLOAD DUP1 SWAP2 SUB SWAP1 RETURN JUMPDEST CALLVALUE DUP1 ISZERO PUSH2 0x6C1 JUMPI PUSH1 0x0 DUP1 REVERT JUMPDEST POP PUSH2 0x6CA PUSH2 0x1717 JUMP JUMPDEST STOP JUMPDEST CALLVALUE DUP1 ISZERO PUSH2 0x6D8 JUMPI PUSH1 0x0 DUP1 REVERT JUMPDEST POP PUSH2 0x6E1 PUSH2 0x1790 JUMP JUMPDEST PUSH1 0x40 MLOAD DUP1 DUP3 ISZERO ISZERO ISZERO ISZERO DUP2 MSTORE PUSH1 0x20 ADD SWAP2 POP POP PUSH1 0x40 MLOAD DUP1 SWAP2 SUB SWAP1 RETURN JUMPDEST PUSH2 0x719 PUSH1 0x4 DUP1 CALLDATASIZE SUB DUP2 ADD SWAP1 DUP1 DUP1 CALLDATALOAD SWAP1 PUSH1 0x20 ADD SWAP1 SWAP3 SWAP2 SWAP1 POP POP POP PUSH2 0x17A3 JUMP JUMPDEST STOP JUMPDEST CALLVALUE DUP1 ISZERO PUSH2 0x727 JUMPI PUSH1 0x0 DUP1 REVERT JUMPDEST POP PUSH2 0x766 PUSH1 0x4 DUP1 CALLDATASIZE SUB DUP2 ADD SWAP1 DUP1 DUP1 CALLDATALOAD PUSH20 0xFFFFFFFFFFFFFFFFFFFFFFFFFFFFFFFFFFFFFFFF AND SWAP1 PUSH1 0x20 ADD SWAP1 SWAP3 SWAP2 SWAP1 DUP1 CALLDATALOAD SWAP1 PUSH1 0x20 ADD SWAP1 SWAP3 SWAP2 SWAP1 POP POP POP PUSH2 0x1D19 JUMP JUMPDEST STOP JUMPDEST CALLVALUE DUP1 ISZERO PUSH2 0x774 JUMPI PUSH1 0x0 DUP1 REVERT JUMPDEST POP PUSH2 0x77D PUSH2 0x2134 JUMP JUMPDEST PUSH1 0x40 MLOAD DUP1 DUP1 PUSH1 0x20 ADD DUP3 DUP2 SUB DUP3 MSTORE DUP4 DUP2 DUP2 MLOAD DUP2 MSTORE PUSH1 0x20 ADD SWAP2 POP DUP1 MLOAD SWAP1 PUSH1 0x20 ADD SWAP1 DUP1 DUP4 DUP4 PUSH1 0x0 JUMPDEST DUP4 DUP2 LT ISZERO PUSH2 0x7BD JUMPI DUP1 DUP3 ADD MLOAD DUP2 DUP5 ADD MSTORE PUSH1 0x20 DUP2 ADD SWAP1 POP PUSH2 0x7A2 JUMP JUMPDEST POP POP POP POP SWAP1 POP SWAP1 DUP2 ADD SWAP1 PUSH1 0x1F AND DUP1 ISZERO PUSH2 0x7EA JUMPI DUP1 DUP3 SUB DUP1 MLOAD PUSH1 0x1 DUP4 PUSH1 0x20 SUB PUSH2 0x100 EXP SUB NOT AND DUP2 MSTORE PUSH1 0x20 ADD SWAP2 POP JUMPDEST POP SWAP3 POP POP POP PUSH1 0x40 MLOAD DUP1 SWAP2 SUB SWAP1 RETURN JUMPDEST CALLVALUE DUP1 ISZERO PUSH2 0x804 JUMPI PUSH1 0x0 DUP1 REVERT JUMPDEST POP PUSH2 0x823 PUSH1 0x4 DUP1 CALLDATASIZE SUB DUP2 ADD SWAP1 DUP1 DUP1 CALLDATALOAD SWAP1 PUSH1 0x20 ADD SWAP1 SWAP3 SWAP2 SWAP1 POP POP POP PUSH2 0x21D2 JUMP JUMPDEST STOP JUMPDEST CALLVALUE DUP1 ISZERO PUSH2 0x831 JUMPI PUSH1 0x0 DUP1 REVERT JUMPDEST POP PUSH2 0x870 PUSH1 0x4 DUP1 CALLDATASIZE SUB DUP2 ADD SWAP1 DUP1 DUP1 CALLDATALOAD PUSH20 0xFFFFFFFFFFFFFFFFFFFFFFFFFFFFFFFFFFFFFFFF AND SWAP1 PUSH1 0x20 ADD SWAP1 SWAP3 SWAP2 SWAP1 DUP1 CALLDATALOAD SWAP1 PUSH1 0x20 ADD SWAP1 SWAP3 SWAP2 SWAP1 POP POP POP PUSH2 0x24AA JUMP JUMPDEST STOP JUMPDEST CALLVALUE DUP1 ISZERO PUSH2 0x87E JUMPI PUSH1 0x0 DUP1 REVERT JUMPDEST POP PUSH2 0x8C7 PUSH1 0x4 DUP1 CALLDATASIZE SUB DUP2 ADD SWAP1 DUP1 DUP1 CALLDATALOAD SWAP1 PUSH1 0x20 ADD SWAP1 SWAP3 SWAP2 SWAP1 DUP1 CALLDATALOAD SWAP1 PUSH1 0x20 ADD SWAP1 SWAP3 SWAP2 SWAP1 DUP1 CALLDATALOAD PUSH20 0xFFFFFFFFFFFFFFFFFFFFFFFFFFFFFFFFFFFFFFFF AND SWAP1 PUSH1 0x20 ADD SWAP1 SWAP3 SWAP2 SWAP1 POP POP POP PUSH2 0x277B JUMP JUMPDEST STOP JUMPDEST CALLVALUE DUP1 ISZERO PUSH2 0x8D5 JUMPI PUSH1 0x0 DUP1 REVERT JUMPDEST POP PUSH2 0x8DE PUSH2 0x2996 JUMP JUMPDEST PUSH1 0x40 MLOAD DUP1 DUP3 DUP2 MSTORE PUSH1 0x20 ADD SWAP2 POP POP PUSH1 0x40 MLOAD DUP1 SWAP2 SUB SWAP1 RETURN JUMPDEST CALLVALUE DUP1 ISZERO PUSH2 0x900 JUMPI PUSH1 0x0 DUP1 REVERT JUMPDEST POP PUSH2 0x929 PUSH1 0x4 DUP1 CALLDATASIZE SUB DUP2 ADD SWAP1 DUP1 DUP1 CALLDATALOAD SWAP1 PUSH1 0x20 ADD SWAP1 SWAP3 SWAP2 SWAP1 DUP1 CALLDATALOAD SWAP1 PUSH1 0x20 ADD SWAP1 SWAP3 SWAP2 SWAP1 POP POP POP PUSH2 0x299C JUMP JUMPDEST STOP JUMPDEST CALLVALUE DUP1 ISZERO PUSH2 0x937 JUMPI PUSH1 0x0 DUP1 REVERT JUMPDEST POP PUSH2 0x956 PUSH1 0x4 DUP1 CALLDATASIZE SUB DUP2 ADD SWAP1 DUP1 DUP1 CALLDATALOAD SWAP1 PUSH1 0x20 ADD SWAP1 SWAP3 SWAP2 SWAP1 POP POP POP PUSH2 0x2BA2 JUMP JUMPDEST STOP JUMPDEST CALLVALUE DUP1 ISZERO PUSH2 0x964 JUMPI PUSH1 0x0 DUP1 REVERT JUMPDEST POP PUSH2 0x999 PUSH1 0x4 DUP1 CALLDATASIZE SUB DUP2 ADD SWAP1 DUP1 DUP1 CALLDATALOAD PUSH20 0xFFFFFFFFFFFFFFFFFFFFFFFFFFFFFFFFFFFFFFFF AND SWAP1 PUSH1 0x20 ADD SWAP1 SWAP3 SWAP2 SWAP1 POP POP POP PUSH2 0x2D3A JUMP JUMPDEST PUSH1 0x40 MLOAD DUP1 DUP3 DUP2 MSTORE PUSH1 0x20 ADD SWAP2 POP POP PUSH1 0x40 MLOAD DUP1 SWAP2 SUB SWAP1 RETURN JUMPDEST CALLVALUE DUP1 ISZERO PUSH2 0x9BB JUMPI PUSH1 0x0 DUP1 REVERT JUMPDEST POP PUSH2 0x9DA PUSH1 0x4 DUP1 CALLDATASIZE SUB DUP2 ADD SWAP1 DUP1 DUP1 CALLDATALOAD SWAP1 PUSH1 0x20 ADD SWAP1 SWAP3 SWAP2 SWAP1 POP POP POP PUSH2 0x2D52 JUMP JUMPDEST STOP JUMPDEST PUSH1 0x3 DUP1 SLOAD PUSH1 0x1 DUP2 PUSH1 0x1 AND ISZERO PUSH2 0x100 MUL SUB AND PUSH1 0x2 SWAP1 DIV DUP1 PUSH1 0x1F ADD PUSH1 0x20 DUP1 SWAP2 DIV MUL PUSH1 0x20 ADD PUSH1 0x40 MLOAD SWAP1 DUP2 ADD PUSH1 0x40 MSTORE DUP1 SWAP3 SWAP2 SWAP1 DUP2 DUP2 MSTORE PUSH1 0x20 ADD DUP3 DUP1 SLOAD PUSH1 0x1 DUP2 PUSH1 0x1 AND ISZERO PUSH2 0x100 MUL SUB AND PUSH1 0x2 SWAP1 DIV DUP1 ISZERO PUSH2 0xA72 JUMPI DUP1 PUSH1 0x1F LT PUSH2 0xA47 JUMPI PUSH2 0x100 DUP1 DUP4 SLOAD DIV MUL DUP4 MSTORE SWAP2 PUSH1 0x20 ADD SWAP2 PUSH2 0xA72 JUMP JUMPDEST DUP3 ADD SWAP2 SWAP1 PUSH1 0x0 MSTORE PUSH1 0x20 PUSH1 0x0 KECCAK256 SWAP1 JUMPDEST DUP2 SLOAD DUP2 MSTORE SWAP1 PUSH1 0x1 ADD SWAP1 PUSH1 0x20 ADD DUP1 DUP4 GT PUSH2 0xA55 JUMPI DUP3 SWAP1 SUB PUSH1 0x1F AND DUP3 ADD SWAP2 JUMPDEST POP POP POP POP POP DUP2 JUMP JUMPDEST PUSH1 0xC PUSH1 0x20 MSTORE DUP1 PUSH1 0x0 MSTORE PUSH1 0x40 PUSH1 0x0 KECCAK256 PUSH1 0x0 SWAP2 POP SWAP1 POP DUP1 PUSH1 0x0 ADD PUSH1 0x0 SWAP1 SLOAD SWAP1 PUSH2 0x100 EXP SWAP1 DIV PUSH1 0xFF AND SWAP1 DUP1 PUSH1 0x1 ADD SLOAD SWAP1 DUP1 PUSH1 0x2 ADD PUSH1 0x0 SWAP1 SLOAD SWAP1 PUSH2 0x100 EXP SWAP1 DIV PUSH20 0xFFFFFFFFFFFFFFFFFFFFFFFFFFFFFFFFFFFFFFFF AND SWAP1 DUP1 PUSH1 0x3 ADD SLOAD SWAP1 DUP1 PUSH1 0x4 ADD PUSH1 0x0 SWAP1 SLOAD SWAP1 PUSH2 0x100 EXP SWAP1 DIV PUSH20 0xFFFFFFFFFFFFFFFFFFFFFFFFFFFFFFFFFFFFFFFF AND SWAP1 POP DUP6 JUMP JUMPDEST PUSH1 0x0 PUSH2 0x2710 DUP3 LT ISZERO ISZERO PUSH2 0xB0F JUMPI PUSH1 0x0 DUP1 REVERT JUMPDEST PUSH1 0x8 PUSH1 0x0 SWAP1 SLOAD SWAP1 PUSH2 0x100 EXP SWAP1 DIV PUSH1 0xFF AND ISZERO ISZERO PUSH2 0xB2A JUMPI PUSH1 0x0 DUP1 REVERT JUMPDEST PUSH1 0x0 PUSH1 0xA PUSH1 0x0 DUP5 DUP2 MSTORE PUSH1 0x20 ADD SWAP1 DUP2 MSTORE PUSH1 0x20 ADD PUSH1 0x0 KECCAK256 PUSH1 0x0 SWAP1 SLOAD SWAP1 PUSH2 0x100 EXP SWAP1 DIV PUSH20 0xFFFFFFFFFFFFFFFFFFFFFFFFFFFFFFFFFFFFFFFF AND PUSH20 0xFFFFFFFFFFFFFFFFFFFFFFFFFFFFFFFFFFFFFFFF AND EQ ISZERO PUSH2 0xB81 JUMPI PUSH1 0x0 DUP1 REVERT JUMPDEST CALLER PUSH20 0xFFFFFFFFFFFFFFFFFFFFFFFFFFFFFFFFFFFFFFFF AND PUSH1 0xA PUSH1 0x0 DUP5 DUP2 MSTORE PUSH1 0x20 ADD SWAP1 DUP2 MSTORE PUSH1 0x20 ADD PUSH1 0x0 KECCAK256 PUSH1 0x0 SWAP1 SLOAD SWAP1 PUSH2 0x100 EXP SWAP1 DIV PUSH20 0xFFFFFFFFFFFFFFFFFFFFFFFFFFFFFFFFFFFFFFFF AND PUSH20 0xFFFFFFFFFFFFFFFFFFFFFFFFFFFFFFFFFFFFFFFF AND EQ ISZERO PUSH2 0xBED JUMPI PUSH1 0x0 DUP1 REVERT JUMPDEST PUSH1 0x0 CALLVALUE EQ ISZERO PUSH2 0xBFB JUMPI PUSH1 0x0 DUP1 REVERT JUMPDEST PUSH1 0xD PUSH1 0x0 DUP4 DUP2 MSTORE PUSH1 0x20 ADD SWAP1 DUP2 MSTORE PUSH1 0x20 ADD PUSH1 0x0 KECCAK256 SWAP1 POP DUP1 PUSH1 0x3 ADD SLOAD CALLVALUE GT ISZERO ISZERO PUSH2 0xC22 JUMPI PUSH1 0x0 DUP1 REVERT JUMPDEST PUSH1 0x0 DUP2 PUSH1 0x3 ADD SLOAD GT ISZERO PUSH2 0xCA5 JUMPI DUP1 PUSH1 0x3 ADD SLOAD PUSH1 0xE PUSH1 0x0 DUP4 PUSH1 0x2 ADD PUSH1 0x0 SWAP1 SLOAD SWAP1 PUSH2 0x100 EXP SWAP1 DIV PUSH20 0xFFFFFFFFFFFFFFFFFFFFFFFFFFFFFFFFFFFFFFFF AND PUSH20 0xFFFFFFFFFFFFFFFFFFFFFFFFFFFFFFFFFFFFFFFF AND PUSH20 0xFFFFFFFFFFFFFFFFFFFFFFFFFFFFFFFFFFFFFFFF AND DUP2 MSTORE PUSH1 0x20 ADD SWAP1 DUP2 MSTORE PUSH1 0x20 ADD PUSH1 0x0 KECCAK256 PUSH1 0x0 DUP3 DUP3 SLOAD ADD SWAP3 POP POP DUP2 SWAP1 SSTORE POP JUMPDEST PUSH1 0x80 PUSH1 0x40 MLOAD SWAP1 DUP2 ADD PUSH1 0x40 MSTORE DUP1 PUSH1 0x1 ISZERO ISZERO DUP2 MSTORE PUSH1 0x20 ADD DUP4 DUP2 MSTORE PUSH1 0x20 ADD CALLER PUSH20 0xFFFFFFFFFFFFFFFFFFFFFFFFFFFFFFFFFFFFFFFF AND DUP2 MSTORE PUSH1 0x20 ADD CALLVALUE DUP2 MSTORE POP PUSH1 0xD PUSH1 0x0 DUP5 DUP2 MSTORE PUSH1 0x20 ADD SWAP1 DUP2 MSTORE PUSH1 0x20 ADD PUSH1 0x0 KECCAK256 PUSH1 0x0 DUP3 ADD MLOAD DUP2 PUSH1 0x0 ADD PUSH1 0x0 PUSH2 0x100 EXP DUP2 SLOAD DUP2 PUSH1 0xFF MUL NOT AND SWAP1 DUP4 ISZERO ISZERO MUL OR SWAP1 SSTORE POP PUSH1 0x20 DUP3 ADD MLOAD DUP2 PUSH1 0x1 ADD SSTORE PUSH1 0x40 DUP3 ADD MLOAD DUP2 PUSH1 0x2 ADD PUSH1 0x0 PUSH2 0x100 EXP DUP2 SLOAD DUP2 PUSH20 0xFFFFFFFFFFFFFFFFFFFFFFFFFFFFFFFFFFFFFFFF MUL NOT AND SWAP1 DUP4 PUSH20 0xFFFFFFFFFFFFFFFFFFFFFFFFFFFFFFFFFFFFFFFF AND MUL OR SWAP1 SSTORE POP PUSH1 0x60 DUP3 ADD MLOAD DUP2 PUSH1 0x3 ADD SSTORE SWAP1 POP POP CALLER PUSH20 0xFFFFFFFFFFFFFFFFFFFFFFFFFFFFFFFFFFFFFFFF AND DUP3 PUSH32 0x5B859394FABAE0C1BA88BAFFE67E751AB5248D2E879028B8C8D6897B0519F56A CALLVALUE PUSH1 0x40 MLOAD DUP1 DUP3 DUP2 MSTORE PUSH1 0x20 ADD SWAP2 POP POP PUSH1 0x40 MLOAD DUP1 SWAP2 SUB SWAP1 LOG3 POP POP JUMP JUMPDEST PUSH1 0x6 SLOAD DUP2 JUMP JUMPDEST PUSH1 0x0 DUP1 PUSH1 0x0 PUSH2 0x2710 DUP6 LT ISZERO ISZERO PUSH2 0xDDF JUMPI PUSH1 0x0 DUP1 REVERT JUMPDEST PUSH1 0x8 PUSH1 0x0 SWAP1 SLOAD SWAP1 PUSH2 0x100 EXP SWAP1 DIV PUSH1 0xFF AND ISZERO ISZERO PUSH2 0xDFA JUMPI PUSH1 0x0 DUP1 REVERT JUMPDEST CALLER PUSH20 0xFFFFFFFFFFFFFFFFFFFFFFFFFFFFFFFFFFFFFFFF AND PUSH1 0xA PUSH1 0x0 DUP8 DUP2 MSTORE PUSH1 0x20 ADD SWAP1 DUP2 MSTORE PUSH1 0x20 ADD PUSH1 0x0 KECCAK256 PUSH1 0x0 SWAP1 SLOAD SWAP1 PUSH2 0x100 EXP SWAP1 DIV PUSH20 0xFFFFFFFFFFFFFFFFFFFFFFFFFFFFFFFFFFFFFFFF AND PUSH20 0xFFFFFFFFFFFFFFFFFFFFFFFFFFFFFFFFFFFFFFFF AND EQ ISZERO ISZERO PUSH2 0xE67 JUMPI PUSH1 0x0 DUP1 REVERT JUMPDEST CALLER SWAP3 POP PUSH1 0xD PUSH1 0x0 DUP7 DUP2 MSTORE PUSH1 0x20 ADD SWAP1 DUP2 MSTORE PUSH1 0x20 ADD PUSH1 0x0 KECCAK256 SWAP2 POP PUSH1 0x0 DUP3 PUSH1 0x3 ADD SLOAD EQ ISZERO PUSH2 0xE91 JUMPI PUSH1 0x0 DUP1 REVERT JUMPDEST DUP4 DUP3 PUSH1 0x3 ADD SLOAD LT ISZERO PUSH2 0xEA2 JUMPI PUSH1 0x0 DUP1 REVERT JUMPDEST DUP2 PUSH1 0x2 ADD PUSH1 0x0 SWAP1 SLOAD SWAP1 PUSH2 0x100 EXP SWAP1 DIV PUSH20 0xFFFFFFFFFFFFFFFFFFFFFFFFFFFFFFFFFFFFFFFF AND PUSH1 0xA PUSH1 0x0 DUP8 DUP2 MSTORE PUSH1 0x20 ADD SWAP1 DUP2 MSTORE PUSH1 0x20 ADD PUSH1 0x0 KECCAK256 PUSH1 0x0 PUSH2 0x100 EXP DUP2 SLOAD DUP2 PUSH20 0xFFFFFFFFFFFFFFFFFFFFFFFFFFFFFFFFFFFFFFFF MUL NOT AND SWAP1 DUP4 PUSH20 0xFFFFFFFFFFFFFFFFFFFFFFFFFFFFFFFFFFFFFFFF AND MUL OR SWAP1 SSTORE POP PUSH1 0xB PUSH1 0x0 DUP5 PUSH20 0xFFFFFFFFFFFFFFFFFFFFFFFFFFFFFFFFFFFFFFFF AND PUSH20 0xFFFFFFFFFFFFFFFFFFFFFFFFFFFFFFFFFFFFFFFF AND DUP2 MSTORE PUSH1 0x20 ADD SWAP1 DUP2 MSTORE PUSH1 0x20 ADD PUSH1 0x0 KECCAK256 PUSH1 0x0 DUP2 SLOAD DUP1 SWAP3 SWAP2 SWAP1 PUSH1 0x1 SWAP1 SUB SWAP2 SWAP1 POP SSTORE POP PUSH1 0xB PUSH1 0x0 DUP4 PUSH1 0x2 ADD PUSH1 0x0 SWAP1 SLOAD SWAP1 PUSH2 0x100 EXP SWAP1 DIV PUSH20 0xFFFFFFFFFFFFFFFFFFFFFFFFFFFFFFFFFFFFFFFF AND PUSH20 0xFFFFFFFFFFFFFFFFFFFFFFFFFFFFFFFFFFFFFFFF AND PUSH20 0xFFFFFFFFFFFFFFFFFFFFFFFFFFFFFFFFFFFFFFFF AND DUP2 MSTORE PUSH1 0x20 ADD SWAP1 DUP2 MSTORE PUSH1 0x20 ADD PUSH1 0x0 KECCAK256 PUSH1 0x0 DUP2 SLOAD DUP1 SWAP3 SWAP2 SWAP1 PUSH1 0x1 ADD SWAP2 SWAP1 POP SSTORE POP DUP2 PUSH1 0x2 ADD PUSH1 0x0 SWAP1 SLOAD SWAP1 PUSH2 0x100 EXP SWAP1 DIV PUSH20 0xFFFFFFFFFFFFFFFFFFFFFFFFFFFFFFFFFFFFFFFF AND PUSH20 0xFFFFFFFFFFFFFFFFFFFFFFFFFFFFFFFFFFFFFFFF AND DUP4 PUSH20 0xFFFFFFFFFFFFFFFFFFFFFFFFFFFFFFFFFFFFFFFF AND PUSH32 0xDDF252AD1BE2C89B69C2B068FC378DAA952BA7F163C4A11628F55A4DF523B3EF PUSH1 0x1 PUSH1 0x40 MLOAD DUP1 DUP3 DUP2 MSTORE PUSH1 0x20 ADD SWAP2 POP POP PUSH1 0x40 MLOAD DUP1 SWAP2 SUB SWAP1 LOG3 PUSH1 0xA0 PUSH1 0x40 MLOAD SWAP1 DUP2 ADD PUSH1 0x40 MSTORE DUP1 PUSH1 0x0 ISZERO ISZERO DUP2 MSTORE PUSH1 0x20 ADD DUP7 DUP2 MSTORE PUSH1 0x20 ADD DUP4 PUSH1 0x2 ADD PUSH1 0x0 SWAP1 SLOAD SWAP1 PUSH2 0x100 EXP SWAP1 DIV PUSH20 0xFFFFFFFFFFFFFFFFFFFFFFFFFFFFFFFFFFFFFFFF AND PUSH20 0xFFFFFFFFFFFFFFFFFFFFFFFFFFFFFFFFFFFFFFFF AND DUP2 MSTORE PUSH1 0x20 ADD PUSH1 0x0 DUP2 MSTORE PUSH1 0x20 ADD PUSH1 0x0 PUSH20 0xFFFFFFFFFFFFFFFFFFFFFFFFFFFFFFFFFFFFFFFF AND DUP2 MSTORE POP PUSH1 0xC PUSH1 0x0 DUP8 DUP2 MSTORE PUSH1 0x20 ADD SWAP1 DUP2 MSTORE PUSH1 0x20 ADD PUSH1 0x0 KECCAK256 PUSH1 0x0 DUP3 ADD MLOAD DUP2 PUSH1 0x0 ADD PUSH1 0x0 PUSH2 0x100 EXP DUP2 SLOAD DUP2 PUSH1 0xFF MUL NOT AND SWAP1 DUP4 ISZERO ISZERO MUL OR SWAP1 SSTORE POP PUSH1 0x20 DUP3 ADD MLOAD DUP2 PUSH1 0x1 ADD SSTORE PUSH1 0x40 DUP3 ADD MLOAD DUP2 PUSH1 0x2 ADD PUSH1 0x0 PUSH2 0x100 EXP DUP2 SLOAD DUP2 PUSH20 0xFFFFFFFFFFFFFFFFFFFFFFFFFFFFFFFFFFFFFFFF MUL NOT AND SWAP1 DUP4 PUSH20 0xFFFFFFFFFFFFFFFFFFFFFFFFFFFFFFFFFFFFFFFF AND MUL OR SWAP1 SSTORE POP PUSH1 0x60 DUP3 ADD MLOAD DUP2 PUSH1 0x3 ADD SSTORE PUSH1 0x80 DUP3 ADD MLOAD DUP2 PUSH1 0x4 ADD PUSH1 0x0 PUSH2 0x100 EXP DUP2 SLOAD DUP2 PUSH20 0xFFFFFFFFFFFFFFFFFFFFFFFFFFFFFFFFFFFFFFFF MUL NOT AND SWAP1 DUP4 PUSH20 0xFFFFFFFFFFFFFFFFFFFFFFFFFFFFFFFFFFFFFFFF AND MUL OR SWAP1 SSTORE POP SWAP1 POP POP DUP2 PUSH1 0x3 ADD SLOAD SWAP1 POP PUSH1 0x80 PUSH1 0x40 MLOAD SWAP1 DUP2 ADD PUSH1 0x40 MSTORE DUP1 PUSH1 0x0 ISZERO ISZERO DUP2 MSTORE PUSH1 0x20 ADD DUP7 DUP2 MSTORE PUSH1 0x20 ADD PUSH1 0x0 PUSH20 0xFFFFFFFFFFFFFFFFFFFFFFFFFFFFFFFFFFFFFFFF AND DUP2 MSTORE PUSH1 0x20 ADD PUSH1 0x0 DUP2 MSTORE POP PUSH1 0xD PUSH1 0x0 DUP8 DUP2 MSTORE PUSH1 0x20 ADD SWAP1 DUP2 MSTORE PUSH1 0x20 ADD PUSH1 0x0 KECCAK256 PUSH1 0x0 DUP3 ADD MLOAD DUP2 PUSH1 0x0 ADD PUSH1 0x0 PUSH2 0x100 EXP DUP2 SLOAD DUP2 PUSH1 0xFF MUL NOT AND SWAP1 DUP4 ISZERO ISZERO MUL OR SWAP1 SSTORE POP PUSH1 0x20 DUP3 ADD MLOAD DUP2 PUSH1 0x1 ADD SSTORE PUSH1 0x40 DUP3 ADD MLOAD DUP2 PUSH1 0x2 ADD PUSH1 0x0 PUSH2 0x100 EXP DUP2 SLOAD DUP2 PUSH20 0xFFFFFFFFFFFFFFFFFFFFFFFFFFFFFFFFFFFFFFFF MUL NOT AND SWAP1 DUP4 PUSH20 0xFFFFFFFFFFFFFFFFFFFFFFFFFFFFFFFFFFFFFFFF AND MUL OR SWAP1 SSTORE POP PUSH1 0x60 DUP3 ADD MLOAD DUP2 PUSH1 0x3 ADD SSTORE SWAP1 POP POP DUP1 PUSH1 0xE PUSH1 0x0 DUP6 PUSH20 0xFFFFFFFFFFFFFFFFFFFFFFFFFFFFFFFFFFFFFFFF AND PUSH20 0xFFFFFFFFFFFFFFFFFFFFFFFFFFFFFFFFFFFFFFFF AND DUP2 MSTORE PUSH1 0x20 ADD SWAP1 DUP2 MSTORE PUSH1 0x20 ADD PUSH1 0x0 KECCAK256 PUSH1 0x0 DUP3 DUP3 SLOAD ADD SWAP3 POP POP DUP2 SWAP1 SSTORE POP DUP2 PUSH1 0x2 ADD PUSH1 0x0 SWAP1 SLOAD SWAP1 PUSH2 0x100 EXP SWAP1 DIV PUSH20 0xFFFFFFFFFFFFFFFFFFFFFFFFFFFFFFFFFFFFFFFF AND PUSH20 0xFFFFFFFFFFFFFFFFFFFFFFFFFFFFFFFFFFFFFFFF AND DUP4 PUSH20 0xFFFFFFFFFFFFFFFFFFFFFFFFFFFFFFFFFFFFFFFF AND DUP7 PUSH32 0x58E5D5A525E3B40BC15ABAA38B5882678DB1EE68BEFD2F60BAFE3A7FD06DB9E3 DUP6 PUSH1 0x3 ADD SLOAD PUSH1 0x40 MLOAD DUP1 DUP3 DUP2 MSTORE PUSH1 0x20 ADD SWAP2 POP POP PUSH1 0x40 MLOAD DUP1 SWAP2 SUB SWAP1 LOG4 POP POP POP POP POP JUMP JUMPDEST PUSH1 0x5 PUSH1 0x0 SWAP1 SLOAD SWAP1 PUSH2 0x100 EXP SWAP1 DIV PUSH1 0xFF AND DUP2 JUMP JUMPDEST PUSH1 0x0 DUP1 PUSH1 0x1 PUSH1 0x0 SWAP1 SLOAD SWAP1 PUSH2 0x100 EXP SWAP1 DIV PUSH20 0xFFFFFFFFFFFFFFFFFFFFFFFFFFFFFFFFFFFFFFFF AND PUSH20 0xFFFFFFFFFFFFFFFFFFFFFFFFFFFFFFFFFFFFFFFF AND CALLER PUSH20 0xFFFFFFFFFFFFFFFFFFFFFFFFFFFFFFFFFFFFFFFF AND EQ ISZERO ISZERO PUSH2 0x13E3 JUMPI PUSH1 0x0 DUP1 REVERT JUMPDEST DUP4 MLOAD SWAP2 POP PUSH1 0x0 SWAP1 POP JUMPDEST DUP2 DUP2 LT ISZERO PUSH2 0x1439 JUMPI PUSH2 0x142C DUP5 DUP3 DUP2 MLOAD DUP2 LT ISZERO ISZERO PUSH2 0x1405 JUMPI INVALID JUMPDEST SWAP1 PUSH1 0x20 ADD SWAP1 PUSH1 0x20 MUL ADD MLOAD DUP5 DUP4 DUP2 MLOAD DUP2 LT ISZERO ISZERO PUSH2 0x141D JUMPI INVALID JUMPDEST SWAP1 PUSH1 0x20 ADD SWAP1 PUSH1 0x20 MUL ADD MLOAD PUSH2 0x24AA JUMP JUMPDEST DUP1 DUP1 PUSH1 0x1 ADD SWAP2 POP POP PUSH2 0x13EC JUMP JUMPDEST POP POP POP POP JUMP JUMPDEST PUSH1 0x0 PUSH1 0x8 PUSH1 0x0 SWAP1 SLOAD SWAP1 PUSH2 0x100 EXP SWAP1 DIV PUSH1 0xFF AND ISZERO ISZERO PUSH2 0x145C JUMPI PUSH1 0x0 DUP1 REVERT JUMPDEST PUSH1 0xE PUSH1 0x0 CALLER PUSH20 0xFFFFFFFFFFFFFFFFFFFFFFFFFFFFFFFFFFFFFFFF AND PUSH20 0xFFFFFFFFFFFFFFFFFFFFFFFFFFFFFFFFFFFFFFFF AND DUP2 MSTORE PUSH1 0x20 ADD SWAP1 DUP2 MSTORE PUSH1 0x20 ADD PUSH1 0x0 KECCAK256 SLOAD SWAP1 POP PUSH1 0x0 PUSH1 0xE PUSH1 0x0 CALLER PUSH20 0xFFFFFFFFFFFFFFFFFFFFFFFFFFFFFFFFFFFFFFFF AND PUSH20 0xFFFFFFFFFFFFFFFFFFFFFFFFFFFFFFFFFFFFFFFF AND DUP2 MSTORE PUSH1 0x20 ADD SWAP1 DUP2 MSTORE PUSH1 0x20 ADD PUSH1 0x0 KECCAK256 DUP2 SWAP1 SSTORE POP CALLER PUSH20 0xFFFFFFFFFFFFFFFFFFFFFFFFFFFFFFFFFFFFFFFF AND PUSH2 0x8FC DUP3 SWAP1 DUP2 ISZERO MUL SWAP1 PUSH1 0x40 MLOAD PUSH1 0x0 PUSH1 0x40 MLOAD DUP1 DUP4 SUB DUP2 DUP6 DUP9 DUP9 CALL SWAP4 POP POP POP POP ISZERO DUP1 ISZERO PUSH2 0x1529 JUMPI RETURNDATASIZE PUSH1 0x0 DUP1 RETURNDATACOPY RETURNDATASIZE PUSH1 0x0 REVERT JUMPDEST POP POP JUMP JUMPDEST PUSH1 0x0 DUP1 SLOAD PUSH1 0x1 DUP2 PUSH1 0x1 AND ISZERO PUSH2 0x100 MUL SUB AND PUSH1 0x2 SWAP1 DIV DUP1 PUSH1 0x1F ADD PUSH1 0x20 DUP1 SWAP2 DIV MUL PUSH1 0x20 ADD PUSH1 0x40 MLOAD SWAP1 DUP2 ADD PUSH1 0x40 MSTORE DUP1 SWAP3 SWAP2 SWAP1 DUP2 DUP2 MSTORE PUSH1 0x20 ADD DUP3 DUP1 SLOAD PUSH1 0x1 DUP2 PUSH1 0x1 AND ISZERO PUSH2 0x100 MUL SUB AND PUSH1 0x2 SWAP1 DIV DUP1 ISZERO PUSH2 0x15C3 JUMPI DUP1 PUSH1 0x1F LT PUSH2 0x1598 JUMPI PUSH2 0x100 DUP1 DUP4 SLOAD DIV MUL DUP4 MSTORE SWAP2 PUSH1 0x20 ADD SWAP2 PUSH2 0x15C3 JUMP JUMPDEST DUP3 ADD SWAP2 SWAP1 PUSH1 0x0 MSTORE PUSH1 0x20 PUSH1 0x0 KECCAK256 SWAP1 JUMPDEST DUP2 SLOAD DUP2 MSTORE SWAP1 PUSH1 0x1 ADD SWAP1 PUSH1 0x20 ADD DUP1 DUP4 GT PUSH2 0x15A6 JUMPI DUP3 SWAP1 SUB PUSH1 0x1F AND DUP3 ADD SWAP2 JUMPDEST POP POP POP POP POP DUP2 JUMP JUMPDEST PUSH1 0x7 SLOAD DUP2 JUMP JUMPDEST PUSH1 0xA PUSH1 0x20 MSTORE DUP1 PUSH1 0x0 MSTORE PUSH1 0x40 PUSH1 0x0 KECCAK256 PUSH1 0x0 SWAP2 POP SLOAD SWAP1 PUSH2 0x100 EXP SWAP1 DIV PUSH20 0xFFFFFFFFFFFFFFFFFFFFFFFFFFFFFFFFFFFFFFFF AND DUP2 JUMP JUMPDEST PUSH1 0x2 DUP1 SLOAD PUSH1 0x1 DUP2 PUSH1 0x1 AND ISZERO PUSH2 0x100 MUL SUB AND PUSH1 0x2 SWAP1 DIV DUP1 PUSH1 0x1F ADD PUSH1 0x20 DUP1 SWAP2 DIV MUL PUSH1 0x20 ADD PUSH1 0x40 MLOAD SWAP1 DUP2 ADD PUSH1 0x40 MSTORE DUP1 SWAP3 SWAP2 SWAP1 DUP2 DUP2 MSTORE PUSH1 0x20 ADD DUP3 DUP1 SLOAD PUSH1 0x1 DUP2 PUSH1 0x1 AND ISZERO PUSH2 0x100 MUL SUB AND PUSH1 0x2 SWAP1 DIV DUP1 ISZERO PUSH2 0x169A JUMPI DUP1 PUSH1 0x1F LT PUSH2 0x166F JUMPI PUSH2 0x100 DUP1 DUP4 SLOAD DIV MUL DUP4 MSTORE SWAP2 PUSH1 0x20 ADD SWAP2 PUSH2 0x169A JUMP JUMPDEST DUP3 ADD SWAP2 SWAP1 PUSH1 0x0 MSTORE PUSH1 0x20 PUSH1 0x0 KECCAK256 SWAP1 JUMPDEST DUP2 SLOAD DUP2 MSTORE SWAP1 PUSH1 0x1 ADD SWAP1 PUSH1 0x20 ADD DUP1 DUP4 GT PUSH2 0x167D JUMPI DUP3 SWAP1 SUB PUSH1 0x1F AND DUP3 ADD SWAP2 JUMPDEST POP POP POP POP POP DUP2 JUMP JUMPDEST PUSH1 0xD PUSH1 0x20 MSTORE DUP1 PUSH1 0x0 MSTORE PUSH1 0x40 PUSH1 0x0 KECCAK256 PUSH1 0x0 SWAP2 POP SWAP1 POP DUP1 PUSH1 0x0 ADD PUSH1 0x0 SWAP1 SLOAD SWAP1 PUSH2 0x100 EXP SWAP1 DIV PUSH1 0xFF AND SWAP1 DUP1 PUSH1 0x1 ADD SLOAD SWAP1 DUP1 PUSH1 0x2 ADD PUSH1 0x0 SWAP1 SLOAD SWAP1 PUSH2 0x100 EXP SWAP1 DIV PUSH20 0xFFFFFFFFFFFFFFFFFFFFFFFFFFFFFFFFFFFFFFFF AND SWAP1 DUP1 PUSH1 0x3 ADD SLOAD SWAP1 POP DUP5 JUMP JUMPDEST PUSH1 0xB PUSH1 0x20 MSTORE DUP1 PUSH1 0x0 MSTORE PUSH1 0x40 PUSH1 0x0 KECCAK256 PUSH1 0x0 SWAP2 POP SWAP1 POP SLOAD DUP2 JUMP JUMPDEST PUSH1 0x1 PUSH1 0x0 SWAP1 SLOAD SWAP1 PUSH2 0x100 EXP SWAP1 DIV PUSH20 0xFFFFFFFFFFFFFFFFFFFFFFFFFFFFFFFFFFFFFFFF AND PUSH20 0xFFFFFFFFFFFFFFFFFFFFFFFFFFFFFFFFFFFFFFFF AND CALLER PUSH20 0xFFFFFFFFFFFFFFFFFFFFFFFFFFFFFFFFFFFFFFFF AND EQ ISZERO ISZERO PUSH2 0x1773 JUMPI PUSH1 0x0 DUP1 REVERT JUMPDEST PUSH1 0x1 PUSH1 0x8 PUSH1 0x0 PUSH2 0x100 EXP DUP2 SLOAD DUP2 PUSH1 0xFF MUL NOT AND SWAP1 DUP4 ISZERO ISZERO MUL OR SWAP1 SSTORE POP JUMP JUMPDEST PUSH1 0x8 PUSH1 0x0 SWAP1 SLOAD SWAP1 PUSH2 0x100 EXP SWAP1 DIV PUSH1 0xFF AND DUP2 JUMP JUMPDEST PUSH1 0x0 DUP1 PUSH1 0x0 PUSH1 0x8 PUSH1 0x0 SWAP1 SLOAD SWAP1 PUSH2 0x100 EXP SWAP1 DIV PUSH1 0xFF AND ISZERO ISZERO PUSH2 0x17C3 JUMPI PUSH1 0x0 DUP1 REVERT JUMPDEST PUSH1 0xC PUSH1 0x0 DUP6 DUP2 MSTORE PUSH1 0x20 ADD SWAP1 DUP2 MSTORE PUSH1 0x20 ADD PUSH1 0x0 KECCAK256 SWAP3 POP PUSH2 0x2710 DUP5 LT ISZERO ISZERO PUSH2 0x17E8 JUMPI PUSH1 0x0 DUP1 REVERT JUMPDEST DUP3 PUSH1 0x0 ADD PUSH1 0x0 SWAP1 SLOAD SWAP1 PUSH2 0x100 EXP SWAP1 DIV PUSH1 0xFF AND ISZERO ISZERO PUSH2 0x1805 JUMPI PUSH1 0x0 DUP1 REVERT JUMPDEST PUSH1 0x0 DUP4 PUSH1 0x4 ADD PUSH1 0x0 SWAP1 SLOAD SWAP1 PUSH2 0x100 EXP SWAP1 DIV PUSH20 0xFFFFFFFFFFFFFFFFFFFFFFFFFFFFFFFFFFFFFFFF AND PUSH20 0xFFFFFFFFFFFFFFFFFFFFFFFFFFFFFFFFFFFFFFFF AND EQ ISZERO DUP1 ISZERO PUSH2 0x18A0 JUMPI POP CALLER PUSH20 0xFFFFFFFFFFFFFFFFFFFFFFFFFFFFFFFFFFFFFFFF AND DUP4 PUSH1 0x4 ADD PUSH1 0x0 SWAP1 SLOAD SWAP1 PUSH2 0x100 EXP SWAP1 DIV PUSH20 0xFFFFFFFFFFFFFFFFFFFFFFFFFFFFFFFFFFFFFFFF AND PUSH20 0xFFFFFFFFFFFFFFFFFFFFFFFFFFFFFFFFFFFFFFFF AND EQ ISZERO JUMPDEST ISZERO PUSH2 0x18AA JUMPI PUSH1 0x0 DUP1 REVERT JUMPDEST DUP3 PUSH1 0x3 ADD SLOAD CALLVALUE LT ISZERO PUSH2 0x18BB JUMPI PUSH1 0x0 DUP1 REVERT JUMPDEST PUSH1 0xA PUSH1 0x0 DUP6 DUP2 MSTORE PUSH1 0x20 ADD SWAP1 DUP2 MSTORE PUSH1 0x20 ADD PUSH1 0x0 KECCAK256 PUSH1 0x0 SWAP1 SLOAD SWAP1 PUSH2 0x100 EXP SWAP1 DIV PUSH20 0xFFFFFFFFFFFFFFFFFFFFFFFFFFFFFFFFFFFFFFFF AND PUSH20 0xFFFFFFFFFFFFFFFFFFFFFFFFFFFFFFFFFFFFFFFF AND DUP4 PUSH1 0x2 ADD PUSH1 0x0 SWAP1 SLOAD SWAP1 PUSH2 0x100 EXP SWAP1 DIV PUSH20 0xFFFFFFFFFFFFFFFFFFFFFFFFFFFFFFFFFFFFFFFF AND PUSH20 0xFFFFFFFFFFFFFFFFFFFFFFFFFFFFFFFFFFFFFFFF AND EQ ISZERO ISZERO PUSH2 0x194C JUMPI PUSH1 0x0 DUP1 REVERT JUMPDEST DUP3 PUSH1 0x2 ADD PUSH1 0x0 SWAP1 SLOAD SWAP1 PUSH2 0x100 EXP SWAP1 DIV PUSH20 0xFFFFFFFFFFFFFFFFFFFFFFFFFFFFFFFFFFFFFFFF AND SWAP2 POP CALLER PUSH1 0xA PUSH1 0x0 DUP7 DUP2 MSTORE PUSH1 0x20 ADD SWAP1 DUP2 MSTORE PUSH1 0x20 ADD PUSH1 0x0 KECCAK256 PUSH1 0x0 PUSH2 0x100 EXP DUP2 SLOAD DUP2 PUSH20 0xFFFFFFFFFFFFFFFFFFFFFFFFFFFFFFFFFFFFFFFF MUL NOT AND SWAP1 DUP4 PUSH20 0xFFFFFFFFFFFFFFFFFFFFFFFFFFFFFFFFFFFFFFFF AND MUL OR SWAP1 SSTORE POP PUSH1 0xB PUSH1 0x0 DUP4 PUSH20 0xFFFFFFFFFFFFFFFFFFFFFFFFFFFFFFFFFFFFFFFF AND PUSH20 0xFFFFFFFFFFFFFFFFFFFFFFFFFFFFFFFFFFFFFFFF AND DUP2 MSTORE PUSH1 0x20 ADD SWAP1 DUP2 MSTORE PUSH1 0x20 ADD PUSH1 0x0 KECCAK256 PUSH1 0x0 DUP2 SLOAD DUP1 SWAP3 SWAP2 SWAP1 PUSH1 0x1 SWAP1 SUB SWAP2 SWAP1 POP SSTORE POP PUSH1 0xB PUSH1 0x0 CALLER PUSH20 0xFFFFFFFFFFFFFFFFFFFFFFFFFFFFFFFFFFFFFFFF AND PUSH20 0xFFFFFFFFFFFFFFFFFFFFFFFFFFFFFFFFFFFFFFFF AND DUP2 MSTORE PUSH1 0x20 ADD SWAP1 DUP2 MSTORE PUSH1 0x20 ADD PUSH1 0x0 KECCAK256 PUSH1 0x0 DUP2 SLOAD DUP1 SWAP3 SWAP2 SWAP1 PUSH1 0x1 ADD SWAP2 SWAP1 POP SSTORE POP CALLER PUSH20 0xFFFFFFFFFFFFFFFFFFFFFFFFFFFFFFFFFFFFFFFF AND DUP3 PUSH20 0xFFFFFFFFFFFFFFFFFFFFFFFFFFFFFFFFFFFFFFFF AND PUSH32 0xDDF252AD1BE2C89B69C2B068FC378DAA952BA7F163C4A11628F55A4DF523B3EF PUSH1 0x1 PUSH1 0x40 MLOAD DUP1 DUP3 DUP2 MSTORE PUSH1 0x20 ADD SWAP2 POP POP PUSH1 0x40 MLOAD DUP1 SWAP2 SUB SWAP1 LOG3 PUSH2 0x1AD3 DUP5 PUSH2 0x2D52 JUMP JUMPDEST CALLVALUE PUSH1 0xE PUSH1 0x0 DUP5 PUSH20 0xFFFFFFFFFFFFFFFFFFFFFFFFFFFFFFFFFFFFFFFF AND PUSH20 0xFFFFFFFFFFFFFFFFFFFFFFFFFFFFFFFFFFFFFFFF AND DUP2 MSTORE PUSH1 0x20 ADD SWAP1 DUP2 MSTORE PUSH1 0x20 ADD PUSH1 0x0 KECCAK256 PUSH1 0x0 DUP3 DUP3 SLOAD ADD SWAP3 POP POP DUP2 SWAP1 SSTORE POP CALLER PUSH20 0xFFFFFFFFFFFFFFFFFFFFFFFFFFFFFFFFFFFFFFFF AND DUP3 PUSH20 0xFFFFFFFFFFFFFFFFFFFFFFFFFFFFFFFFFFFFFFFF AND DUP6 PUSH32 0x58E5D5A525E3B40BC15ABAA38B5882678DB1EE68BEFD2F60BAFE3A7FD06DB9E3 CALLVALUE PUSH1 0x40 MLOAD DUP1 DUP3 DUP2 MSTORE PUSH1 0x20 ADD SWAP2 POP POP PUSH1 0x40 MLOAD DUP1 SWAP2 SUB SWAP1 LOG4 PUSH1 0xD PUSH1 0x0 DUP6 DUP2 MSTORE PUSH1 0x20 ADD SWAP1 DUP2 MSTORE PUSH1 0x20 ADD PUSH1 0x0 KECCAK256 SWAP1 POP CALLER PUSH20 0xFFFFFFFFFFFFFFFFFFFFFFFFFFFFFFFFFFFFFFFF AND DUP2 PUSH1 0x2 ADD PUSH1 0x0 SWAP1 SLOAD SWAP1 PUSH2 0x100 EXP SWAP1 DIV PUSH20 0xFFFFFFFFFFFFFFFFFFFFFFFFFFFFFFFFFFFFFFFF AND PUSH20 0xFFFFFFFFFFFFFFFFFFFFFFFFFFFFFFFFFFFFFFFF AND EQ ISZERO PUSH2 0x1D13 JUMPI DUP1 PUSH1 0x3 ADD SLOAD PUSH1 0xE PUSH1 0x0 CALLER PUSH20 0xFFFFFFFFFFFFFFFFFFFFFFFFFFFFFFFFFFFFFFFF AND PUSH20 0xFFFFFFFFFFFFFFFFFFFFFFFFFFFFFFFFFFFFFFFF AND DUP2 MSTORE PUSH1 0x20 ADD SWAP1 DUP2 MSTORE PUSH1 0x20 ADD PUSH1 0x0 KECCAK256 PUSH1 0x0 DUP3 DUP3 SLOAD ADD SWAP3 POP POP DUP2 SWAP1 SSTORE POP PUSH1 0x80 PUSH1 0x40 MLOAD SWAP1 DUP2 ADD PUSH1 0x40 MSTORE DUP1 PUSH1 0x0 ISZERO ISZERO DUP2 MSTORE PUSH1 0x20 ADD DUP6 DUP2 MSTORE PUSH1 0x20 ADD PUSH1 0x0 PUSH20 0xFFFFFFFFFFFFFFFFFFFFFFFFFFFFFFFFFFFFFFFF AND DUP2 MSTORE PUSH1 0x20 ADD PUSH1 0x0 DUP2 MSTORE POP PUSH1 0xD PUSH1 0x0 DUP7 DUP2 MSTORE PUSH1 0x20 ADD SWAP1 DUP2 MSTORE PUSH1 0x20 ADD PUSH1 0x0 KECCAK256 PUSH1 0x0 DUP3 ADD MLOAD DUP2 PUSH1 0x0 ADD PUSH1 0x0 PUSH2 0x100 EXP DUP2 SLOAD DUP2 PUSH1 0xFF MUL NOT AND SWAP1 DUP4 ISZERO ISZERO MUL OR SWAP1 SSTORE POP PUSH1 0x20 DUP3 ADD MLOAD DUP2 PUSH1 0x1 ADD SSTORE PUSH1 0x40 DUP3 ADD MLOAD DUP2 PUSH1 0x2 ADD PUSH1 0x0 PUSH2 0x100 EXP DUP2 SLOAD DUP2 PUSH20 0xFFFFFFFFFFFFFFFFFFFFFFFFFFFFFFFFFFFFFFFF MUL NOT AND SWAP1 DUP4 PUSH20 0xFFFFFFFFFFFFFFFFFFFFFFFFFFFFFFFFFFFFFFFF AND MUL OR SWAP1 SSTORE POP PUSH1 0x60 DUP3 ADD MLOAD DUP2 PUSH1 0x3 ADD SSTORE SWAP1 POP POP JUMPDEST POP POP POP POP JUMP JUMPDEST PUSH1 0x0 PUSH1 0x8 PUSH1 0x0 SWAP1 SLOAD SWAP1 PUSH2 0x100 EXP SWAP1 DIV PUSH1 0xFF AND ISZERO ISZERO PUSH2 0x1D36 JUMPI PUSH1 0x0 DUP1 REVERT JUMPDEST CALLER PUSH20 0xFFFFFFFFFFFFFFFFFFFFFFFFFFFFFFFFFFFFFFFF AND PUSH1 0xA PUSH1 0x0 DUP5 DUP2 MSTORE PUSH1 0x20 ADD SWAP1 DUP2 MSTORE PUSH1 0x20 ADD PUSH1 0x0 KECCAK256 PUSH1 0x0 SWAP1 SLOAD SWAP1 PUSH2 0x100 EXP SWAP1 DIV PUSH20 0xFFFFFFFFFFFFFFFFFFFFFFFFFFFFFFFFFFFFFFFF AND PUSH20 0xFFFFFFFFFFFFFFFFFFFFFFFFFFFFFFFFFFFFFFFF AND EQ ISZERO ISZERO PUSH2 0x1DA3 JUMPI PUSH1 0x0 DUP1 REVERT JUMPDEST PUSH2 0x2710 DUP3 LT ISZERO ISZERO PUSH2 0x1DB3 JUMPI PUSH1 0x0 DUP1 REVERT JUMPDEST PUSH1 0xC PUSH1 0x0 DUP4 DUP2 MSTORE PUSH1 0x20 ADD SWAP1 DUP2 MSTORE PUSH1 0x20 ADD PUSH1 0x0 KECCAK256 PUSH1 0x0 ADD PUSH1 0x0 SWAP1 SLOAD SWAP1 PUSH2 0x100 EXP SWAP1 DIV PUSH1 0xFF AND ISZERO PUSH2 0x1DE6 JUMPI PUSH2 0x1DE5 DUP3 PUSH2 0x2D52 JUMP JUMPDEST JUMPDEST DUP3 PUSH1 0xA PUSH1 0x0 DUP5 DUP2 MSTORE PUSH1 0x20 ADD SWAP1 DUP2 MSTORE PUSH1 0x20 ADD PUSH1 0x0 KECCAK256 PUSH1 0x0 PUSH2 0x100 EXP DUP2 SLOAD DUP2 PUSH20 0xFFFFFFFFFFFFFFFFFFFFFFFFFFFFFFFFFFFFFFFF MUL NOT AND SWAP1 DUP4 PUSH20 0xFFFFFFFFFFFFFFFFFFFFFFFFFFFFFFFFFFFFFFFF AND MUL OR SWAP1 SSTORE POP PUSH1 0xB PUSH1 0x0 CALLER PUSH20 0xFFFFFFFFFFFFFFFFFFFFFFFFFFFFFFFFFFFFFFFF AND PUSH20 0xFFFFFFFFFFFFFFFFFFFFFFFFFFFFFFFFFFFFFFFF AND DUP2 MSTORE PUSH1 0x20 ADD SWAP1 DUP2 MSTORE PUSH1 0x20 ADD PUSH1 0x0 KECCAK256 PUSH1 0x0 DUP2 SLOAD DUP1 SWAP3 SWAP2 SWAP1 PUSH1 0x1 SWAP1 SUB SWAP2 SWAP1 POP SSTORE POP PUSH1 0xB PUSH1 0x0 DUP5 PUSH20 0xFFFFFFFFFFFFFFFFFFFFFFFFFFFFFFFFFFFFFFFF AND PUSH20 0xFFFFFFFFFFFFFFFFFFFFFFFFFFFFFFFFFFFFFFFF AND DUP2 MSTORE PUSH1 0x20 ADD SWAP1 DUP2 MSTORE PUSH1 0x20 ADD PUSH1 0x0 KECCAK256 PUSH1 0x0 DUP2 SLOAD DUP1 SWAP3 SWAP2 SWAP1 PUSH1 0x1 ADD SWAP2 SWAP1 POP SSTORE POP DUP3 PUSH20 0xFFFFFFFFFFFFFFFFFFFFFFFFFFFFFFFFFFFFFFFF AND CALLER PUSH20 0xFFFFFFFFFFFFFFFFFFFFFFFFFFFFFFFFFFFFFFFF AND PUSH32 0xDDF252AD1BE2C89B69C2B068FC378DAA952BA7F163C4A11628F55A4DF523B3EF PUSH1 0x1 PUSH1 0x40 MLOAD DUP1 DUP3 DUP2 MSTORE PUSH1 0x20 ADD SWAP2 POP POP PUSH1 0x40 MLOAD DUP1 SWAP2 SUB SWAP1 LOG3 DUP3 PUSH20 0xFFFFFFFFFFFFFFFFFFFFFFFFFFFFFFFFFFFFFFFF AND CALLER PUSH20 0xFFFFFFFFFFFFFFFFFFFFFFFFFFFFFFFFFFFFFFFF AND PUSH32 0x5AF636B70DA6819000C49F85B21FA82081C632069BB626F30932034099107D8 DUP5 PUSH1 0x40 MLOAD DUP1 DUP3 DUP2 MSTORE PUSH1 0x20 ADD SWAP2 POP POP PUSH1 0x40 MLOAD DUP1 SWAP2 SUB SWAP1 LOG3 PUSH1 0xD PUSH1 0x0 DUP4 DUP2 MSTORE PUSH1 0x20 ADD SWAP1 DUP2 MSTORE PUSH1 0x20 ADD PUSH1 0x0 KECCAK256 SWAP1 POP DUP3 PUSH20 0xFFFFFFFFFFFFFFFFFFFFFFFFFFFFFFFFFFFFFFFF AND DUP2 PUSH1 0x2 ADD PUSH1 0x0 SWAP1 SLOAD SWAP1 PUSH2 0x100 EXP SWAP1 DIV PUSH20 0xFFFFFFFFFFFFFFFFFFFFFFFFFFFFFFFFFFFFFFFF AND PUSH20 0xFFFFFFFFFFFFFFFFFFFFFFFFFFFFFFFFFFFFFFFF AND EQ ISZERO PUSH2 0x212F JUMPI DUP1 PUSH1 0x3 ADD SLOAD PUSH1 0xE PUSH1 0x0 DUP6 PUSH20 0xFFFFFFFFFFFFFFFFFFFFFFFFFFFFFFFFFFFFFFFF AND PUSH20 0xFFFFFFFFFFFFFFFFFFFFFFFFFFFFFFFFFFFFFFFF AND DUP2 MSTORE PUSH1 0x20 ADD SWAP1 DUP2 MSTORE PUSH1 0x20 ADD PUSH1 0x0 KECCAK256 PUSH1 0x0 DUP3 DUP3 SLOAD ADD SWAP3 POP POP DUP2 SWAP1 SSTORE POP PUSH1 0x80 PUSH1 0x40 MLOAD SWAP1 DUP2 ADD PUSH1 0x40 MSTORE DUP1 PUSH1 0x0 ISZERO ISZERO DUP2 MSTORE PUSH1 0x20 ADD DUP4 DUP2 MSTORE PUSH1 0x20 ADD PUSH1 0x0 PUSH20 0xFFFFFFFFFFFFFFFFFFFFFFFFFFFFFFFFFFFFFFFF AND DUP2 MSTORE PUSH1 0x20 ADD PUSH1 0x0 DUP2 MSTORE POP PUSH1 0xD PUSH1 0x0 DUP5 DUP2 MSTORE PUSH1 0x20 ADD SWAP1 DUP2 MSTORE PUSH1 0x20 ADD PUSH1 0x0 KECCAK256 PUSH1 0x0 DUP3 ADD MLOAD DUP2 PUSH1 0x0 ADD PUSH1 0x0 PUSH2 0x100 EXP DUP2 SLOAD DUP2 PUSH1 0xFF MUL NOT AND SWAP1 DUP4 ISZERO ISZERO MUL OR SWAP1 SSTORE POP PUSH1 0x20 DUP3 ADD MLOAD DUP2 PUSH1 0x1 ADD SSTORE PUSH1 0x40 DUP3 ADD MLOAD DUP2 PUSH1 0x2 ADD PUSH1 0x0 PUSH2 0x100 EXP DUP2 SLOAD DUP2 PUSH20 0xFFFFFFFFFFFFFFFFFFFFFFFFFFFFFFFFFFFFFFFF MUL NOT AND SWAP1 DUP4 PUSH20 0xFFFFFFFFFFFFFFFFFFFFFFFFFFFFFFFFFFFFFFFF AND MUL OR SWAP1 SSTORE POP PUSH1 0x60 DUP3 ADD MLOAD DUP2 PUSH1 0x3 ADD SSTORE SWAP1 POP POP JUMPDEST POP POP POP JUMP JUMPDEST PUSH1 0x4 DUP1 SLOAD PUSH1 0x1 DUP2 PUSH1 0x1 AND ISZERO PUSH2 0x100 MUL SUB AND PUSH1 0x2 SWAP1 DIV DUP1 PUSH1 0x1F ADD PUSH1 0x20 DUP1 SWAP2 DIV MUL PUSH1 0x20 ADD PUSH1 0x40 MLOAD SWAP1 DUP2 ADD PUSH1 0x40 MSTORE DUP1 SWAP3 SWAP2 SWAP1 DUP2 DUP2 MSTORE PUSH1 0x20 ADD DUP3 DUP1 SLOAD PUSH1 0x1 DUP2 PUSH1 0x1 AND ISZERO PUSH2 0x100 MUL SUB AND PUSH1 0x2 SWAP1 DIV DUP1 ISZERO PUSH2 0x21CA JUMPI DUP1 PUSH1 0x1F LT PUSH2 0x219F JUMPI PUSH2 0x100 DUP1 DUP4 SLOAD DIV MUL DUP4 MSTORE SWAP2 PUSH1 0x20 ADD SWAP2 PUSH2 0x21CA JUMP JUMPDEST DUP3 ADD SWAP2 SWAP1 PUSH1 0x0 MSTORE PUSH1 0x20 PUSH1 0x0 KECCAK256 SWAP1 JUMPDEST DUP2 SLOAD DUP2 MSTORE SWAP1 PUSH1 0x1 ADD SWAP1 PUSH1 0x20 ADD DUP1 DUP4 GT PUSH2 0x21AD JUMPI DUP3 SWAP1 SUB PUSH1 0x1F AND DUP3 ADD SWAP2 JUMPDEST POP POP POP POP POP DUP2 JUMP JUMPDEST PUSH1 0x0 DUP1 PUSH2 0x2710 DUP4 LT ISZERO ISZERO PUSH2 0x21E5 JUMPI PUSH1 0x0 DUP1 REVERT JUMPDEST PUSH1 0x8 PUSH1 0x0 SWAP1 SLOAD SWAP1 PUSH2 0x100 EXP SWAP1 DIV PUSH1 0xFF AND ISZERO ISZERO PUSH2 0x2200 JUMPI PUSH1 0x0 DUP1 REVERT JUMPDEST PUSH1 0x0 PUSH1 0xA PUSH1 0x0 DUP6 DUP2 MSTORE PUSH1 0x20 ADD SWAP1 DUP2 MSTORE PUSH1 0x20 ADD PUSH1 0x0 KECCAK256 PUSH1 0x0 SWAP1 SLOAD SWAP1 PUSH2 0x100 EXP SWAP1 DIV PUSH20 0xFFFFFFFFFFFFFFFFFFFFFFFFFFFFFFFFFFFFFFFF AND PUSH20 0xFFFFFFFFFFFFFFFFFFFFFFFFFFFFFFFFFFFFFFFF AND EQ ISZERO PUSH2 0x2257 JUMPI PUSH1 0x0 DUP1 REVERT JUMPDEST CALLER PUSH20 0xFFFFFFFFFFFFFFFFFFFFFFFFFFFFFFFFFFFFFFFF AND PUSH1 0xA PUSH1 0x0 DUP6 DUP2 MSTORE PUSH1 0x20 ADD SWAP1 DUP2 MSTORE PUSH1 0x20 ADD PUSH1 0x0 KECCAK256 PUSH1 0x0 SWAP1 SLOAD SWAP1 PUSH2 0x100 EXP SWAP1 DIV PUSH20 0xFFFFFFFFFFFFFFFFFFFFFFFFFFFFFFFFFFFFFFFF AND PUSH20 0xFFFFFFFFFFFFFFFFFFFFFFFFFFFFFFFFFFFFFFFF AND EQ ISZERO PUSH2 0x22C3 JUMPI PUSH1 0x0 DUP1 REVERT JUMPDEST PUSH1 0xD PUSH1 0x0 DUP5 DUP2 MSTORE PUSH1 0x20 ADD SWAP1 DUP2 MSTORE PUSH1 0x20 ADD PUSH1 0x0 KECCAK256 SWAP2 POP CALLER PUSH20 0xFFFFFFFFFFFFFFFFFFFFFFFFFFFFFFFFFFFFFFFF AND DUP3 PUSH1 0x2 ADD PUSH1 0x0 SWAP1 SLOAD SWAP1 PUSH2 0x100 EXP SWAP1 DIV PUSH20 0xFFFFFFFFFFFFFFFFFFFFFFFFFFFFFFFFFFFFFFFF AND PUSH20 0xFFFFFFFFFFFFFFFFFFFFFFFFFFFFFFFFFFFFFFFF AND EQ ISZERO ISZERO PUSH2 0x2336 JUMPI PUSH1 0x0 DUP1 REVERT JUMPDEST CALLER PUSH20 0xFFFFFFFFFFFFFFFFFFFFFFFFFFFFFFFFFFFFFFFF AND DUP4 PUSH32 0x6F30E1EE4D81DCC7A8A478577F65D2ED2EDB120565960AC45FE7C50551C87932 DUP5 PUSH1 0x3 ADD SLOAD PUSH1 0x40 MLOAD DUP1 DUP3 DUP2 MSTORE PUSH1 0x20 ADD SWAP2 POP POP PUSH1 0x40 MLOAD DUP1 SWAP2 SUB SWAP1 LOG3 DUP2 PUSH1 0x3 ADD SLOAD SWAP1 POP PUSH1 0x80 PUSH1 0x40 MLOAD SWAP1 DUP2 ADD PUSH1 0x40 MSTORE DUP1 PUSH1 0x0 ISZERO ISZERO DUP2 MSTORE PUSH1 0x20 ADD DUP5 DUP2 MSTORE PUSH1 0x20 ADD PUSH1 0x0 PUSH20 0xFFFFFFFFFFFFFFFFFFFFFFFFFFFFFFFFFFFFFFFF AND DUP2 MSTORE PUSH1 0x20 ADD PUSH1 0x0 DUP2 MSTORE POP PUSH1 0xD PUSH1 0x0 DUP6 DUP2 MSTORE PUSH1 0x20 ADD SWAP1 DUP2 MSTORE PUSH1 0x20 ADD PUSH1 0x0 KECCAK256 PUSH1 0x0 DUP3 ADD MLOAD DUP2 PUSH1 0x0 ADD PUSH1 0x0 PUSH2 0x100 EXP DUP2 SLOAD DUP2 PUSH1 0xFF MUL NOT AND SWAP1 DUP4 ISZERO ISZERO MUL OR SWAP1 SSTORE POP PUSH1 0x20 DUP3 ADD MLOAD DUP2 PUSH1 0x1 ADD SSTORE PUSH1 0x40 DUP3 ADD MLOAD DUP2 PUSH1 0x2 ADD PUSH1 0x0 PUSH2 0x100 EXP DUP2 SLOAD DUP2 PUSH20 0xFFFFFFFFFFFFFFFFFFFFFFFFFFFFFFFFFFFFFFFF MUL NOT AND SWAP1 DUP4 PUSH20 0xFFFFFFFFFFFFFFFFFFFFFFFFFFFFFFFFFFFFFFFF AND MUL OR SWAP1 SSTORE POP PUSH1 0x60 DUP3 ADD MLOAD DUP2 PUSH1 0x3 ADD SSTORE SWAP1 POP POP CALLER PUSH20 0xFFFFFFFFFFFFFFFFFFFFFFFFFFFFFFFFFFFFFFFF AND PUSH2 0x8FC DUP3 SWAP1 DUP2 ISZERO MUL SWAP1 PUSH1 0x40 MLOAD PUSH1 0x0 PUSH1 0x40 MLOAD DUP1 DUP4 SUB DUP2 DUP6 DUP9 DUP9 CALL SWAP4 POP POP POP POP ISZERO DUP1 ISZERO PUSH2 0x24A4 JUMPI RETURNDATASIZE PUSH1 0x0 DUP1 RETURNDATACOPY RETURNDATASIZE PUSH1 0x0 REVERT JUMPDEST POP POP POP POP JUMP JUMPDEST PUSH1 0x1 PUSH1 0x0 SWAP1 SLOAD SWAP1 PUSH2 0x100 EXP SWAP1 DIV PUSH20 0xFFFFFFFFFFFFFFFFFFFFFFFFFFFFFFFFFFFFFFFF AND PUSH20 0xFFFFFFFFFFFFFFFFFFFFFFFFFFFFFFFFFFFFFFFF AND CALLER PUSH20 0xFFFFFFFFFFFFFFFFFFFFFFFFFFFFFFFFFFFFFFFF AND EQ ISZERO ISZERO PUSH2 0x2506 JUMPI PUSH1 0x0 DUP1 REVERT JUMPDEST PUSH1 0x8 PUSH1 0x0 SWAP1 SLOAD SWAP1 PUSH2 0x100 EXP SWAP1 DIV PUSH1 0xFF AND ISZERO PUSH2 0x2520 JUMPI PUSH1 0x0 DUP1 REVERT JUMPDEST PUSH2 0x2710 DUP2 LT ISZERO ISZERO PUSH2 0x2530 JUMPI PUSH1 0x0 DUP1 REVERT JUMPDEST DUP2 PUSH20 0xFFFFFFFFFFFFFFFFFFFFFFFFFFFFFFFFFFFFFFFF AND PUSH1 0xA PUSH1 0x0 DUP4 DUP2 MSTORE PUSH1 0x20 ADD SWAP1 DUP2 MSTORE PUSH1 0x20 ADD PUSH1 0x0 KECCAK256 PUSH1 0x0 SWAP1 SLOAD SWAP1 PUSH2 0x100 EXP SWAP1 DIV PUSH20 0xFFFFFFFFFFFFFFFFFFFFFFFFFFFFFFFFFFFFFFFF AND PUSH20 0xFFFFFFFFFFFFFFFFFFFFFFFFFFFFFFFFFFFFFFFF AND EQ ISZERO ISZERO PUSH2 0x2777 JUMPI PUSH1 0x0 PUSH1 0xA PUSH1 0x0 DUP4 DUP2 MSTORE PUSH1 0x20 ADD SWAP1 DUP2 MSTORE PUSH1 0x20 ADD PUSH1 0x0 KECCAK256 PUSH1 0x0 SWAP1 SLOAD SWAP1 PUSH2 0x100 EXP SWAP1 DIV PUSH20 0xFFFFFFFFFFFFFFFFFFFFFFFFFFFFFFFFFFFFFFFF AND PUSH20 0xFFFFFFFFFFFFFFFFFFFFFFFFFFFFFFFFFFFFFFFF AND EQ ISZERO ISZERO PUSH2 0x2673 JUMPI PUSH1 0xB PUSH1 0x0 PUSH1 0xA PUSH1 0x0 DUP5 DUP2 MSTORE PUSH1 0x20 ADD SWAP1 DUP2 MSTORE PUSH1 0x20 ADD PUSH1 0x0 KECCAK256 PUSH1 0x0 SWAP1 SLOAD SWAP1 PUSH2 0x100 EXP SWAP1 DIV PUSH20 0xFFFFFFFFFFFFFFFFFFFFFFFFFFFFFFFFFFFFFFFF AND PUSH20 0xFFFFFFFFFFFFFFFFFFFFFFFFFFFFFFFFFFFFFFFF AND PUSH20 0xFFFFFFFFFFFFFFFFFFFFFFFFFFFFFFFFFFFFFFFF AND DUP2 MSTORE PUSH1 0x20 ADD SWAP1 DUP2 MSTORE PUSH1 0x20 ADD PUSH1 0x0 KECCAK256 PUSH1 0x0 DUP2 SLOAD DUP1 SWAP3 SWAP2 SWAP1 PUSH1 0x1 SWAP1 SUB SWAP2 SWAP1 POP SSTORE POP PUSH2 0x2687 JUMP JUMPDEST PUSH1 0x9 PUSH1 0x0 DUP2 SLOAD DUP1 SWAP3 SWAP2 SWAP1 PUSH1 0x1 SWAP1 SUB SWAP2 SWAP1 POP SSTORE POP JUMPDEST DUP2 PUSH1 0xA PUSH1 0x0 DUP4 DUP2 MSTORE PUSH1 0x20 ADD SWAP1 DUP2 MSTORE PUSH1 0x20 ADD PUSH1 0x0 KECCAK256 PUSH1 0x0 PUSH2 0x100 EXP DUP2 SLOAD DUP2 PUSH20 0xFFFFFFFFFFFFFFFFFFFFFFFFFFFFFFFFFFFFFFFF MUL NOT AND SWAP1 DUP4 PUSH20 0xFFFFFFFFFFFFFFFFFFFFFFFFFFFFFFFFFFFFFFFF AND MUL OR SWAP1 SSTORE POP PUSH1 0xB PUSH1 0x0 DUP4 PUSH20 0xFFFFFFFFFFFFFFFFFFFFFFFFFFFFFFFFFFFFFFFF AND PUSH20 0xFFFFFFFFFFFFFFFFFFFFFFFFFFFFFFFFFFFFFFFF AND DUP2 MSTORE PUSH1 0x20 ADD SWAP1 DUP2 MSTORE PUSH1 0x20 ADD PUSH1 0x0 KECCAK256 PUSH1 0x0 DUP2 SLOAD DUP1 SWAP3 SWAP2 SWAP1 PUSH1 0x1 ADD SWAP2 SWAP1 POP SSTORE POP DUP2 PUSH20 0xFFFFFFFFFFFFFFFFFFFFFFFFFFFFFFFFFFFFFFFF AND PUSH32 0x8A0E37B73A0D9C82E205D4D1A3FF3D0B57CE5F4D7BCCF6BAC03336DC101CB7BA DUP3 PUSH1 0x40 MLOAD DUP1 DUP3 DUP2 MSTORE PUSH1 0x20 ADD SWAP2 POP POP PUSH1 0x40 MLOAD DUP1 SWAP2 SUB SWAP1 LOG2 JUMPDEST POP POP JUMP JUMPDEST PUSH1 0x8 PUSH1 0x0 SWAP1 SLOAD SWAP1 PUSH2 0x100 EXP SWAP1 DIV PUSH1 0xFF AND ISZERO ISZERO PUSH2 0x2796 JUMPI PUSH1 0x0 DUP1 REVERT JUMPDEST CALLER PUSH20 0xFFFFFFFFFFFFFFFFFFFFFFFFFFFFFFFFFFFFFFFF AND PUSH1 0xA PUSH1 0x0 DUP6 DUP2 MSTORE PUSH1 0x20 ADD SWAP1 DUP2 MSTORE PUSH1 0x20 ADD PUSH1 0x0 KECCAK256 PUSH1 0x0 SWAP1 SLOAD SWAP1 PUSH2 0x100 EXP SWAP1 DIV PUSH20 0xFFFFFFFFFFFFFFFFFFFFFFFFFFFFFFFFFFFFFFFF AND PUSH20 0xFFFFFFFFFFFFFFFFFFFFFFFFFFFFFFFFFFFFFFFF AND EQ ISZERO ISZERO PUSH2 0x2803 JUMPI PUSH1 0x0 DUP1 REVERT JUMPDEST PUSH2 0x2710 DUP4 LT ISZERO ISZERO PUSH2 0x2813 JUMPI PUSH1 0x0 DUP1 REVERT JUMPDEST PUSH1 0xA0 PUSH1 0x40 MLOAD SWAP1 DUP2 ADD PUSH1 0x40 MSTORE DUP1 PUSH1 0x1 ISZERO ISZERO DUP2 MSTORE PUSH1 0x20 ADD DUP5 DUP2 MSTORE PUSH1 0x20 ADD CALLER PUSH20 0xFFFFFFFFFFFFFFFFFFFFFFFFFFFFFFFFFFFFFFFF AND DUP2 MSTORE PUSH1 0x20 ADD DUP4 DUP2 MSTORE PUSH1 0x20 ADD DUP3 PUSH20 0xFFFFFFFFFFFFFFFFFFFFFFFFFFFFFFFFFFFFFFFF AND DUP2 MSTORE POP PUSH1 0xC PUSH1 0x0 DUP6 DUP2 MSTORE PUSH1 0x20 ADD SWAP1 DUP2 MSTORE PUSH1 0x20 ADD PUSH1 0x0 KECCAK256 PUSH1 0x0 DUP3 ADD MLOAD DUP2 PUSH1 0x0 ADD PUSH1 0x0 PUSH2 0x100 EXP DUP2 SLOAD DUP2 PUSH1 0xFF MUL NOT AND SWAP1 DUP4 ISZERO ISZERO MUL OR SWAP1 SSTORE POP PUSH1 0x20 DUP3 ADD MLOAD DUP2 PUSH1 0x1 ADD SSTORE PUSH1 0x40 DUP3 ADD MLOAD DUP2 PUSH1 0x2 ADD PUSH1 0x0 PUSH2 0x100 EXP DUP2 SLOAD DUP2 PUSH20 0xFFFFFFFFFFFFFFFFFFFFFFFFFFFFFFFFFFFFFFFF MUL NOT AND SWAP1 DUP4 PUSH20 0xFFFFFFFFFFFFFFFFFFFFFFFFFFFFFFFFFFFFFFFF AND MUL OR SWAP1 SSTORE POP PUSH1 0x60 DUP3 ADD MLOAD DUP2 PUSH1 0x3 ADD SSTORE PUSH1 0x80 DUP3 ADD MLOAD DUP2 PUSH1 0x4 ADD PUSH1 0x0 PUSH2 0x100 EXP DUP2 SLOAD DUP2 PUSH20 0xFFFFFFFFFFFFFFFFFFFFFFFFFFFFFFFFFFFFFFFF MUL NOT AND SWAP1 DUP4 PUSH20 0xFFFFFFFFFFFFFFFFFFFFFFFFFFFFFFFFFFFFFFFF AND MUL OR SWAP1 SSTORE POP SWAP1 POP POP DUP1 PUSH20 0xFFFFFFFFFFFFFFFFFFFFFFFFFFFFFFFFFFFFFFFF AND DUP4 PUSH32 0x3C7B682D5DA98001A9B8CBDA6C647D2C63D698A4184FD1D55E2CE7B66F5D21EB DUP5 PUSH1 0x40 MLOAD DUP1 DUP3 DUP2 MSTORE PUSH1 0x20 ADD SWAP2 POP POP PUSH1 0x40 MLOAD DUP1 SWAP2 SUB SWAP1 LOG3 POP POP POP JUMP JUMPDEST PUSH1 0x9 SLOAD DUP2 JUMP JUMPDEST PUSH1 0x8 PUSH1 0x0 SWAP1 SLOAD SWAP1 PUSH2 0x100 EXP SWAP1 DIV PUSH1 0xFF AND ISZERO ISZERO PUSH2 0x29B7 JUMPI PUSH1 0x0 DUP1 REVERT JUMPDEST CALLER PUSH20 0xFFFFFFFFFFFFFFFFFFFFFFFFFFFFFFFFFFFFFFFF AND PUSH1 0xA PUSH1 0x0 DUP5 DUP2 MSTORE PUSH1 0x20 ADD SWAP1 DUP2 MSTORE PUSH1 0x20 ADD PUSH1 0x0 KECCAK256 PUSH1 0x0 SWAP1 SLOAD SWAP1 PUSH2 0x100 EXP SWAP1 DIV PUSH20 0xFFFFFFFFFFFFFFFFFFFFFFFFFFFFFFFFFFFFFFFF AND PUSH20 0xFFFFFFFFFFFFFFFFFFFFFFFFFFFFFFFFFFFFFFFF AND EQ ISZERO ISZERO PUSH2 0x2A24 JUMPI PUSH1 0x0 DUP1 REVERT JUMPDEST PUSH2 0x2710 DUP3 LT ISZERO ISZERO PUSH2 0x2A34 JUMPI PUSH1 0x0 DUP1 REVERT JUMPDEST PUSH1 0xA0 PUSH1 0x40 MLOAD SWAP1 DUP2 ADD PUSH1 0x40 MSTORE DUP1 PUSH1 0x1 ISZERO ISZERO DUP2 MSTORE PUSH1 0x20 ADD DUP4 DUP2 MSTORE PUSH1 0x20 ADD CALLER PUSH20 0xFFFFFFFFFFFFFFFFFFFFFFFFFFFFFFFFFFFFFFFF AND DUP2 MSTORE PUSH1 0x20 ADD DUP3 DUP2 MSTORE PUSH1 0x20 ADD PUSH1 0x0 PUSH20 0xFFFFFFFFFFFFFFFFFFFFFFFFFFFFFFFFFFFFFFFF AND DUP2 MSTORE POP PUSH1 0xC PUSH1 0x0 DUP5 DUP2 MSTORE PUSH1 0x20 ADD SWAP1 DUP2 MSTORE PUSH1 0x20 ADD PUSH1 0x0 KECCAK256 PUSH1 0x0 DUP3 ADD MLOAD DUP2 PUSH1 0x0 ADD PUSH1 0x0 PUSH2 0x100 EXP DUP2 SLOAD DUP2 PUSH1 0xFF MUL NOT AND SWAP1 DUP4 ISZERO ISZERO MUL OR SWAP1 SSTORE POP PUSH1 0x20 DUP3 ADD MLOAD DUP2 PUSH1 0x1 ADD SSTORE PUSH1 0x40 DUP3 ADD MLOAD DUP2 PUSH1 0x2 ADD PUSH1 0x0 PUSH2 0x100 EXP DUP2 SLOAD DUP2 PUSH20 0xFFFFFFFFFFFFFFFFFFFFFFFFFFFFFFFFFFFFFFFF MUL NOT AND SWAP1 DUP4 PUSH20 0xFFFFFFFFFFFFFFFFFFFFFFFFFFFFFFFFFFFFFFFF AND MUL OR SWAP1 SSTORE POP PUSH1 0x60 DUP3 ADD MLOAD DUP2 PUSH1 0x3 ADD SSTORE PUSH1 0x80 DUP3 ADD MLOAD DUP2 PUSH1 0x4 ADD PUSH1 0x0 PUSH2 0x100 EXP DUP2 SLOAD DUP2 PUSH20 0xFFFFFFFFFFFFFFFFFFFFFFFFFFFFFFFFFFFFFFFF MUL NOT AND SWAP1 DUP4 PUSH20 0xFFFFFFFFFFFFFFFFFFFFFFFFFFFFFFFFFFFFFFFF AND MUL OR SWAP1 SSTORE POP SWAP1 POP POP PUSH1 0x0 DUP3 PUSH32 0x3C7B682D5DA98001A9B8CBDA6C647D2C63D698A4184FD1D55E2CE7B66F5D21EB DUP4 PUSH1 0x40 MLOAD DUP1 DUP3 DUP2 MSTORE PUSH1 0x20 ADD SWAP2 POP POP PUSH1 0x40 MLOAD DUP1 SWAP2 SUB SWAP1 LOG3 POP POP JUMP JUMPDEST PUSH1 0x8 PUSH1 0x0 SWAP1 SLOAD SWAP1 PUSH2 0x100 EXP SWAP1 DIV PUSH1 0xFF AND ISZERO ISZERO PUSH2 0x2BBD JUMPI PUSH1 0x0 DUP1 REVERT JUMPDEST PUSH1 0x0 PUSH1 0x9 SLOAD EQ ISZERO PUSH2 0x2BCD JUMPI PUSH1 0x0 DUP1 REVERT JUMPDEST PUSH1 0x0 PUSH1 0xA PUSH1 0x0 DUP4 DUP2 MSTORE PUSH1 0x20 ADD SWAP1 DUP2 MSTORE PUSH1 0x20 ADD PUSH1 0x0 KECCAK256 PUSH1 0x0 SWAP1 SLOAD SWAP1 PUSH2 0x100 EXP SWAP1 DIV PUSH20 0xFFFFFFFFFFFFFFFFFFFFFFFFFFFFFFFFFFFFFFFF AND PUSH20 0xFFFFFFFFFFFFFFFFFFFFFFFFFFFFFFFFFFFFFFFF AND EQ ISZERO ISZERO PUSH2 0x2C25 JUMPI PUSH1 0x0 DUP1 REVERT JUMPDEST PUSH2 0x2710 DUP2 LT ISZERO ISZERO PUSH2 0x2C35 JUMPI PUSH1 0x0 DUP1 REVERT JUMPDEST CALLER PUSH1 0xA PUSH1 0x0 DUP4 DUP2 MSTORE PUSH1 0x20 ADD SWAP1 DUP2 MSTORE PUSH1 0x20 ADD PUSH1 0x0 KECCAK256 PUSH1 0x0 PUSH2 0x100 EXP DUP2 SLOAD DUP2 PUSH20 0xFFFFFFFFFFFFFFFFFFFFFFFFFFFFFFFFFFFFFFFF MUL NOT AND SWAP1 DUP4 PUSH20 0xFFFFFFFFFFFFFFFFFFFFFFFFFFFFFFFFFFFFFFFF AND MUL OR SWAP1 SSTORE POP PUSH1 0xB PUSH1 0x0 CALLER PUSH20 0xFFFFFFFFFFFFFFFFFFFFFFFFFFFFFFFFFFFFFFFF AND PUSH20 0xFFFFFFFFFFFFFFFFFFFFFFFFFFFFFFFFFFFFFFFF AND DUP2 MSTORE PUSH1 0x20 ADD SWAP1 DUP2 MSTORE PUSH1 0x20 ADD PUSH1 0x0 KECCAK256 PUSH1 0x0 DUP2 SLOAD DUP1 SWAP3 SWAP2 SWAP1 PUSH1 0x1 ADD SWAP2 SWAP1 POP SSTORE POP PUSH1 0x9 PUSH1 0x0 DUP2 SLOAD DUP1 SWAP3 SWAP2 SWAP1 PUSH1 0x1 SWAP1 SUB SWAP2 SWAP1 POP SSTORE POP CALLER PUSH20 0xFFFFFFFFFFFFFFFFFFFFFFFFFFFFFFFFFFFFFFFF AND PUSH32 0x8A0E37B73A0D9C82E205D4D1A3FF3D0B57CE5F4D7BCCF6BAC03336DC101CB7BA DUP3 PUSH1 0x40 MLOAD DUP1 DUP3 DUP2 MSTORE PUSH1 0x20 ADD SWAP2 POP POP PUSH1 0x40 MLOAD DUP1 SWAP2 SUB SWAP1 LOG2 POP JUMP JUMPDEST PUSH1 0xE PUSH1 0x20 MSTORE DUP1 PUSH1 0x0 MSTORE PUSH1 0x40 PUSH1 0x0 KECCAK256 PUSH1 0x0 SWAP2 POP SWAP1 POP SLOAD DUP2 JUMP JUMPDEST PUSH1 0x8 PUSH1 0x0 SWAP1 SLOAD SWAP1 PUSH2 0x100 EXP SWAP1 DIV PUSH1 0xFF AND ISZERO ISZERO PUSH2 0x2D6D JUMPI PUSH1 0x0 DUP1 REVERT JUMPDEST CALLER PUSH20 0xFFFFFFFFFFFFFFFFFFFFFFFFFFFFFFFFFFFFFFFF AND PUSH1 0xA PUSH1 0x0 DUP4 DUP2 MSTORE PUSH1 0x20 ADD SWAP1 DUP2 MSTORE PUSH1 0x20 ADD PUSH1 0x0 KECCAK256 PUSH1 0x0 SWAP1 SLOAD SWAP1 PUSH2 0x100 EXP SWAP1 DIV PUSH20 0xFFFFFFFFFFFFFFFFFFFFFFFFFFFFFFFFFFFFFFFF AND PUSH20 0xFFFFFFFFFFFFFFFFFFFFFFFFFFFFFFFFFFFFFFFF AND EQ ISZERO ISZERO PUSH2 0x2DDA JUMPI PUSH1 0x0 DUP1 REVERT JUMPDEST PUSH2 0x2710 DUP2 LT ISZERO ISZERO PUSH2 0x2DEA JUMPI PUSH1 0x0 DUP1 REVERT JUMPDEST PUSH1 0xA0 PUSH1 0x40 MLOAD SWAP1 DUP2 ADD PUSH1 0x40 MSTORE DUP1 PUSH1 0x0 ISZERO ISZERO DUP2 MSTORE PUSH1 0x20 ADD DUP3 DUP2 MSTORE PUSH1 0x20 ADD CALLER PUSH20 0xFFFFFFFFFFFFFFFFFFFFFFFFFFFFFFFFFFFFFFFF AND DUP2 MSTORE PUSH1 0x20 ADD PUSH1 0x0 DUP2 MSTORE PUSH1 0x20 ADD PUSH1 0x0 PUSH20 0xFFFFFFFFFFFFFFFFFFFFFFFFFFFFFFFFFFFFFFFF AND DUP2 MSTORE POP PUSH1 0xC PUSH1 0x0 DUP4 DUP2 MSTORE PUSH1 0x20 ADD SWAP1 DUP2 MSTORE PUSH1 0x20 ADD PUSH1 0x0 KECCAK256 PUSH1 0x0 DUP3 ADD MLOAD DUP2 PUSH1 0x0 ADD PUSH1 0x0 PUSH2 0x100 EXP DUP2 SLOAD DUP2 PUSH1 0xFF MUL NOT AND SWAP1 DUP4 ISZERO ISZERO MUL OR SWAP1 SSTORE POP PUSH1 0x20 DUP3 ADD MLOAD DUP2 PUSH1 0x1 ADD SSTORE PUSH1 0x40 DUP3 ADD MLOAD DUP2 PUSH1 0x2 ADD PUSH1 0x0 PUSH2 0x100 EXP DUP2 SLOAD DUP2 PUSH20 0xFFFFFFFFFFFFFFFFFFFFFFFFFFFFFFFFFFFFFFFF MUL NOT AND SWAP1 DUP4 PUSH20 0xFFFFFFFFFFFFFFFFFFFFFFFFFFFFFFFFFFFFFFFF AND MUL OR SWAP1 SSTORE POP PUSH1 0x60 DUP3 ADD MLOAD DUP2 PUSH1 0x3 ADD SSTORE PUSH1 0x80 DUP3 ADD MLOAD DUP2 PUSH1 0x4 ADD PUSH1 0x0 PUSH2 0x100 EXP DUP2 SLOAD DUP2 PUSH20 0xFFFFFFFFFFFFFFFFFFFFFFFFFFFFFFFFFFFFFFFF MUL NOT AND SWAP1 DUP4 PUSH20 0xFFFFFFFFFFFFFFFFFFFFFFFFFFFFFFFFFFFFFFFF AND MUL OR SWAP1 SSTORE POP SWAP1 POP POP DUP1 PUSH32 0xB0E0A660B4E50F26F0B7CE75C24655FC76CC66E3334A54FF410277229FA10BD4 PUSH1 0x40 MLOAD PUSH1 0x40 MLOAD DUP1 SWAP2 SUB SWAP1 LOG2 POP JUMP STOP LOG1 PUSH6 0x627A7A723058 KECCAK256 0x1f SWAP16 0xb0 0xb3 0xed PUSH20 0x4D247853694A109C191B546685277EC9A3FB991A 0xc1 0x4f 0xee 0xcb 0x25 0xd7 STOP 0x29 "
				},
				"gasEstimates": {
					"creation": {
						"codeDepositCost": "2430200",
						"executionCost": "infinite",
						"totalCost": "infinite"
					},
					"external": {
						"acceptBidForPunk(uint256,uint256)": "240427",
						"allInitialOwnersAssigned()": "20984",
						"allPunksAssigned()": "772",
						"balanceOf(address)": "818",
						"buyPunk(uint256)": "262799",
						"decimals()": "552",
						"enterBidForPunk(uint256)": "105175",
						"getPunk(uint256)": "63942",
						"imageHash()": "infinite",
						"name()": "infinite",
						"nextPunkIndexToAssign()": "592",
						"offerPunkForSale(uint256,uint256)": "104297",
						"offerPunkForSaleToAddress(uint256,uint256,address)": "104294",
						"pendingWithdrawals(address)": "1082",
						"punkBids(uint256)": "1596",
						"punkIndexToAddress(uint256)": "783",
						"punkNoLongerForSale(uint256)": "88669",
						"punksOfferedForSale(uint256)": "1634",
						"punksRemainingToAssign()": "878",
						"setInitialOwner(address,uint256)": "64709",
						"setInitialOwners(address[],uint256[])": "infinite",
						"standard()": "infinite",
						"symbol()": "infinite",
						"totalSupply()": "460",
						"transferPunk(address,uint256)": "240875",
						"withdraw()": "infinite",
						"withdrawBidForPunk(uint256)": "infinite"
					}
				},
				"methodIdentifiers": {
					"acceptBidForPunk(uint256,uint256)": "23165b75",
					"allInitialOwnersAssigned()": "7ecedac9",
					"allPunksAssigned()": "8126c38a",
					"balanceOf(address)": "70a08231",
					"buyPunk(uint256)": "8264fe98",
					"decimals()": "313ce567",
					"enterBidForPunk(uint256)": "091dbfd2",
					"getPunk(uint256)": "c81d1d5b",
					"imageHash()": "51605d80",
					"name()": "06fdde03",
					"nextPunkIndexToAssign()": "52f29a25",
					"offerPunkForSale(uint256,uint256)": "c44193c3",
					"offerPunkForSaleToAddress(uint256,uint256,address)": "bf31196f",
					"pendingWithdrawals(address)": "f3f43703",
					"punkBids(uint256)": "6e743fa9",
					"punkIndexToAddress(uint256)": "58178168",
					"punkNoLongerForSale(uint256)": "f6eeff1e",
					"punksOfferedForSale(uint256)": "088f11f3",
					"punksRemainingToAssign()": "c0d6ce63",
					"setInitialOwner(address,uint256)": "a75a9049",
					"setInitialOwners(address[],uint256[])": "39c5dde6",
					"standard()": "5a3b7e42",
					"symbol()": "95d89b41",
					"totalSupply()": "18160ddd",
					"transferPunk(address,uint256)": "8b72a2ec",
					"withdraw()": "3ccfd60b",
					"withdrawBidForPunk(uint256)": "979bc638"
				}
			},
			"userdoc": {
				"methods": {}
			}
		}
	}
}